{
  "address": "0x6F4e2219bAABD5Fe054975A6139733AEAD710965",
  "abi": [
    {
      "inputs": [
        {
          "internalType": "address",
          "name": "contractOwner",
          "type": "address"
        }
      ],
      "stateMutability": "nonpayable",
      "type": "constructor"
    },
    {
      "inputs": [],
      "name": "AlreadyClaimed",
      "type": "error"
    },
    {
      "inputs": [
        {
          "internalType": "uint256",
          "name": "currentTime",
          "type": "uint256"
        },
        {
          "internalType": "uint256",
          "name": "deadline",
          "type": "uint256"
        }
      ],
      "name": "DeadlineOver",
      "type": "error"
    },
    {
      "inputs": [
        {
          "internalType": "address",
          "name": "addr",
          "type": "address"
        }
      ],
      "name": "InvalidAddress",
      "type": "error"
    },
    {
      "inputs": [],
      "name": "InvalidSignature",
      "type": "error"
    },
    {
      "inputs": [
        {
          "internalType": "uint256",
          "name": "tokenID",
          "type": "uint256"
        }
      ],
      "name": "NonExistentToken",
      "type": "error"
    },
    {
      "inputs": [],
      "name": "NonceOverflow",
      "type": "error"
    },
    {
      "inputs": [],
      "name": "NotAuthorized",
      "type": "error"
    },
    {
      "inputs": [
        {
          "internalType": "address",
          "name": "provided",
          "type": "address"
        },
        {
          "internalType": "address",
          "name": "currentOwner",
          "type": "address"
        }
      ],
      "name": "NotOwner",
      "type": "error"
    },
    {
      "inputs": [],
      "name": "TransferRejected",
      "type": "error"
    },
    {
      "anonymous": false,
      "inputs": [
        {
          "indexed": true,
          "internalType": "address",
          "name": "owner",
          "type": "address"
        },
        {
          "indexed": true,
          "internalType": "address",
          "name": "approved",
          "type": "address"
        },
        {
          "indexed": true,
          "internalType": "uint256",
          "name": "tokenID",
          "type": "uint256"
        }
      ],
      "name": "Approval",
      "type": "event"
    },
    {
      "anonymous": false,
      "inputs": [
        {
          "indexed": true,
          "internalType": "address",
          "name": "owner",
          "type": "address"
        },
        {
          "indexed": true,
          "internalType": "address",
          "name": "operator",
          "type": "address"
        },
        {
          "indexed": false,
          "internalType": "bool",
          "name": "approved",
          "type": "bool"
        }
      ],
      "name": "ApprovalForAll",
      "type": "event"
    },
    {
      "anonymous": false,
      "inputs": [
        {
          "indexed": true,
          "internalType": "address",
          "name": "previousOwner",
          "type": "address"
        },
        {
          "indexed": true,
          "internalType": "address",
          "name": "newOwner",
          "type": "address"
        }
      ],
      "name": "OwnershipTransferred",
      "type": "event"
    },
    {
      "anonymous": false,
      "inputs": [
        {
          "indexed": true,
          "internalType": "address",
          "name": "from",
          "type": "address"
        },
        {
          "indexed": true,
          "internalType": "address",
          "name": "to",
          "type": "address"
        },
        {
          "indexed": true,
          "internalType": "uint256",
          "name": "tokenID",
          "type": "uint256"
        }
      ],
      "name": "Transfer",
      "type": "event"
    },
    {
      "inputs": [],
      "name": "DOMAIN_SEPARATOR",
      "outputs": [
        {
          "internalType": "bytes32",
          "name": "",
          "type": "bytes32"
        }
      ],
      "stateMutability": "view",
      "type": "function"
    },
    {
      "inputs": [
        {
          "internalType": "address",
          "name": "operator",
          "type": "address"
        },
        {
          "internalType": "uint256",
          "name": "tokenID",
          "type": "uint256"
        }
      ],
      "name": "approve",
      "outputs": [],
      "stateMutability": "nonpayable",
      "type": "function"
    },
    {
      "inputs": [
        {
          "internalType": "address",
          "name": "owner",
          "type": "address"
        }
      ],
      "name": "balanceOf",
      "outputs": [
        {
          "internalType": "uint256",
          "name": "balance",
          "type": "uint256"
        }
      ],
      "stateMutability": "view",
      "type": "function"
    },
    {
      "inputs": [
        {
          "internalType": "uint256",
          "name": "tokenID",
          "type": "uint256"
        }
      ],
      "name": "claimOwnership",
      "outputs": [],
      "stateMutability": "nonpayable",
      "type": "function"
    },
    {
      "inputs": [],
      "name": "contractURI",
      "outputs": [
        {
          "internalType": "string",
          "name": "",
          "type": "string"
        }
      ],
      "stateMutability": "view",
      "type": "function"
    },
    {
      "inputs": [],
      "name": "eip712Domain",
      "outputs": [
        {
          "internalType": "bytes1",
          "name": "fields",
          "type": "bytes1"
        },
        {
          "internalType": "string",
          "name": "name",
          "type": "string"
        },
        {
          "internalType": "string",
          "name": "version",
          "type": "string"
        },
        {
          "internalType": "uint256",
          "name": "chainID",
          "type": "uint256"
        },
        {
          "internalType": "address",
          "name": "verifyingContract",
          "type": "address"
        },
        {
          "internalType": "bytes32",
          "name": "salt",
          "type": "bytes32"
        },
        {
          "internalType": "uint256[]",
          "name": "extensions",
          "type": "uint256[]"
        }
      ],
      "stateMutability": "view",
      "type": "function"
    },
    {
      "inputs": [
        {
          "internalType": "uint256[]",
          "name": "tokenIDs",
          "type": "uint256[]"
        }
      ],
      "name": "emitMultipleSelfTransferEvents",
      "outputs": [],
      "stateMutability": "nonpayable",
      "type": "function"
    },
    {
      "inputs": [
        {
          "internalType": "uint256",
          "name": "tokenID",
          "type": "uint256"
        }
      ],
      "name": "emitSelfTransferEvent",
      "outputs": [],
      "stateMutability": "nonpayable",
      "type": "function"
    },
    {
      "inputs": [
        {
          "internalType": "uint256",
          "name": "tokenID",
          "type": "uint256"
        }
      ],
      "name": "getApproved",
      "outputs": [
        {
          "internalType": "address",
          "name": "operator",
          "type": "address"
        }
      ],
      "stateMutability": "view",
      "type": "function"
    },
    {
      "inputs": [
        {
          "internalType": "address",
          "name": "owner",
          "type": "address"
        },
        {
          "internalType": "address",
          "name": "operator",
          "type": "address"
        }
      ],
      "name": "isApprovedForAll",
      "outputs": [
        {
          "internalType": "bool",
          "name": "isOperator",
          "type": "bool"
        }
      ],
      "stateMutability": "view",
      "type": "function"
    },
    {
      "inputs": [],
      "name": "name",
      "outputs": [
        {
          "internalType": "string",
          "name": "",
          "type": "string"
        }
      ],
      "stateMutability": "pure",
      "type": "function"
    },
    {
      "inputs": [
        {
          "internalType": "uint256",
          "name": "tokenID",
          "type": "uint256"
        }
      ],
      "name": "nonces",
      "outputs": [
        {
          "internalType": "uint256",
          "name": "nonce",
          "type": "uint256"
        }
      ],
      "stateMutability": "view",
      "type": "function"
    },
    {
      "inputs": [
        {
          "internalType": "address",
          "name": "account",
          "type": "address"
        }
      ],
      "name": "nonces",
      "outputs": [
        {
          "internalType": "uint256",
          "name": "nonce",
          "type": "uint256"
        }
      ],
      "stateMutability": "view",
      "type": "function"
    },
    {
      "inputs": [],
      "name": "owner",
      "outputs": [
        {
          "internalType": "address",
          "name": "",
          "type": "address"
        }
      ],
      "stateMutability": "view",
      "type": "function"
    },
    {
      "inputs": [
        {
          "internalType": "uint256[]",
          "name": "ids",
          "type": "uint256[]"
        }
      ],
      "name": "ownerAndLastTransferBlockNumberList",
      "outputs": [
        {
          "components": [
            {
              "internalType": "address",
              "name": "owner",
              "type": "address"
            },
            {
              "internalType": "uint256",
              "name": "lastTransferBlockNumber",
              "type": "uint256"
            }
          ],
          "internalType": "struct IERC721WithBlocknumber.OwnerData[]",
          "name": "ownersData",
          "type": "tuple[]"
        }
      ],
      "stateMutability": "view",
      "type": "function"
    },
    {
      "inputs": [
        {
          "internalType": "uint256",
          "name": "tokenID",
          "type": "uint256"
        }
      ],
      "name": "ownerAndLastTransferBlockNumberOf",
      "outputs": [
        {
          "internalType": "address",
          "name": "owner",
          "type": "address"
        },
        {
          "internalType": "uint256",
          "name": "blockNumber",
          "type": "uint256"
        }
      ],
      "stateMutability": "view",
      "type": "function"
    },
    {
      "inputs": [
        {
          "internalType": "uint256",
          "name": "tokenID",
          "type": "uint256"
        }
      ],
      "name": "ownerOf",
      "outputs": [
        {
          "internalType": "address",
          "name": "owner",
          "type": "address"
        }
      ],
      "stateMutability": "view",
      "type": "function"
    },
    {
      "inputs": [
        {
          "internalType": "address",
          "name": "spender",
          "type": "address"
        },
        {
          "internalType": "uint256",
          "name": "tokenID",
          "type": "uint256"
        },
        {
          "internalType": "uint256",
          "name": "deadline",
          "type": "uint256"
        },
        {
          "internalType": "bytes",
          "name": "sig",
          "type": "bytes"
        }
      ],
      "name": "permit",
      "outputs": [],
      "stateMutability": "nonpayable",
      "type": "function"
    },
    {
      "inputs": [
        {
          "internalType": "address",
          "name": "owner",
          "type": "address"
        },
        {
          "internalType": "address",
          "name": "spender",
          "type": "address"
        },
        {
          "internalType": "uint256",
          "name": "deadline",
          "type": "uint256"
        },
        {
          "internalType": "bytes",
          "name": "sig",
          "type": "bytes"
        }
      ],
      "name": "permitForAll",
      "outputs": [],
      "stateMutability": "nonpayable",
      "type": "function"
    },
    {
      "inputs": [
        {
          "internalType": "address",
          "name": "from",
          "type": "address"
        },
        {
          "internalType": "address",
          "name": "to",
          "type": "address"
        },
        {
          "internalType": "uint256",
          "name": "tokenID",
          "type": "uint256"
        }
      ],
      "name": "safeTransferFrom",
      "outputs": [],
      "stateMutability": "nonpayable",
      "type": "function"
    },
    {
      "inputs": [
        {
          "internalType": "address",
          "name": "from",
          "type": "address"
        },
        {
          "internalType": "address",
          "name": "to",
          "type": "address"
        },
        {
          "internalType": "uint256",
          "name": "tokenID",
          "type": "uint256"
        },
        {
          "internalType": "bytes",
          "name": "data",
          "type": "bytes"
        }
      ],
      "name": "safeTransferFrom",
      "outputs": [],
      "stateMutability": "nonpayable",
      "type": "function"
    },
    {
      "inputs": [
        {
          "internalType": "address",
          "name": "operator",
          "type": "address"
        },
        {
          "internalType": "bool",
          "name": "approved",
          "type": "bool"
        }
      ],
      "name": "setApprovalForAll",
      "outputs": [],
      "stateMutability": "nonpayable",
      "type": "function"
    },
    {
      "inputs": [
        {
          "internalType": "string",
          "name": "name",
          "type": "string"
        }
      ],
      "name": "setENSName",
      "outputs": [],
      "stateMutability": "nonpayable",
      "type": "function"
    },
    {
      "inputs": [
        {
          "internalType": "bytes4",
          "name": "interfaceID",
          "type": "bytes4"
        }
      ],
      "name": "supportsInterface",
      "outputs": [
        {
          "internalType": "bool",
          "name": "",
          "type": "bool"
        }
      ],
      "stateMutability": "view",
      "type": "function"
    },
    {
      "inputs": [],
      "name": "symbol",
      "outputs": [
        {
          "internalType": "string",
          "name": "",
          "type": "string"
        }
      ],
      "stateMutability": "pure",
      "type": "function"
    },
    {
      "inputs": [
        {
          "internalType": "uint256",
          "name": "tokenID",
          "type": "uint256"
        }
      ],
      "name": "tokenNonces",
      "outputs": [
        {
          "internalType": "uint256",
          "name": "nonce",
          "type": "uint256"
        }
      ],
      "stateMutability": "view",
      "type": "function"
    },
    {
      "inputs": [
        {
          "internalType": "uint256",
          "name": "tokenID",
          "type": "uint256"
        }
      ],
      "name": "tokenURI",
      "outputs": [
        {
          "internalType": "string",
          "name": "str",
          "type": "string"
        }
      ],
      "stateMutability": "pure",
      "type": "function"
    },
    {
      "inputs": [],
      "name": "totalSupply",
      "outputs": [
        {
          "internalType": "uint256",
          "name": "",
          "type": "uint256"
        }
      ],
      "stateMutability": "pure",
      "type": "function"
    },
    {
      "inputs": [
        {
          "internalType": "address",
          "name": "from",
          "type": "address"
        },
        {
          "internalType": "address",
          "name": "to",
          "type": "address"
        },
        {
          "internalType": "uint256",
          "name": "tokenID",
          "type": "uint256"
        }
      ],
      "name": "transferFrom",
      "outputs": [],
      "stateMutability": "nonpayable",
      "type": "function"
    },
    {
      "inputs": [
        {
          "internalType": "address",
          "name": "newOwner",
          "type": "address"
        }
      ],
      "name": "transferOwnership",
      "outputs": [],
      "stateMutability": "nonpayable",
      "type": "function"
    },
    {
      "inputs": [
        {
          "internalType": "contract IERC20",
          "name": "token",
          "type": "address"
        },
        {
          "internalType": "address",
          "name": "to",
          "type": "address"
        }
      ],
      "name": "withdrawERC20",
      "outputs": [],
      "stateMutability": "nonpayable",
      "type": "function"
    }
  ],
  "transactionHash": "0x42c0acf4494fb30a31cf78a29d5cebfcfb3497925981287c139bd4f8d44580d9",
  "args": [
    "0xF78cD306b23031dE9E739A5BcDE61764e82AD5eF"
  ],
  "numDeployments": 1,
  "solcInputHash": "59ec57c3f5251d57c83a031542d9aefe",
  "bytecode": "0x60e06040523480156200001157600080fd5b5060405162003bab38038062003bab833981016040819052620000349162000247565b806e0c2e074ec69a0dfb2997ba6c7d2e1e6000826001600160a01b0381166200005a5750305b62000069600082818062000107565b5046608081905262000093816001600160a01b038416156200008c5783620001a6565b30620001a6565b60a05250506001600160a01b03821615620000f257600580546001600160a01b0319166001600160a01b0384169081179091556040516000907f8be0079c531659141344cd1fd0a4f28419497f9722a3daafe3b4186f6b6457e0908290a35b6001600160a01b031660c05250620002799050565b6001600160a01b038316600090815260016020819052604090912080549091019055801562000151576001600160a01b038416600090815260016020526040902080546000190190555b6000828152602081905260408082204360b81b6001600160a01b0380881691821790925591518593918816917fddf252ad1be2c89b69c2b068fc378daa952ba7f163c4a11628f55a4df523b3ef91a450505050565b60007f8cad95687ba82c2ce50e74f7b754645e5117c3a5bec8151c0726d5857980a866620001ef604080518082019091526008815267426c6f636b69657360c01b602082015290565b80516020918201206040516200022993928791879101938452602084019290925260408301526001600160a01b0316606082015260800190565b60405160208183030381529060405280519060200120905092915050565b6000602082840312156200025a57600080fd5b81516001600160a01b03811681146200027257600080fd5b9392505050565b60805160a05160c051613902620002a96000396000610aa5015260006116fb015260006116c501526139026000f3fe608060405234801561001057600080fd5b50600436106101e55760003560e01c80637ecebe001161010f578063b88d4fde116100a2578063e985e9c511610071578063e985e9c514610486578063f2fde38b146104c2578063f3945282146104d5578063f684a8ba146104f557600080fd5b8063b88d4fde14610445578063c87b56dd14610458578063ce7f27141461046b578063e8a3d4851461047e57600080fd5b806395d89b41116100de57806395d89b41146103d3578063a22cb4651461040c578063ab84ee6f1461041f578063adc5fcc21461043257600080fd5b80637ecebe001461036957806384b0196e146103925780638da5cb5b146103ad5780639456fbcc146103c057600080fd5b80633644e5151161018757806365d13a9b1161015657806365d13a9b1461031d57806370a0823114610330578063745a41bc1461034357806377dd4ac31461035657600080fd5b80633644e515146102bd57806342842e0e146102c557806348f3c51c146102d85780636352211e1461030a57600080fd5b8063095ea7b3116101c3578063095ea7b31461026a578063141a468c1461027f57806318160ddd146102a057806323b872dd146102aa57600080fd5b806301ffc9a7146101ea57806306fdde0314610212578063081812fc1461023f575b600080fd5b6101fd6101f836600461283a565b610508565b60405190151581526020015b60405180910390f35b604080518082019091526008815267426c6f636b69657360c01b60208201525b60405161020991906128a7565b61025261024d3660046128ba565b610528565b6040516001600160a01b039091168152602001610209565b61027d6102783660046128e8565b610598565b005b61029261028d3660046128ba565b610640565b604051908152602001610209565b600160a01b610292565b61027d6102b8366004612914565b610684565b610292610804565b61027d6102d3366004612914565b610813565b6102eb6102e63660046128ba565b610833565b604080516001600160a01b039093168352602083019190915201610209565b6102526103183660046128ba565b610853565b61027d61032b3660046128ba565b61088f565b61029261033e366004612955565b610954565b61027d610351366004612a1e565b610991565b61027d610364366004612a81565b610a29565b610292610377366004612955565b6001600160a01b031660009081526004602052604090205490565b61039a610ba3565b6040516102099796959493929190612ad2565b600554610252906001600160a01b031681565b61027d6103ce366004612b84565b610c05565b60408051808201909152600681527f424c4f434b5900000000000000000000000000000000000000000000000000006020820152610232565b61027d61041a366004612bcb565b610d2a565b61027d61042d366004612bf9565b610d39565b6102926104403660046128ba565b610dc2565b61027d610453366004612bf9565b610dcd565b6102326104663660046128ba565b610f4f565b61027d6104793660046128ba565b610fb8565b6102326110e7565b6101fd610494366004612b84565b6001600160a01b03918216600090815260026020908152604080832093909416825291909152205460ff1690565b61027d6104d0366004612955565b611116565b6104e86104e3366004612c4d565b6111ab565b6040516102099190612cc2565b61027d610503366004612c4d565b6112f3565b600061051382611331565b806105225750610522826113ca565b92915050565b600080600061053684611432565b90925090506001600160a01b03821661056a576040516338077a2b60e01b8152600481018590526024015b60405180910390fd5b801561058e575050506000908152600360205260409020546001600160a01b031690565b5060009392505050565b6000806105a48361147a565b90925090506001600160a01b0382166105d3576040516338077a2b60e01b815260048101849052602401610561565b336001600160a01b0383161480159061061057506001600160a01b038216600090815260026020908152604080832033845290915290205460ff16155b1561062e5760405163ea8e4eb560e01b815260040160405180910390fd5b61063a828286866114a2565b50505050565b600080600061064e8461147a565b90925090506001600160a01b03821661067d576040516338077a2b60e01b815260048101859052602401610561565b9392505050565b6000806000610692846115ce565b919450925090506001600160a01b0383166106c3576040516338077a2b60e01b815260048101859052602401610561565b826001600160a01b0316866001600160a01b031614610721576040517f23295f0e0000000000000000000000000000000000000000000000000000000081526001600160a01b03808816600483015284166024820152604401610561565b6001600160a01b038516158061073f57506001600160a01b03851630145b1561076857604051634726455360e11b81526001600160a01b0386166004820152602401610561565b336001600160a01b038716146107ea5780801561079b57506000848152600360205260409020546001600160a01b031633145b1580156107cc57506001600160a01b038616600090815260026020908152604080832033845290915290205460ff16155b156107ea5760405163ea8e4eb560e01b815260040160405180910390fd5b6107fc868686601886901c1515611622565b505050505050565b600061080e6116c0565b905090565b61082e83838360405180602001604052806000815250610dcd565b505050565b6000806000806108428561147a565b909660189190911c95509350505050565b600061085e82611721565b90506001600160a01b03811661088a576040516338077a2b60e01b815260048101839052602401610561565b919050565b60008061089b83611432565b90925090506001600160a01b0382166108ca576040516338077a2b60e01b815260048101849052602401610561565b60405183906001600160a01b0384169081907fddf252ad1be2c89b69c2b068fc378daa952ba7f163c4a11628f55a4df523b3ef90600090a4801561082e5760008381526003602052604080822054905185926001600160a01b03928316928616917f8c5be1e5ebec7d5bd14f71427d1e84f3dd0314c0f7b2291e5b200ac8c7c3b9259190a4505050565b600061095f82611753565b90506000610975836001600160a01b031661147a565b915050601881901c60000361098b576001909101905b50919050565b814211156109d4576040517fdd6b219a00000000000000000000000000000000000000000000000000000000815242600482015260248101839052604401610561565b6000806109e08561147a565b90925090506001600160a01b038216610a0f576040516338077a2b60e01b815260048101869052602401610561565b610a1d8287878785886117a3565b6107fc828288886114a2565b6005546001600160a01b03163314610a545760405163ea8e4eb560e01b815260040160405180910390fd5b6040517f02571be30000000000000000000000000000000000000000000000000000000081527f91d1777781884d03a6757a803996e38de2a42967fb37eeaca72729271025a9e260048201526000907f00000000000000000000000000000000000000000000000000000000000000006001600160a01b0316906302571be390602401602060405180830381865afa158015610af4573d6000803e3d6000fd5b505050506040513d601f19601f82011682018060405250810190610b189190612d1a565b6040517fc47f00270000000000000000000000000000000000000000000000000000000081529091506001600160a01b0382169063c47f002790610b609085906004016128a7565b6020604051808303816000875af1158015610b7f573d6000803e3d6000fd5b505050506040513d601f19601f8201168201806040525081019061082e9190612d37565b7f0d000000000000000000000000000000000000000000000000000000000000006060806000808083610bd46118b1565b604080516020808201835260008083528351818152918201909352999a929990985046975030965090945092509050565b6005546001600160a01b03163314610c305760405163ea8e4eb560e01b815260040160405180910390fd5b6040517f70a082310000000000000000000000000000000000000000000000000000000081523060048201526001600160a01b0383169063a9059cbb90839083906370a0823190602401602060405180830381865afa158015610c97573d6000803e3d6000fd5b505050506040513d601f19601f82011682018060405250810190610cbb9190612d37565b6040516001600160e01b031960e085901b1681526001600160a01b03909216600483015260248201526044016020604051808303816000875af1158015610d06573d6000803e3d6000fd5b505050506040513d601f19601f8201168201806040525081019061082e9190612d50565b610d353383836118d8565b5050565b81421115610d7c576040517fdd6b219a00000000000000000000000000000000000000000000000000000000815242600482015260248101839052604401610561565b6001600160a01b03841660009081526004602052604081208054610db692879287928792909190610dac83612d83565b9190505585611963565b61063a848460016118d8565b600061052282610640565b6000806000610ddb856115ce565b919450925090506001600160a01b038316610e0c576040516338077a2b60e01b815260048101869052602401610561565b866001600160a01b0316836001600160a01b031614610e6a576040517f23295f0e0000000000000000000000000000000000000000000000000000000081526001600160a01b03808916600483015284166024820152604401610561565b6001600160a01b0386161580610e8857506001600160a01b03861630145b15610eb157604051634726455360e11b81526001600160a01b0387166004820152602401610561565b336001600160a01b03881614610f3357808015610ee457506000858152600360205260409020546001600160a01b031633145b158015610f1557506001600160a01b038716600090815260026020908152604080832033845290915290205460ff16155b15610f335760405163ea8e4eb560e01b815260040160405180910390fd5b610f46878787601886901c151588611a73565b50505050505050565b606060006040518060e0016040528060af815260200161308660af91399050610f7a81604885611ad9565b610f8681608c85611ad9565b80610f9084611bb3565b604051602001610fa1929190612d9d565b604051602081830303815290604052915050919050565b600080610fc48361147a565b90925090506001600160a01b038216610ff3576040516338077a2b60e01b815260048101849052602401610561565b601881901c15801590611032576040517f646cf55800000000000000000000000000000000000000000000000000000000815260040160405180910390fd5b6001600160a01b0383163b15806110bc5750336001600160a01b0316836001600160a01b0316638da5cb5b6040518163ffffffff1660e01b8152600401602060405180830381865afa15801561108c573d6000803e3d6000fd5b505050506040513d601f19601f820116820180604052508101906110b09190612d1a565b6001600160a01b031614155b156110da5760405163ea8e4eb560e01b815260040160405180910390fd5b61063a8333866000611622565b60606110f230611bb3565b6040516020016111029190612df4565b604051602081830303815290604052905090565b6005546001600160a01b03163381146111425760405163ea8e4eb560e01b815260040160405180910390fd5b600580547fffffffffffffffffffffffff0000000000000000000000000000000000000000166001600160a01b0384811691821790925560405190918316907f8be0079c531659141344cd1fd0a4f28419497f9722a3daafe3b4186f6b6457e090600090a35050565b60608167ffffffffffffffff8111156111c6576111c6612972565b60405190808252806020026020018201604052801561120b57816020015b60408051808201909152600080825260208201528152602001906001900390816111e45790505b50905060005b828110156112ec57600084848381811061122d5761122d612f44565b602090810292909201356000818152928390526040909220549192508190506001600160a01b0381161580156112665750600160a01b83105b1561126e5750815b8085858151811061128157611281612f44565b6020026020010151600001906001600160a01b031690816001600160a01b03168152505060b882901c67ffffffffffffffff168585815181106112c6576112c6612f44565b6020026020010151602001818152505050505080806112e490612d83565b915050611211565b5092915050565b60005b8181101561082e5761131f83838381811061131357611313612f44565b9050602002013561088f565b8061132981612d83565b9150506112f6565b60007f01ffc9a7000000000000000000000000000000000000000000000000000000006001600160e01b03198316148061139457507f80ac58cd000000000000000000000000000000000000000000000000000000006001600160e01b03198316145b806105225750506001600160e01b0319167f5b5e139f000000000000000000000000000000000000000000000000000000001490565b60006001600160e01b031982167f5604e22500000000000000000000000000000000000000000000000000000000148061052257506001600160e01b031982167fefdb586b000000000000000000000000000000000000000000000000000000001492915050565b6000818152602081905260408120548190600160ff1b808216145b90925090506001600160a01b03821615801561146c5750600160a01b83105b15611475578291505b915091565b600081815260208190526040812054819060a081901c6affffffffffffffffffffff1661144d565b601883901c60006114b4856001612f5a565b905081601882901c146114f3576040517fadc1557200000000000000000000000000000000000000000000000000000000815260040160405180910390fd5b6001600160a01b03841661152657600083815260208190526040902060a082901b6001600160a01b038816179055611585565b6000838152602081815260408083206001600160a01b038a811660a087901b17600160ff1b17909155600390925290912080547fffffffffffffffffffffffff0000000000000000000000000000000000000000169186169190911790555b82846001600160a01b0316876001600160a01b03167f8c5be1e5ebec7d5bd14f71427d1e84f3dd0314c0f7b2291e5b200ac8c7c3b92560405160405180910390a4505050505050565b6000818152602081905260409020546affffffffffffffffffffff60a082901c16600160ff1b808316146001600160a01b0383161580156116125750600160a01b84105b1561161b578392505b9193909250565b6001600160a01b038316600090815260016020819052604090912080549091019055801561166b576001600160a01b038416600090815260016020526040902080546000190190555b6000828152602081905260408082204360b81b6001600160a01b0380881691821790925591518593918816917fddf252ad1be2c89b69c2b068fc378daa952ba7f163c4a11628f55a4df523b3ef91a450505050565b6000467f000000000000000000000000000000000000000000000000000000000000000081146116f9576116f48130611eb2565b61171b565b7f00000000000000000000000000000000000000000000000000000000000000005b91505090565b6000818152602081905260409020546001600160a01b03811615801561174a5750600160a01b82105b1561088a575090565b60006001600160a01b03821661178757604051634726455360e11b81526001600160a01b0383166004820152602401610561565b506001600160a01b031660009081526001602052604090205490565b60006117ad610804565b604080517f49ecf333e5b8c95c40fdafc95c1ad136e8914a8fb55e9dc8bb01eaa83a2df9ad60208201526001600160a01b03891691810191909152606081018790526080810185905260a0810186905260c001604051602081830303815290604052805190602001206040516020016118589291907f190100000000000000000000000000000000000000000000000000000000000081526002810192909252602282015260420190565b60405160208183030381529060405280519060200120905061187b878284611f51565b610f46576040517f8baa579f00000000000000000000000000000000000000000000000000000000815260040160405180910390fd5b606061080e604080518082019091526008815267426c6f636b69657360c01b602082015290565b6001600160a01b0383811660008181526002602090815260408083209487168084529482529182902080547fffffffffffffffffffffffffffffffffffffffffffffffffffffffffffffff001686151590811790915591519182527f17307eab39ab6107e8899845ad3d59bd9653f200f220920489ca2b5937696c31910160405180910390a3505050565b600061196d610804565b604080517f045d890c79ffc118c4a2872a8cf3fee78fbf03c72a35e7fae867680021f3e1a460208201526001600160a01b03808a169282019290925290871660608201526080810185905260a0810186905260c00160405160208183030381529060405280519060200120604051602001611a1a9291907f190100000000000000000000000000000000000000000000000000000000000081526002810192909252602282015260420190565b604051602081830303815290604052805190602001209050611a3d868284611f51565b6107fc576040517f8baa579f00000000000000000000000000000000000000000000000000000000815260040160405180910390fd5b611a7f85858585611622565b6001600160a01b0384163b15611ad257611a9c33868686856120c1565b611ad2576040517f4e472e5e00000000000000000000000000000000000000000000000000000000815260040160405180910390fd5b5050505050565b801561082e576040805180820190915260108082527f30313233343536373839616263646566000000000000000000000000000000006020830152611b1e9083612f83565b81518110611b2e57611b2e612f44565b01602001517fff00000000000000000000000000000000000000000000000000000000000000168383611b6081612f97565b945081518110611b7257611b72612f44565b60200101907effffffffffffffffffffffffffffffffffffffffffffffffffffffffffffff1916908160001a905350611bac601082612fae565b9050611ad9565b60606000604051806107a0016040528061076e815260200161315f61076e913990506000611be8611be385612171565b6121a5565b9050611bf6828260016122ed565b611c02828260006122ed565b611c0e828260026122ed565b60005b6008811015611ea9576000600a6380000000611c7d858051602082018051600390810b8452604084018051820b9092526060909301805180850b9283905260139290921d90911882840b600b1b90921891821891830b60081d919091189182900b905263ffffffff1690565b611c88906017612fc2565b611c929190612fae565b611c9c9190612fae565b90506000600a6380000000611d01868051602082018051600390810b8452604084018051820b9092526060909301805180850b9283905260139290921d90911882840b600b1b90921891821891830b60081d919091189182900b905263ffffffff1690565b611d0c906017612fc2565b611d169190612fae565b611d209190612fae565b90506000600a6380000000611d85878051602082018051600390810b8452604084018051820b9092526060909301805180850b9283905260139290921d90911882840b600b1b90921891821891830b60081d919091189182900b905263ffffffff1690565b611d90906017612fc2565b611d9a9190612fae565b611da49190612fae565b90506000600a6380000000611e09888051602082018051600390810b8452604084018051820b9092526060909301805180850b9283905260139290921d90911882840b600b1b90921891821891830b60081d919091189182900b905263ffffffff1690565b611e14906017612fc2565b611e1e9190612fae565b611e289190612fae565b9050611e378760008787612370565b611e448760018786612370565b611e518760028785612370565b611e5e8760038784612370565b611e6b8760048784612370565b611e788760058785612370565b611e858760068786612370565b611e928760078787612370565b505050508080611ea190612d83565b915050611c11565b50909392505050565b60007f8cad95687ba82c2ce50e74f7b754645e5117c3a5bec8151c0726d5857980a866611efa604080518082019091526008815267426c6f636b69657360c01b602082015290565b8051602091820120604051611f3393928791879101938452602084019290925260408301526001600160a01b0316606082015260800190565b60405160208183030381529060405280519060200120905092915050565b6000806000611f608585612475565b90925090506000816004811115611f7957611f79612fe1565b148015611f975750856001600160a01b0316826001600160a01b0316145b15611fa75760019250505061067d565b600080876001600160a01b0316631626ba7e60e01b8888604051602401611fcf929190612ff7565b60408051601f198184030181529181526020820180517bffffffffffffffffffffffffffffffffffffffffffffffffffffffff166001600160e01b03199094169390931790925290516120229190613010565b600060405180830381855afa9150503d806000811461205d576040519150601f19603f3d011682016040523d82523d6000602084013e612062565b606091505b5091509150818015612075575080516020145b80156120b5575080517f1626ba7e00000000000000000000000000000000000000000000000000000000906120b39083016020908101908401612d37565b145b98975050505050505050565b600080846001600160a01b031663150b7a02888887876040518563ffffffff1660e01b81526004016120f6949392919061302c565b6020604051808303816000875af1158015612115573d6000803e3d6000fd5b505050506040513d601f19601f820116820180604052508101906121399190613068565b6001600160e01b0319167f150b7a02000000000000000000000000000000000000000000000000000000001491505095945050505050565b606060006040518060600160405280602a8152602001613135602a91399050610522816029856001600160a01b0316611ad9565b6040805160808101825260008082526020820181905291810182905260608101829052905b825181101561098b57600381166000819003612216578382815181106121f2576121f2612f44565b602091010151835160f89190911c600382810b60051b9290920301900b83526122e4565b8060ff1660010361225c5783828151811061223357612233612f44565b60209101810151908401805160f89290921c600383810b60051b939093030190910b90526122e4565b8060ff166002036122a25783828151811061227957612279612f44565b60209101015160408401805160f89290921c600383810b60051b939093030190910b90526122e4565b8060ff166003036122e4578382815181106122bf576122bf612f44565b60209101015160608401805160f89290921c600383810b60051b939093030190910b90525b506001016121ca565b60008060006122fb856124ba565b9194509250905060a860ff8516600103612317575060de612327565b8460ff16600203612327575061042b5b61234087612336836000612f5a565b8661ffff166126b7565b6123588761234f836004612f5a565b8560ff166126b7565b610f4687612367836009612f5a565b8460ff166126b7565b60008160ff16600003612383575061063a565b8160ff166001036123a15761239a60de6012612f5a565b90506123bc565b8160ff166002036123bc576123b961042b6012612f5a565b90505b6000846123ca856008612fc2565b6123d49190612f5a565b6123df90600c612fc2565b6123ea856005612fc2565b6123f49084612f5a565b6123fe9190612f5a565b612409906008612f5a565b90507f310000000000000000000000000000000000000000000000000000000000000086828151811061243e5761243e612f44565b60200101907effffffffffffffffffffffffffffffffffffffffffffffffffffffffffffff1916908160001a905350505050505050565b60008082516041036124ab5760208301516040840151606085015160001a61249f87828585612734565b945094505050506124b3565b506000905060025b9250929050565b6000806000638000000061251e858051602082018051600390810b8452604084018051820b9092526060909301805180850b9283905260139290921d90911882840b600b1b90921891821891830b60081d919091189182900b905263ffffffff1690565b610168028161252f5761252f612f6d565b0492506380000000612591858051602082018051600390810b8452604084018051820b9092526060909301805180850b9283905260139290921d90911882840b600b1b90921891821891830b60081d919091189182900b905263ffffffff1690565b603c02816125a1576125a1612f6d565b0460280191506380000000612606858051602082018051600390810b8452604084018051820b9092526060909301805180850b9283905260139290921d90911882840b600b1b90921891821891830b60081d919091189182900b905263ffffffff1690565b855160208701805160408901805160608b018051600381810b808f52601390811d90921888820b600b90811b90991890811890820b600890811d9190911880830b9889905288841d90981896820b808a1b1896871896820b811d9690961880820b958690529185901d90941892840b9687901b90961891821891830b90931d189081900b90915263ffffffff9182169282169116010101601902816126ad576126ad612f6d565b0490509193909250565b801561082e576126c8600a82612f83565b6126d3906030612f5a565b60f81b83836126e181612f97565b9450815181106126f3576126f3612f44565b60200101907effffffffffffffffffffffffffffffffffffffffffffffffffffffffffffff1916908160001a90535061272d600a82612fae565b90506126b7565b6000807f7fffffffffffffffffffffffffffffff5d576e7357a4501ddfe92f46681b20a083111561276b5750600090506003612818565b8460ff16601b1415801561278357508460ff16601c14155b156127945750600090506004612818565b6040805160008082526020820180845289905260ff881692820192909252606081018690526080810185905260019060a0016020604051602081039080840390855afa1580156127e8573d6000803e3d6000fd5b5050604051601f1901519150506001600160a01b03811661281157600060019250925050612818565b9150600090505b94509492505050565b6001600160e01b03198116811461283757600080fd5b50565b60006020828403121561284c57600080fd5b813561067d81612821565b60005b8381101561287257818101518382015260200161285a565b50506000910152565b60008151808452612893816020860160208601612857565b601f01601f19169290920160200192915050565b60208152600061067d602083018461287b565b6000602082840312156128cc57600080fd5b5035919050565b6001600160a01b038116811461283757600080fd5b600080604083850312156128fb57600080fd5b8235612906816128d3565b946020939093013593505050565b60008060006060848603121561292957600080fd5b8335612934816128d3565b92506020840135612944816128d3565b929592945050506040919091013590565b60006020828403121561296757600080fd5b813561067d816128d3565b634e487b7160e01b600052604160045260246000fd5b600067ffffffffffffffff808411156129a3576129a3612972565b604051601f8501601f19908116603f011681019082821181831017156129cb576129cb612972565b816040528093508581528686860111156129e457600080fd5b858560208301376000602087830101525050509392505050565b600082601f830112612a0f57600080fd5b61067d83833560208501612988565b60008060008060808587031215612a3457600080fd5b8435612a3f816128d3565b93506020850135925060408501359150606085013567ffffffffffffffff811115612a6957600080fd5b612a75878288016129fe565b91505092959194509250565b600060208284031215612a9357600080fd5b813567ffffffffffffffff811115612aaa57600080fd5b8201601f81018413612abb57600080fd5b612aca84823560208401612988565b949350505050565b7fff00000000000000000000000000000000000000000000000000000000000000881681526000602060e081840152612b0e60e084018a61287b565b8381036040850152612b20818a61287b565b606085018990526001600160a01b038816608086015260a0850187905284810360c0860152855180825283870192509083019060005b81811015612b7257835183529284019291840191600101612b56565b50909c9b505050505050505050505050565b60008060408385031215612b9757600080fd5b8235612ba2816128d3565b91506020830135612bb2816128d3565b809150509250929050565b801515811461283757600080fd5b60008060408385031215612bde57600080fd5b8235612be9816128d3565b91506020830135612bb281612bbd565b60008060008060808587031215612c0f57600080fd5b8435612c1a816128d3565b93506020850135612c2a816128d3565b925060408501359150606085013567ffffffffffffffff811115612a6957600080fd5b60008060208385031215612c6057600080fd5b823567ffffffffffffffff80821115612c7857600080fd5b818501915085601f830112612c8c57600080fd5b813581811115612c9b57600080fd5b8660208260051b8501011115612cb057600080fd5b60209290920196919550909350505050565b602080825282518282018190526000919060409081850190868401855b82811015612d0d57815180516001600160a01b03168552860151868501529284019290850190600101612cdf565b5091979650505050505050565b600060208284031215612d2c57600080fd5b815161067d816128d3565b600060208284031215612d4957600080fd5b5051919050565b600060208284031215612d6257600080fd5b815161067d81612bbd565b634e487b7160e01b600052601160045260246000fd5b60006000198203612d9657612d96612d6d565b5060010190565b60008351612daf818460208801612857565b835190830190612dc3818360208801612857565b7f227d0000000000000000000000000000000000000000000000000000000000009101908152600201949350505050565b7f646174613a6170706c69636174696f6e2f6a736f6e2c7b226e616d65223a224f81527f6e2d636861696e253230426c6f636b696573222c226465736372697074696f6e60208201527f223a22546865253230756269717569746f7573253230426c6f636b6965732c2560408201527f323062757425323066756c6c7925323067656e6572617465642532306f6e2d6360608201527f6861696e2e25323045616368253230457468657265756d25323061646472657360808201527f732532306f776e732532306974732532306f776e253230756e6971756525323060a08201527f426c6f636b792532304e46542e222c22696d616765223a22000000000000000060c082015260008251612f108160d8850160208701612857565b7f227d00000000000000000000000000000000000000000000000000000000000060d893909101928301525060da01919050565b634e487b7160e01b600052603260045260246000fd5b8082018082111561052257610522612d6d565b634e487b7160e01b600052601260045260246000fd5b600082612f9257612f92612f6d565b500690565b600081612fa657612fa6612d6d565b506000190190565b600082612fbd57612fbd612f6d565b500490565b6000816000190483118215151615612fdc57612fdc612d6d565b500290565b634e487b7160e01b600052602160045260246000fd5b828152604060208201526000612aca604083018461287b565b60008251613022818460208701612857565b9190910192915050565b60006001600160a01b0380871683528086166020840152508360408301526080606083015261305e608083018461287b565b9695505050505050565b60006020828403121561307a57600080fd5b815161067d8161282156fe646174613a6170706c69636174696f6e2f6a736f6e2c7b226e616d65223a22307830303030303030303030303030303030303030303030303030303030303030303030303030303030222c226465736372697074696f6e223a22426c6f636b7925323030783030303030303030303030303030303030303030303030303030303030303030303030303030303025323047656e6572617465642532304f6e2d436861696e222c22696d616765223a22307830303030303030303030303030303030303030303030303030303030303030303030303030303030646174613a696d6167652f7376672b786d6c2c3c737667253230786d6c6e733d27687474703a2f2f7777772e77332e6f72672f323030302f7376672725323073686170652d72656e646572696e673d27637269737045646765732725323077696474683d27353132272532306865696768743d27353132273e3c672532307472616e73666f726d3d277363616c6528363429273e3c7061746825323066696c6c3d2768736c283030302c303030252c303030252927253230643d274d302c3068387638682d387a272f3e3c7061746825323066696c6c3d2768736c283030302c303030252c303030252927253230643d274d302c3068317630682d317a6d312c3068317630682d317a6d312c3068317630682d317a6d312c3068317630682d317a6d312c3068317630682d317a6d312c3068317630682d317a6d312c3068317630682d317a6d312c3068317630682d317a6d2d382c316d312c3068317630682d317a6d312c3068317630682d317a6d312c3068317630682d317a6d312c3068317630682d317a6d312c3068317630682d317a6d312c3068317630682d317a6d312c3068317630682d317a6d312c3068317630682d317a6d2d382c316d312c3068317630682d317a6d312c3068317630682d317a6d312c3068317630682d317a6d312c3068317630682d317a6d312c3068317630682d317a6d312c3068317630682d317a6d312c3068317630682d317a6d312c3068317630682d317a6d2d382c316d312c3068317630682d317a6d312c3068317630682d317a6d312c3068317630682d317a6d312c3068317630682d317a6d312c3068317630682d317a6d312c3068317630682d317a6d312c3068317630682d317a6d312c3068317630682d317a6d2d382c316d312c3068317630682d317a6d312c3068317630682d317a6d312c3068317630682d317a6d312c3068317630682d317a6d312c3068317630682d317a6d312c3068317630682d317a6d312c3068317630682d317a6d312c3068317630682d317a6d2d382c316d312c3068317630682d317a6d312c3068317630682d317a6d312c3068317630682d317a6d312c3068317630682d317a6d312c3068317630682d317a6d312c3068317630682d317a6d312c3068317630682d317a6d312c3068317630682d317a6d2d382c316d312c3068317630682d317a6d312c3068317630682d317a6d312c3068317630682d317a6d312c3068317630682d317a6d312c3068317630682d317a6d312c3068317630682d317a6d312c3068317630682d317a6d312c3068317630682d317a6d2d382c316d312c3068317630682d317a6d312c3068317630682d317a6d312c3068317630682d317a6d312c3068317630682d317a6d312c3068317630682d317a6d312c3068317630682d317a6d312c3068317630682d317a6d312c3068317630682d317a272f3e3c7061746825323066696c6c3d2768736c283030302c303030252c303030252927253230643d274d302c3068317630682d317a6d312c3068317630682d317a6d312c3068317630682d317a6d312c3068317630682d317a6d312c3068317630682d317a6d312c3068317630682d317a6d312c3068317630682d317a6d312c3068317630682d317a6d2d382c316d312c3068317630682d317a6d312c3068317630682d317a6d312c3068317630682d317a6d312c3068317630682d317a6d312c3068317630682d317a6d312c3068317630682d317a6d312c3068317630682d317a6d312c3068317630682d317a6d2d382c316d312c3068317630682d317a6d312c3068317630682d317a6d312c3068317630682d317a6d312c3068317630682d317a6d312c3068317630682d317a6d312c3068317630682d317a6d312c3068317630682d317a6d312c3068317630682d317a6d2d382c316d312c3068317630682d317a6d312c3068317630682d317a6d312c3068317630682d317a6d312c3068317630682d317a6d312c3068317630682d317a6d312c3068317630682d317a6d312c3068317630682d317a6d312c3068317630682d317a6d2d382c316d312c3068317630682d317a6d312c3068317630682d317a6d312c3068317630682d317a6d312c3068317630682d317a6d312c3068317630682d317a6d312c3068317630682d317a6d312c3068317630682d317a6d312c3068317630682d317a6d2d382c316d312c3068317630682d317a6d312c3068317630682d317a6d312c3068317630682d317a6d312c3068317630682d317a6d312c3068317630682d317a6d312c3068317630682d317a6d312c3068317630682d317a6d312c3068317630682d317a6d2d382c316d312c3068317630682d317a6d312c3068317630682d317a6d312c3068317630682d317a6d312c3068317630682d317a6d312c3068317630682d317a6d312c3068317630682d317a6d312c3068317630682d317a6d312c3068317630682d317a6d2d382c316d312c3068317630682d317a6d312c3068317630682d317a6d312c3068317630682d317a6d312c3068317630682d317a6d312c3068317630682d317a6d312c3068317630682d317a6d312c3068317630682d317a6d312c3068317630682d317a272f3e3c2f673e3c2f7376673ea2646970667358221220f377e6f039a2920fd19a0440986cd40f7bce05ac03c6e73c206504209ef079b564736f6c63430008100033",
  "devdoc": {
    "errors": {
      "DeadlineOver(uint256,uint256)": [
        {
          "params": {
            "currentTime": "time at which the error happen",
            "deadline": "the deadline"
          }
        }
      ],
      "InvalidAddress(address)": [
        {
          "params": {
            "addr": "invalid address"
          }
        }
      ],
      "NonExistentToken(uint256)": [
        {
          "params": {
            "tokenID": "id of the expected token"
          }
        }
      ],
      "NotOwner(address,address)": [
        {
          "params": {
            "currentOwner": "the current owner",
            "provided": "the address expected to be the current owner"
          }
        }
      ]
    },
    "kind": "dev",
    "methods": {
      "approve(address,uint256)": {
        "params": {
          "operator": "The address receiving the approval.",
          "tokenID": "The id of the token."
        }
      },
      "balanceOf(address)": {
        "params": {
          "owner": "The address to look for."
        },
        "returns": {
          "balance": "The number of tokens owned by the address."
        }
      },
      "claimOwnership(uint256)": {
        "params": {
          "tokenID": "blocky address to claim"
        }
      },
      "eip712Domain()": {
        "returns": {
          "chainID": "EIP-712 chainID",
          "extensions": "A list of EIP numbers that specify additional fields in the domain. The method to obtain the value for each of these additional fields and any conditions for inclusion are expected to be specified in the respective EIP. The value of fields does not affect their inclusion.",
          "fields": "A bit map where bit i is set to 1 if and only if domain field i is present (0  i  4). Bits are read from least significant to most significant, and fields are indexed in the order that is specified by EIP-712, identical to the order in which they are listed in the function type.",
          "name": "EIP-712 name",
          "salt": "EIP-712 salt",
          "verifyingContract": "EIP-712 name verifyingContract",
          "version": "EIP-712 version"
        }
      },
      "emitMultipleSelfTransferEvents(uint256[])": {
        "params": {
          "tokenIDs": "list of token to emit the event for."
        }
      },
      "emitSelfTransferEvent(uint256)": {
        "params": {
          "tokenID": "token to emit the event for."
        }
      },
      "getApproved(uint256)": {
        "params": {
          "tokenID": "The id of the token."
        },
        "returns": {
          "operator": "The address of the operator."
        }
      },
      "isApprovedForAll(address,address)": {
        "params": {
          "operator": "The address of the operator.",
          "owner": "The address of the owner."
        },
        "returns": {
          "isOperator": "The status of the approval."
        }
      },
      "nonces(address)": {
        "params": {
          "account": "account to query"
        },
        "returns": {
          "nonce": "account's nonce"
        }
      },
      "nonces(uint256)": {
        "params": {
          "tokenID": "token id"
        },
        "returns": {
          "nonce": "token nonce"
        }
      },
      "ownerAndLastTransferBlockNumberList(uint256[])": {
        "params": {
          "tokenIDs": "The list of token ids to check."
        },
        "returns": {
          "ownersData": "The list of (owner, lastTransferBlockNumber) for each ids given as input."
        }
      },
      "ownerAndLastTransferBlockNumberOf(uint256)": {
        "params": {
          "tokenID": "The id of the token."
        },
        "returns": {
          "blockNumber": "The blocknumber at which the last transfer of that id happened.",
          "owner": "The address of the token owner."
        }
      },
      "ownerOf(uint256)": {
        "params": {
          "tokenID": "The id of the token."
        },
        "returns": {
          "owner": "The address of the token owner."
        }
      },
      "permit(address,uint256,uint256,bytes)": {
        "details": "Anyone can call this to approve `spender`, even a third-party",
        "params": {
          "deadline": "the deadline for the permit to be used",
          "signature": "permit",
          "spender": "the actor to approve",
          "tokenID": "the token id"
        }
      },
      "permitForAll(address,address,uint256,bytes)": {
        "details": "Anyone can call this to approve `spender`, even a third-party",
        "params": {
          "deadline": "the deadline for the permit to be used",
          "signature": "permit",
          "signer": "the one giving permission",
          "spender": "the actor to approve"
        }
      },
      "safeTransferFrom(address,address,uint256)": {
        "params": {
          "from": "The send of the token.",
          "to": "The recipient of the token.",
          "tokenID": "The id of the token."
        }
      },
      "safeTransferFrom(address,address,uint256,bytes)": {
        "params": {
          "data": "Additional data.",
          "from": "The sender of the token.",
          "to": "The recipient of the token.",
          "tokenID": "The id of the token."
        }
      },
      "setApprovalForAll(address,bool)": {
        "params": {
          "approved": "The determination of the approval.",
          "operator": "The address receiving the approval."
        }
      },
      "setENSName(string)": {
        "params": {
          "name": "ENS name to set"
        }
      },
      "supportsInterface(bytes4)": {
        "details": "Interface identification is specified in ERC-165. This function  uses less than 30,000 gas.",
        "params": {
          "interfaceID": "The interface identifier, as specified in ERC-165"
        },
        "returns": {
          "_0": "`true` if the contract implements `interfaceID` and  `interfaceID` is not 0xffffffff, `false` otherwise"
        }
      },
      "tokenNonces(uint256)": {
        "params": {
          "tokenID": "token id"
        },
        "returns": {
          "nonce": "token nonce"
        }
      },
      "tokenURI(uint256)": {
        "details": "Throws if `tokenID` is not a valid NFT. URIs are defined in RFC  3986. The URI may point to a JSON file that conforms to the \"ERC721  Metadata JSON Schema\".",
        "params": {
          "tokenID": "id of the token being queried."
        }
      },
      "transferFrom(address,address,uint256)": {
        "params": {
          "from": "The sender of the token.",
          "to": "The recipient of the token.",
          "tokenID": "The id of the token."
        }
      },
      "transferOwnership(address)": {
        "details": "Set newOwner to address(0) to renounce any ownership.",
        "params": {
          "newOwner": "The address of the new owner of the contract"
        }
      },
      "withdrawERC20(address,address)": {
        "params": {
          "to": "address that will receive the tokens",
          "token": "ERC20 contract address to withdraw"
        }
      }
    },
    "title": "On-chain Blockies",
    "version": 1
  },
  "userdoc": {
    "errors": {
      "AlreadyClaimed()": [
        {
          "notice": "You attempted to claim a Blocky from an EIP-173 contract (using owner()) while the Blocky has already been claimed or transfered."
        }
      ],
      "DeadlineOver(uint256,uint256)": [
        {
          "notice": "The permit has expired"
        }
      ],
      "InvalidAddress(address)": [
        {
          "notice": "An invalid address is specified (for example: zero address)"
        }
      ],
      "InvalidSignature()": [
        {
          "notice": "The signature do not match the expected signer"
        }
      ],
      "NonExistentToken(uint256)": [
        {
          "notice": "The token does not exist"
        }
      ],
      "NonceOverflow()": [
        {
          "notice": "The Nonce overflowed, make a transfer to self to allow new nonces."
        }
      ],
      "NotAuthorized()": [
        {
          "notice": "Not authorized to perform this operation"
        }
      ],
      "NotOwner(address,address)": [
        {
          "notice": "The address from which the token is sent is not the current owner"
        }
      ],
      "TransferRejected()": [
        {
          "notice": "The Transfer was rejected by the destination"
        }
      ]
    },
    "events": {
      "Approval(address,address,uint256)": {
        "notice": "Triggered when a token is approved to be sent by another account  Note tat the approval get reset when a Transfer event for that same token is emitted."
      },
      "ApprovalForAll(address,address,bool)": {
        "notice": "Triggered when an account approve or disaprove another to transfer on its behalf"
      },
      "OwnershipTransferred(address,address)": {
        "notice": "This emits when ownership of the contract changes."
      },
      "Transfer(address,address,uint256)": {
        "notice": "Triggered when a token is transferred"
      }
    },
    "kind": "user",
    "methods": {
      "DOMAIN_SEPARATOR()": {
        "notice": "EIP-712 Domain separator hash"
      },
      "approve(address,uint256)": {
        "notice": "Approve an operator to transfer a specific token on the senders behalf."
      },
      "balanceOf(address)": {
        "notice": "Get the number of tokens owned by an address."
      },
      "claimOwnership(uint256)": {
        "notice": "claim ownership of the blocky owned by a contract.   Will only work  if you are the owner of that contract (EIP-173)."
      },
      "contractURI()": {
        "notice": "Returns the Uniform Resource Identifier (URI) for the token collection."
      },
      "eip712Domain()": {
        "notice": "The return values of this function MUST describe the domain separator that is used for verification of EIP-712 signatures in the contract. They describe both the form of the EIP712Domain struct (i.e., which of the optional fields and extensions are present) and the value of each field, as follows."
      },
      "emitMultipleSelfTransferEvents(uint256[])": {
        "notice": "emit a Transfer event where from == to for each tokenID provided so that indexers can scan them.   This can be called by anyone at any time and does not change state.   As such it keeps each token's approval state and will re-emit an Approval event to indicate that if needed."
      },
      "emitSelfTransferEvent(uint256)": {
        "notice": "emit a Transfer event where from == to so that indexers can scan the token.   This can be called by anyone at any time and does not change state.   As such it keeps the token's approval state and will re-emit an Approval event to indicate that if needed."
      },
      "getApproved(uint256)": {
        "notice": "Get the approved operator for a specific token."
      },
      "isApprovedForAll(address,address)": {
        "notice": "Check if the sender approved the operator to transfer any of its tokens."
      },
      "name()": {
        "notice": "A descriptive name for a collection of NFTs in this contract"
      },
      "nonces(address)": {
        "notice": "Allows to retrieve current nonce for the account"
      },
      "nonces(uint256)": {
        "notice": "Allows to retrieve current nonce for token"
      },
      "owner()": {
        "notice": "Get the address of the owner"
      },
      "ownerAndLastTransferBlockNumberList(uint256[])": {
        "notice": "Get the list of owner of a token and the blockNumber of its last transfer, useful to voting mechanism."
      },
      "ownerAndLastTransferBlockNumberOf(uint256)": {
        "notice": "Get the owner of a token and the blockNumber of the last transfer, useful to voting mechanism."
      },
      "ownerOf(uint256)": {
        "notice": "Get the owner of a token."
      },
      "permit(address,uint256,uint256,bytes)": {
        "notice": "function to be called by anyone to approve `spender` using a Permit signature"
      },
      "permitForAll(address,address,uint256,bytes)": {
        "notice": "function to be called by anyone to approve `spender` using a Permit signature"
      },
      "safeTransferFrom(address,address,uint256)": {
        "notice": "Transfer a token between 2 addresses letting the receiver know of the transfer."
      },
      "safeTransferFrom(address,address,uint256,bytes)": {
        "notice": "Transfer a token between 2 addresses letting the receiver knows of the transfer."
      },
      "setApprovalForAll(address,bool)": {
        "notice": "Set the approval for an operator to manage all the tokens of the sender."
      },
      "setENSName(string)": {
        "notice": "set the reverse-record name for this contract"
      },
      "supportsInterface(bytes4)": {
        "notice": "Query if a contract implements an interface"
      },
      "symbol()": {
        "notice": "An abbreviated name for NFTs in this contract"
      },
      "tokenNonces(uint256)": {
        "notice": "Allows to retrieve current nonce for token"
      },
      "tokenURI(uint256)": {
        "notice": "A distinct Uniform Resource Identifier (URI) for a given asset."
      },
      "transferFrom(address,address,uint256)": {
        "notice": "Transfer a token between 2 addresses."
      },
      "transferOwnership(address)": {
        "notice": "Set the address of the new owner of the contract"
      },
      "withdrawERC20(address,address)": {
        "notice": "withdraw the total balance of a particular ERC20 token owned by this contract."
      }
    },
    "notice": "What if Blockies were NFTs. That is what this collection is all about. Check your wallet as every ethereum address already owns its own Blocky NFT. No minting needed. You can even use Permit (EIP-4494) to approve transfers from smart contracts, via signatures. Note that unless you transfer or call `emitSelfTransferEvent` / `emitMultipleSelfTransferEvents` first, indexers would not know of your token. So if you want your Blocky to shows up, you can call `emitSelfTransferEvent(<your address>)` for ~ 26000 gas. If you are interested in multiple blockies, you can also call `emitMultipleSelfTransferEvents` for ~ 21000 + ~ 5000 gas per blocky.",
    "version": 1
  },
  "storageLayout": {
    "storage": [
      {
        "astId": 1119,
        "contract": "src/Blockies.sol:Blockies",
        "label": "_owners",
        "offset": 0,
        "slot": "0",
        "type": "t_mapping(t_uint256,t_uint256)"
      },
      {
        "astId": 1123,
        "contract": "src/Blockies.sol:Blockies",
        "label": "_balances",
        "offset": 0,
        "slot": "1",
        "type": "t_mapping(t_address,t_uint256)"
      },
      {
        "astId": 1129,
        "contract": "src/Blockies.sol:Blockies",
        "label": "_operatorsForAll",
        "offset": 0,
        "slot": "2",
        "type": "t_mapping(t_address,t_mapping(t_address,t_bool))"
      },
      {
        "astId": 1133,
        "contract": "src/Blockies.sol:Blockies",
        "label": "_operators",
        "offset": 0,
        "slot": "3",
        "type": "t_mapping(t_uint256,t_address)"
      },
      {
        "astId": 609,
        "contract": "src/Blockies.sol:Blockies",
        "label": "_userNonces",
        "offset": 0,
        "slot": "4",
        "type": "t_mapping(t_address,t_uint256)"
      },
      {
        "astId": 64,
        "contract": "src/Blockies.sol:Blockies",
        "label": "owner",
        "offset": 0,
        "slot": "5",
        "type": "t_address"
      }
    ],
    "types": {
      "t_address": {
        "encoding": "inplace",
        "label": "address",
        "numberOfBytes": "20"
      },
      "t_bool": {
        "encoding": "inplace",
        "label": "bool",
        "numberOfBytes": "1"
      },
      "t_mapping(t_address,t_bool)": {
        "encoding": "mapping",
        "key": "t_address",
        "label": "mapping(address => bool)",
        "numberOfBytes": "32",
        "value": "t_bool"
      },
      "t_mapping(t_address,t_mapping(t_address,t_bool))": {
        "encoding": "mapping",
        "key": "t_address",
        "label": "mapping(address => mapping(address => bool))",
        "numberOfBytes": "32",
        "value": "t_mapping(t_address,t_bool)"
      },
      "t_mapping(t_address,t_uint256)": {
        "encoding": "mapping",
        "key": "t_address",
        "label": "mapping(address => uint256)",
        "numberOfBytes": "32",
        "value": "t_uint256"
      },
      "t_mapping(t_uint256,t_address)": {
        "encoding": "mapping",
        "key": "t_uint256",
        "label": "mapping(uint256 => address)",
        "numberOfBytes": "32",
        "value": "t_address"
      },
      "t_mapping(t_uint256,t_uint256)": {
        "encoding": "mapping",
        "key": "t_uint256",
        "label": "mapping(uint256 => uint256)",
        "numberOfBytes": "32",
        "value": "t_uint256"
      },
      "t_uint256": {
        "encoding": "inplace",
        "label": "uint256",
        "numberOfBytes": "32"
      }
    }
  }
}