{
  "address": "0x10E2765Dc39d1f5222acaEcAb6b24c84d9D9faA6",
  "abi": [
    {
      "inputs": [
        {
          "internalType": "address",
          "name": "contractOwner",
          "type": "address"
        }
      ],
      "stateMutability": "nonpayable",
      "type": "constructor"
    },
    {
      "inputs": [],
      "name": "AlreadyClaimed",
      "type": "error"
    },
    {
      "inputs": [
        {
          "internalType": "uint256",
          "name": "currentTime",
          "type": "uint256"
        },
        {
          "internalType": "uint256",
          "name": "deadline",
          "type": "uint256"
        }
      ],
      "name": "DeadlineOver",
      "type": "error"
    },
    {
      "inputs": [
        {
          "internalType": "address",
          "name": "addr",
          "type": "address"
        }
      ],
      "name": "InvalidAddress",
      "type": "error"
    },
    {
      "inputs": [],
      "name": "InvalidSignature",
      "type": "error"
    },
    {
      "inputs": [
        {
          "internalType": "uint256",
          "name": "tokenID",
          "type": "uint256"
        }
      ],
      "name": "NonExistentToken",
      "type": "error"
    },
    {
      "inputs": [],
      "name": "NonceOverflow",
      "type": "error"
    },
    {
      "inputs": [],
      "name": "NotAuthorized",
      "type": "error"
    },
    {
      "inputs": [
        {
          "internalType": "address",
          "name": "provided",
          "type": "address"
        },
        {
          "internalType": "address",
          "name": "currentOwner",
          "type": "address"
        }
      ],
      "name": "NotOwner",
      "type": "error"
    },
    {
      "inputs": [],
      "name": "TransferRejected",
      "type": "error"
    },
    {
      "anonymous": false,
      "inputs": [
        {
          "indexed": true,
          "internalType": "address",
          "name": "owner",
          "type": "address"
        },
        {
          "indexed": true,
          "internalType": "address",
          "name": "approved",
          "type": "address"
        },
        {
          "indexed": true,
          "internalType": "uint256",
          "name": "tokenID",
          "type": "uint256"
        }
      ],
      "name": "Approval",
      "type": "event"
    },
    {
      "anonymous": false,
      "inputs": [
        {
          "indexed": true,
          "internalType": "address",
          "name": "owner",
          "type": "address"
        },
        {
          "indexed": true,
          "internalType": "address",
          "name": "operator",
          "type": "address"
        },
        {
          "indexed": false,
          "internalType": "bool",
          "name": "approved",
          "type": "bool"
        }
      ],
      "name": "ApprovalForAll",
      "type": "event"
    },
    {
      "anonymous": false,
      "inputs": [
        {
          "indexed": true,
          "internalType": "address",
          "name": "previousOwner",
          "type": "address"
        },
        {
          "indexed": true,
          "internalType": "address",
          "name": "newOwner",
          "type": "address"
        }
      ],
      "name": "OwnershipTransferred",
      "type": "event"
    },
    {
      "anonymous": false,
      "inputs": [
        {
          "indexed": true,
          "internalType": "address",
          "name": "from",
          "type": "address"
        },
        {
          "indexed": true,
          "internalType": "address",
          "name": "to",
          "type": "address"
        },
        {
          "indexed": true,
          "internalType": "uint256",
          "name": "tokenID",
          "type": "uint256"
        }
      ],
      "name": "Transfer",
      "type": "event"
    },
    {
      "inputs": [],
      "name": "DOMAIN_SEPARATOR",
      "outputs": [
        {
          "internalType": "bytes32",
          "name": "",
          "type": "bytes32"
        }
      ],
      "stateMutability": "view",
      "type": "function"
    },
    {
      "inputs": [
        {
          "internalType": "address",
          "name": "operator",
          "type": "address"
        },
        {
          "internalType": "uint256",
          "name": "tokenID",
          "type": "uint256"
        }
      ],
      "name": "approve",
      "outputs": [],
      "stateMutability": "nonpayable",
      "type": "function"
    },
    {
      "inputs": [
        {
          "internalType": "address",
          "name": "owner",
          "type": "address"
        }
      ],
      "name": "balanceOf",
      "outputs": [
        {
          "internalType": "uint256",
          "name": "balance",
          "type": "uint256"
        }
      ],
      "stateMutability": "view",
      "type": "function"
    },
    {
      "inputs": [
        {
          "internalType": "uint256",
          "name": "tokenID",
          "type": "uint256"
        }
      ],
      "name": "claimOwnership",
      "outputs": [],
      "stateMutability": "nonpayable",
      "type": "function"
    },
    {
      "inputs": [],
      "name": "contractURI",
      "outputs": [
        {
          "internalType": "string",
          "name": "",
          "type": "string"
        }
      ],
      "stateMutability": "view",
      "type": "function"
    },
    {
      "inputs": [],
      "name": "eip712Domain",
      "outputs": [
        {
          "internalType": "bytes1",
          "name": "fields",
          "type": "bytes1"
        },
        {
          "internalType": "string",
          "name": "name",
          "type": "string"
        },
        {
          "internalType": "string",
          "name": "version",
          "type": "string"
        },
        {
          "internalType": "uint256",
          "name": "chainID",
          "type": "uint256"
        },
        {
          "internalType": "address",
          "name": "verifyingContract",
          "type": "address"
        },
        {
          "internalType": "bytes32",
          "name": "salt",
          "type": "bytes32"
        },
        {
          "internalType": "uint256[]",
          "name": "extensions",
          "type": "uint256[]"
        }
      ],
      "stateMutability": "view",
      "type": "function"
    },
    {
      "inputs": [
        {
          "internalType": "uint256",
          "name": "tokenID",
          "type": "uint256"
        }
      ],
      "name": "emitSelfTransferEvent",
      "outputs": [],
      "stateMutability": "nonpayable",
      "type": "function"
    },
    {
      "inputs": [
        {
          "internalType": "uint256",
          "name": "tokenID",
          "type": "uint256"
        }
      ],
      "name": "getApproved",
      "outputs": [
        {
          "internalType": "address",
          "name": "operator",
          "type": "address"
        }
      ],
      "stateMutability": "view",
      "type": "function"
    },
    {
      "inputs": [
        {
          "internalType": "address",
          "name": "owner",
          "type": "address"
        },
        {
          "internalType": "address",
          "name": "operator",
          "type": "address"
        }
      ],
      "name": "isApprovedForAll",
      "outputs": [
        {
          "internalType": "bool",
          "name": "isOperator",
          "type": "bool"
        }
      ],
      "stateMutability": "view",
      "type": "function"
    },
    {
      "inputs": [],
      "name": "name",
      "outputs": [
        {
          "internalType": "string",
          "name": "",
          "type": "string"
        }
      ],
      "stateMutability": "pure",
      "type": "function"
    },
    {
      "inputs": [
        {
          "internalType": "uint256",
          "name": "tokenID",
          "type": "uint256"
        }
      ],
      "name": "nonces",
      "outputs": [
        {
          "internalType": "uint256",
          "name": "nonce",
          "type": "uint256"
        }
      ],
      "stateMutability": "view",
      "type": "function"
    },
    {
      "inputs": [
        {
          "internalType": "address",
          "name": "account",
          "type": "address"
        }
      ],
      "name": "nonces",
      "outputs": [
        {
          "internalType": "uint256",
          "name": "nonce",
          "type": "uint256"
        }
      ],
      "stateMutability": "view",
      "type": "function"
    },
    {
      "inputs": [],
      "name": "owner",
      "outputs": [
        {
          "internalType": "address",
          "name": "",
          "type": "address"
        }
      ],
      "stateMutability": "view",
      "type": "function"
    },
    {
      "inputs": [
        {
          "internalType": "uint256[]",
          "name": "ids",
          "type": "uint256[]"
        }
      ],
      "name": "ownerAndLastTransferBlockNumberList",
      "outputs": [
        {
          "components": [
            {
              "internalType": "address",
              "name": "owner",
              "type": "address"
            },
            {
              "internalType": "uint256",
              "name": "lastTransferBlockNumber",
              "type": "uint256"
            }
          ],
          "internalType": "struct IERC721WithBlocknumber.OwnerData[]",
          "name": "ownersData",
          "type": "tuple[]"
        }
      ],
      "stateMutability": "view",
      "type": "function"
    },
    {
      "inputs": [
        {
          "internalType": "uint256",
          "name": "tokenID",
          "type": "uint256"
        }
      ],
      "name": "ownerAndLastTransferBlockNumberOf",
      "outputs": [
        {
          "internalType": "address",
          "name": "owner",
          "type": "address"
        },
        {
          "internalType": "uint256",
          "name": "blockNumber",
          "type": "uint256"
        }
      ],
      "stateMutability": "view",
      "type": "function"
    },
    {
      "inputs": [
        {
          "internalType": "uint256",
          "name": "tokenID",
          "type": "uint256"
        }
      ],
      "name": "ownerOf",
      "outputs": [
        {
          "internalType": "address",
          "name": "owner",
          "type": "address"
        }
      ],
      "stateMutability": "view",
      "type": "function"
    },
    {
      "inputs": [
        {
          "internalType": "address",
          "name": "spender",
          "type": "address"
        },
        {
          "internalType": "uint256",
          "name": "tokenID",
          "type": "uint256"
        },
        {
          "internalType": "uint256",
          "name": "deadline",
          "type": "uint256"
        },
        {
          "internalType": "bytes",
          "name": "sig",
          "type": "bytes"
        }
      ],
      "name": "permit",
      "outputs": [],
      "stateMutability": "nonpayable",
      "type": "function"
    },
    {
      "inputs": [
        {
          "internalType": "address",
          "name": "owner",
          "type": "address"
        },
        {
          "internalType": "address",
          "name": "spender",
          "type": "address"
        },
        {
          "internalType": "uint256",
          "name": "deadline",
          "type": "uint256"
        },
        {
          "internalType": "bytes",
          "name": "sig",
          "type": "bytes"
        }
      ],
      "name": "permitForAll",
      "outputs": [],
      "stateMutability": "nonpayable",
      "type": "function"
    },
    {
      "inputs": [
        {
          "internalType": "address",
          "name": "from",
          "type": "address"
        },
        {
          "internalType": "address",
          "name": "to",
          "type": "address"
        },
        {
          "internalType": "uint256",
          "name": "tokenID",
          "type": "uint256"
        }
      ],
      "name": "safeTransferFrom",
      "outputs": [],
      "stateMutability": "nonpayable",
      "type": "function"
    },
    {
      "inputs": [
        {
          "internalType": "address",
          "name": "from",
          "type": "address"
        },
        {
          "internalType": "address",
          "name": "to",
          "type": "address"
        },
        {
          "internalType": "uint256",
          "name": "tokenID",
          "type": "uint256"
        },
        {
          "internalType": "bytes",
          "name": "data",
          "type": "bytes"
        }
      ],
      "name": "safeTransferFrom",
      "outputs": [],
      "stateMutability": "nonpayable",
      "type": "function"
    },
    {
      "inputs": [
        {
          "internalType": "address",
          "name": "operator",
          "type": "address"
        },
        {
          "internalType": "bool",
          "name": "approved",
          "type": "bool"
        }
      ],
      "name": "setApprovalForAll",
      "outputs": [],
      "stateMutability": "nonpayable",
      "type": "function"
    },
    {
      "inputs": [
        {
          "internalType": "string",
          "name": "name",
          "type": "string"
        }
      ],
      "name": "setENSName",
      "outputs": [],
      "stateMutability": "nonpayable",
      "type": "function"
    },
    {
      "inputs": [
        {
          "internalType": "bytes4",
          "name": "interfaceID",
          "type": "bytes4"
        }
      ],
      "name": "supportsInterface",
      "outputs": [
        {
          "internalType": "bool",
          "name": "",
          "type": "bool"
        }
      ],
      "stateMutability": "view",
      "type": "function"
    },
    {
      "inputs": [],
      "name": "symbol",
      "outputs": [
        {
          "internalType": "string",
          "name": "",
          "type": "string"
        }
      ],
      "stateMutability": "pure",
      "type": "function"
    },
    {
      "inputs": [
        {
          "internalType": "uint256",
          "name": "tokenID",
          "type": "uint256"
        }
      ],
      "name": "tokenNonces",
      "outputs": [
        {
          "internalType": "uint256",
          "name": "nonce",
          "type": "uint256"
        }
      ],
      "stateMutability": "view",
      "type": "function"
    },
    {
      "inputs": [
        {
          "internalType": "uint256",
          "name": "tokenID",
          "type": "uint256"
        }
      ],
      "name": "tokenURI",
      "outputs": [
        {
          "internalType": "string",
          "name": "str",
          "type": "string"
        }
      ],
      "stateMutability": "pure",
      "type": "function"
    },
    {
      "inputs": [],
      "name": "totalSupply",
      "outputs": [
        {
          "internalType": "uint256",
          "name": "",
          "type": "uint256"
        }
      ],
      "stateMutability": "pure",
      "type": "function"
    },
    {
      "inputs": [
        {
          "internalType": "address",
          "name": "from",
          "type": "address"
        },
        {
          "internalType": "address",
          "name": "to",
          "type": "address"
        },
        {
          "internalType": "uint256",
          "name": "tokenID",
          "type": "uint256"
        }
      ],
      "name": "transferFrom",
      "outputs": [],
      "stateMutability": "nonpayable",
      "type": "function"
    },
    {
      "inputs": [
        {
          "internalType": "address",
          "name": "newOwner",
          "type": "address"
        }
      ],
      "name": "transferOwnership",
      "outputs": [],
      "stateMutability": "nonpayable",
      "type": "function"
    },
    {
      "inputs": [
        {
          "internalType": "contract IERC20",
          "name": "token",
          "type": "address"
        },
        {
          "internalType": "address",
          "name": "to",
          "type": "address"
        }
      ],
      "name": "withdrawERC20",
      "outputs": [],
      "stateMutability": "nonpayable",
      "type": "function"
    }
  ],
  "transactionHash": "0x4c17fe9f301c294ce2869229382caa26515f0d786263db3afc25e1b766cbceba",
  "args": [
    "0xF78cD306b23031dE9E739A5BcDE61764e82AD5eF"
  ],
  "numDeployments": 1,
  "solcInputHash": "b39070381c1acce3db26f8d28c2eb135",
  "bytecode": "0x60e06040523480156200001157600080fd5b5060405162003b4f38038062003b4f833981016040819052620000349162000247565b806e0c2e074ec69a0dfb2997ba6c7d2e1e6000826001600160a01b0381166200005a5750305b62000069600082818062000107565b5046608081905262000093816001600160a01b038416156200008c5783620001a6565b30620001a6565b60a05250506001600160a01b03821615620000f257600580546001600160a01b0319166001600160a01b0384169081179091556040516000907f8be0079c531659141344cd1fd0a4f28419497f9722a3daafe3b4186f6b6457e0908290a35b6001600160a01b031660c05250620002799050565b6001600160a01b038316600090815260016020819052604090912080549091019055801562000151576001600160a01b038416600090815260016020526040902080546000190190555b6000828152602081905260408082204360b81b6001600160a01b0380881691821790925591518593918816917fddf252ad1be2c89b69c2b068fc378daa952ba7f163c4a11628f55a4df523b3ef91a450505050565b60007f8cad95687ba82c2ce50e74f7b754645e5117c3a5bec8151c0726d5857980a866620001ef604080518082019091526008815267426c6f636b69657360c01b602082015290565b80516020918201206040516200022993928791879101938452602084019290925260408301526001600160a01b0316606082015260800190565b60405160208183030381529060405280519060200120905092915050565b6000602082840312156200025a57600080fd5b81516001600160a01b03811681146200027257600080fd5b9392505050565b60805160a05160c0516138a6620002a96000396000610a870152600061169f0152600061166901526138a66000f3fe608060405234801561001057600080fd5b50600436106101da5760003560e01c80637ecebe0011610104578063adc5fcc2116100a2578063e8a3d48511610071578063e8a3d48514610473578063e985e9c51461047b578063f2fde38b146104b7578063f3945282146104ca57600080fd5b8063adc5fcc214610427578063b88d4fde1461043a578063c87b56dd1461044d578063ce7f27141461046057600080fd5b80639456fbcc116100de5780639456fbcc146103b557806395d89b41146103c8578063a22cb46514610401578063ab84ee6f1461041457600080fd5b80637ecebe001461035e57806384b0196e146103875780638da5cb5b146103a257600080fd5b80633644e5151161017c57806365d13a9b1161014b57806365d13a9b1461031257806370a0823114610325578063745a41bc1461033857806377dd4ac31461034b57600080fd5b80633644e515146102b257806342842e0e146102ba57806348f3c51c146102cd5780636352211e146102ff57600080fd5b8063095ea7b3116101b8578063095ea7b31461025f578063141a468c1461027457806318160ddd1461029557806323b872dd1461029f57600080fd5b806301ffc9a7146101df57806306fdde0314610207578063081812fc14610234575b600080fd5b6101f26101ed3660046127de565b6104ea565b60405190151581526020015b60405180910390f35b604080518082019091526008815267426c6f636b69657360c01b60208201525b6040516101fe919061284b565b61024761024236600461285e565b61050a565b6040516001600160a01b0390911681526020016101fe565b61027261026d36600461288c565b61057a565b005b61028761028236600461285e565b610622565b6040519081526020016101fe565b600160a01b610287565b6102726102ad3660046128b8565b610666565b6102876107e6565b6102726102c83660046128b8565b6107f5565b6102e06102db36600461285e565b610815565b604080516001600160a01b0390931683526020830191909152016101fe565b61024761030d36600461285e565b610835565b61027261032036600461285e565b610871565b6102876103333660046128f9565b610936565b6102726103463660046129c2565b610973565b610272610359366004612a25565b610a0b565b61028761036c3660046128f9565b6001600160a01b031660009081526004602052604090205490565b61038f610b85565b6040516101fe9796959493929190612a76565b600554610247906001600160a01b031681565b6102726103c3366004612b28565b610be7565b60408051808201909152600681527f424c4f434b5900000000000000000000000000000000000000000000000000006020820152610227565b61027261040f366004612b6f565b610d0c565b610272610422366004612b9d565b610d1b565b61028761043536600461285e565b610da4565b610272610448366004612b9d565b610daf565b61022761045b36600461285e565b610f31565b61027261046e36600461285e565b610f9a565b6102276110c9565b6101f2610489366004612b28565b6001600160a01b03918216600090815260026020908152604080832093909416825291909152205460ff1690565b6102726104c53660046128f9565b6110f8565b6104dd6104d8366004612bf1565b61118d565b6040516101fe9190612c66565b60006104f5826112d5565b8061050457506105048261136e565b92915050565b6000806000610518846113d6565b90925090506001600160a01b03821661054c576040516338077a2b60e01b8152600481018590526024015b60405180910390fd5b8015610570575050506000908152600360205260409020546001600160a01b031690565b5060009392505050565b6000806105868361141e565b90925090506001600160a01b0382166105b5576040516338077a2b60e01b815260048101849052602401610543565b336001600160a01b038316148015906105f257506001600160a01b038216600090815260026020908152604080832033845290915290205460ff16155b156106105760405163ea8e4eb560e01b815260040160405180910390fd5b61061c82828686611446565b50505050565b60008060006106308461141e565b90925090506001600160a01b03821661065f576040516338077a2b60e01b815260048101859052602401610543565b9392505050565b600080600061067484611572565b919450925090506001600160a01b0383166106a5576040516338077a2b60e01b815260048101859052602401610543565b826001600160a01b0316866001600160a01b031614610703576040517f23295f0e0000000000000000000000000000000000000000000000000000000081526001600160a01b03808816600483015284166024820152604401610543565b6001600160a01b038516158061072157506001600160a01b03851630145b1561074a57604051634726455360e11b81526001600160a01b0386166004820152602401610543565b336001600160a01b038716146107cc5780801561077d57506000848152600360205260409020546001600160a01b031633145b1580156107ae57506001600160a01b038616600090815260026020908152604080832033845290915290205460ff16155b156107cc5760405163ea8e4eb560e01b815260040160405180910390fd5b6107de868686601886901c15156115c6565b505050505050565b60006107f0611664565b905090565b61081083838360405180602001604052806000815250610daf565b505050565b6000806000806108248561141e565b909660189190911c95509350505050565b6000610840826116c5565b90506001600160a01b03811661086c576040516338077a2b60e01b815260048101839052602401610543565b919050565b60008061087d836113d6565b90925090506001600160a01b0382166108ac576040516338077a2b60e01b815260048101849052602401610543565b60405183906001600160a01b0384169081907fddf252ad1be2c89b69c2b068fc378daa952ba7f163c4a11628f55a4df523b3ef90600090a480156108105760008381526003602052604080822054905185926001600160a01b03928316928616917f8c5be1e5ebec7d5bd14f71427d1e84f3dd0314c0f7b2291e5b200ac8c7c3b9259190a4505050565b6000610941826116f7565b90506000610957836001600160a01b031661141e565b915050601881901c60000361096d576001909101905b50919050565b814211156109b6576040517fdd6b219a00000000000000000000000000000000000000000000000000000000815242600482015260248101839052604401610543565b6000806109c28561141e565b90925090506001600160a01b0382166109f1576040516338077a2b60e01b815260048101869052602401610543565b6109ff828787878588611747565b6107de82828888611446565b6005546001600160a01b03163314610a365760405163ea8e4eb560e01b815260040160405180910390fd5b6040517f02571be30000000000000000000000000000000000000000000000000000000081527f91d1777781884d03a6757a803996e38de2a42967fb37eeaca72729271025a9e260048201526000907f00000000000000000000000000000000000000000000000000000000000000006001600160a01b0316906302571be390602401602060405180830381865afa158015610ad6573d6000803e3d6000fd5b505050506040513d601f19601f82011682018060405250810190610afa9190612cbe565b6040517fc47f00270000000000000000000000000000000000000000000000000000000081529091506001600160a01b0382169063c47f002790610b4290859060040161284b565b6020604051808303816000875af1158015610b61573d6000803e3d6000fd5b505050506040513d601f19601f820116820180604052508101906108109190612cdb565b7f0d000000000000000000000000000000000000000000000000000000000000006060806000808083610bb6611855565b604080516020808201835260008083528351818152918201909352999a929990985046975030965090945092509050565b6005546001600160a01b03163314610c125760405163ea8e4eb560e01b815260040160405180910390fd5b6040517f70a082310000000000000000000000000000000000000000000000000000000081523060048201526001600160a01b0383169063a9059cbb90839083906370a0823190602401602060405180830381865afa158015610c79573d6000803e3d6000fd5b505050506040513d601f19601f82011682018060405250810190610c9d9190612cdb565b6040516001600160e01b031960e085901b1681526001600160a01b03909216600483015260248201526044016020604051808303816000875af1158015610ce8573d6000803e3d6000fd5b505050506040513d601f19601f820116820180604052508101906108109190612cf4565b610d1733838361187c565b5050565b81421115610d5e576040517fdd6b219a00000000000000000000000000000000000000000000000000000000815242600482015260248101839052604401610543565b6001600160a01b03841660009081526004602052604081208054610d9892879287928792909190610d8e83612d27565b9190505585611907565b61061c8484600161187c565b600061050482610622565b6000806000610dbd85611572565b919450925090506001600160a01b038316610dee576040516338077a2b60e01b815260048101869052602401610543565b866001600160a01b0316836001600160a01b031614610e4c576040517f23295f0e0000000000000000000000000000000000000000000000000000000081526001600160a01b03808916600483015284166024820152604401610543565b6001600160a01b0386161580610e6a57506001600160a01b03861630145b15610e9357604051634726455360e11b81526001600160a01b0387166004820152602401610543565b336001600160a01b03881614610f1557808015610ec657506000858152600360205260409020546001600160a01b031633145b158015610ef757506001600160a01b038716600090815260026020908152604080832033845290915290205460ff16155b15610f155760405163ea8e4eb560e01b815260040160405180910390fd5b610f28878787601886901c151588611a17565b50505050505050565b606060006040518060e0016040528060af815260200161302a60af91399050610f5c81604885611a7d565b610f6881608c85611a7d565b80610f7284611b57565b604051602001610f83929190612d41565b604051602081830303815290604052915050919050565b600080610fa68361141e565b90925090506001600160a01b038216610fd5576040516338077a2b60e01b815260048101849052602401610543565b601881901c15801590611014576040517f646cf55800000000000000000000000000000000000000000000000000000000815260040160405180910390fd5b6001600160a01b0383163b158061109e5750336001600160a01b0316836001600160a01b0316638da5cb5b6040518163ffffffff1660e01b8152600401602060405180830381865afa15801561106e573d6000803e3d6000fd5b505050506040513d601f19601f820116820180604052508101906110929190612cbe565b6001600160a01b031614155b156110bc5760405163ea8e4eb560e01b815260040160405180910390fd5b61061c83338660006115c6565b60606110d430611b57565b6040516020016110e49190612d98565b604051602081830303815290604052905090565b6005546001600160a01b03163381146111245760405163ea8e4eb560e01b815260040160405180910390fd5b600580547fffffffffffffffffffffffff0000000000000000000000000000000000000000166001600160a01b0384811691821790925560405190918316907f8be0079c531659141344cd1fd0a4f28419497f9722a3daafe3b4186f6b6457e090600090a35050565b60608167ffffffffffffffff8111156111a8576111a8612916565b6040519080825280602002602001820160405280156111ed57816020015b60408051808201909152600080825260208201528152602001906001900390816111c65790505b50905060005b828110156112ce57600084848381811061120f5761120f612ee8565b602090810292909201356000818152928390526040909220549192508190506001600160a01b0381161580156112485750600160a01b83105b156112505750815b8085858151811061126357611263612ee8565b6020026020010151600001906001600160a01b031690816001600160a01b03168152505060b882901c67ffffffffffffffff168585815181106112a8576112a8612ee8565b6020026020010151602001818152505050505080806112c690612d27565b9150506111f3565b5092915050565b60007f01ffc9a7000000000000000000000000000000000000000000000000000000006001600160e01b03198316148061133857507f80ac58cd000000000000000000000000000000000000000000000000000000006001600160e01b03198316145b806105045750506001600160e01b0319167f5b5e139f000000000000000000000000000000000000000000000000000000001490565b60006001600160e01b031982167f5604e22500000000000000000000000000000000000000000000000000000000148061050457506001600160e01b031982167fefdb586b000000000000000000000000000000000000000000000000000000001492915050565b6000818152602081905260408120548190600160ff1b808216145b90925090506001600160a01b0382161580156114105750600160a01b83105b15611419578291505b915091565b600081815260208190526040812054819060a081901c6affffffffffffffffffffff166113f1565b601883901c6000611458856001612efe565b905081601882901c14611497576040517fadc1557200000000000000000000000000000000000000000000000000000000815260040160405180910390fd5b6001600160a01b0384166114ca57600083815260208190526040902060a082901b6001600160a01b038816179055611529565b6000838152602081815260408083206001600160a01b038a811660a087901b17600160ff1b17909155600390925290912080547fffffffffffffffffffffffff0000000000000000000000000000000000000000169186169190911790555b82846001600160a01b0316876001600160a01b03167f8c5be1e5ebec7d5bd14f71427d1e84f3dd0314c0f7b2291e5b200ac8c7c3b92560405160405180910390a4505050505050565b6000818152602081905260409020546affffffffffffffffffffff60a082901c16600160ff1b808316146001600160a01b0383161580156115b65750600160a01b84105b156115bf578392505b9193909250565b6001600160a01b038316600090815260016020819052604090912080549091019055801561160f576001600160a01b038416600090815260016020526040902080546000190190555b6000828152602081905260408082204360b81b6001600160a01b0380881691821790925591518593918816917fddf252ad1be2c89b69c2b068fc378daa952ba7f163c4a11628f55a4df523b3ef91a450505050565b6000467f0000000000000000000000000000000000000000000000000000000000000000811461169d576116988130611e56565b6116bf565b7f00000000000000000000000000000000000000000000000000000000000000005b91505090565b6000818152602081905260409020546001600160a01b0381161580156116ee5750600160a01b82105b1561086c575090565b60006001600160a01b03821661172b57604051634726455360e11b81526001600160a01b0383166004820152602401610543565b506001600160a01b031660009081526001602052604090205490565b60006117516107e6565b604080517f49ecf333e5b8c95c40fdafc95c1ad136e8914a8fb55e9dc8bb01eaa83a2df9ad60208201526001600160a01b03891691810191909152606081018790526080810185905260a0810186905260c001604051602081830303815290604052805190602001206040516020016117fc9291907f190100000000000000000000000000000000000000000000000000000000000081526002810192909252602282015260420190565b60405160208183030381529060405280519060200120905061181f878284611ef5565b610f28576040517f8baa579f00000000000000000000000000000000000000000000000000000000815260040160405180910390fd5b60606107f0604080518082019091526008815267426c6f636b69657360c01b602082015290565b6001600160a01b0383811660008181526002602090815260408083209487168084529482529182902080547fffffffffffffffffffffffffffffffffffffffffffffffffffffffffffffff001686151590811790915591519182527f17307eab39ab6107e8899845ad3d59bd9653f200f220920489ca2b5937696c31910160405180910390a3505050565b60006119116107e6565b604080517f045d890c79ffc118c4a2872a8cf3fee78fbf03c72a35e7fae867680021f3e1a460208201526001600160a01b03808a169282019290925290871660608201526080810185905260a0810186905260c001604051602081830303815290604052805190602001206040516020016119be9291907f190100000000000000000000000000000000000000000000000000000000000081526002810192909252602282015260420190565b6040516020818303038152906040528051906020012090506119e1868284611ef5565b6107de576040517f8baa579f00000000000000000000000000000000000000000000000000000000815260040160405180910390fd5b611a23858585856115c6565b6001600160a01b0384163b15611a7657611a403386868685612065565b611a76576040517f4e472e5e00000000000000000000000000000000000000000000000000000000815260040160405180910390fd5b5050505050565b8015610810576040805180820190915260108082527f30313233343536373839616263646566000000000000000000000000000000006020830152611ac29083612f27565b81518110611ad257611ad2612ee8565b01602001517fff00000000000000000000000000000000000000000000000000000000000000168383611b0481612f3b565b945081518110611b1657611b16612ee8565b60200101907effffffffffffffffffffffffffffffffffffffffffffffffffffffffffffff1916908160001a905350611b50601082612f52565b9050611a7d565b60606000604051806107a0016040528061076e815260200161310361076e913990506000611b8c611b8785612115565b612149565b9050611b9a82826001612291565b611ba682826000612291565b611bb282826002612291565b60005b6008811015611e4d576000600a6380000000611c21858051602082018051600390810b8452604084018051820b9092526060909301805180850b9283905260139290921d90911882840b600b1b90921891821891830b60081d919091189182900b905263ffffffff1690565b611c2c906017612f66565b611c369190612f52565b611c409190612f52565b90506000600a6380000000611ca5868051602082018051600390810b8452604084018051820b9092526060909301805180850b9283905260139290921d90911882840b600b1b90921891821891830b60081d919091189182900b905263ffffffff1690565b611cb0906017612f66565b611cba9190612f52565b611cc49190612f52565b90506000600a6380000000611d29878051602082018051600390810b8452604084018051820b9092526060909301805180850b9283905260139290921d90911882840b600b1b90921891821891830b60081d919091189182900b905263ffffffff1690565b611d34906017612f66565b611d3e9190612f52565b611d489190612f52565b90506000600a6380000000611dad888051602082018051600390810b8452604084018051820b9092526060909301805180850b9283905260139290921d90911882840b600b1b90921891821891830b60081d919091189182900b905263ffffffff1690565b611db8906017612f66565b611dc29190612f52565b611dcc9190612f52565b9050611ddb8760008787612314565b611de88760018786612314565b611df58760028785612314565b611e028760038784612314565b611e0f8760048784612314565b611e1c8760058785612314565b611e298760068786612314565b611e368760078787612314565b505050508080611e4590612d27565b915050611bb5565b50909392505050565b60007f8cad95687ba82c2ce50e74f7b754645e5117c3a5bec8151c0726d5857980a866611e9e604080518082019091526008815267426c6f636b69657360c01b602082015290565b8051602091820120604051611ed793928791879101938452602084019290925260408301526001600160a01b0316606082015260800190565b60405160208183030381529060405280519060200120905092915050565b6000806000611f048585612419565b90925090506000816004811115611f1d57611f1d612f85565b148015611f3b5750856001600160a01b0316826001600160a01b0316145b15611f4b5760019250505061065f565b600080876001600160a01b0316631626ba7e60e01b8888604051602401611f73929190612f9b565b60408051601f198184030181529181526020820180517bffffffffffffffffffffffffffffffffffffffffffffffffffffffff166001600160e01b0319909416939093179092529051611fc69190612fb4565b600060405180830381855afa9150503d8060008114612001576040519150601f19603f3d011682016040523d82523d6000602084013e612006565b606091505b5091509150818015612019575080516020145b8015612059575080517f1626ba7e00000000000000000000000000000000000000000000000000000000906120579083016020908101908401612cdb565b145b98975050505050505050565b600080846001600160a01b031663150b7a02888887876040518563ffffffff1660e01b815260040161209a9493929190612fd0565b6020604051808303816000875af11580156120b9573d6000803e3d6000fd5b505050506040513d601f19601f820116820180604052508101906120dd919061300c565b6001600160e01b0319167f150b7a02000000000000000000000000000000000000000000000000000000001491505095945050505050565b606060006040518060600160405280602a81526020016130d9602a91399050610504816029856001600160a01b0316611a7d565b6040805160808101825260008082526020820181905291810182905260608101829052905b825181101561096d576003811660008190036121ba5783828151811061219657612196612ee8565b602091010151835160f89190911c600382810b60051b9290920301900b8352612288565b8060ff16600103612200578382815181106121d7576121d7612ee8565b60209101810151908401805160f89290921c600383810b60051b939093030190910b9052612288565b8060ff166002036122465783828151811061221d5761221d612ee8565b60209101015160408401805160f89290921c600383810b60051b939093030190910b9052612288565b8060ff166003036122885783828151811061226357612263612ee8565b60209101015160608401805160f89290921c600383810b60051b939093030190910b90525b5060010161216e565b600080600061229f8561245e565b9194509250905060a860ff85166001036122bb575060de6122cb565b8460ff166002036122cb575061042b5b6122e4876122da836000612efe565b8661ffff1661265b565b6122fc876122f3836004612efe565b8560ff1661265b565b610f288761230b836009612efe565b8460ff1661265b565b60008160ff16600003612327575061061c565b8160ff166001036123455761233e60de6012612efe565b9050612360565b8160ff166002036123605761235d61042b6012612efe565b90505b60008461236e856008612f66565b6123789190612efe565b61238390600c612f66565b61238e856005612f66565b6123989084612efe565b6123a29190612efe565b6123ad906008612efe565b90507f31000000000000000000000000000000000000000000000000000000000000008682815181106123e2576123e2612ee8565b60200101907effffffffffffffffffffffffffffffffffffffffffffffffffffffffffffff1916908160001a905350505050505050565b600080825160410361244f5760208301516040840151606085015160001a612443878285856126d8565b94509450505050612457565b506000905060025b9250929050565b600080600063800000006124c2858051602082018051600390810b8452604084018051820b9092526060909301805180850b9283905260139290921d90911882840b600b1b90921891821891830b60081d919091189182900b905263ffffffff1690565b61016802816124d3576124d3612f11565b0492506380000000612535858051602082018051600390810b8452604084018051820b9092526060909301805180850b9283905260139290921d90911882840b600b1b90921891821891830b60081d919091189182900b905263ffffffff1690565b603c028161254557612545612f11565b04602801915063800000006125aa858051602082018051600390810b8452604084018051820b9092526060909301805180850b9283905260139290921d90911882840b600b1b90921891821891830b60081d919091189182900b905263ffffffff1690565b855160208701805160408901805160608b018051600381810b808f52601390811d90921888820b600b90811b90991890811890820b600890811d9190911880830b9889905288841d90981896820b808a1b1896871896820b811d9690961880820b958690529185901d90941892840b9687901b90961891821891830b90931d189081900b90915263ffffffff91821692821691160101016019028161265157612651612f11565b0490509193909250565b80156108105761266c600a82612f27565b612677906030612efe565b60f81b838361268581612f3b565b94508151811061269757612697612ee8565b60200101907effffffffffffffffffffffffffffffffffffffffffffffffffffffffffffff1916908160001a9053506126d1600a82612f52565b905061265b565b6000807f7fffffffffffffffffffffffffffffff5d576e7357a4501ddfe92f46681b20a083111561270f57506000905060036127bc565b8460ff16601b1415801561272757508460ff16601c14155b1561273857506000905060046127bc565b6040805160008082526020820180845289905260ff881692820192909252606081018690526080810185905260019060a0016020604051602081039080840390855afa15801561278c573d6000803e3d6000fd5b5050604051601f1901519150506001600160a01b0381166127b5576000600192509250506127bc565b9150600090505b94509492505050565b6001600160e01b0319811681146127db57600080fd5b50565b6000602082840312156127f057600080fd5b813561065f816127c5565b60005b838110156128165781810151838201526020016127fe565b50506000910152565b600081518084526128378160208601602086016127fb565b601f01601f19169290920160200192915050565b60208152600061065f602083018461281f565b60006020828403121561287057600080fd5b5035919050565b6001600160a01b03811681146127db57600080fd5b6000806040838503121561289f57600080fd5b82356128aa81612877565b946020939093013593505050565b6000806000606084860312156128cd57600080fd5b83356128d881612877565b925060208401356128e881612877565b929592945050506040919091013590565b60006020828403121561290b57600080fd5b813561065f81612877565b634e487b7160e01b600052604160045260246000fd5b600067ffffffffffffffff8084111561294757612947612916565b604051601f8501601f19908116603f0116810190828211818310171561296f5761296f612916565b8160405280935085815286868601111561298857600080fd5b858560208301376000602087830101525050509392505050565b600082601f8301126129b357600080fd5b61065f8383356020850161292c565b600080600080608085870312156129d857600080fd5b84356129e381612877565b93506020850135925060408501359150606085013567ffffffffffffffff811115612a0d57600080fd5b612a19878288016129a2565b91505092959194509250565b600060208284031215612a3757600080fd5b813567ffffffffffffffff811115612a4e57600080fd5b8201601f81018413612a5f57600080fd5b612a6e8482356020840161292c565b949350505050565b7fff00000000000000000000000000000000000000000000000000000000000000881681526000602060e081840152612ab260e084018a61281f565b8381036040850152612ac4818a61281f565b606085018990526001600160a01b038816608086015260a0850187905284810360c0860152855180825283870192509083019060005b81811015612b1657835183529284019291840191600101612afa565b50909c9b505050505050505050505050565b60008060408385031215612b3b57600080fd5b8235612b4681612877565b91506020830135612b5681612877565b809150509250929050565b80151581146127db57600080fd5b60008060408385031215612b8257600080fd5b8235612b8d81612877565b91506020830135612b5681612b61565b60008060008060808587031215612bb357600080fd5b8435612bbe81612877565b93506020850135612bce81612877565b925060408501359150606085013567ffffffffffffffff811115612a0d57600080fd5b60008060208385031215612c0457600080fd5b823567ffffffffffffffff80821115612c1c57600080fd5b818501915085601f830112612c3057600080fd5b813581811115612c3f57600080fd5b8660208260051b8501011115612c5457600080fd5b60209290920196919550909350505050565b602080825282518282018190526000919060409081850190868401855b82811015612cb157815180516001600160a01b03168552860151868501529284019290850190600101612c83565b5091979650505050505050565b600060208284031215612cd057600080fd5b815161065f81612877565b600060208284031215612ced57600080fd5b5051919050565b600060208284031215612d0657600080fd5b815161065f81612b61565b634e487b7160e01b600052601160045260246000fd5b60006000198203612d3a57612d3a612d11565b5060010190565b60008351612d538184602088016127fb565b835190830190612d678183602088016127fb565b7f227d0000000000000000000000000000000000000000000000000000000000009101908152600201949350505050565b7f646174613a6170706c69636174696f6e2f6a736f6e2c7b226e616d65223a224f81527f6e2d636861696e253230426c6f636b696573222c226465736372697074696f6e60208201527f223a22546865253230756269717569746f7573253230426c6f636b6965732c2560408201527f323062757425323066756c6c7925323067656e6572617465642532306f6e2d6360608201527f6861696e2e25323045616368253230457468657265756d25323061646472657360808201527f732532306f776e732532306974732532306f776e253230756e6971756525323060a08201527f426c6f636b792532304e46542e222c22696d616765223a22000000000000000060c082015260008251612eb48160d88501602087016127fb565b7f227d00000000000000000000000000000000000000000000000000000000000060d893909101928301525060da01919050565b634e487b7160e01b600052603260045260246000fd5b8082018082111561050457610504612d11565b634e487b7160e01b600052601260045260246000fd5b600082612f3657612f36612f11565b500690565b600081612f4a57612f4a612d11565b506000190190565b600082612f6157612f61612f11565b500490565b6000816000190483118215151615612f8057612f80612d11565b500290565b634e487b7160e01b600052602160045260246000fd5b828152604060208201526000612a6e604083018461281f565b60008251612fc68184602087016127fb565b9190910192915050565b60006001600160a01b03808716835280861660208401525083604083015260806060830152613002608083018461281f565b9695505050505050565b60006020828403121561301e57600080fd5b815161065f816127c556fe646174613a6170706c69636174696f6e2f6a736f6e2c7b226e616d65223a22307830303030303030303030303030303030303030303030303030303030303030303030303030303030222c226465736372697074696f6e223a22426c6f636b7925323030783030303030303030303030303030303030303030303030303030303030303030303030303030303025323047656e6572617465642532304f6e2d436861696e222c22696d616765223a22307830303030303030303030303030303030303030303030303030303030303030303030303030303030646174613a696d6167652f7376672b786d6c2c3c737667253230786d6c6e733d27687474703a2f2f7777772e77332e6f72672f323030302f7376672725323073686170652d72656e646572696e673d27637269737045646765732725323077696474683d27353132272532306865696768743d27353132273e3c672532307472616e73666f726d3d277363616c6528363429273e3c7061746825323066696c6c3d2768736c283030302c303030252c303030252927253230643d274d302c3068387638682d387a272f3e3c7061746825323066696c6c3d2768736c283030302c303030252c303030252927253230643d274d302c3068317630682d317a6d312c3068317630682d317a6d312c3068317630682d317a6d312c3068317630682d317a6d312c3068317630682d317a6d312c3068317630682d317a6d312c3068317630682d317a6d312c3068317630682d317a6d2d382c316d312c3068317630682d317a6d312c3068317630682d317a6d312c3068317630682d317a6d312c3068317630682d317a6d312c3068317630682d317a6d312c3068317630682d317a6d312c3068317630682d317a6d312c3068317630682d317a6d2d382c316d312c3068317630682d317a6d312c3068317630682d317a6d312c3068317630682d317a6d312c3068317630682d317a6d312c3068317630682d317a6d312c3068317630682d317a6d312c3068317630682d317a6d312c3068317630682d317a6d2d382c316d312c3068317630682d317a6d312c3068317630682d317a6d312c3068317630682d317a6d312c3068317630682d317a6d312c3068317630682d317a6d312c3068317630682d317a6d312c3068317630682d317a6d312c3068317630682d317a6d2d382c316d312c3068317630682d317a6d312c3068317630682d317a6d312c3068317630682d317a6d312c3068317630682d317a6d312c3068317630682d317a6d312c3068317630682d317a6d312c3068317630682d317a6d312c3068317630682d317a6d2d382c316d312c3068317630682d317a6d312c3068317630682d317a6d312c3068317630682d317a6d312c3068317630682d317a6d312c3068317630682d317a6d312c3068317630682d317a6d312c3068317630682d317a6d312c3068317630682d317a6d2d382c316d312c3068317630682d317a6d312c3068317630682d317a6d312c3068317630682d317a6d312c3068317630682d317a6d312c3068317630682d317a6d312c3068317630682d317a6d312c3068317630682d317a6d312c3068317630682d317a6d2d382c316d312c3068317630682d317a6d312c3068317630682d317a6d312c3068317630682d317a6d312c3068317630682d317a6d312c3068317630682d317a6d312c3068317630682d317a6d312c3068317630682d317a6d312c3068317630682d317a272f3e3c7061746825323066696c6c3d2768736c283030302c303030252c303030252927253230643d274d302c3068317630682d317a6d312c3068317630682d317a6d312c3068317630682d317a6d312c3068317630682d317a6d312c3068317630682d317a6d312c3068317630682d317a6d312c3068317630682d317a6d312c3068317630682d317a6d2d382c316d312c3068317630682d317a6d312c3068317630682d317a6d312c3068317630682d317a6d312c3068317630682d317a6d312c3068317630682d317a6d312c3068317630682d317a6d312c3068317630682d317a6d312c3068317630682d317a6d2d382c316d312c3068317630682d317a6d312c3068317630682d317a6d312c3068317630682d317a6d312c3068317630682d317a6d312c3068317630682d317a6d312c3068317630682d317a6d312c3068317630682d317a6d312c3068317630682d317a6d2d382c316d312c3068317630682d317a6d312c3068317630682d317a6d312c3068317630682d317a6d312c3068317630682d317a6d312c3068317630682d317a6d312c3068317630682d317a6d312c3068317630682d317a6d312c3068317630682d317a6d2d382c316d312c3068317630682d317a6d312c3068317630682d317a6d312c3068317630682d317a6d312c3068317630682d317a6d312c3068317630682d317a6d312c3068317630682d317a6d312c3068317630682d317a6d312c3068317630682d317a6d2d382c316d312c3068317630682d317a6d312c3068317630682d317a6d312c3068317630682d317a6d312c3068317630682d317a6d312c3068317630682d317a6d312c3068317630682d317a6d312c3068317630682d317a6d312c3068317630682d317a6d2d382c316d312c3068317630682d317a6d312c3068317630682d317a6d312c3068317630682d317a6d312c3068317630682d317a6d312c3068317630682d317a6d312c3068317630682d317a6d312c3068317630682d317a6d312c3068317630682d317a6d2d382c316d312c3068317630682d317a6d312c3068317630682d317a6d312c3068317630682d317a6d312c3068317630682d317a6d312c3068317630682d317a6d312c3068317630682d317a6d312c3068317630682d317a6d312c3068317630682d317a272f3e3c2f673e3c2f7376673ea26469706673582212200c0192e2950f46d27169fac6d76d485c4aa5b029ab3e8a32c48082d2f21aa7d164736f6c63430008100033",
  "devdoc": {
    "errors": {
      "DeadlineOver(uint256,uint256)": [
        {
          "params": {
            "currentTime": "time at which the error happen",
            "deadline": "the deadline"
          }
        }
      ],
      "InvalidAddress(address)": [
        {
          "params": {
            "addr": "invalid address"
          }
        }
      ],
      "NonExistentToken(uint256)": [
        {
          "params": {
            "tokenID": "id of the expected token"
          }
        }
      ],
      "NotOwner(address,address)": [
        {
          "params": {
            "currentOwner": "the current owner",
            "provided": "the address expected to be the current owner"
          }
        }
      ]
    },
    "kind": "dev",
    "methods": {
      "approve(address,uint256)": {
        "params": {
          "operator": "The address receiving the approval.",
          "tokenID": "The id of the token."
        }
      },
      "balanceOf(address)": {
        "params": {
          "owner": "The address to look for."
        },
        "returns": {
          "balance": "The number of tokens owned by the address."
        }
      },
      "claimOwnership(uint256)": {
        "params": {
          "tokenID": "blocky address to claim"
        }
      },
      "eip712Domain()": {
        "returns": {
          "chainID": "EIP-712 chainID",
          "extensions": "A list of EIP numbers that specify additional fields in the domain. The method to obtain the value for each of these additional fields and any conditions for inclusion are expected to be specified in the respective EIP. The value of fields does not affect their inclusion.",
          "fields": "A bit map where bit i is set to 1 if and only if domain field i is present (0  i  4). Bits are read from least significant to most significant, and fields are indexed in the order that is specified by EIP-712, identical to the order in which they are listed in the function type.",
          "name": "EIP-712 name",
          "salt": "EIP-712 salt",
          "verifyingContract": "EIP-712 name verifyingContract",
          "version": "EIP-712 version"
        }
      },
      "emitSelfTransferEvent(uint256)": {
        "params": {
          "tokenID": "token to emit the event for."
        }
      },
      "getApproved(uint256)": {
        "params": {
          "tokenID": "The id of the token."
        },
        "returns": {
          "operator": "The address of the operator."
        }
      },
      "isApprovedForAll(address,address)": {
        "params": {
          "operator": "The address of the operator.",
          "owner": "The address of the owner."
        },
        "returns": {
          "isOperator": "The status of the approval."
        }
      },
      "nonces(address)": {
        "params": {
          "account": "account to query"
        },
        "returns": {
          "nonce": "account's nonce"
        }
      },
      "nonces(uint256)": {
        "params": {
          "tokenID": "token id"
        },
        "returns": {
          "nonce": "token nonce"
        }
      },
      "ownerAndLastTransferBlockNumberList(uint256[])": {
        "params": {
          "tokenIDs": "The list of token ids to check."
        },
        "returns": {
          "ownersData": "The list of (owner, lastTransferBlockNumber) for each ids given as input."
        }
      },
      "ownerAndLastTransferBlockNumberOf(uint256)": {
        "params": {
          "tokenID": "The id of the token."
        },
        "returns": {
          "blockNumber": "The blocknumber at which the last transfer of that id happened.",
          "owner": "The address of the token owner."
        }
      },
      "ownerOf(uint256)": {
        "params": {
          "tokenID": "The id of the token."
        },
        "returns": {
          "owner": "The address of the token owner."
        }
      },
      "permit(address,uint256,uint256,bytes)": {
        "details": "Anyone can call this to approve `spender`, even a third-party",
        "params": {
          "deadline": "the deadline for the permit to be used",
          "signature": "permit",
          "spender": "the actor to approve",
          "tokenID": "the token id"
        }
      },
      "permitForAll(address,address,uint256,bytes)": {
        "details": "Anyone can call this to approve `spender`, even a third-party",
        "params": {
          "deadline": "the deadline for the permit to be used",
          "signature": "permit",
          "signer": "the one giving permission",
          "spender": "the actor to approve"
        }
      },
      "safeTransferFrom(address,address,uint256)": {
        "params": {
          "from": "The send of the token.",
          "to": "The recipient of the token.",
          "tokenID": "The id of the token."
        }
      },
      "safeTransferFrom(address,address,uint256,bytes)": {
        "params": {
          "data": "Additional data.",
          "from": "The sender of the token.",
          "to": "The recipient of the token.",
          "tokenID": "The id of the token."
        }
      },
      "setApprovalForAll(address,bool)": {
        "params": {
          "approved": "The determination of the approval.",
          "operator": "The address receiving the approval."
        }
      },
      "setENSName(string)": {
        "params": {
          "name": "ENS name to set"
        }
      },
      "supportsInterface(bytes4)": {
        "details": "Interface identification is specified in ERC-165. This function  uses less than 30,000 gas.",
        "params": {
          "interfaceID": "The interface identifier, as specified in ERC-165"
        },
        "returns": {
          "_0": "`true` if the contract implements `interfaceID` and  `interfaceID` is not 0xffffffff, `false` otherwise"
        }
      },
      "tokenNonces(uint256)": {
        "params": {
          "tokenID": "token id"
        },
        "returns": {
          "nonce": "token nonce"
        }
      },
      "tokenURI(uint256)": {
        "details": "Throws if `tokenID` is not a valid NFT. URIs are defined in RFC  3986. The URI may point to a JSON file that conforms to the \"ERC721  Metadata JSON Schema\".",
        "params": {
          "tokenID": "id of the token being queried."
        }
      },
      "transferFrom(address,address,uint256)": {
        "params": {
          "from": "The sender of the token.",
          "to": "The recipient of the token.",
          "tokenID": "The id of the token."
        }
      },
      "transferOwnership(address)": {
        "details": "Set newOwner to address(0) to renounce any ownership.",
        "params": {
          "newOwner": "The address of the new owner of the contract"
        }
      },
      "withdrawERC20(address,address)": {
        "params": {
          "to": "address that will receive the tokens",
          "token": "ERC20 contract address to withdraw"
        }
      }
    },
    "title": "On-chain Blockies",
    "version": 1
  },
  "userdoc": {
    "errors": {
      "AlreadyClaimed()": [
        {
          "notice": "You attempted to claim a Blocky from an EIP-173 contract (using owner()) while the Blocky has already been claimed or transfered."
        }
      ],
      "DeadlineOver(uint256,uint256)": [
        {
          "notice": "The permit has expired"
        }
      ],
      "InvalidAddress(address)": [
        {
          "notice": "An invalid address is specified (for example: zero address)"
        }
      ],
      "InvalidSignature()": [
        {
          "notice": "The signature do not match the expected signer"
        }
      ],
      "NonExistentToken(uint256)": [
        {
          "notice": "The token does not exist"
        }
      ],
      "NonceOverflow()": [
        {
          "notice": "The Nonce overflowed, make a transfer to self to allow new nonces."
        }
      ],
      "NotAuthorized()": [
        {
          "notice": "Not authorized to perform this operation"
        }
      ],
      "NotOwner(address,address)": [
        {
          "notice": "The address from which the token is sent is not the current owner"
        }
      ],
      "TransferRejected()": [
        {
          "notice": "The Transfer was rejected by the destination"
        }
      ]
    },
    "events": {
      "Approval(address,address,uint256)": {
        "notice": "Triggered when a token is approved to be sent by another account  Note tat the approval get reset when a Transfer event for that same token is emitted."
      },
      "ApprovalForAll(address,address,bool)": {
        "notice": "Triggered when an account approve or disaprove another to transfer on its behalf"
      },
      "OwnershipTransferred(address,address)": {
        "notice": "This emits when ownership of the contract changes."
      },
      "Transfer(address,address,uint256)": {
        "notice": "Triggered when a token is transferred"
      }
    },
    "kind": "user",
    "methods": {
      "DOMAIN_SEPARATOR()": {
        "notice": "EIP-712 Domain separator hash"
      },
      "approve(address,uint256)": {
        "notice": "Approve an operator to transfer a specific token on the senders behalf."
      },
      "balanceOf(address)": {
        "notice": "Get the number of tokens owned by an address."
      },
      "claimOwnership(uint256)": {
        "notice": "claim ownership of the blocky owned by a contract.   Will only work  if you are the owner of that contract (EIP-173)."
      },
      "contractURI()": {
        "notice": "Returns the Uniform Resource Identifier (URI) for the token collection."
      },
      "eip712Domain()": {
        "notice": "The return values of this function MUST describe the domain separator that is used for verification of EIP-712 signatures in the contract. They describe both the form of the EIP712Domain struct (i.e., which of the optional fields and extensions are present) and the value of each field, as follows."
      },
      "emitSelfTransferEvent(uint256)": {
        "notice": "emit a Transfer event where from == to so that indexers can scan the token.   This can be called by anyone at any time and does not change state.   As such it keeps the token's approval state and will re-emit an Approval event to indicate that if needed."
      },
      "getApproved(uint256)": {
        "notice": "Get the approved operator for a specific token."
      },
      "isApprovedForAll(address,address)": {
        "notice": "Check if the sender approved the operator to transfer any of its tokens."
      },
      "name()": {
        "notice": "A descriptive name for a collection of NFTs in this contract"
      },
      "nonces(address)": {
        "notice": "Allows to retrieve current nonce for the account"
      },
      "nonces(uint256)": {
        "notice": "Allows to retrieve current nonce for token"
      },
      "owner()": {
        "notice": "Get the address of the owner"
      },
      "ownerAndLastTransferBlockNumberList(uint256[])": {
        "notice": "Get the list of owner of a token and the blockNumber of its last transfer, useful to voting mechanism."
      },
      "ownerAndLastTransferBlockNumberOf(uint256)": {
        "notice": "Get the owner of a token and the blockNumber of the last transfer, useful to voting mechanism."
      },
      "ownerOf(uint256)": {
        "notice": "Get the owner of a token."
      },
      "permit(address,uint256,uint256,bytes)": {
        "notice": "function to be called by anyone to approve `spender` using a Permit signature"
      },
      "permitForAll(address,address,uint256,bytes)": {
        "notice": "function to be called by anyone to approve `spender` using a Permit signature"
      },
      "safeTransferFrom(address,address,uint256)": {
        "notice": "Transfer a token between 2 addresses letting the receiver know of the transfer."
      },
      "safeTransferFrom(address,address,uint256,bytes)": {
        "notice": "Transfer a token between 2 addresses letting the receiver knows of the transfer."
      },
      "setApprovalForAll(address,bool)": {
        "notice": "Set the approval for an operator to manage all the tokens of the sender."
      },
      "setENSName(string)": {
        "notice": "set the reverse-record name for this contract"
      },
      "supportsInterface(bytes4)": {
        "notice": "Query if a contract implements an interface"
      },
      "symbol()": {
        "notice": "An abbreviated name for NFTs in this contract"
      },
      "tokenNonces(uint256)": {
        "notice": "Allows to retrieve current nonce for token"
      },
      "tokenURI(uint256)": {
        "notice": "A distinct Uniform Resource Identifier (URI) for a given asset."
      },
      "transferFrom(address,address,uint256)": {
        "notice": "Transfer a token between 2 addresses."
      },
      "transferOwnership(address)": {
        "notice": "Set the address of the new owner of the contract"
      },
      "withdrawERC20(address,address)": {
        "notice": "withdraw the total balance of a particular ERC20 token owned by this contract."
      }
    },
    "notice": "What if Blockies were NFTs. That is what this collection is all about. Check your wallet as every ethereum address already owns its own Blocky NFT. No minting needed. You can even use Permit (EIP-4494) to approve transfers from smart contracts, via signatures. Note that unless you transfer or call `emitSelfTransferEvent` first, indexers would not know of your token. So if you want your Blocky to shows up, you can call `emitSelfTransferEvent(<your address>)`.",
    "version": 1
  },
  "storageLayout": {
    "storage": [
      {
        "astId": 1119,
        "contract": "src/Blockies.sol:Blockies",
        "label": "_owners",
        "offset": 0,
        "slot": "0",
        "type": "t_mapping(t_uint256,t_uint256)"
      },
      {
        "astId": 1123,
        "contract": "src/Blockies.sol:Blockies",
        "label": "_balances",
        "offset": 0,
        "slot": "1",
        "type": "t_mapping(t_address,t_uint256)"
      },
      {
        "astId": 1129,
        "contract": "src/Blockies.sol:Blockies",
        "label": "_operatorsForAll",
        "offset": 0,
        "slot": "2",
        "type": "t_mapping(t_address,t_mapping(t_address,t_bool))"
      },
      {
        "astId": 1133,
        "contract": "src/Blockies.sol:Blockies",
        "label": "_operators",
        "offset": 0,
        "slot": "3",
        "type": "t_mapping(t_uint256,t_address)"
      },
      {
        "astId": 609,
        "contract": "src/Blockies.sol:Blockies",
        "label": "_userNonces",
        "offset": 0,
        "slot": "4",
        "type": "t_mapping(t_address,t_uint256)"
      },
      {
        "astId": 64,
        "contract": "src/Blockies.sol:Blockies",
        "label": "owner",
        "offset": 0,
        "slot": "5",
        "type": "t_address"
      }
    ],
    "types": {
      "t_address": {
        "encoding": "inplace",
        "label": "address",
        "numberOfBytes": "20"
      },
      "t_bool": {
        "encoding": "inplace",
        "label": "bool",
        "numberOfBytes": "1"
      },
      "t_mapping(t_address,t_bool)": {
        "encoding": "mapping",
        "key": "t_address",
        "label": "mapping(address => bool)",
        "numberOfBytes": "32",
        "value": "t_bool"
      },
      "t_mapping(t_address,t_mapping(t_address,t_bool))": {
        "encoding": "mapping",
        "key": "t_address",
        "label": "mapping(address => mapping(address => bool))",
        "numberOfBytes": "32",
        "value": "t_mapping(t_address,t_bool)"
      },
      "t_mapping(t_address,t_uint256)": {
        "encoding": "mapping",
        "key": "t_address",
        "label": "mapping(address => uint256)",
        "numberOfBytes": "32",
        "value": "t_uint256"
      },
      "t_mapping(t_uint256,t_address)": {
        "encoding": "mapping",
        "key": "t_uint256",
        "label": "mapping(uint256 => address)",
        "numberOfBytes": "32",
        "value": "t_address"
      },
      "t_mapping(t_uint256,t_uint256)": {
        "encoding": "mapping",
        "key": "t_uint256",
        "label": "mapping(uint256 => uint256)",
        "numberOfBytes": "32",
        "value": "t_uint256"
      },
      "t_uint256": {
        "encoding": "inplace",
        "label": "uint256",
        "numberOfBytes": "32"
      }
    }
  }
}