{
  "address": "0xAe1Ed1c4a247613b14CA227b845998F8C3861933",
  "abi": [
    {
      "inputs": [
        {
          "internalType": "address",
          "name": "contractOwner",
          "type": "address"
        }
      ],
      "stateMutability": "nonpayable",
      "type": "constructor"
    },
    {
      "inputs": [],
      "name": "AlreadyClaimed",
      "type": "error"
    },
    {
      "inputs": [
        {
          "internalType": "uint256",
          "name": "currentTime",
          "type": "uint256"
        },
        {
          "internalType": "uint256",
          "name": "deadline",
          "type": "uint256"
        }
      ],
      "name": "DeadlineOver",
      "type": "error"
    },
    {
      "inputs": [
        {
          "internalType": "address",
          "name": "invalid",
          "type": "address"
        }
      ],
      "name": "InvalidAddress",
      "type": "error"
    },
    {
      "inputs": [],
      "name": "InvalidSignature",
      "type": "error"
    },
    {
      "inputs": [
        {
          "internalType": "uint256",
          "name": "tokenID",
          "type": "uint256"
        }
      ],
      "name": "NonExistentToken",
      "type": "error"
    },
    {
      "inputs": [],
      "name": "NonceOverflow",
      "type": "error"
    },
    {
      "inputs": [],
      "name": "NotAuthorized",
      "type": "error"
    },
    {
      "inputs": [
        {
          "internalType": "address",
          "name": "provided",
          "type": "address"
        },
        {
          "internalType": "address",
          "name": "expected",
          "type": "address"
        }
      ],
      "name": "NotOwner",
      "type": "error"
    },
    {
      "inputs": [],
      "name": "TransferRejected",
      "type": "error"
    },
    {
      "anonymous": false,
      "inputs": [
        {
          "indexed": true,
          "internalType": "address",
          "name": "owner",
          "type": "address"
        },
        {
          "indexed": true,
          "internalType": "address",
          "name": "approved",
          "type": "address"
        },
        {
          "indexed": true,
          "internalType": "uint256",
          "name": "tokenId",
          "type": "uint256"
        }
      ],
      "name": "Approval",
      "type": "event"
    },
    {
      "anonymous": false,
      "inputs": [
        {
          "indexed": true,
          "internalType": "address",
          "name": "owner",
          "type": "address"
        },
        {
          "indexed": true,
          "internalType": "address",
          "name": "operator",
          "type": "address"
        },
        {
          "indexed": false,
          "internalType": "bool",
          "name": "approved",
          "type": "bool"
        }
      ],
      "name": "ApprovalForAll",
      "type": "event"
    },
    {
      "anonymous": false,
      "inputs": [
        {
          "indexed": true,
          "internalType": "address",
          "name": "previousOwner",
          "type": "address"
        },
        {
          "indexed": true,
          "internalType": "address",
          "name": "newOwner",
          "type": "address"
        }
      ],
      "name": "OwnershipTransferred",
      "type": "event"
    },
    {
      "anonymous": false,
      "inputs": [
        {
          "indexed": true,
          "internalType": "address",
          "name": "from",
          "type": "address"
        },
        {
          "indexed": true,
          "internalType": "address",
          "name": "to",
          "type": "address"
        },
        {
          "indexed": true,
          "internalType": "uint256",
          "name": "tokenId",
          "type": "uint256"
        }
      ],
      "name": "Transfer",
      "type": "event"
    },
    {
      "inputs": [],
      "name": "DOMAIN_SEPARATOR",
      "outputs": [
        {
          "internalType": "bytes32",
          "name": "",
          "type": "bytes32"
        }
      ],
      "stateMutability": "view",
      "type": "function"
    },
    {
      "inputs": [],
      "name": "PERMIT_FOR_ALL_TYPEHASH",
      "outputs": [
        {
          "internalType": "bytes32",
          "name": "",
          "type": "bytes32"
        }
      ],
      "stateMutability": "view",
      "type": "function"
    },
    {
      "inputs": [],
      "name": "PERMIT_TYPEHASH",
      "outputs": [
        {
          "internalType": "bytes32",
          "name": "",
          "type": "bytes32"
        }
      ],
      "stateMutability": "view",
      "type": "function"
    },
    {
      "inputs": [
        {
          "internalType": "address",
          "name": "operator",
          "type": "address"
        },
        {
          "internalType": "uint256",
          "name": "tokenId",
          "type": "uint256"
        }
      ],
      "name": "approve",
      "outputs": [],
      "stateMutability": "nonpayable",
      "type": "function"
    },
    {
      "inputs": [
        {
          "internalType": "address",
          "name": "owner",
          "type": "address"
        }
      ],
      "name": "balanceOf",
      "outputs": [
        {
          "internalType": "uint256",
          "name": "balance",
          "type": "uint256"
        }
      ],
      "stateMutability": "view",
      "type": "function"
    },
    {
      "inputs": [
        {
          "internalType": "uint256",
          "name": "id",
          "type": "uint256"
        }
      ],
      "name": "claimOwnership",
      "outputs": [],
      "stateMutability": "nonpayable",
      "type": "function"
    },
    {
      "inputs": [],
      "name": "contractURI",
      "outputs": [
        {
          "internalType": "string",
          "name": "",
          "type": "string"
        }
      ],
      "stateMutability": "view",
      "type": "function"
    },
    {
      "inputs": [],
      "name": "eip712Domain",
      "outputs": [
        {
          "internalType": "bytes1",
          "name": "fields",
          "type": "bytes1"
        },
        {
          "internalType": "string",
          "name": "name",
          "type": "string"
        },
        {
          "internalType": "string",
          "name": "version",
          "type": "string"
        },
        {
          "internalType": "uint256",
          "name": "chainId",
          "type": "uint256"
        },
        {
          "internalType": "address",
          "name": "verifyingContract",
          "type": "address"
        },
        {
          "internalType": "bytes32",
          "name": "salt",
          "type": "bytes32"
        },
        {
          "internalType": "uint256[]",
          "name": "extensions",
          "type": "uint256[]"
        }
      ],
      "stateMutability": "view",
      "type": "function"
    },
    {
      "inputs": [
        {
          "internalType": "uint256",
          "name": "id",
          "type": "uint256"
        }
      ],
      "name": "emitSelfTransferEvent",
      "outputs": [],
      "stateMutability": "nonpayable",
      "type": "function"
    },
    {
      "inputs": [
        {
          "internalType": "uint256",
          "name": "tokenId",
          "type": "uint256"
        }
      ],
      "name": "getApproved",
      "outputs": [
        {
          "internalType": "address",
          "name": "operator",
          "type": "address"
        }
      ],
      "stateMutability": "view",
      "type": "function"
    },
    {
      "inputs": [
        {
          "internalType": "address",
          "name": "owner",
          "type": "address"
        },
        {
          "internalType": "address",
          "name": "operator",
          "type": "address"
        }
      ],
      "name": "isApprovedForAll",
      "outputs": [
        {
          "internalType": "bool",
          "name": "isOperator",
          "type": "bool"
        }
      ],
      "stateMutability": "view",
      "type": "function"
    },
    {
      "inputs": [],
      "name": "name",
      "outputs": [
        {
          "internalType": "string",
          "name": "",
          "type": "string"
        }
      ],
      "stateMutability": "pure",
      "type": "function"
    },
    {
      "inputs": [
        {
          "internalType": "uint256",
          "name": "id",
          "type": "uint256"
        }
      ],
      "name": "nonces",
      "outputs": [
        {
          "internalType": "uint256",
          "name": "nonce",
          "type": "uint256"
        }
      ],
      "stateMutability": "view",
      "type": "function"
    },
    {
      "inputs": [
        {
          "internalType": "address",
          "name": "account",
          "type": "address"
        }
      ],
      "name": "nonces",
      "outputs": [
        {
          "internalType": "uint256",
          "name": "nonce",
          "type": "uint256"
        }
      ],
      "stateMutability": "view",
      "type": "function"
    },
    {
      "inputs": [],
      "name": "owner",
      "outputs": [
        {
          "internalType": "address",
          "name": "",
          "type": "address"
        }
      ],
      "stateMutability": "view",
      "type": "function"
    },
    {
      "inputs": [
        {
          "internalType": "uint256[]",
          "name": "ids",
          "type": "uint256[]"
        }
      ],
      "name": "ownerAndLastTransferBlockNumberList",
      "outputs": [
        {
          "components": [
            {
              "internalType": "address",
              "name": "owner",
              "type": "address"
            },
            {
              "internalType": "uint256",
              "name": "lastTransferBlockNumber",
              "type": "uint256"
            }
          ],
          "internalType": "struct IERC721WithBlocknumber.OwnerData[]",
          "name": "ownersData",
          "type": "tuple[]"
        }
      ],
      "stateMutability": "view",
      "type": "function"
    },
    {
      "inputs": [
        {
          "internalType": "uint256",
          "name": "id",
          "type": "uint256"
        }
      ],
      "name": "ownerAndLastTransferBlockNumberOf",
      "outputs": [
        {
          "internalType": "address",
          "name": "owner",
          "type": "address"
        },
        {
          "internalType": "uint256",
          "name": "blockNumber",
          "type": "uint256"
        }
      ],
      "stateMutability": "view",
      "type": "function"
    },
    {
      "inputs": [
        {
          "internalType": "uint256",
          "name": "tokenId",
          "type": "uint256"
        }
      ],
      "name": "ownerOf",
      "outputs": [
        {
          "internalType": "address",
          "name": "owner",
          "type": "address"
        }
      ],
      "stateMutability": "view",
      "type": "function"
    },
    {
      "inputs": [
        {
          "internalType": "address",
          "name": "spender",
          "type": "address"
        },
        {
          "internalType": "uint256",
          "name": "tokenId",
          "type": "uint256"
        },
        {
          "internalType": "uint256",
          "name": "deadline",
          "type": "uint256"
        },
        {
          "internalType": "bytes",
          "name": "sig",
          "type": "bytes"
        }
      ],
      "name": "permit",
      "outputs": [],
      "stateMutability": "nonpayable",
      "type": "function"
    },
    {
      "inputs": [
        {
          "internalType": "address",
          "name": "owner",
          "type": "address"
        },
        {
          "internalType": "address",
          "name": "spender",
          "type": "address"
        },
        {
          "internalType": "uint256",
          "name": "deadline",
          "type": "uint256"
        },
        {
          "internalType": "bytes",
          "name": "sig",
          "type": "bytes"
        }
      ],
      "name": "permitForAll",
      "outputs": [],
      "stateMutability": "nonpayable",
      "type": "function"
    },
    {
      "inputs": [
        {
          "internalType": "address",
          "name": "from",
          "type": "address"
        },
        {
          "internalType": "address",
          "name": "to",
          "type": "address"
        },
        {
          "internalType": "uint256",
          "name": "tokenId",
          "type": "uint256"
        }
      ],
      "name": "safeTransferFrom",
      "outputs": [],
      "stateMutability": "nonpayable",
      "type": "function"
    },
    {
      "inputs": [
        {
          "internalType": "address",
          "name": "from",
          "type": "address"
        },
        {
          "internalType": "address",
          "name": "to",
          "type": "address"
        },
        {
          "internalType": "uint256",
          "name": "tokenId",
          "type": "uint256"
        },
        {
          "internalType": "bytes",
          "name": "data",
          "type": "bytes"
        }
      ],
      "name": "safeTransferFrom",
      "outputs": [],
      "stateMutability": "nonpayable",
      "type": "function"
    },
    {
      "inputs": [
        {
          "internalType": "address",
          "name": "operator",
          "type": "address"
        },
        {
          "internalType": "bool",
          "name": "approved",
          "type": "bool"
        }
      ],
      "name": "setApprovalForAll",
      "outputs": [],
      "stateMutability": "nonpayable",
      "type": "function"
    },
    {
      "inputs": [
        {
          "internalType": "string",
          "name": "name",
          "type": "string"
        }
      ],
      "name": "setENSName",
      "outputs": [],
      "stateMutability": "nonpayable",
      "type": "function"
    },
    {
      "inputs": [
        {
          "internalType": "bytes4",
          "name": "id",
          "type": "bytes4"
        }
      ],
      "name": "supportsInterface",
      "outputs": [
        {
          "internalType": "bool",
          "name": "",
          "type": "bool"
        }
      ],
      "stateMutability": "view",
      "type": "function"
    },
    {
      "inputs": [],
      "name": "symbol",
      "outputs": [
        {
          "internalType": "string",
          "name": "",
          "type": "string"
        }
      ],
      "stateMutability": "pure",
      "type": "function"
    },
    {
      "inputs": [
        {
          "internalType": "uint256",
          "name": "tokenId",
          "type": "uint256"
        }
      ],
      "name": "tokenNonces",
      "outputs": [
        {
          "internalType": "uint256",
          "name": "nonce",
          "type": "uint256"
        }
      ],
      "stateMutability": "view",
      "type": "function"
    },
    {
      "inputs": [
        {
          "internalType": "uint256",
          "name": "id",
          "type": "uint256"
        }
      ],
      "name": "tokenURI",
      "outputs": [
        {
          "internalType": "string",
          "name": "str",
          "type": "string"
        }
      ],
      "stateMutability": "pure",
      "type": "function"
    },
    {
      "inputs": [],
      "name": "totalSupply",
      "outputs": [
        {
          "internalType": "uint256",
          "name": "",
          "type": "uint256"
        }
      ],
      "stateMutability": "pure",
      "type": "function"
    },
    {
      "inputs": [
        {
          "internalType": "address",
          "name": "from",
          "type": "address"
        },
        {
          "internalType": "address",
          "name": "to",
          "type": "address"
        },
        {
          "internalType": "uint256",
          "name": "tokenId",
          "type": "uint256"
        }
      ],
      "name": "transferFrom",
      "outputs": [],
      "stateMutability": "nonpayable",
      "type": "function"
    },
    {
      "inputs": [
        {
          "internalType": "address",
          "name": "newOwner",
          "type": "address"
        }
      ],
      "name": "transferOwnership",
      "outputs": [],
      "stateMutability": "nonpayable",
      "type": "function"
    },
    {
      "inputs": [
        {
          "internalType": "contract IERC20",
          "name": "token",
          "type": "address"
        },
        {
          "internalType": "address",
          "name": "to",
          "type": "address"
        }
      ],
      "name": "withdrawERC20",
      "outputs": [],
      "stateMutability": "nonpayable",
      "type": "function"
    }
  ],
  "args": [
    "0xF78cD306b23031dE9E739A5BcDE61764e82AD5eF"
  ],
  "numDeployments": 1,
  "solcInputHash": "c0fa99344618a30e2035b24ce80130dd",
  "bytecode": "0x60e06040523480156200001157600080fd5b5060405162003bd538038062003bd5833981016040819052620000349162000247565b806e0c2e074ec69a0dfb2997ba6c7d2e1e6000826001600160a01b0381166200005a5750305b62000069600082818062000107565b5046608081905262000093816001600160a01b038416156200008c5783620001a6565b30620001a6565b60a05250506001600160a01b03821615620000f257600580546001600160a01b0319166001600160a01b0384169081179091556040516000907f8be0079c531659141344cd1fd0a4f28419497f9722a3daafe3b4186f6b6457e0908290a35b6001600160a01b031660c05250620002799050565b6001600160a01b038316600090815260016020819052604090912080549091019055801562000151576001600160a01b038416600090815260016020526040902080546000190190555b6000828152602081905260408082204360b81b6001600160a01b0380881691821790925591518593918816917fddf252ad1be2c89b69c2b068fc378daa952ba7f163c4a11628f55a4df523b3ef91a450505050565b60007f8cad95687ba82c2ce50e74f7b754645e5117c3a5bec8151c0726d5857980a866620001ef604080518082019091526008815267426c6f636b69657360c01b602082015290565b80516020918201206040516200022993928791879101938452602084019290925260408301526001600160a01b0316606082015260800190565b60405160208183030381529060405280519060200120905092915050565b6000602082840312156200025a57600080fd5b81516001600160a01b03811681146200027257600080fd5b9392505050565b60805160a05160c05161392c620002a96000396000610aed01526000611725015260006116ef015261392c6000f3fe608060405234801561001057600080fd5b50600436106101f05760003560e01c806377dd4ac31161010f578063adc5fcc2116100a2578063e8a3d48511610071578063e8a3d485146104d7578063e985e9c5146104df578063f2fde38b1461051b578063f39452821461052e57600080fd5b8063adc5fcc21461048b578063b88d4fde1461049e578063c87b56dd146104b1578063ce7f2714146104c457600080fd5b80639456fbcc116100de5780639456fbcc1461041957806395d89b411461042c578063a22cb46514610465578063ab84ee6f1461047857600080fd5b806377dd4ac3146103af5780637ecebe00146103c257806384b0196e146103eb5780638da5cb5b1461040657600080fd5b80633644e515116101875780636352211e116101565780636352211e1461036357806365d13a9b1461037657806370a0823114610389578063745a41bc1461039c57600080fd5b80633644e515146102ef57806342842e0e146102f757806348f3c51c1461030a578063585956d61461033c57600080fd5b8063141a468c116101c3578063141a468c1461028a57806318160ddd146102ab57806323b872dd146102b557806330adf81f146102c857600080fd5b806301ffc9a7146101f557806306fdde031461021d578063081812fc1461024a578063095ea7b314610275575b600080fd5b610208610203366004612864565b61054e565b60405190151581526020015b60405180910390f35b604080518082019091526008815267426c6f636b69657360c01b60208201525b60405161021491906128d1565b61025d6102583660046128e4565b61056e565b6040516001600160a01b039091168152602001610214565b610288610283366004612912565b6105de565b005b61029d6102983660046128e4565b610686565b604051908152602001610214565b600160a01b61029d565b6102886102c336600461293e565b6106ca565b61029d7f49ecf333e5b8c95c40fdafc95c1ad136e8914a8fb55e9dc8bb01eaa83a2df9ad81565b61029d61084a565b61028861030536600461293e565b610859565b61031d6103183660046128e4565b610879565b604080516001600160a01b039093168352602083019190915201610214565b61029d7f045d890c79ffc118c4a2872a8cf3fee78fbf03c72a35e7fae867680021f3e1a481565b61025d6103713660046128e4565b610899565b6102886103843660046128e4565b6108d5565b61029d61039736600461297f565b61099c565b6102886103aa366004612a48565b6109d9565b6102886103bd366004612aab565b610a71565b61029d6103d036600461297f565b6001600160a01b031660009081526004602052604090205490565b6103f3610beb565b6040516102149796959493929190612afc565b60055461025d906001600160a01b031681565b610288610427366004612bae565b610c4d565b60408051808201909152600681527f424c4f434b590000000000000000000000000000000000000000000000000000602082015261023d565b610288610473366004612bf5565b610d72565b610288610486366004612c23565b610d81565b61029d6104993660046128e4565b610e0a565b6102886104ac366004612c23565b610e15565b61023d6104bf3660046128e4565b610f97565b6102886104d23660046128e4565b611020565b61023d61114f565b6102086104ed366004612bae565b6001600160a01b03918216600090815260026020908152604080832093909416825291909152205460ff1690565b61028861052936600461297f565b61117e565b61054161053c366004612c77565b611213565b6040516102149190612cec565b60006105598261135b565b806105685750610568826113f4565b92915050565b600080600061057c8461145c565b90925090506001600160a01b0382166105b0576040516338077a2b60e01b8152600481018590526024015b60405180910390fd5b80156105d4575050506000908152600360205260409020546001600160a01b031690565b5060009392505050565b6000806105ea836114a4565b90925090506001600160a01b038216610619576040516338077a2b60e01b8152600481018490526024016105a7565b336001600160a01b0383161480159061065657506001600160a01b038216600090815260026020908152604080832033845290915290205460ff16155b156106745760405163ea8e4eb560e01b815260040160405180910390fd5b610680828286866114cc565b50505050565b6000806000610694846114a4565b90925090506001600160a01b0382166106c3576040516338077a2b60e01b8152600481018590526024016105a7565b9392505050565b60008060006106d8846115f8565b919450925090506001600160a01b038316610709576040516338077a2b60e01b8152600481018590526024016105a7565b826001600160a01b0316866001600160a01b031614610767576040517f23295f0e0000000000000000000000000000000000000000000000000000000081526001600160a01b038088166004830152841660248201526044016105a7565b6001600160a01b038516158061078557506001600160a01b03851630145b156107ae57604051634726455360e11b81526001600160a01b03861660048201526024016105a7565b336001600160a01b03871614610830578080156107e157506000848152600360205260409020546001600160a01b031633145b15801561081257506001600160a01b038616600090815260026020908152604080832033845290915290205460ff16155b156108305760405163ea8e4eb560e01b815260040160405180910390fd5b610842868686601886901c151561164c565b505050505050565b60006108546116ea565b905090565b61087483838360405180602001604052806000815250610e15565b505050565b600080600080610888856114a4565b909660189190911c95509350505050565b60006108a48261174b565b90506001600160a01b0381166108d0576040516338077a2b60e01b8152600481018390526024016105a7565b919050565b6000806108e1836115f8565b919350909150506001600160a01b038216610912576040516338077a2b60e01b8152600481018490526024016105a7565b60405183906001600160a01b0384169081907fddf252ad1be2c89b69c2b068fc378daa952ba7f163c4a11628f55a4df523b3ef90600090a480156108745760008381526003602052604080822054905185926001600160a01b03928316928616917f8c5be1e5ebec7d5bd14f71427d1e84f3dd0314c0f7b2291e5b200ac8c7c3b9259190a4505050565b60006109a78261177d565b905060006109bd836001600160a01b03166114a4565b915050601881901c6000036109d3576001909101905b50919050565b81421115610a1c576040517fdd6b219a000000000000000000000000000000000000000000000000000000008152426004820152602481018390526044016105a7565b600080610a28856114a4565b90925090506001600160a01b038216610a57576040516338077a2b60e01b8152600481018690526024016105a7565b610a658287878785886117cd565b610842828288886114cc565b6005546001600160a01b03163314610a9c5760405163ea8e4eb560e01b815260040160405180910390fd5b6040517f02571be30000000000000000000000000000000000000000000000000000000081527f91d1777781884d03a6757a803996e38de2a42967fb37eeaca72729271025a9e260048201526000907f00000000000000000000000000000000000000000000000000000000000000006001600160a01b0316906302571be390602401602060405180830381865afa158015610b3c573d6000803e3d6000fd5b505050506040513d601f19601f82011682018060405250810190610b609190612d44565b6040517fc47f00270000000000000000000000000000000000000000000000000000000081529091506001600160a01b0382169063c47f002790610ba89085906004016128d1565b6020604051808303816000875af1158015610bc7573d6000803e3d6000fd5b505050506040513d601f19601f820116820180604052508101906108749190612d61565b7f0d000000000000000000000000000000000000000000000000000000000000006060806000808083610c1c6118db565b604080516020808201835260008083528351818152918201909352999a929990985046975030965090945092509050565b6005546001600160a01b03163314610c785760405163ea8e4eb560e01b815260040160405180910390fd5b6040517f70a082310000000000000000000000000000000000000000000000000000000081523060048201526001600160a01b0383169063a9059cbb90839083906370a0823190602401602060405180830381865afa158015610cdf573d6000803e3d6000fd5b505050506040513d601f19601f82011682018060405250810190610d039190612d61565b6040516001600160e01b031960e085901b1681526001600160a01b03909216600483015260248201526044016020604051808303816000875af1158015610d4e573d6000803e3d6000fd5b505050506040513d601f19601f820116820180604052508101906108749190612d7a565b610d7d338383611902565b5050565b81421115610dc4576040517fdd6b219a000000000000000000000000000000000000000000000000000000008152426004820152602481018390526044016105a7565b6001600160a01b03841660009081526004602052604081208054610dfe92879287928792909190610df483612dad565b919050558561198d565b61068084846001611902565b600061056882610686565b6000806000610e23856115f8565b919450925090506001600160a01b038316610e54576040516338077a2b60e01b8152600481018690526024016105a7565b866001600160a01b0316836001600160a01b031614610eb2576040517f23295f0e0000000000000000000000000000000000000000000000000000000081526001600160a01b038089166004830152841660248201526044016105a7565b6001600160a01b0386161580610ed057506001600160a01b03861630145b15610ef957604051634726455360e11b81526001600160a01b03871660048201526024016105a7565b336001600160a01b03881614610f7b57808015610f2c57506000858152600360205260409020546001600160a01b031633145b158015610f5d57506001600160a01b038716600090815260026020908152604080832033845290915290205460ff16155b15610f7b5760405163ea8e4eb560e01b815260040160405180910390fd5b610f8e878787601886901c151588611a9d565b50505050505050565b606060006040518060e0016040528060af81526020016130b060af91399050610fc281604885611b03565b610fee81610fd260486012612dc7565b610fdd906009612dc7565b610fe8906029612dc7565b85611b03565b80610ff884611bdd565b604051602001611009929190612dda565b604051602081830303815290604052915050919050565b60008061102c836114a4565b90925090506001600160a01b03821661105b576040516338077a2b60e01b8152600481018490526024016105a7565b601881901c1580159061109a576040517f646cf55800000000000000000000000000000000000000000000000000000000815260040160405180910390fd5b6001600160a01b0383163b15806111245750336001600160a01b0316836001600160a01b0316638da5cb5b6040518163ffffffff1660e01b8152600401602060405180830381865afa1580156110f4573d6000803e3d6000fd5b505050506040513d601f19601f820116820180604052508101906111189190612d44565b6001600160a01b031614155b156111425760405163ea8e4eb560e01b815260040160405180910390fd5b610680833386600061164c565b606061115a30611bdd565b60405160200161116a9190612e31565b604051602081830303815290604052905090565b6005546001600160a01b03163381146111aa5760405163ea8e4eb560e01b815260040160405180910390fd5b600580547fffffffffffffffffffffffff0000000000000000000000000000000000000000166001600160a01b0384811691821790925560405190918316907f8be0079c531659141344cd1fd0a4f28419497f9722a3daafe3b4186f6b6457e090600090a35050565b60608167ffffffffffffffff81111561122e5761122e61299c565b60405190808252806020026020018201604052801561127357816020015b604080518082019091526000808252602082015281526020019060019003908161124c5790505b50905060005b8281101561135457600084848381811061129557611295612f81565b602090810292909201356000818152928390526040909220549192508190506001600160a01b0381161580156112ce5750600160a01b83105b156112d65750815b808585815181106112e9576112e9612f81565b6020026020010151600001906001600160a01b031690816001600160a01b03168152505060b882901c67ffffffffffffffff1685858151811061132e5761132e612f81565b60200260200101516020018181525050505050808061134c90612dad565b915050611279565b5092915050565b60007f01ffc9a7000000000000000000000000000000000000000000000000000000006001600160e01b0319831614806113be57507f80ac58cd000000000000000000000000000000000000000000000000000000006001600160e01b03198316145b806105685750506001600160e01b0319167f5b5e139f000000000000000000000000000000000000000000000000000000001490565b60006001600160e01b031982167f5604e22500000000000000000000000000000000000000000000000000000000148061056857506001600160e01b031982167fefdb586b000000000000000000000000000000000000000000000000000000001492915050565b6000818152602081905260408120548190600160ff1b808216145b90925090506001600160a01b0382161580156114965750600160a01b83105b1561149f578291505b915091565b600081815260208190526040812054819060a081901c6affffffffffffffffffffff16611477565b601883901c60006114de856001612dc7565b905081601882901c1461151d576040517fadc1557200000000000000000000000000000000000000000000000000000000815260040160405180910390fd5b6001600160a01b03841661155057600083815260208190526040902060a082901b6001600160a01b0388161790556115af565b6000838152602081815260408083206001600160a01b038a811660a087901b17600160ff1b17909155600390925290912080547fffffffffffffffffffffffff0000000000000000000000000000000000000000169186169190911790555b82846001600160a01b0316876001600160a01b03167f8c5be1e5ebec7d5bd14f71427d1e84f3dd0314c0f7b2291e5b200ac8c7c3b92560405160405180910390a4505050505050565b6000818152602081905260409020546affffffffffffffffffffff60a082901c16600160ff1b808316146001600160a01b03831615801561163c5750600160a01b84105b15611645578392505b9193909250565b6001600160a01b0383166000908152600160208190526040909120805490910190558015611695576001600160a01b038416600090815260016020526040902080546000190190555b6000828152602081905260408082204360b81b6001600160a01b0380881691821790925591518593918816917fddf252ad1be2c89b69c2b068fc378daa952ba7f163c4a11628f55a4df523b3ef91a450505050565b6000467f000000000000000000000000000000000000000000000000000000000000000081146117235761171e8130611edc565b611745565b7f00000000000000000000000000000000000000000000000000000000000000005b91505090565b6000818152602081905260409020546001600160a01b0381161580156117745750600160a01b82105b156108d0575090565b60006001600160a01b0382166117b157604051634726455360e11b81526001600160a01b03831660048201526024016105a7565b506001600160a01b031660009081526001602052604090205490565b60006117d761084a565b604080517f49ecf333e5b8c95c40fdafc95c1ad136e8914a8fb55e9dc8bb01eaa83a2df9ad60208201526001600160a01b03891691810191909152606081018790526080810185905260a0810186905260c001604051602081830303815290604052805190602001206040516020016118829291907f190100000000000000000000000000000000000000000000000000000000000081526002810192909252602282015260420190565b6040516020818303038152906040528051906020012090506118a5878284611f7b565b610f8e576040517f8baa579f00000000000000000000000000000000000000000000000000000000815260040160405180910390fd5b6060610854604080518082019091526008815267426c6f636b69657360c01b602082015290565b6001600160a01b0383811660008181526002602090815260408083209487168084529482529182902080547fffffffffffffffffffffffffffffffffffffffffffffffffffffffffffffff001686151590811790915591519182527f17307eab39ab6107e8899845ad3d59bd9653f200f220920489ca2b5937696c31910160405180910390a3505050565b600061199761084a565b604080517f045d890c79ffc118c4a2872a8cf3fee78fbf03c72a35e7fae867680021f3e1a460208201526001600160a01b03808a169282019290925290871660608201526080810185905260a0810186905260c00160405160208183030381529060405280519060200120604051602001611a449291907f190100000000000000000000000000000000000000000000000000000000000081526002810192909252602282015260420190565b604051602081830303815290604052805190602001209050611a67868284611f7b565b610842576040517f8baa579f00000000000000000000000000000000000000000000000000000000815260040160405180910390fd5b611aa98585858561164c565b6001600160a01b0384163b15611afc57611ac633868686856120eb565b611afc576040517f4e472e5e00000000000000000000000000000000000000000000000000000000815260040160405180910390fd5b5050505050565b8015610874576040805180820190915260108082527f30313233343536373839616263646566000000000000000000000000000000006020830152611b489083612fad565b81518110611b5857611b58612f81565b01602001517fff00000000000000000000000000000000000000000000000000000000000000168383611b8a81612fc1565b945081518110611b9c57611b9c612f81565b60200101907effffffffffffffffffffffffffffffffffffffffffffffffffffffffffffff1916908160001a905350611bd6601082612fd8565b9050611b03565b60606000604051806107a0016040528061076e815260200161318961076e913990506000611c12611c0d8561219b565b6121cf565b9050611c2082826001612317565b611c2c82826000612317565b611c3882826002612317565b60005b6008811015611ed3576000600a6380000000611ca7858051602082018051600390810b8452604084018051820b9092526060909301805180850b9283905260139290921d90911882840b600b1b90921891821891830b60081d919091189182900b905263ffffffff1690565b611cb2906017612fec565b611cbc9190612fd8565b611cc69190612fd8565b90506000600a6380000000611d2b868051602082018051600390810b8452604084018051820b9092526060909301805180850b9283905260139290921d90911882840b600b1b90921891821891830b60081d919091189182900b905263ffffffff1690565b611d36906017612fec565b611d409190612fd8565b611d4a9190612fd8565b90506000600a6380000000611daf878051602082018051600390810b8452604084018051820b9092526060909301805180850b9283905260139290921d90911882840b600b1b90921891821891830b60081d919091189182900b905263ffffffff1690565b611dba906017612fec565b611dc49190612fd8565b611dce9190612fd8565b90506000600a6380000000611e33888051602082018051600390810b8452604084018051820b9092526060909301805180850b9283905260139290921d90911882840b600b1b90921891821891830b60081d919091189182900b905263ffffffff1690565b611e3e906017612fec565b611e489190612fd8565b611e529190612fd8565b9050611e61876000878761239a565b611e6e876001878661239a565b611e7b876002878561239a565b611e88876003878461239a565b611e95876004878461239a565b611ea2876005878561239a565b611eaf876006878661239a565b611ebc876007878761239a565b505050508080611ecb90612dad565b915050611c3b565b50909392505050565b60007f8cad95687ba82c2ce50e74f7b754645e5117c3a5bec8151c0726d5857980a866611f24604080518082019091526008815267426c6f636b69657360c01b602082015290565b8051602091820120604051611f5d93928791879101938452602084019290925260408301526001600160a01b0316606082015260800190565b60405160208183030381529060405280519060200120905092915050565b6000806000611f8a858561249f565b90925090506000816004811115611fa357611fa361300b565b148015611fc15750856001600160a01b0316826001600160a01b0316145b15611fd1576001925050506106c3565b600080876001600160a01b0316631626ba7e60e01b8888604051602401611ff9929190613021565b60408051601f198184030181529181526020820180517bffffffffffffffffffffffffffffffffffffffffffffffffffffffff166001600160e01b031990941693909317909252905161204c919061303a565b600060405180830381855afa9150503d8060008114612087576040519150601f19603f3d011682016040523d82523d6000602084013e61208c565b606091505b509150915081801561209f575080516020145b80156120df575080517f1626ba7e00000000000000000000000000000000000000000000000000000000906120dd9083016020908101908401612d61565b145b98975050505050505050565b600080846001600160a01b031663150b7a02888887876040518563ffffffff1660e01b81526004016121209493929190613056565b6020604051808303816000875af115801561213f573d6000803e3d6000fd5b505050506040513d601f19601f820116820180604052508101906121639190613092565b6001600160e01b0319167f150b7a02000000000000000000000000000000000000000000000000000000001491505095945050505050565b606060006040518060600160405280602a815260200161315f602a91399050610568816029856001600160a01b0316611b03565b6040805160808101825260008082526020820181905291810182905260608101829052905b82518110156109d3576003811660008190036122405783828151811061221c5761221c612f81565b602091010151835160f89190911c600382810b60051b9290920301900b835261230e565b8060ff166001036122865783828151811061225d5761225d612f81565b60209101810151908401805160f89290921c600383810b60051b939093030190910b905261230e565b8060ff166002036122cc578382815181106122a3576122a3612f81565b60209101015160408401805160f89290921c600383810b60051b939093030190910b905261230e565b8060ff1660030361230e578382815181106122e9576122e9612f81565b60209101015160608401805160f89290921c600383810b60051b939093030190910b90525b506001016121f4565b6000806000612325856124e4565b9194509250905060a860ff8516600103612341575060de612351565b8460ff16600203612351575061042b5b61236a87612360836000612dc7565b8661ffff166126e1565b61238287612379836004612dc7565b8560ff166126e1565b610f8e87612391836009612dc7565b8460ff166126e1565b60008160ff166000036123ad5750610680565b8160ff166001036123cb576123c460de6012612dc7565b90506123e6565b8160ff166002036123e6576123e361042b6012612dc7565b90505b6000846123f4856008612fec565b6123fe9190612dc7565b61240990600c612fec565b612414856005612fec565b61241e9084612dc7565b6124289190612dc7565b612433906008612dc7565b90507f310000000000000000000000000000000000000000000000000000000000000086828151811061246857612468612f81565b60200101907effffffffffffffffffffffffffffffffffffffffffffffffffffffffffffff1916908160001a905350505050505050565b60008082516041036124d55760208301516040840151606085015160001a6124c98782858561275e565b945094505050506124dd565b506000905060025b9250929050565b60008060006380000000612548858051602082018051600390810b8452604084018051820b9092526060909301805180850b9283905260139290921d90911882840b600b1b90921891821891830b60081d919091189182900b905263ffffffff1690565b610168028161255957612559612f97565b04925063800000006125bb858051602082018051600390810b8452604084018051820b9092526060909301805180850b9283905260139290921d90911882840b600b1b90921891821891830b60081d919091189182900b905263ffffffff1690565b603c02816125cb576125cb612f97565b0460280191506380000000612630858051602082018051600390810b8452604084018051820b9092526060909301805180850b9283905260139290921d90911882840b600b1b90921891821891830b60081d919091189182900b905263ffffffff1690565b855160208701805160408901805160608b018051600381810b808f52601390811d90921888820b600b90811b90991890811890820b600890811d9190911880830b9889905288841d90981896820b808a1b1896871896820b811d9690961880820b958690529185901d90941892840b9687901b90961891821891830b90931d189081900b90915263ffffffff9182169282169116010101601902816126d7576126d7612f97565b0490509193909250565b8015610874576126f2600a82612fad565b6126fd906030612dc7565b60f81b838361270b81612fc1565b94508151811061271d5761271d612f81565b60200101907effffffffffffffffffffffffffffffffffffffffffffffffffffffffffffff1916908160001a905350612757600a82612fd8565b90506126e1565b6000807f7fffffffffffffffffffffffffffffff5d576e7357a4501ddfe92f46681b20a08311156127955750600090506003612842565b8460ff16601b141580156127ad57508460ff16601c14155b156127be5750600090506004612842565b6040805160008082526020820180845289905260ff881692820192909252606081018690526080810185905260019060a0016020604051602081039080840390855afa158015612812573d6000803e3d6000fd5b5050604051601f1901519150506001600160a01b03811661283b57600060019250925050612842565b9150600090505b94509492505050565b6001600160e01b03198116811461286157600080fd5b50565b60006020828403121561287657600080fd5b81356106c38161284b565b60005b8381101561289c578181015183820152602001612884565b50506000910152565b600081518084526128bd816020860160208601612881565b601f01601f19169290920160200192915050565b6020815260006106c360208301846128a5565b6000602082840312156128f657600080fd5b5035919050565b6001600160a01b038116811461286157600080fd5b6000806040838503121561292557600080fd5b8235612930816128fd565b946020939093013593505050565b60008060006060848603121561295357600080fd5b833561295e816128fd565b9250602084013561296e816128fd565b929592945050506040919091013590565b60006020828403121561299157600080fd5b81356106c3816128fd565b634e487b7160e01b600052604160045260246000fd5b600067ffffffffffffffff808411156129cd576129cd61299c565b604051601f8501601f19908116603f011681019082821181831017156129f5576129f561299c565b81604052809350858152868686011115612a0e57600080fd5b858560208301376000602087830101525050509392505050565b600082601f830112612a3957600080fd5b6106c3838335602085016129b2565b60008060008060808587031215612a5e57600080fd5b8435612a69816128fd565b93506020850135925060408501359150606085013567ffffffffffffffff811115612a9357600080fd5b612a9f87828801612a28565b91505092959194509250565b600060208284031215612abd57600080fd5b813567ffffffffffffffff811115612ad457600080fd5b8201601f81018413612ae557600080fd5b612af4848235602084016129b2565b949350505050565b7fff00000000000000000000000000000000000000000000000000000000000000881681526000602060e081840152612b3860e084018a6128a5565b8381036040850152612b4a818a6128a5565b606085018990526001600160a01b038816608086015260a0850187905284810360c0860152855180825283870192509083019060005b81811015612b9c57835183529284019291840191600101612b80565b50909c9b505050505050505050505050565b60008060408385031215612bc157600080fd5b8235612bcc816128fd565b91506020830135612bdc816128fd565b809150509250929050565b801515811461286157600080fd5b60008060408385031215612c0857600080fd5b8235612c13816128fd565b91506020830135612bdc81612be7565b60008060008060808587031215612c3957600080fd5b8435612c44816128fd565b93506020850135612c54816128fd565b925060408501359150606085013567ffffffffffffffff811115612a9357600080fd5b60008060208385031215612c8a57600080fd5b823567ffffffffffffffff80821115612ca257600080fd5b818501915085601f830112612cb657600080fd5b813581811115612cc557600080fd5b8660208260051b8501011115612cda57600080fd5b60209290920196919550909350505050565b602080825282518282018190526000919060409081850190868401855b82811015612d3757815180516001600160a01b03168552860151868501529284019290850190600101612d09565b5091979650505050505050565b600060208284031215612d5657600080fd5b81516106c3816128fd565b600060208284031215612d7357600080fd5b5051919050565b600060208284031215612d8c57600080fd5b81516106c381612be7565b634e487b7160e01b600052601160045260246000fd5b60006000198203612dc057612dc0612d97565b5060010190565b8082018082111561056857610568612d97565b60008351612dec818460208801612881565b835190830190612e00818360208801612881565b7f227d0000000000000000000000000000000000000000000000000000000000009101908152600201949350505050565b7f646174613a6170706c69636174696f6e2f6a736f6e2c7b226e616d65223a224f81527f6e2d636861696e253230426c6f636b696573222c226465736372697074696f6e60208201527f223a225468652532306f726967696e616c253230426c6f636b6965732c25323060408201527f62757425323066756c6c7925323067656e6572617465642532306f6e2d63686160608201527f696e2e25323045616368253230457468657265756d253230616464726573732560808201527f32306f776e732532306974732532306f776e253230756e69717565253230426c60a08201527f6f636b792532304e46542e222c22696d616765223a220000000000000000000060c082015260008251612f4d8160d6850160208701612881565b7f227d00000000000000000000000000000000000000000000000000000000000060d693909101928301525060d801919050565b634e487b7160e01b600052603260045260246000fd5b634e487b7160e01b600052601260045260246000fd5b600082612fbc57612fbc612f97565b500690565b600081612fd057612fd0612d97565b506000190190565b600082612fe757612fe7612f97565b500490565b600081600019048311821515161561300657613006612d97565b500290565b634e487b7160e01b600052602160045260246000fd5b828152604060208201526000612af460408301846128a5565b6000825161304c818460208701612881565b9190910192915050565b60006001600160a01b0380871683528086166020840152508360408301526080606083015261308860808301846128a5565b9695505050505050565b6000602082840312156130a457600080fd5b81516106c38161284b56fe646174613a6170706c69636174696f6e2f6a736f6e2c7b226e616d65223a22307830303030303030303030303030303030303030303030303030303030303030303030303030303030222c226465736372697074696f6e223a22426c6f636b7925323030783030303030303030303030303030303030303030303030303030303030303030303030303030303025323047656e6572617465642532304f6e2d436861696e222c22696d616765223a22307830303030303030303030303030303030303030303030303030303030303030303030303030303030646174613a696d6167652f7376672b786d6c2c3c737667253230786d6c6e733d27687474703a2f2f7777772e77332e6f72672f323030302f7376672725323073686170652d72656e646572696e673d27637269737045646765732725323077696474683d27353132272532306865696768743d27353132273e3c672532307472616e73666f726d3d277363616c6528363429273e3c7061746825323066696c6c3d2768736c283030302c303030252c303030252927253230643d274d302c3068387638682d387a272f3e3c7061746825323066696c6c3d2768736c283030302c303030252c303030252927253230643d274d302c3068317630682d317a6d312c3068317630682d317a6d312c3068317630682d317a6d312c3068317630682d317a6d312c3068317630682d317a6d312c3068317630682d317a6d312c3068317630682d317a6d312c3068317630682d317a6d2d382c316d312c3068317630682d317a6d312c3068317630682d317a6d312c3068317630682d317a6d312c3068317630682d317a6d312c3068317630682d317a6d312c3068317630682d317a6d312c3068317630682d317a6d312c3068317630682d317a6d2d382c316d312c3068317630682d317a6d312c3068317630682d317a6d312c3068317630682d317a6d312c3068317630682d317a6d312c3068317630682d317a6d312c3068317630682d317a6d312c3068317630682d317a6d312c3068317630682d317a6d2d382c316d312c3068317630682d317a6d312c3068317630682d317a6d312c3068317630682d317a6d312c3068317630682d317a6d312c3068317630682d317a6d312c3068317630682d317a6d312c3068317630682d317a6d312c3068317630682d317a6d2d382c316d312c3068317630682d317a6d312c3068317630682d317a6d312c3068317630682d317a6d312c3068317630682d317a6d312c3068317630682d317a6d312c3068317630682d317a6d312c3068317630682d317a6d312c3068317630682d317a6d2d382c316d312c3068317630682d317a6d312c3068317630682d317a6d312c3068317630682d317a6d312c3068317630682d317a6d312c3068317630682d317a6d312c3068317630682d317a6d312c3068317630682d317a6d312c3068317630682d317a6d2d382c316d312c3068317630682d317a6d312c3068317630682d317a6d312c3068317630682d317a6d312c3068317630682d317a6d312c3068317630682d317a6d312c3068317630682d317a6d312c3068317630682d317a6d312c3068317630682d317a6d2d382c316d312c3068317630682d317a6d312c3068317630682d317a6d312c3068317630682d317a6d312c3068317630682d317a6d312c3068317630682d317a6d312c3068317630682d317a6d312c3068317630682d317a6d312c3068317630682d317a272f3e3c7061746825323066696c6c3d2768736c283030302c303030252c303030252927253230643d274d302c3068317630682d317a6d312c3068317630682d317a6d312c3068317630682d317a6d312c3068317630682d317a6d312c3068317630682d317a6d312c3068317630682d317a6d312c3068317630682d317a6d312c3068317630682d317a6d2d382c316d312c3068317630682d317a6d312c3068317630682d317a6d312c3068317630682d317a6d312c3068317630682d317a6d312c3068317630682d317a6d312c3068317630682d317a6d312c3068317630682d317a6d312c3068317630682d317a6d2d382c316d312c3068317630682d317a6d312c3068317630682d317a6d312c3068317630682d317a6d312c3068317630682d317a6d312c3068317630682d317a6d312c3068317630682d317a6d312c3068317630682d317a6d312c3068317630682d317a6d2d382c316d312c3068317630682d317a6d312c3068317630682d317a6d312c3068317630682d317a6d312c3068317630682d317a6d312c3068317630682d317a6d312c3068317630682d317a6d312c3068317630682d317a6d312c3068317630682d317a6d2d382c316d312c3068317630682d317a6d312c3068317630682d317a6d312c3068317630682d317a6d312c3068317630682d317a6d312c3068317630682d317a6d312c3068317630682d317a6d312c3068317630682d317a6d312c3068317630682d317a6d2d382c316d312c3068317630682d317a6d312c3068317630682d317a6d312c3068317630682d317a6d312c3068317630682d317a6d312c3068317630682d317a6d312c3068317630682d317a6d312c3068317630682d317a6d312c3068317630682d317a6d2d382c316d312c3068317630682d317a6d312c3068317630682d317a6d312c3068317630682d317a6d312c3068317630682d317a6d312c3068317630682d317a6d312c3068317630682d317a6d312c3068317630682d317a6d312c3068317630682d317a6d2d382c316d312c3068317630682d317a6d312c3068317630682d317a6d312c3068317630682d317a6d312c3068317630682d317a6d312c3068317630682d317a6d312c3068317630682d317a6d312c3068317630682d317a6d312c3068317630682d317a272f3e3c2f673e3c2f7376673ea26469706673582212203d395b1a960880f564d5d5803485d88598309ec9552d877c8ade61af3f658a6564736f6c63430008100033",
  "devdoc": {
    "kind": "dev",
    "methods": {
      "approve(address,uint256)": {
        "params": {
          "operator": "The address receiving the approval.",
          "tokenId": "The id of the token."
        }
      },
      "balanceOf(address)": {
        "params": {
          "owner": "The address to look for."
        },
        "returns": {
          "balance": "The number of tokens owned by the address."
        }
      },
      "claimOwnership(uint256)": {
        "params": {
          "id": "blocky address to claim"
        }
      },
      "eip712Domain()": {
        "returns": {
          "chainId": "EIP-712 chainId",
          "extensions": "A list of EIP numbers that specify additional fields in the domain. The method to obtain the value for each of these additional fields and any conditions for inclusion are expected to be specified in the respective EIP. The value of fields does not affect their inclusion.",
          "fields": "A bit map where bit i is set to 1 if and only if domain field i is present (0  i  4). Bits are read from least significant to most significant, and fields are indexed in the order that is specified by EIP-712, identical to the order in which they are listed in the function type.",
          "name": "EIP-712 name",
          "salt": "EIP-712 salt",
          "verifyingContract": "EIP-712 name verifyingContract",
          "version": "EIP-712 version"
        }
      },
      "emitSelfTransferEvent(uint256)": {
        "params": {
          "id": "tokenID to emit the event for."
        }
      },
      "getApproved(uint256)": {
        "params": {
          "tokenId": "The id of the token."
        },
        "returns": {
          "operator": "The address of the operator."
        }
      },
      "isApprovedForAll(address,address)": {
        "params": {
          "operator": "The address of the operator.",
          "owner": "The address of the owner."
        },
        "returns": {
          "isOperator": "The status of the approval."
        }
      },
      "nonces(address)": {
        "params": {
          "account": "account to query"
        },
        "returns": {
          "nonce": "account's nonce"
        }
      },
      "nonces(uint256)": {
        "params": {
          "tokenId": "token id"
        },
        "returns": {
          "nonce": "token nonce"
        }
      },
      "ownerAndLastTransferBlockNumberList(uint256[])": {
        "params": {
          "ids": "The list of token ids to check."
        },
        "returns": {
          "ownersData": "The list of (owner, lastTransferBlockNumber) for each ids given as input."
        }
      },
      "ownerAndLastTransferBlockNumberOf(uint256)": {
        "params": {
          "id": "The id of the token."
        },
        "returns": {
          "blockNumber": "The blocknumber at which the last transfer of that id happened.",
          "owner": "The address of the token owner."
        }
      },
      "ownerOf(uint256)": {
        "params": {
          "tokenId": "The id of the token."
        },
        "returns": {
          "owner": "The address of the token owner."
        }
      },
      "permit(address,uint256,uint256,bytes)": {
        "details": "Anyone can call this to approve `spender`, even a third-party",
        "params": {
          "deadline": "the deadline for the permit to be used",
          "signature": "permit",
          "spender": "the actor to approve",
          "tokenId": "the token id"
        }
      },
      "permitForAll(address,address,uint256,bytes)": {
        "details": "Anyone can call this to approve `spender`, even a third-party",
        "params": {
          "deadline": "the deadline for the permit to be used",
          "signature": "permit",
          "signer": "the one giving permission",
          "spender": "the actor to approve"
        }
      },
      "safeTransferFrom(address,address,uint256)": {
        "params": {
          "from": "The send of the token.",
          "to": "The recipient of the token.",
          "tokenId": "The id of the token."
        }
      },
      "safeTransferFrom(address,address,uint256,bytes)": {
        "params": {
          "data": "Additional data.",
          "from": "The sender of the token.",
          "to": "The recipient of the token.",
          "tokenId": "The id of the token."
        }
      },
      "setApprovalForAll(address,bool)": {
        "params": {
          "approved": "The determination of the approval.",
          "operator": "The address receiving the approval."
        }
      },
      "setENSName(string)": {
        "params": {
          "name": "ENS name to set"
        }
      },
      "supportsInterface(bytes4)": {
        "details": "Interface identification is specified in ERC-165. This function  uses less than 30,000 gas.",
        "params": {
          "interfaceID": "The interface identifier, as specified in ERC-165"
        },
        "returns": {
          "_0": "`true` if the contract implements `interfaceID` and  `interfaceID` is not 0xffffffff, `false` otherwise"
        }
      },
      "tokenNonces(uint256)": {
        "params": {
          "tokenId": "token id"
        },
        "returns": {
          "nonce": "token nonce"
        }
      },
      "tokenURI(uint256)": {
        "details": "Throws if `_tokenId` is not a valid NFT. URIs are defined in RFC  3986. The URI may point to a JSON file that conforms to the \"ERC721  Metadata JSON Schema\"."
      },
      "transferFrom(address,address,uint256)": {
        "params": {
          "from": "The sender of the token.",
          "to": "The recipient of the token.",
          "tokenId": "The id of the token."
        }
      },
      "transferOwnership(address)": {
        "details": "Set newOwner to address(0) to renounce any ownership.",
        "params": {
          "newOwner": "The address of the new owner of the contract"
        }
      },
      "withdrawERC20(address,address)": {
        "params": {
          "to": "address that will receive the tokens",
          "token": "ERC20 contract address to withdraw"
        }
      }
    },
    "title": "On-chain Blockies",
    "version": 1
  },
  "userdoc": {
    "kind": "user",
    "methods": {
      "DOMAIN_SEPARATOR()": {
        "notice": "EIP-712 Domain separator hash"
      },
      "approve(address,uint256)": {
        "notice": "Approve an operator to transfer a specific token on the senders behalf."
      },
      "balanceOf(address)": {
        "notice": "Get the number of tokens owned by an address."
      },
      "claimOwnership(uint256)": {
        "notice": "claim ownership of the blocky if you are the owner of a contract"
      },
      "contractURI()": {
        "notice": "Returns the Uniform Resource Identifier (URI) for the token collection."
      },
      "eip712Domain()": {
        "notice": "The return values of this function MUST describe the domain separator that is used for verification of EIP-712 signatures in the contract. They describe both the form of the EIP712Domain struct (i.e., which of the optional fields and extensions are present) and the value of each field, as follows."
      },
      "emitSelfTransferEvent(uint256)": {
        "notice": "emit Transfer event so that indexer can pick it up.   This can be called by anyone at any time and does not change state   As such it keeps the token's operator-approval state and will re-emit an Approval event to indicate that."
      },
      "getApproved(uint256)": {
        "notice": "Get the approved operator for a specific token."
      },
      "isApprovedForAll(address,address)": {
        "notice": "Check if the sender approved the operator."
      },
      "name()": {
        "notice": "A descriptive name for a collection of NFTs in this contract"
      },
      "nonces(address)": {
        "notice": "Allows to retrieve current nonce for the account"
      },
      "nonces(uint256)": {
        "notice": "Allows to retrieve current nonce for token"
      },
      "owner()": {
        "notice": "Get the address of the owner"
      },
      "ownerAndLastTransferBlockNumberList(uint256[])": {
        "notice": "Get the list of owner of a token and the blockNumber of its last transfer, useful to voting mechanism."
      },
      "ownerAndLastTransferBlockNumberOf(uint256)": {
        "notice": "Get the owner of a token and the blockNumber of the last transfer, useful to voting mechanism."
      },
      "ownerOf(uint256)": {
        "notice": "Get the owner of a token."
      },
      "permit(address,uint256,uint256,bytes)": {
        "notice": "function to be called by anyone to approve `spender` using a Permit signature"
      },
      "permitForAll(address,address,uint256,bytes)": {
        "notice": "function to be called by anyone to approve `spender` using a Permit signature"
      },
      "safeTransferFrom(address,address,uint256)": {
        "notice": "Transfer a token between 2 addresses letting the receiver know of the transfer."
      },
      "safeTransferFrom(address,address,uint256,bytes)": {
        "notice": "Transfer a token between 2 addresses letting the receiver knows of the transfer."
      },
      "setApprovalForAll(address,bool)": {
        "notice": "Set the approval for an operator to manage all the tokens of the sender."
      },
      "setENSName(string)": {
        "notice": "set the reverse-record name for this contract"
      },
      "supportsInterface(bytes4)": {
        "notice": "Query if a contract implements an interface"
      },
      "symbol()": {
        "notice": "An abbreviated name for NFTs in this contract"
      },
      "tokenNonces(uint256)": {
        "notice": "Allows to retrieve current nonce for token"
      },
      "tokenURI(uint256)": {
        "notice": "A distinct Uniform Resource Identifier (URI) for a given asset."
      },
      "transferFrom(address,address,uint256)": {
        "notice": "Transfer a token between 2 addresses."
      },
      "transferOwnership(address)": {
        "notice": "Set the address of the new owner of the contract"
      },
      "withdrawERC20(address,address)": {
        "notice": "withdraw the total balance of a particular ERC20 token owned by this contract."
      }
    },
    "notice": "Blockies as NFT. Each ethereum address owns its own Blocky NFT. No minting needed. You can even use Permit (EIP-4494) to approve contracts via signatures. Note though that unless you transfer or call `emitSelfTransferEvent` indexer would not know of your token.",
    "version": 1
  },
  "storageLayout": {
    "storage": [
      {
        "astId": 1109,
        "contract": "src/Blockies.sol:Blockies",
        "label": "_owners",
        "offset": 0,
        "slot": "0",
        "type": "t_mapping(t_uint256,t_uint256)"
      },
      {
        "astId": 1113,
        "contract": "src/Blockies.sol:Blockies",
        "label": "_balances",
        "offset": 0,
        "slot": "1",
        "type": "t_mapping(t_address,t_uint256)"
      },
      {
        "astId": 1119,
        "contract": "src/Blockies.sol:Blockies",
        "label": "_operatorsForAll",
        "offset": 0,
        "slot": "2",
        "type": "t_mapping(t_address,t_mapping(t_address,t_bool))"
      },
      {
        "astId": 1123,
        "contract": "src/Blockies.sol:Blockies",
        "label": "_operators",
        "offset": 0,
        "slot": "3",
        "type": "t_mapping(t_uint256,t_address)"
      },
      {
        "astId": 601,
        "contract": "src/Blockies.sol:Blockies",
        "label": "_userNonces",
        "offset": 0,
        "slot": "4",
        "type": "t_mapping(t_address,t_uint256)"
      },
      {
        "astId": 64,
        "contract": "src/Blockies.sol:Blockies",
        "label": "owner",
        "offset": 0,
        "slot": "5",
        "type": "t_address"
      }
    ],
    "types": {
      "t_address": {
        "encoding": "inplace",
        "label": "address",
        "numberOfBytes": "20"
      },
      "t_bool": {
        "encoding": "inplace",
        "label": "bool",
        "numberOfBytes": "1"
      },
      "t_mapping(t_address,t_bool)": {
        "encoding": "mapping",
        "key": "t_address",
        "label": "mapping(address => bool)",
        "numberOfBytes": "32",
        "value": "t_bool"
      },
      "t_mapping(t_address,t_mapping(t_address,t_bool))": {
        "encoding": "mapping",
        "key": "t_address",
        "label": "mapping(address => mapping(address => bool))",
        "numberOfBytes": "32",
        "value": "t_mapping(t_address,t_bool)"
      },
      "t_mapping(t_address,t_uint256)": {
        "encoding": "mapping",
        "key": "t_address",
        "label": "mapping(address => uint256)",
        "numberOfBytes": "32",
        "value": "t_uint256"
      },
      "t_mapping(t_uint256,t_address)": {
        "encoding": "mapping",
        "key": "t_uint256",
        "label": "mapping(uint256 => address)",
        "numberOfBytes": "32",
        "value": "t_address"
      },
      "t_mapping(t_uint256,t_uint256)": {
        "encoding": "mapping",
        "key": "t_uint256",
        "label": "mapping(uint256 => uint256)",
        "numberOfBytes": "32",
        "value": "t_uint256"
      },
      "t_uint256": {
        "encoding": "inplace",
        "label": "uint256",
        "numberOfBytes": "32"
      }
    }
  }
}