{
  "address": "0x62708FC20a10F6bd64763eF5aEec9c7Edb5529FF",
  "abi": [
    {
      "inputs": [
        {
          "internalType": "address",
          "name": "contractOwner",
          "type": "address"
        }
      ],
      "stateMutability": "nonpayable",
      "type": "constructor"
    },
    {
      "inputs": [],
      "name": "AlreadyClaimed",
      "type": "error"
    },
    {
      "inputs": [
        {
          "internalType": "uint256",
          "name": "currentTime",
          "type": "uint256"
        },
        {
          "internalType": "uint256",
          "name": "deadline",
          "type": "uint256"
        }
      ],
      "name": "DeadlineOver",
      "type": "error"
    },
    {
      "inputs": [
        {
          "internalType": "address",
          "name": "invalid",
          "type": "address"
        }
      ],
      "name": "InvalidAddress",
      "type": "error"
    },
    {
      "inputs": [],
      "name": "InvalidSignature",
      "type": "error"
    },
    {
      "inputs": [
        {
          "internalType": "uint256",
          "name": "tokenID",
          "type": "uint256"
        }
      ],
      "name": "NonExistentToken",
      "type": "error"
    },
    {
      "inputs": [],
      "name": "NonceOverflow",
      "type": "error"
    },
    {
      "inputs": [],
      "name": "NotAuthorized",
      "type": "error"
    },
    {
      "inputs": [
        {
          "internalType": "address",
          "name": "provided",
          "type": "address"
        },
        {
          "internalType": "address",
          "name": "expected",
          "type": "address"
        }
      ],
      "name": "NotOwner",
      "type": "error"
    },
    {
      "inputs": [],
      "name": "TransferRejected",
      "type": "error"
    },
    {
      "anonymous": false,
      "inputs": [
        {
          "indexed": true,
          "internalType": "address",
          "name": "owner",
          "type": "address"
        },
        {
          "indexed": true,
          "internalType": "address",
          "name": "approved",
          "type": "address"
        },
        {
          "indexed": true,
          "internalType": "uint256",
          "name": "tokenId",
          "type": "uint256"
        }
      ],
      "name": "Approval",
      "type": "event"
    },
    {
      "anonymous": false,
      "inputs": [
        {
          "indexed": true,
          "internalType": "address",
          "name": "owner",
          "type": "address"
        },
        {
          "indexed": true,
          "internalType": "address",
          "name": "operator",
          "type": "address"
        },
        {
          "indexed": false,
          "internalType": "bool",
          "name": "approved",
          "type": "bool"
        }
      ],
      "name": "ApprovalForAll",
      "type": "event"
    },
    {
      "anonymous": false,
      "inputs": [
        {
          "indexed": true,
          "internalType": "address",
          "name": "from",
          "type": "address"
        },
        {
          "indexed": true,
          "internalType": "address",
          "name": "to",
          "type": "address"
        },
        {
          "indexed": true,
          "internalType": "uint256",
          "name": "tokenId",
          "type": "uint256"
        }
      ],
      "name": "Transfer",
      "type": "event"
    },
    {
      "inputs": [],
      "name": "DOMAIN_SEPARATOR",
      "outputs": [
        {
          "internalType": "bytes32",
          "name": "",
          "type": "bytes32"
        }
      ],
      "stateMutability": "view",
      "type": "function"
    },
    {
      "inputs": [],
      "name": "PERMIT_FOR_ALL_TYPEHASH",
      "outputs": [
        {
          "internalType": "bytes32",
          "name": "",
          "type": "bytes32"
        }
      ],
      "stateMutability": "view",
      "type": "function"
    },
    {
      "inputs": [],
      "name": "PERMIT_TYPEHASH",
      "outputs": [
        {
          "internalType": "bytes32",
          "name": "",
          "type": "bytes32"
        }
      ],
      "stateMutability": "view",
      "type": "function"
    },
    {
      "inputs": [
        {
          "internalType": "address",
          "name": "operator",
          "type": "address"
        },
        {
          "internalType": "uint256",
          "name": "tokenId",
          "type": "uint256"
        }
      ],
      "name": "approve",
      "outputs": [],
      "stateMutability": "nonpayable",
      "type": "function"
    },
    {
      "inputs": [
        {
          "internalType": "address",
          "name": "owner",
          "type": "address"
        }
      ],
      "name": "balanceOf",
      "outputs": [
        {
          "internalType": "uint256",
          "name": "balance",
          "type": "uint256"
        }
      ],
      "stateMutability": "view",
      "type": "function"
    },
    {
      "inputs": [
        {
          "internalType": "uint256",
          "name": "id",
          "type": "uint256"
        }
      ],
      "name": "claimOwnership",
      "outputs": [],
      "stateMutability": "nonpayable",
      "type": "function"
    },
    {
      "inputs": [],
      "name": "contractURI",
      "outputs": [
        {
          "internalType": "string",
          "name": "",
          "type": "string"
        }
      ],
      "stateMutability": "view",
      "type": "function"
    },
    {
      "inputs": [],
      "name": "eip712Domain",
      "outputs": [
        {
          "internalType": "bytes1",
          "name": "fields",
          "type": "bytes1"
        },
        {
          "internalType": "string",
          "name": "name",
          "type": "string"
        },
        {
          "internalType": "string",
          "name": "version",
          "type": "string"
        },
        {
          "internalType": "uint256",
          "name": "chainId",
          "type": "uint256"
        },
        {
          "internalType": "address",
          "name": "verifyingContract",
          "type": "address"
        },
        {
          "internalType": "bytes32",
          "name": "salt",
          "type": "bytes32"
        },
        {
          "internalType": "uint256[]",
          "name": "extensions",
          "type": "uint256[]"
        }
      ],
      "stateMutability": "view",
      "type": "function"
    },
    {
      "inputs": [
        {
          "internalType": "uint256",
          "name": "id",
          "type": "uint256"
        }
      ],
      "name": "emitSelfTransferEvent",
      "outputs": [],
      "stateMutability": "nonpayable",
      "type": "function"
    },
    {
      "inputs": [
        {
          "internalType": "uint256",
          "name": "tokenId",
          "type": "uint256"
        }
      ],
      "name": "getApproved",
      "outputs": [
        {
          "internalType": "address",
          "name": "operator",
          "type": "address"
        }
      ],
      "stateMutability": "view",
      "type": "function"
    },
    {
      "inputs": [
        {
          "internalType": "address",
          "name": "owner",
          "type": "address"
        },
        {
          "internalType": "address",
          "name": "operator",
          "type": "address"
        }
      ],
      "name": "isApprovedForAll",
      "outputs": [
        {
          "internalType": "bool",
          "name": "isOperator",
          "type": "bool"
        }
      ],
      "stateMutability": "view",
      "type": "function"
    },
    {
      "inputs": [],
      "name": "name",
      "outputs": [
        {
          "internalType": "string",
          "name": "",
          "type": "string"
        }
      ],
      "stateMutability": "pure",
      "type": "function"
    },
    {
      "inputs": [
        {
          "internalType": "uint256",
          "name": "id",
          "type": "uint256"
        }
      ],
      "name": "nonces",
      "outputs": [
        {
          "internalType": "uint256",
          "name": "nonce",
          "type": "uint256"
        }
      ],
      "stateMutability": "view",
      "type": "function"
    },
    {
      "inputs": [
        {
          "internalType": "address",
          "name": "account",
          "type": "address"
        }
      ],
      "name": "nonces",
      "outputs": [
        {
          "internalType": "uint256",
          "name": "nonce",
          "type": "uint256"
        }
      ],
      "stateMutability": "view",
      "type": "function"
    },
    {
      "inputs": [],
      "name": "owner",
      "outputs": [
        {
          "internalType": "address",
          "name": "",
          "type": "address"
        }
      ],
      "stateMutability": "view",
      "type": "function"
    },
    {
      "inputs": [
        {
          "internalType": "uint256[]",
          "name": "ids",
          "type": "uint256[]"
        }
      ],
      "name": "ownerAndLastTransferBlockNumberList",
      "outputs": [
        {
          "components": [
            {
              "internalType": "address",
              "name": "owner",
              "type": "address"
            },
            {
              "internalType": "uint256",
              "name": "lastTransferBlockNumber",
              "type": "uint256"
            }
          ],
          "internalType": "struct IERC721WithBlocknumber.OwnerData[]",
          "name": "ownersData",
          "type": "tuple[]"
        }
      ],
      "stateMutability": "view",
      "type": "function"
    },
    {
      "inputs": [
        {
          "internalType": "uint256",
          "name": "id",
          "type": "uint256"
        }
      ],
      "name": "ownerAndLastTransferBlockNumberOf",
      "outputs": [
        {
          "internalType": "address",
          "name": "owner",
          "type": "address"
        },
        {
          "internalType": "uint256",
          "name": "blockNumber",
          "type": "uint256"
        }
      ],
      "stateMutability": "view",
      "type": "function"
    },
    {
      "inputs": [
        {
          "internalType": "uint256",
          "name": "tokenId",
          "type": "uint256"
        }
      ],
      "name": "ownerOf",
      "outputs": [
        {
          "internalType": "address",
          "name": "owner",
          "type": "address"
        }
      ],
      "stateMutability": "view",
      "type": "function"
    },
    {
      "inputs": [
        {
          "internalType": "address",
          "name": "spender",
          "type": "address"
        },
        {
          "internalType": "uint256",
          "name": "tokenId",
          "type": "uint256"
        },
        {
          "internalType": "uint256",
          "name": "deadline",
          "type": "uint256"
        },
        {
          "internalType": "bytes",
          "name": "sig",
          "type": "bytes"
        }
      ],
      "name": "permit",
      "outputs": [],
      "stateMutability": "nonpayable",
      "type": "function"
    },
    {
      "inputs": [
        {
          "internalType": "address",
          "name": "owner",
          "type": "address"
        },
        {
          "internalType": "address",
          "name": "spender",
          "type": "address"
        },
        {
          "internalType": "uint256",
          "name": "deadline",
          "type": "uint256"
        },
        {
          "internalType": "bytes",
          "name": "sig",
          "type": "bytes"
        }
      ],
      "name": "permitForAll",
      "outputs": [],
      "stateMutability": "nonpayable",
      "type": "function"
    },
    {
      "inputs": [
        {
          "internalType": "address",
          "name": "from",
          "type": "address"
        },
        {
          "internalType": "address",
          "name": "to",
          "type": "address"
        },
        {
          "internalType": "uint256",
          "name": "tokenId",
          "type": "uint256"
        }
      ],
      "name": "safeTransferFrom",
      "outputs": [],
      "stateMutability": "nonpayable",
      "type": "function"
    },
    {
      "inputs": [
        {
          "internalType": "address",
          "name": "from",
          "type": "address"
        },
        {
          "internalType": "address",
          "name": "to",
          "type": "address"
        },
        {
          "internalType": "uint256",
          "name": "tokenId",
          "type": "uint256"
        },
        {
          "internalType": "bytes",
          "name": "data",
          "type": "bytes"
        }
      ],
      "name": "safeTransferFrom",
      "outputs": [],
      "stateMutability": "nonpayable",
      "type": "function"
    },
    {
      "inputs": [
        {
          "internalType": "address",
          "name": "operator",
          "type": "address"
        },
        {
          "internalType": "bool",
          "name": "approved",
          "type": "bool"
        }
      ],
      "name": "setApprovalForAll",
      "outputs": [],
      "stateMutability": "nonpayable",
      "type": "function"
    },
    {
      "inputs": [
        {
          "internalType": "bytes4",
          "name": "id",
          "type": "bytes4"
        }
      ],
      "name": "supportsInterface",
      "outputs": [
        {
          "internalType": "bool",
          "name": "",
          "type": "bool"
        }
      ],
      "stateMutability": "view",
      "type": "function"
    },
    {
      "inputs": [],
      "name": "symbol",
      "outputs": [
        {
          "internalType": "string",
          "name": "",
          "type": "string"
        }
      ],
      "stateMutability": "pure",
      "type": "function"
    },
    {
      "inputs": [
        {
          "internalType": "uint256",
          "name": "tokenId",
          "type": "uint256"
        }
      ],
      "name": "tokenNonces",
      "outputs": [
        {
          "internalType": "uint256",
          "name": "nonce",
          "type": "uint256"
        }
      ],
      "stateMutability": "view",
      "type": "function"
    },
    {
      "inputs": [
        {
          "internalType": "uint256",
          "name": "id",
          "type": "uint256"
        }
      ],
      "name": "tokenURI",
      "outputs": [
        {
          "internalType": "string",
          "name": "str",
          "type": "string"
        }
      ],
      "stateMutability": "pure",
      "type": "function"
    },
    {
      "inputs": [],
      "name": "totalSupply",
      "outputs": [
        {
          "internalType": "uint256",
          "name": "",
          "type": "uint256"
        }
      ],
      "stateMutability": "pure",
      "type": "function"
    },
    {
      "inputs": [
        {
          "internalType": "address",
          "name": "from",
          "type": "address"
        },
        {
          "internalType": "address",
          "name": "to",
          "type": "address"
        },
        {
          "internalType": "uint256",
          "name": "tokenId",
          "type": "uint256"
        }
      ],
      "name": "transferFrom",
      "outputs": [],
      "stateMutability": "nonpayable",
      "type": "function"
    }
  ],
  "transactionHash": "0xae87da659952f34478d56014af5bf05c1b19d9a610708c77d417f81c33705afd",
  "args": [
    "0x61c461EcC993aaDEB7e4b47E96d1B8cC37314B20"
  ],
  "numDeployments": 1,
  "solcInputHash": "fe6916d1edfa1f8b54974362f135a653",
  "bytecode": "0x60e06040523480156200001157600080fd5b506040516200377d3803806200377d8339810160408190526200003491620001e2565b6000816001600160a01b038116620000495750305b62000058600082818062000099565b5046608081905262000082816001600160a01b038416156200007b578362000138565b3062000138565b60a05250506001600160a01b031660c05262000214565b6001600160a01b0383166000908152600160208190526040909120805490910190558015620000e3576001600160a01b038416600090815260016020526040902080546000190190555b6000828152602081905260408082204360b81b6001600160a01b0380881691821790925591518593918816917fddf252ad1be2c89b69c2b068fc378daa952ba7f163c4a11628f55a4df523b3ef91a450505050565b60007f8cad95687ba82c2ce50e74f7b754645e5117c3a5bec8151c0726d5857980a8666200018a6040805180820190915260118152704f6e2d636861696e20426c6f636b69657360781b602082015290565b8051602091820120604051620001c493928791879101938452602084019290925260408301526001600160a01b0316606082015260800190565b60405160208183030381529060405280519060200120905092915050565b600060208284031215620001f557600080fd5b81516001600160a01b03811681146200020d57600080fd5b9392505050565b60805160a05160c0516135396200024460003960006103ec015260006113c00152600061138a01526135396000f3fe608060405234801561001057600080fd5b50600436106101cf5760003560e01c806370a0823111610104578063ab84ee6f116100a2578063ce7f271411610071578063ce7f2714146104a6578063e8a3d485146104b9578063e985e9c5146104c1578063f3945282146104fd57600080fd5b8063ab84ee6f1461045a578063adc5fcc21461046d578063b88d4fde14610480578063c87b56dd1461049357600080fd5b806384b0196e116100de57806384b0196e146103cc5780638da5cb5b146103e757806395d89b411461040e578063a22cb4651461044757600080fd5b806370a082311461037d578063745a41bc146103905780637ecebe00146103a357600080fd5b806330adf81f1161017157806348f3c51c1161014b57806348f3c51c146102fe578063585956d6146103305780636352211e1461035757806365d13a9b1461036a57600080fd5b806330adf81f146102bc5780633644e515146102e357806342842e0e146102eb57600080fd5b8063095ea7b3116101ad578063095ea7b314610269578063141a468c1461027e57806318160ddd1461029f57806323b872dd146102a957600080fd5b806301ffc9a7146101d457806306fdde03146101fc578063081812fc1461023e575b600080fd5b6101e76101e2366004612581565b61051d565b60405190151581526020015b60405180910390f35b60408051808201909152601181527f4f6e2d636861696e20426c6f636b69657300000000000000000000000000000060208201525b6040516101f391906125ee565b61025161024c366004612601565b61053d565b6040516001600160a01b0390911681526020016101f3565b61027c61027736600461262f565b6105ad565b005b61029161028c366004612601565b610655565b6040519081526020016101f3565b600160a01b610291565b61027c6102b736600461265b565b610699565b6102917f49ecf333e5b8c95c40fdafc95c1ad136e8914a8fb55e9dc8bb01eaa83a2df9ad81565b610291610819565b61027c6102f936600461265b565b610828565b61031161030c366004612601565b610848565b604080516001600160a01b0390931683526020830191909152016101f3565b6102917f045d890c79ffc118c4a2872a8cf3fee78fbf03c72a35e7fae867680021f3e1a481565b610251610365366004612601565b610868565b61027c610378366004612601565b6108a4565b61029161038b36600461269c565b61096b565b61027c61039e36600461275c565b6109a8565b6102916103b136600461269c565b6001600160a01b031660009081526004602052604090205490565b6103d4610a40565b6040516101f397969594939291906127bf565b6102517f000000000000000000000000000000000000000000000000000000000000000081565b60408051808201909152600681527f424c4f434b5900000000000000000000000000000000000000000000000000006020820152610231565b61027c610455366004612871565b610aa2565b61027c6104683660046128af565b610ab1565b61029161047b366004612601565b610b3a565b61027c61048e3660046128af565b610b45565b6102316104a1366004612601565b610cc7565b61027c6104b4366004612601565b610d50565b610231610e7f565b6101e76104cf366004612903565b6001600160a01b03918216600090815260026020908152604080832093909416825291909152205460ff1690565b61051061050b366004612931565b610eae565b6040516101f391906129a6565b600061052882610ff6565b8061053757506105378261108f565b92915050565b600080600061054b846110f7565b90925090506001600160a01b03821661057f576040516338077a2b60e01b8152600481018590526024015b60405180910390fd5b80156105a3575050506000908152600360205260409020546001600160a01b031690565b5060009392505050565b6000806105b98361113f565b90925090506001600160a01b0382166105e8576040516338077a2b60e01b815260048101849052602401610576565b336001600160a01b0383161480159061062557506001600160a01b038216600090815260026020908152604080832033845290915290205460ff16155b156106435760405163ea8e4eb560e01b815260040160405180910390fd5b61064f82828686611167565b50505050565b60008060006106638461113f565b90925090506001600160a01b038216610692576040516338077a2b60e01b815260048101859052602401610576565b9392505050565b60008060006106a784611293565b919450925090506001600160a01b0383166106d8576040516338077a2b60e01b815260048101859052602401610576565b826001600160a01b0316866001600160a01b031614610736576040517f23295f0e0000000000000000000000000000000000000000000000000000000081526001600160a01b03808816600483015284166024820152604401610576565b6001600160a01b038516158061075457506001600160a01b03851630145b1561077d57604051634726455360e11b81526001600160a01b0386166004820152602401610576565b336001600160a01b038716146107ff578080156107b057506000848152600360205260409020546001600160a01b031633145b1580156107e157506001600160a01b038616600090815260026020908152604080832033845290915290205460ff16155b156107ff5760405163ea8e4eb560e01b815260040160405180910390fd5b610811868686601886901c15156112e7565b505050505050565b6000610823611385565b905090565b61084383838360405180602001604052806000815250610b45565b505050565b6000806000806108578561113f565b909660189190911c95509350505050565b6000610873826113e6565b90506001600160a01b03811661089f576040516338077a2b60e01b815260048101839052602401610576565b919050565b6000806108b083611293565b919350909150506001600160a01b0382166108e1576040516338077a2b60e01b815260048101849052602401610576565b60405183906001600160a01b0384169081907fddf252ad1be2c89b69c2b068fc378daa952ba7f163c4a11628f55a4df523b3ef90600090a480156108435760008381526003602052604080822054905185926001600160a01b03928316928616917f8c5be1e5ebec7d5bd14f71427d1e84f3dd0314c0f7b2291e5b200ac8c7c3b9259190a4505050565b600061097682611418565b9050600061098c836001600160a01b031661113f565b915050601881901c6000036109a2576001909101905b50919050565b814211156109eb576040517fdd6b219a00000000000000000000000000000000000000000000000000000000815242600482015260248101839052604401610576565b6000806109f78561113f565b90925090506001600160a01b038216610a26576040516338077a2b60e01b815260048101869052602401610576565b610a34828787878588611468565b61081182828888611167565b7f0d000000000000000000000000000000000000000000000000000000000000006060806000808083610a71611576565b604080516020808201835260008083528351818152918201909352999a929990985046975030965090945092509050565b610aad3383836115b2565b5050565b81421115610af4576040517fdd6b219a00000000000000000000000000000000000000000000000000000000815242600482015260248101839052604401610576565b6001600160a01b03841660009081526004602052604081208054610b2e92879287928792909190610b2483612a14565b919050558561163d565b61064f848460016115b2565b600061053782610655565b6000806000610b5385611293565b919450925090506001600160a01b038316610b84576040516338077a2b60e01b815260048101869052602401610576565b866001600160a01b0316836001600160a01b031614610be2576040517f23295f0e0000000000000000000000000000000000000000000000000000000081526001600160a01b03808916600483015284166024820152604401610576565b6001600160a01b0386161580610c0057506001600160a01b03861630145b15610c2957604051634726455360e11b81526001600160a01b0387166004820152602401610576565b336001600160a01b03881614610cab57808015610c5c57506000858152600360205260409020546001600160a01b031633145b158015610c8d57506001600160a01b038716600090815260026020908152604080832033845290915290205460ff16155b15610cab5760405163ea8e4eb560e01b815260040160405180910390fd5b610cbe878787601886901c15158861174d565b50505050505050565b606060006040518060e0016040528060af8152602001612cbd60af91399050610cf2816048856117b3565b610d1e81610d0260486012612a2e565b610d0d906009612a2e565b610d18906029612a2e565b856117b3565b80610d288461188d565b604051602001610d39929190612a41565b604051602081830303815290604052915050919050565b600080610d5c8361113f565b90925090506001600160a01b038216610d8b576040516338077a2b60e01b815260048101849052602401610576565b601881901c15801590610dca576040517f646cf55800000000000000000000000000000000000000000000000000000000815260040160405180910390fd5b6001600160a01b0383163b1580610e545750336001600160a01b0316836001600160a01b0316638da5cb5b6040518163ffffffff1660e01b8152600401602060405180830381865afa158015610e24573d6000803e3d6000fd5b505050506040513d601f19601f82011682018060405250810190610e489190612a98565b6001600160a01b031614155b15610e725760405163ea8e4eb560e01b815260040160405180910390fd5b61064f83338660006112e7565b6060610e8a3061188d565b604051602001610e9a9190612ab5565b604051602081830303815290604052905090565b60608167ffffffffffffffff811115610ec957610ec96126b9565b604051908082528060200260200182016040528015610f0e57816020015b6040805180820190915260008082526020820152815260200190600190039081610ee75790505b50905060005b82811015610fef576000848483818110610f3057610f30612b6d565b602090810292909201356000818152928390526040909220549192508190506001600160a01b038116158015610f695750600160a01b83105b15610f715750815b80858581518110610f8457610f84612b6d565b6020026020010151600001906001600160a01b031690816001600160a01b03168152505060b882901c67ffffffffffffffff16858581518110610fc957610fc9612b6d565b602002602001015160200181815250505050508080610fe790612a14565b915050610f14565b5092915050565b60007f01ffc9a7000000000000000000000000000000000000000000000000000000006001600160e01b03198316148061105957507f80ac58cd000000000000000000000000000000000000000000000000000000006001600160e01b03198316145b806105375750506001600160e01b0319167f5b5e139f000000000000000000000000000000000000000000000000000000001490565b60006001600160e01b031982167f5604e22500000000000000000000000000000000000000000000000000000000148061053757506001600160e01b031982167fefdb586b000000000000000000000000000000000000000000000000000000001492915050565b6000818152602081905260408120548190600160ff1b808216145b90925090506001600160a01b0382161580156111315750600160a01b83105b1561113a578291505b915091565b600081815260208190526040812054819060a081901c6affffffffffffffffffffff16611112565b601883901c6000611179856001612a2e565b905081601882901c146111b8576040517fadc1557200000000000000000000000000000000000000000000000000000000815260040160405180910390fd5b6001600160a01b0384166111eb57600083815260208190526040902060a082901b6001600160a01b03881617905561124a565b6000838152602081815260408083206001600160a01b038a811660a087901b17600160ff1b17909155600390925290912080547fffffffffffffffffffffffff0000000000000000000000000000000000000000169186169190911790555b82846001600160a01b0316876001600160a01b03167f8c5be1e5ebec7d5bd14f71427d1e84f3dd0314c0f7b2291e5b200ac8c7c3b92560405160405180910390a4505050505050565b6000818152602081905260409020546affffffffffffffffffffff60a082901c16600160ff1b808316146001600160a01b0383161580156112d75750600160a01b84105b156112e0578392505b9193909250565b6001600160a01b0383166000908152600160208190526040909120805490910190558015611330576001600160a01b038416600090815260016020526040902080546000190190555b6000828152602081905260408082204360b81b6001600160a01b0380881691821790925591518593918816917fddf252ad1be2c89b69c2b068fc378daa952ba7f163c4a11628f55a4df523b3ef91a450505050565b6000467f000000000000000000000000000000000000000000000000000000000000000081146113be576113b98130611b8c565b6113e0565b7f00000000000000000000000000000000000000000000000000000000000000005b91505090565b6000818152602081905260409020546001600160a01b03811615801561140f5750600160a01b82105b1561089f575090565b60006001600160a01b03821661144c57604051634726455360e11b81526001600160a01b0383166004820152602401610576565b506001600160a01b031660009081526001602052604090205490565b6000611472610819565b604080517f49ecf333e5b8c95c40fdafc95c1ad136e8914a8fb55e9dc8bb01eaa83a2df9ad60208201526001600160a01b03891691810191909152606081018790526080810185905260a0810186905260c0016040516020818303038152906040528051906020012060405160200161151d9291907f190100000000000000000000000000000000000000000000000000000000000081526002810192909252602282015260420190565b604051602081830303815290604052805190602001209050611540878284611c40565b610cbe576040517f8baa579f00000000000000000000000000000000000000000000000000000000815260040160405180910390fd5b606061082360408051808201909152601181527f4f6e2d636861696e20426c6f636b696573000000000000000000000000000000602082015290565b6001600160a01b0383811660008181526002602090815260408083209487168084529482529182902080547fffffffffffffffffffffffffffffffffffffffffffffffffffffffffffffff001686151590811790915591519182527f17307eab39ab6107e8899845ad3d59bd9653f200f220920489ca2b5937696c31910160405180910390a3505050565b6000611647610819565b604080517f045d890c79ffc118c4a2872a8cf3fee78fbf03c72a35e7fae867680021f3e1a460208201526001600160a01b03808a169282019290925290871660608201526080810185905260a0810186905260c001604051602081830303815290604052805190602001206040516020016116f49291907f190100000000000000000000000000000000000000000000000000000000000081526002810192909252602282015260420190565b604051602081830303815290604052805190602001209050611717868284611c40565b610811576040517f8baa579f00000000000000000000000000000000000000000000000000000000815260040160405180910390fd5b611759858585856112e7565b6001600160a01b0384163b156117ac576117763386868685611db0565b6117ac576040517f4e472e5e00000000000000000000000000000000000000000000000000000000815260040160405180910390fd5b5050505050565b8015610843576040805180820190915260108082527f303132333435363738396162636465660000000000000000000000000000000060208301526117f89083612b99565b8151811061180857611808612b6d565b01602001517fff0000000000000000000000000000000000000000000000000000000000000016838361183a81612bad565b94508151811061184c5761184c612b6d565b60200101907effffffffffffffffffffffffffffffffffffffffffffffffffffffffffffff1916908160001a905350611886601082612bc4565b90506117b3565b60606000604051806107a0016040528061076e8152602001612d9661076e9139905060006118c26118bd85611e60565b611e94565b90506118d082826001611fdc565b6118dc82826000611fdc565b6118e882826002611fdc565b60005b6008811015611b83576000600a6380000000611957858051602082018051600390810b8452604084018051820b9092526060909301805180850b9283905260139290921d90911882840b600b1b90921891821891830b60081d919091189182900b905263ffffffff1690565b611962906017612bd8565b61196c9190612bc4565b6119769190612bc4565b90506000600a63800000006119db868051602082018051600390810b8452604084018051820b9092526060909301805180850b9283905260139290921d90911882840b600b1b90921891821891830b60081d919091189182900b905263ffffffff1690565b6119e6906017612bd8565b6119f09190612bc4565b6119fa9190612bc4565b90506000600a6380000000611a5f878051602082018051600390810b8452604084018051820b9092526060909301805180850b9283905260139290921d90911882840b600b1b90921891821891830b60081d919091189182900b905263ffffffff1690565b611a6a906017612bd8565b611a749190612bc4565b611a7e9190612bc4565b90506000600a6380000000611ae3888051602082018051600390810b8452604084018051820b9092526060909301805180850b9283905260139290921d90911882840b600b1b90921891821891830b60081d919091189182900b905263ffffffff1690565b611aee906017612bd8565b611af89190612bc4565b611b029190612bc4565b9050611b11876000878761208b565b611b1e876001878661208b565b611b2b876002878561208b565b611b38876003878461208b565b611b45876004878461208b565b611b52876005878561208b565b611b5f876006878661208b565b611b6c876007878761208b565b505050508080611b7b90612a14565b9150506118eb565b50909392505050565b60007f8cad95687ba82c2ce50e74f7b754645e5117c3a5bec8151c0726d5857980a866611be960408051808201909152601181527f4f6e2d636861696e20426c6f636b696573000000000000000000000000000000602082015290565b8051602091820120604051611c2293928791879101938452602084019290925260408301526001600160a01b0316606082015260800190565b60405160208183030381529060405280519060200120905092915050565b6000806000611c4f85856121bc565b90925090506000816004811115611c6857611c68612bf7565b148015611c865750856001600160a01b0316826001600160a01b0316145b15611c9657600192505050610692565b600080876001600160a01b0316631626ba7e60e01b8888604051602401611cbe929190612c0d565b60408051601f198184030181529181526020820180517bffffffffffffffffffffffffffffffffffffffffffffffffffffffff166001600160e01b0319909416939093179092529051611d119190612c2e565b600060405180830381855afa9150503d8060008114611d4c576040519150601f19603f3d011682016040523d82523d6000602084013e611d51565b606091505b5091509150818015611d64575080516020145b8015611da4575080517f1626ba7e0000000000000000000000000000000000000000000000000000000090611da29083016020908101908401612c4a565b145b98975050505050505050565b600080846001600160a01b031663150b7a02888887876040518563ffffffff1660e01b8152600401611de59493929190612c63565b6020604051808303816000875af1158015611e04573d6000803e3d6000fd5b505050506040513d601f19601f82011682018060405250810190611e289190612c9f565b6001600160e01b0319167f150b7a02000000000000000000000000000000000000000000000000000000001491505095945050505050565b606060006040518060600160405280602a8152602001612d6c602a91399050610537816029856001600160a01b03166117b3565b6040805160808101825260008082526020820181905291810182905260608101829052905b82518110156109a257600381166000819003611f0557838281518110611ee157611ee1612b6d565b602091010151835160f89190911c600382810b60051b9290920301900b8352611fd3565b8060ff16600103611f4b57838281518110611f2257611f22612b6d565b60209101810151908401805160f89290921c600383810b60051b939093030190910b9052611fd3565b8060ff16600203611f9157838281518110611f6857611f68612b6d565b60209101015160408401805160f89290921c600383810b60051b939093030190910b9052611fd3565b8060ff16600303611fd357838281518110611fae57611fae612b6d565b60209101015160608401805160f89290921c600383810b60051b939093030190910b90525b50600101611eb9565b6000806000611fea85612201565b9194509250905060a860ff85166001036120115761200a60a86036612a2e565b9050612042565b8460ff166002036120425761202860a86036612a2e565b612033906012612a2e565b61203f9061033b612a2e565b90505b61205b87612051836000612a2e565b8661ffff166123fe565b6120738761206a836004612a2e565b8560ff166123fe565b610cbe87612082836009612a2e565b8460ff166123fe565b60008160ff1660000361209e575061064f565b8160ff166001036120c7576120b560a86036612a2e565b6120c0906012612a2e565b9050612103565b8160ff16600203612103576120de60a86036612a2e565b6120e9906012612a2e565b6120f59061033b612a2e565b612100906012612a2e565b90505b600084612111856008612bd8565b61211b9190612a2e565b61212690600c612bd8565b612131856005612bd8565b61213b9084612a2e565b6121459190612a2e565b612150906008612a2e565b90507f310000000000000000000000000000000000000000000000000000000000000086828151811061218557612185612b6d565b60200101907effffffffffffffffffffffffffffffffffffffffffffffffffffffffffffff1916908160001a905350505050505050565b60008082516041036121f25760208301516040840151606085015160001a6121e68782858561247b565b945094505050506121fa565b506000905060025b9250929050565b60008060006380000000612265858051602082018051600390810b8452604084018051820b9092526060909301805180850b9283905260139290921d90911882840b600b1b90921891821891830b60081d919091189182900b905263ffffffff1690565b610168028161227657612276612b83565b04925063800000006122d8858051602082018051600390810b8452604084018051820b9092526060909301805180850b9283905260139290921d90911882840b600b1b90921891821891830b60081d919091189182900b905263ffffffff1690565b603c02816122e8576122e8612b83565b046028019150638000000061234d858051602082018051600390810b8452604084018051820b9092526060909301805180850b9283905260139290921d90911882840b600b1b90921891821891830b60081d919091189182900b905263ffffffff1690565b855160208701805160408901805160608b018051600381810b808f52601390811d90921888820b600b90811b90991890811890820b600890811d9190911880830b9889905288841d90981896820b808a1b1896871896820b811d9690961880820b958690529185901d90941892840b9687901b90961891821891830b90931d189081900b90915263ffffffff9182169282169116010101601902816123f4576123f4612b83565b0490509193909250565b80156108435761240f600a82612b99565b61241a906030612a2e565b60f81b838361242881612bad565b94508151811061243a5761243a612b6d565b60200101907effffffffffffffffffffffffffffffffffffffffffffffffffffffffffffff1916908160001a905350612474600a82612bc4565b90506123fe565b6000807f7fffffffffffffffffffffffffffffff5d576e7357a4501ddfe92f46681b20a08311156124b2575060009050600361255f565b8460ff16601b141580156124ca57508460ff16601c14155b156124db575060009050600461255f565b6040805160008082526020820180845289905260ff881692820192909252606081018690526080810185905260019060a0016020604051602081039080840390855afa15801561252f573d6000803e3d6000fd5b5050604051601f1901519150506001600160a01b0381166125585760006001925092505061255f565b9150600090505b94509492505050565b6001600160e01b03198116811461257e57600080fd5b50565b60006020828403121561259357600080fd5b813561069281612568565b60005b838110156125b95781810151838201526020016125a1565b50506000910152565b600081518084526125da81602086016020860161259e565b601f01601f19169290920160200192915050565b60208152600061069260208301846125c2565b60006020828403121561261357600080fd5b5035919050565b6001600160a01b038116811461257e57600080fd5b6000806040838503121561264257600080fd5b823561264d8161261a565b946020939093013593505050565b60008060006060848603121561267057600080fd5b833561267b8161261a565b9250602084013561268b8161261a565b929592945050506040919091013590565b6000602082840312156126ae57600080fd5b81356106928161261a565b634e487b7160e01b600052604160045260246000fd5b600082601f8301126126e057600080fd5b813567ffffffffffffffff808211156126fb576126fb6126b9565b604051601f8301601f19908116603f01168101908282118183101715612723576127236126b9565b8160405283815286602085880101111561273c57600080fd5b836020870160208301376000602085830101528094505050505092915050565b6000806000806080858703121561277257600080fd5b843561277d8161261a565b93506020850135925060408501359150606085013567ffffffffffffffff8111156127a757600080fd5b6127b3878288016126cf565b91505092959194509250565b7fff00000000000000000000000000000000000000000000000000000000000000881681526000602060e0818401526127fb60e084018a6125c2565b838103604085015261280d818a6125c2565b606085018990526001600160a01b038816608086015260a0850187905284810360c0860152855180825283870192509083019060005b8181101561285f57835183529284019291840191600101612843565b50909c9b505050505050505050505050565b6000806040838503121561288457600080fd5b823561288f8161261a565b9150602083013580151581146128a457600080fd5b809150509250929050565b600080600080608085870312156128c557600080fd5b84356128d08161261a565b935060208501356128e08161261a565b925060408501359150606085013567ffffffffffffffff8111156127a757600080fd5b6000806040838503121561291657600080fd5b82356129218161261a565b915060208301356128a48161261a565b6000806020838503121561294457600080fd5b823567ffffffffffffffff8082111561295c57600080fd5b818501915085601f83011261297057600080fd5b81358181111561297f57600080fd5b8660208260051b850101111561299457600080fd5b60209290920196919550909350505050565b602080825282518282018190526000919060409081850190868401855b828110156129f157815180516001600160a01b031685528601518685015292840192908501906001016129c3565b5091979650505050505050565b634e487b7160e01b600052601160045260246000fd5b60006000198203612a2757612a276129fe565b5060010190565b80820180821115610537576105376129fe565b60008351612a5381846020880161259e565b835190830190612a6781836020880161259e565b7f227d0000000000000000000000000000000000000000000000000000000000009101908152600201949350505050565b600060208284031215612aaa57600080fd5b81516106928161261a565b7f646174613a6170706c69636174696f6e2f6a736f6e2c7b226e616d65223a224281527f6c6f636b696573222c226465736372697074696f6e223a224f6e2d636861696e60208201527f253230426c6f636b696573222c22696d616765223a2200000000000000000000604082015260008251612b3981605685016020870161259e565b7f227d0000000000000000000000000000000000000000000000000000000000006056939091019283015250605801919050565b634e487b7160e01b600052603260045260246000fd5b634e487b7160e01b600052601260045260246000fd5b600082612ba857612ba8612b83565b500690565b600081612bbc57612bbc6129fe565b506000190190565b600082612bd357612bd3612b83565b500490565b6000816000190483118215151615612bf257612bf26129fe565b500290565b634e487b7160e01b600052602160045260246000fd5b828152604060208201526000612c2660408301846125c2565b949350505050565b60008251612c4081846020870161259e565b9190910192915050565b600060208284031215612c5c57600080fd5b5051919050565b60006001600160a01b03808716835280861660208401525083604083015260806060830152612c9560808301846125c2565b9695505050505050565b600060208284031215612cb157600080fd5b81516106928161256856fe646174613a6170706c69636174696f6e2f6a736f6e2c7b226e616d65223a22307830303030303030303030303030303030303030303030303030303030303030303030303030303030222c226465736372697074696f6e223a22426c6f636b7925323030783030303030303030303030303030303030303030303030303030303030303030303030303030303025323067656e6572617465642532306f6e2d636861696e222c22696d616765223a22307830303030303030303030303030303030303030303030303030303030303030303030303030303030646174613a696d6167652f7376672b786d6c2c3c737667253230786d6c6e733d27687474703a2f2f7777772e77332e6f72672f323030302f7376672725323073686170652d72656e646572696e673d27637269737045646765732725323077696474683d27353132272532306865696768743d27353132273e3c672532307472616e73666f726d3d277363616c6528363429273e3c7061746825323066696c6c3d2768736c283030302c303030252c303030252927253230643d274d302c3068387638682d387a272f3e3c7061746825323066696c6c3d2768736c283030302c303030252c303030252927253230643d274d302c3068317630682d317a6d312c3068317630682d317a6d312c3068317630682d317a6d312c3068317630682d317a6d312c3068317630682d317a6d312c3068317630682d317a6d312c3068317630682d317a6d312c3068317630682d317a6d2d382c316d312c3068317630682d317a6d312c3068317630682d317a6d312c3068317630682d317a6d312c3068317630682d317a6d312c3068317630682d317a6d312c3068317630682d317a6d312c3068317630682d317a6d312c3068317630682d317a6d2d382c316d312c3068317630682d317a6d312c3068317630682d317a6d312c3068317630682d317a6d312c3068317630682d317a6d312c3068317630682d317a6d312c3068317630682d317a6d312c3068317630682d317a6d312c3068317630682d317a6d2d382c316d312c3068317630682d317a6d312c3068317630682d317a6d312c3068317630682d317a6d312c3068317630682d317a6d312c3068317630682d317a6d312c3068317630682d317a6d312c3068317630682d317a6d312c3068317630682d317a6d2d382c316d312c3068317630682d317a6d312c3068317630682d317a6d312c3068317630682d317a6d312c3068317630682d317a6d312c3068317630682d317a6d312c3068317630682d317a6d312c3068317630682d317a6d312c3068317630682d317a6d2d382c316d312c3068317630682d317a6d312c3068317630682d317a6d312c3068317630682d317a6d312c3068317630682d317a6d312c3068317630682d317a6d312c3068317630682d317a6d312c3068317630682d317a6d312c3068317630682d317a6d2d382c316d312c3068317630682d317a6d312c3068317630682d317a6d312c3068317630682d317a6d312c3068317630682d317a6d312c3068317630682d317a6d312c3068317630682d317a6d312c3068317630682d317a6d312c3068317630682d317a6d2d382c316d312c3068317630682d317a6d312c3068317630682d317a6d312c3068317630682d317a6d312c3068317630682d317a6d312c3068317630682d317a6d312c3068317630682d317a6d312c3068317630682d317a6d312c3068317630682d317a272f3e3c7061746825323066696c6c3d2768736c283030302c303030252c303030252927253230643d274d302c3068317630682d317a6d312c3068317630682d317a6d312c3068317630682d317a6d312c3068317630682d317a6d312c3068317630682d317a6d312c3068317630682d317a6d312c3068317630682d317a6d312c3068317630682d317a6d2d382c316d312c3068317630682d317a6d312c3068317630682d317a6d312c3068317630682d317a6d312c3068317630682d317a6d312c3068317630682d317a6d312c3068317630682d317a6d312c3068317630682d317a6d312c3068317630682d317a6d2d382c316d312c3068317630682d317a6d312c3068317630682d317a6d312c3068317630682d317a6d312c3068317630682d317a6d312c3068317630682d317a6d312c3068317630682d317a6d312c3068317630682d317a6d312c3068317630682d317a6d2d382c316d312c3068317630682d317a6d312c3068317630682d317a6d312c3068317630682d317a6d312c3068317630682d317a6d312c3068317630682d317a6d312c3068317630682d317a6d312c3068317630682d317a6d312c3068317630682d317a6d2d382c316d312c3068317630682d317a6d312c3068317630682d317a6d312c3068317630682d317a6d312c3068317630682d317a6d312c3068317630682d317a6d312c3068317630682d317a6d312c3068317630682d317a6d312c3068317630682d317a6d2d382c316d312c3068317630682d317a6d312c3068317630682d317a6d312c3068317630682d317a6d312c3068317630682d317a6d312c3068317630682d317a6d312c3068317630682d317a6d312c3068317630682d317a6d312c3068317630682d317a6d2d382c316d312c3068317630682d317a6d312c3068317630682d317a6d312c3068317630682d317a6d312c3068317630682d317a6d312c3068317630682d317a6d312c3068317630682d317a6d312c3068317630682d317a6d312c3068317630682d317a6d2d382c316d312c3068317630682d317a6d312c3068317630682d317a6d312c3068317630682d317a6d312c3068317630682d317a6d312c3068317630682d317a6d312c3068317630682d317a6d312c3068317630682d317a6d312c3068317630682d317a272f3e3c2f673e3c2f7376673ea26469706673582212200a17d3085452e926ec52c136bde142e536e46c4da1f05513e1f2f47850c5a2b764736f6c63430008100033",
  "devdoc": {
    "kind": "dev",
    "methods": {
      "approve(address,uint256)": {
        "params": {
          "operator": "The address receiving the approval.",
          "tokenId": "The id of the token."
        }
      },
      "balanceOf(address)": {
        "params": {
          "owner": "The address to look for."
        },
        "returns": {
          "balance": "The number of tokens owned by the address."
        }
      },
      "claimOwnership(uint256)": {
        "params": {
          "id": "blocky address to claim"
        }
      },
      "eip712Domain()": {
        "returns": {
          "chainId": "EIP-712 chainId",
          "extensions": "A list of EIP numbers that specify additional fields in the domain. The method to obtain the value for each of these additional fields and any conditions for inclusion are expected to be specified in the respective EIP. The value of fields does not affect their inclusion.",
          "fields": "A bit map where bit i is set to 1 if and only if domain field i is present (0  i  4). Bits are read from least significant to most significant, and fields are indexed in the order that is specified by EIP-712, identical to the order in which they are listed in the function type.",
          "name": "EIP-712 name",
          "salt": "EIP-712 salt",
          "verifyingContract": "EIP-712 name verifyingContract",
          "version": "EIP-712 version"
        }
      },
      "emitSelfTransferEvent(uint256)": {
        "params": {
          "id": "tokenID to emit the event for."
        }
      },
      "getApproved(uint256)": {
        "params": {
          "tokenId": "The id of the token."
        },
        "returns": {
          "operator": "The address of the operator."
        }
      },
      "isApprovedForAll(address,address)": {
        "params": {
          "operator": "The address of the operator.",
          "owner": "The address of the owner."
        },
        "returns": {
          "isOperator": "The status of the approval."
        }
      },
      "nonces(address)": {
        "params": {
          "account": "account to query"
        },
        "returns": {
          "nonce": "account's nonce"
        }
      },
      "nonces(uint256)": {
        "params": {
          "tokenId": "token id"
        },
        "returns": {
          "nonce": "token nonce"
        }
      },
      "ownerAndLastTransferBlockNumberList(uint256[])": {
        "params": {
          "ids": "The list of token ids to check."
        },
        "returns": {
          "ownersData": "The list of (owner, lastTransferBlockNumber) for each ids given as input."
        }
      },
      "ownerAndLastTransferBlockNumberOf(uint256)": {
        "params": {
          "id": "The id of the token."
        },
        "returns": {
          "blockNumber": "The blocknumber at which the last transfer of that id happened.",
          "owner": "The address of the token owner."
        }
      },
      "ownerOf(uint256)": {
        "params": {
          "tokenId": "The id of the token."
        },
        "returns": {
          "owner": "The address of the token owner."
        }
      },
      "permit(address,uint256,uint256,bytes)": {
        "details": "Anyone can call this to approve `spender`, even a third-party",
        "params": {
          "deadline": "the deadline for the permit to be used",
          "signature": "permit",
          "spender": "the actor to approve",
          "tokenId": "the token id"
        }
      },
      "permitForAll(address,address,uint256,bytes)": {
        "details": "Anyone can call this to approve `spender`, even a third-party",
        "params": {
          "deadline": "the deadline for the permit to be used",
          "signature": "permit",
          "signer": "the one giving permission",
          "spender": "the actor to approve"
        }
      },
      "safeTransferFrom(address,address,uint256)": {
        "params": {
          "from": "The send of the token.",
          "to": "The recipient of the token.",
          "tokenId": "The id of the token."
        }
      },
      "safeTransferFrom(address,address,uint256,bytes)": {
        "params": {
          "data": "Additional data.",
          "from": "The sender of the token.",
          "to": "The recipient of the token.",
          "tokenId": "The id of the token."
        }
      },
      "setApprovalForAll(address,bool)": {
        "params": {
          "approved": "The determination of the approval.",
          "operator": "The address receiving the approval."
        }
      },
      "supportsInterface(bytes4)": {
        "details": "Interface identification is specified in ERC-165. This function  uses less than 30,000 gas.",
        "params": {
          "interfaceID": "The interface identifier, as specified in ERC-165"
        },
        "returns": {
          "_0": "`true` if the contract implements `interfaceID` and  `interfaceID` is not 0xffffffff, `false` otherwise"
        }
      },
      "tokenNonces(uint256)": {
        "params": {
          "tokenId": "token id"
        },
        "returns": {
          "nonce": "token nonce"
        }
      },
      "tokenURI(uint256)": {
        "details": "Throws if `_tokenId` is not a valid NFT. URIs are defined in RFC  3986. The URI may point to a JSON file that conforms to the \"ERC721  Metadata JSON Schema\"."
      },
      "transferFrom(address,address,uint256)": {
        "params": {
          "from": "The sender of the token.",
          "to": "The recipient of the token.",
          "tokenId": "The id of the token."
        }
      }
    },
    "title": "On-chain Blockies",
    "version": 1
  },
  "userdoc": {
    "kind": "user",
    "methods": {
      "DOMAIN_SEPARATOR()": {
        "notice": "EIP-712 Domain separator hash"
      },
      "approve(address,uint256)": {
        "notice": "Approve an operator to transfer a specific token on the senders behalf."
      },
      "balanceOf(address)": {
        "notice": "Get the number of tokens owned by an address."
      },
      "claimOwnership(uint256)": {
        "notice": "claim ownership of the blocky if you are the owner of a contract"
      },
      "contractURI()": {
        "notice": "Returns the Uniform Resource Identifier (URI) for the token collection."
      },
      "eip712Domain()": {
        "notice": "The return values of this function MUST describe the domain separator that is used for verification of EIP-712 signatures in the contract. They describe both the form of the EIP712Domain struct (i.e., which of the optional fields and extensions are present) and the value of each field, as follows."
      },
      "emitSelfTransferEvent(uint256)": {
        "notice": "emit Transfer event so that indexer can pick it up.   This can be called by anyone at any time and does not change state   As such it keeps the token's operator-approval state and will re-emit an Approval event to indicate that."
      },
      "getApproved(uint256)": {
        "notice": "Get the approved operator for a specific token."
      },
      "isApprovedForAll(address,address)": {
        "notice": "Check if the sender approved the operator."
      },
      "name()": {
        "notice": "A descriptive name for a collection of NFTs in this contract"
      },
      "nonces(address)": {
        "notice": "Allows to retrieve current nonce for the account"
      },
      "nonces(uint256)": {
        "notice": "Allows to retrieve current nonce for token"
      },
      "owner()": {
        "notice": "owner of the contract, can claim this contract's blocky no other role granted"
      },
      "ownerAndLastTransferBlockNumberList(uint256[])": {
        "notice": "Get the list of owner of a token and the blockNumber of its last transfer, useful to voting mechanism."
      },
      "ownerAndLastTransferBlockNumberOf(uint256)": {
        "notice": "Get the owner of a token and the blockNumber of the last transfer, useful to voting mechanism."
      },
      "ownerOf(uint256)": {
        "notice": "Get the owner of a token."
      },
      "permit(address,uint256,uint256,bytes)": {
        "notice": "function to be called by anyone to approve `spender` using a Permit signature"
      },
      "permitForAll(address,address,uint256,bytes)": {
        "notice": "function to be called by anyone to approve `spender` using a Permit signature"
      },
      "safeTransferFrom(address,address,uint256)": {
        "notice": "Transfer a token between 2 addresses letting the receiver know of the transfer."
      },
      "safeTransferFrom(address,address,uint256,bytes)": {
        "notice": "Transfer a token between 2 addresses letting the receiver knows of the transfer."
      },
      "setApprovalForAll(address,bool)": {
        "notice": "Set the approval for an operator to manage all the tokens of the sender."
      },
      "supportsInterface(bytes4)": {
        "notice": "Query if a contract implements an interface"
      },
      "symbol()": {
        "notice": "An abbreviated name for NFTs in this contract"
      },
      "tokenNonces(uint256)": {
        "notice": "Allows to retrieve current nonce for token"
      },
      "tokenURI(uint256)": {
        "notice": "A distinct Uniform Resource Identifier (URI) for a given asset."
      },
      "transferFrom(address,address,uint256)": {
        "notice": "Transfer a token between 2 addresses."
      }
    },
    "notice": "Blockies as NFT. Each ethereum address owns its own one. No minting needed. You can even use Permit (EIP-4494) to approve contracts via signatures. Note though that unless you transfer or call `emitSelfTransferEvent` indexer would not know of your token.",
    "version": 1
  },
  "storageLayout": {
    "storage": [
      {
        "astId": 801,
        "contract": "src/Blockies.sol:Blockies",
        "label": "_owners",
        "offset": 0,
        "slot": "0",
        "type": "t_mapping(t_uint256,t_uint256)"
      },
      {
        "astId": 805,
        "contract": "src/Blockies.sol:Blockies",
        "label": "_balances",
        "offset": 0,
        "slot": "1",
        "type": "t_mapping(t_address,t_uint256)"
      },
      {
        "astId": 811,
        "contract": "src/Blockies.sol:Blockies",
        "label": "_operatorsForAll",
        "offset": 0,
        "slot": "2",
        "type": "t_mapping(t_address,t_mapping(t_address,t_bool))"
      },
      {
        "astId": 815,
        "contract": "src/Blockies.sol:Blockies",
        "label": "_operators",
        "offset": 0,
        "slot": "3",
        "type": "t_mapping(t_uint256,t_address)"
      },
      {
        "astId": 293,
        "contract": "src/Blockies.sol:Blockies",
        "label": "_userNonces",
        "offset": 0,
        "slot": "4",
        "type": "t_mapping(t_address,t_uint256)"
      }
    ],
    "types": {
      "t_address": {
        "encoding": "inplace",
        "label": "address",
        "numberOfBytes": "20"
      },
      "t_bool": {
        "encoding": "inplace",
        "label": "bool",
        "numberOfBytes": "1"
      },
      "t_mapping(t_address,t_bool)": {
        "encoding": "mapping",
        "key": "t_address",
        "label": "mapping(address => bool)",
        "numberOfBytes": "32",
        "value": "t_bool"
      },
      "t_mapping(t_address,t_mapping(t_address,t_bool))": {
        "encoding": "mapping",
        "key": "t_address",
        "label": "mapping(address => mapping(address => bool))",
        "numberOfBytes": "32",
        "value": "t_mapping(t_address,t_bool)"
      },
      "t_mapping(t_address,t_uint256)": {
        "encoding": "mapping",
        "key": "t_address",
        "label": "mapping(address => uint256)",
        "numberOfBytes": "32",
        "value": "t_uint256"
      },
      "t_mapping(t_uint256,t_address)": {
        "encoding": "mapping",
        "key": "t_uint256",
        "label": "mapping(uint256 => address)",
        "numberOfBytes": "32",
        "value": "t_address"
      },
      "t_mapping(t_uint256,t_uint256)": {
        "encoding": "mapping",
        "key": "t_uint256",
        "label": "mapping(uint256 => uint256)",
        "numberOfBytes": "32",
        "value": "t_uint256"
      },
      "t_uint256": {
        "encoding": "inplace",
        "label": "uint256",
        "numberOfBytes": "32"
      }
    }
  }
}