{
  "address": "0x4330388FDDE41735a71BDb8ec9f9A71342639Aeb",
  "abi": [
    {
      "inputs": [],
      "stateMutability": "nonpayable",
      "type": "constructor"
    },
    {
      "anonymous": false,
      "inputs": [
        {
          "indexed": true,
          "internalType": "address",
          "name": "owner",
          "type": "address"
        },
        {
          "indexed": true,
          "internalType": "address",
          "name": "approved",
          "type": "address"
        },
        {
          "indexed": true,
          "internalType": "uint256",
          "name": "tokenId",
          "type": "uint256"
        }
      ],
      "name": "Approval",
      "type": "event"
    },
    {
      "anonymous": false,
      "inputs": [
        {
          "indexed": true,
          "internalType": "address",
          "name": "owner",
          "type": "address"
        },
        {
          "indexed": true,
          "internalType": "address",
          "name": "operator",
          "type": "address"
        },
        {
          "indexed": false,
          "internalType": "bool",
          "name": "approved",
          "type": "bool"
        }
      ],
      "name": "ApprovalForAll",
      "type": "event"
    },
    {
      "anonymous": false,
      "inputs": [
        {
          "indexed": true,
          "internalType": "address",
          "name": "from",
          "type": "address"
        },
        {
          "indexed": true,
          "internalType": "address",
          "name": "to",
          "type": "address"
        },
        {
          "indexed": true,
          "internalType": "uint256",
          "name": "tokenId",
          "type": "uint256"
        }
      ],
      "name": "Transfer",
      "type": "event"
    },
    {
      "inputs": [],
      "name": "DOMAIN_SEPARATOR",
      "outputs": [
        {
          "internalType": "bytes32",
          "name": "",
          "type": "bytes32"
        }
      ],
      "stateMutability": "view",
      "type": "function"
    },
    {
      "inputs": [],
      "name": "PERMIT_FOR_ALL_TYPEHASH",
      "outputs": [
        {
          "internalType": "bytes32",
          "name": "",
          "type": "bytes32"
        }
      ],
      "stateMutability": "view",
      "type": "function"
    },
    {
      "inputs": [],
      "name": "PERMIT_TYPEHASH",
      "outputs": [
        {
          "internalType": "bytes32",
          "name": "",
          "type": "bytes32"
        }
      ],
      "stateMutability": "view",
      "type": "function"
    },
    {
      "inputs": [
        {
          "internalType": "address",
          "name": "operator",
          "type": "address"
        },
        {
          "internalType": "uint256",
          "name": "id",
          "type": "uint256"
        }
      ],
      "name": "approve",
      "outputs": [],
      "stateMutability": "nonpayable",
      "type": "function"
    },
    {
      "inputs": [
        {
          "internalType": "address",
          "name": "owner",
          "type": "address"
        }
      ],
      "name": "balanceOf",
      "outputs": [
        {
          "internalType": "uint256",
          "name": "balance",
          "type": "uint256"
        }
      ],
      "stateMutability": "view",
      "type": "function"
    },
    {
      "inputs": [],
      "name": "eip712Domain",
      "outputs": [
        {
          "internalType": "bytes1",
          "name": "",
          "type": "bytes1"
        },
        {
          "internalType": "string",
          "name": "",
          "type": "string"
        },
        {
          "internalType": "string",
          "name": "",
          "type": "string"
        },
        {
          "internalType": "uint256",
          "name": "",
          "type": "uint256"
        },
        {
          "internalType": "address",
          "name": "",
          "type": "address"
        },
        {
          "internalType": "bytes32",
          "name": "",
          "type": "bytes32"
        },
        {
          "internalType": "uint256[]",
          "name": "",
          "type": "uint256[]"
        }
      ],
      "stateMutability": "view",
      "type": "function"
    },
    {
      "inputs": [
        {
          "internalType": "uint256",
          "name": "id",
          "type": "uint256"
        }
      ],
      "name": "emitSelfTransferEvent",
      "outputs": [],
      "stateMutability": "nonpayable",
      "type": "function"
    },
    {
      "inputs": [
        {
          "internalType": "uint256",
          "name": "id",
          "type": "uint256"
        }
      ],
      "name": "getApproved",
      "outputs": [
        {
          "internalType": "address",
          "name": "",
          "type": "address"
        }
      ],
      "stateMutability": "view",
      "type": "function"
    },
    {
      "inputs": [
        {
          "internalType": "address",
          "name": "owner",
          "type": "address"
        },
        {
          "internalType": "address",
          "name": "operator",
          "type": "address"
        }
      ],
      "name": "isApprovedForAll",
      "outputs": [
        {
          "internalType": "bool",
          "name": "isOperator",
          "type": "bool"
        }
      ],
      "stateMutability": "view",
      "type": "function"
    },
    {
      "inputs": [],
      "name": "name",
      "outputs": [
        {
          "internalType": "string",
          "name": "",
          "type": "string"
        }
      ],
      "stateMutability": "pure",
      "type": "function"
    },
    {
      "inputs": [
        {
          "internalType": "uint256",
          "name": "id",
          "type": "uint256"
        }
      ],
      "name": "nonces",
      "outputs": [
        {
          "internalType": "uint256",
          "name": "nonce",
          "type": "uint256"
        }
      ],
      "stateMutability": "view",
      "type": "function"
    },
    {
      "inputs": [
        {
          "internalType": "address",
          "name": "account",
          "type": "address"
        }
      ],
      "name": "nonces",
      "outputs": [
        {
          "internalType": "uint256",
          "name": "nonce",
          "type": "uint256"
        }
      ],
      "stateMutability": "view",
      "type": "function"
    },
    {
      "inputs": [
        {
          "internalType": "uint256[]",
          "name": "ids",
          "type": "uint256[]"
        }
      ],
      "name": "ownerAndLastTransferBlockNumberList",
      "outputs": [
        {
          "components": [
            {
              "internalType": "address",
              "name": "owner",
              "type": "address"
            },
            {
              "internalType": "uint256",
              "name": "lastTransferBlockNumber",
              "type": "uint256"
            }
          ],
          "internalType": "struct BasicERC721.OwnerData[]",
          "name": "ownersData",
          "type": "tuple[]"
        }
      ],
      "stateMutability": "view",
      "type": "function"
    },
    {
      "inputs": [
        {
          "internalType": "uint256",
          "name": "id",
          "type": "uint256"
        }
      ],
      "name": "ownerOf",
      "outputs": [
        {
          "internalType": "address",
          "name": "owner",
          "type": "address"
        }
      ],
      "stateMutability": "view",
      "type": "function"
    },
    {
      "inputs": [
        {
          "internalType": "address",
          "name": "spender",
          "type": "address"
        },
        {
          "internalType": "uint256",
          "name": "tokenId",
          "type": "uint256"
        },
        {
          "internalType": "uint256",
          "name": "deadline",
          "type": "uint256"
        },
        {
          "internalType": "bytes",
          "name": "sig",
          "type": "bytes"
        }
      ],
      "name": "permit",
      "outputs": [],
      "stateMutability": "nonpayable",
      "type": "function"
    },
    {
      "inputs": [
        {
          "internalType": "address",
          "name": "signer",
          "type": "address"
        },
        {
          "internalType": "address",
          "name": "spender",
          "type": "address"
        },
        {
          "internalType": "uint256",
          "name": "deadline",
          "type": "uint256"
        },
        {
          "internalType": "bytes",
          "name": "sig",
          "type": "bytes"
        }
      ],
      "name": "permitForAll",
      "outputs": [],
      "stateMutability": "nonpayable",
      "type": "function"
    },
    {
      "inputs": [
        {
          "internalType": "address",
          "name": "from",
          "type": "address"
        },
        {
          "internalType": "address",
          "name": "to",
          "type": "address"
        },
        {
          "internalType": "uint256",
          "name": "id",
          "type": "uint256"
        }
      ],
      "name": "safeTransferFrom",
      "outputs": [],
      "stateMutability": "nonpayable",
      "type": "function"
    },
    {
      "inputs": [
        {
          "internalType": "address",
          "name": "from",
          "type": "address"
        },
        {
          "internalType": "address",
          "name": "to",
          "type": "address"
        },
        {
          "internalType": "uint256",
          "name": "id",
          "type": "uint256"
        },
        {
          "internalType": "bytes",
          "name": "data",
          "type": "bytes"
        }
      ],
      "name": "safeTransferFrom",
      "outputs": [],
      "stateMutability": "nonpayable",
      "type": "function"
    },
    {
      "inputs": [
        {
          "internalType": "address",
          "name": "operator",
          "type": "address"
        },
        {
          "internalType": "bool",
          "name": "approved",
          "type": "bool"
        }
      ],
      "name": "setApprovalForAll",
      "outputs": [],
      "stateMutability": "nonpayable",
      "type": "function"
    },
    {
      "inputs": [
        {
          "internalType": "bytes4",
          "name": "id",
          "type": "bytes4"
        }
      ],
      "name": "supportsInterface",
      "outputs": [
        {
          "internalType": "bool",
          "name": "",
          "type": "bool"
        }
      ],
      "stateMutability": "view",
      "type": "function"
    },
    {
      "inputs": [],
      "name": "symbol",
      "outputs": [
        {
          "internalType": "string",
          "name": "",
          "type": "string"
        }
      ],
      "stateMutability": "pure",
      "type": "function"
    },
    {
      "inputs": [
        {
          "internalType": "uint256",
          "name": "id",
          "type": "uint256"
        }
      ],
      "name": "tokenNonces",
      "outputs": [
        {
          "internalType": "uint256",
          "name": "nonce",
          "type": "uint256"
        }
      ],
      "stateMutability": "view",
      "type": "function"
    },
    {
      "inputs": [
        {
          "internalType": "uint256",
          "name": "id",
          "type": "uint256"
        }
      ],
      "name": "tokenURI",
      "outputs": [
        {
          "internalType": "string",
          "name": "str",
          "type": "string"
        }
      ],
      "stateMutability": "pure",
      "type": "function"
    },
    {
      "inputs": [],
      "name": "totalSupply",
      "outputs": [
        {
          "internalType": "uint256",
          "name": "",
          "type": "uint256"
        }
      ],
      "stateMutability": "pure",
      "type": "function"
    },
    {
      "inputs": [
        {
          "internalType": "address",
          "name": "from",
          "type": "address"
        },
        {
          "internalType": "address",
          "name": "to",
          "type": "address"
        },
        {
          "internalType": "uint256",
          "name": "id",
          "type": "uint256"
        }
      ],
      "name": "transferFrom",
      "outputs": [],
      "stateMutability": "nonpayable",
      "type": "function"
    }
  ],
  "transactionHash": "0x8bd0962291630263d0f5b5d1962703f5ca71a13ec254b11f5a878a54a8edff47",
  "args": [],
  "numDeployments": 1,
  "solcInputHash": "31e5ae73a3c557da1bc1de9118712022",
  "bytecode": "0x60c06040523480156200001157600080fd5b5046608081905260009062000027813062000033565b60a05250620000d49050565b60007f8cad95687ba82c2ce50e74f7b754645e5117c3a5bec8151c0726d5857980a8666200007c604080518082019091526008815267426c6f636b69657360c01b602082015290565b8051602091820120604051620000b693928791879101938452602084019290925260408301526001600160a01b0316606082015260800190565b60405160208183030381529060405280519060200120905092915050565b60805160a051613590620000fa60003960006113ca0152600061139401526135906000f3fe608060405234801561001057600080fd5b50600436106101a35760003560e01c806365d13a9b116100ee578063a22cb46511610097578063b88d4fde11610071578063b88d4fde146103e9578063c87b56dd146103fc578063e985e9c51461040f578063f39452821461044b57600080fd5b8063a22cb465146103b0578063ab84ee6f146103c3578063adc5fcc2146103d657600080fd5b80637ecebe00116100c85780637ecebe001461033357806384b0196e1461035c57806395d89b411461037757600080fd5b806365d13a9b146102fa57806370a082311461030d578063745a41bc1461032057600080fd5b806323b872dd1161015057806342842e0e1161012a57806342842e0e146102ad578063585956d6146102c05780636352211e146102e757600080fd5b806323b872dd1461026b57806330adf81f1461027e5780633644e515146102a557600080fd5b8063095ea7b311610181578063095ea7b314610228578063141a468c1461023d57806318160ddd1461025e57600080fd5b806301ffc9a7146101a857806306fdde03146101d0578063081812fc146101fd575b600080fd5b6101bb6101b63660046126f9565b61046b565b60405190151581526020015b60405180910390f35b604080518082019091526008815267426c6f636b69657360c01b60208201525b6040516101c79190612766565b61021061020b366004612779565b61048b565b6040516001600160a01b0390911681526020016101c7565b61023b6102363660046127a9565b61051b565b005b61025061024b366004612779565b61060e565b6040519081526020016101c7565b6001600160a01b03610250565b61023b6102793660046127d3565b610672565b6102507f49ecf333e5b8c95c40fdafc95c1ad136e8914a8fb55e9dc8bb01eaa83a2df9ad81565b6102506108a3565b61023b6102bb3660046127d3565b6108b2565b6102507f045d890c79ffc118c4a2872a8cf3fee78fbf03c72a35e7fae867680021f3e1a481565b6102106102f5366004612779565b6108d2565b61023b610308366004612779565b61092e565b61025061031b36600461280f565b610a11565b61023b61032e3660046128cd565b610aa5565b61025061034136600461280f565b6001600160a01b031660009081526004602052604090205490565b610364610b6a565b6040516101c7979695949392919061292e565b60408051808201909152600681527f424c4f434b59000000000000000000000000000000000000000000000000000060208201526101f0565b61023b6103be3660046129e0565b610bcd565b61023b6103d1366004612a1c565b610bdc565b6102506103e4366004612779565b610c72565b61023b6103f7366004612a1c565b610c7d565b6101f061040a366004612779565b610eb0565b6101bb61041d366004612a6c565b6001600160a01b03918216600090815260026020908152604080832093909416825291909152205460ff1690565b61045e610459366004612a9f565b610ebb565b6040516101c79190612b14565b600061047682611006565b8061048557506104858261109f565b92915050565b600080600061049984611107565b90925090506001600160a01b0382166104ed5760405162461bcd60e51b81526020600482015260116024820152702727a722ac24a9aa22a72a2faa27a5a2a760791b60448201526064015b60405180910390fd5b8015610511575050506000908152600360205260409020546001600160a01b031690565b5060009392505050565b6000806105278361114c565b90925090506001600160a01b0382166105765760405162461bcd60e51b81526020600482015260116024820152702727a722ac24a9aa22a72a2faa27a5a2a760791b60448201526064016104e4565b336001600160a01b03831614806105b057506001600160a01b038216600090815260026020908152604080832033845290915290205460ff165b6105fc5760405162461bcd60e51b815260206004820152601560248201527f554e415554484f52495a45445f415050524f56414c000000000000000000000060448201526064016104e4565b6106088282868661119a565b50505050565b600080600061061c8461114c565b90925090506001600160a01b03821661066b5760405162461bcd60e51b81526020600482015260116024820152702727a722ac24a9aa22a72a2faa27a5a2a760791b60448201526064016104e4565b9392505050565b600080600061068084611295565b919450925090506001600160a01b0383166106d15760405162461bcd60e51b81526020600482015260116024820152702727a722ac24a9aa22a72a2faa27a5a2a760791b60448201526064016104e4565b856001600160a01b0316836001600160a01b0316146107325760405162461bcd60e51b815260206004820152600960248201527f4e4f545f4f574e4552000000000000000000000000000000000000000000000060448201526064016104e4565b6001600160a01b0385166107885760405162461bcd60e51b815260206004820152601260248201527f4e4f545f544f5f5a45524f41444452455353000000000000000000000000000060448201526064016104e4565b306001600160a01b038616036107e05760405162461bcd60e51b815260206004820152600b60248201527f4e4f545f544f5f5448495300000000000000000000000000000000000000000060448201526064016104e4565b336001600160a01b0387161461088d5780801561081357506000848152600360205260409020546001600160a01b031633145b8061084157506001600160a01b038616600090815260026020908152604080832033845290915290205460ff165b61088d5760405162461bcd60e51b815260206004820152601560248201527f554e415554484f52495a45445f5452414e53464552000000000000000000000060448201526064016104e4565b61089b8686868515156112f1565b505050505050565b60006108ad61138f565b905090565b6108cd83838360405180602001604052806000815250610c7d565b505050565b60006108dd826113f0565b90506001600160a01b0381166109295760405162461bcd60e51b81526020600482015260116024820152702727a722ac24a9aa22a72a2faa27a5a2a760791b60448201526064016104e4565b919050565b600160a01b81106109755760405162461bcd60e51b81526020600482015260116024820152702727a722ac24a9aa22a72a2faa27a5a2a760791b60448201526064016104e4565b60008061098183611295565b604051929450925084916001600160a01b038516915081907fddf252ad1be2c89b69c2b068fc378daa952ba7f163c4a11628f55a4df523b3ef90600090a480156108cd5760008381526003602052604080822054905185926001600160a01b03928316928616917f8c5be1e5ebec7d5bd14f71427d1e84f3dd0314c0f7b2291e5b200ac8c7c3b9259190a4505050565b60006001600160a01b038216610a695760405162461bcd60e51b815260206004820152601260248201527f5a45524f5f414444524553535f4f574e4552000000000000000000000000000060448201526064016104e4565b506001600160a01b03811660008181526001602052604081205491610a8d9061114c565b91505080600003610a9f576001909101905b50919050565b42821015610af55760405162461bcd60e51b815260206004820152601760248201527f5045524d49545f444541444c494e455f4558504952454400000000000000000060448201526064016104e4565b600080610b018561114c565b90925090506001600160a01b038216610b505760405162461bcd60e51b81526020600482015260116024820152702727a722ac24a9aa22a72a2faa27a5a2a760791b60448201526064016104e4565b610b5e828787878588611422565b61089b8282888861119a565b60006060808280808346600d610b9b604080518082019091526008815267426c6f636b69657360c01b602082015290565b6040805160008082528183019092526020810182815260f89490941b9c929b5092995092975030965091945092509050565b610bd8338383611546565b5050565b42821015610c2c5760405162461bcd60e51b815260206004820152601760248201527f5045524d49545f444541444c494e455f4558504952454400000000000000000060448201526064016104e4565b6001600160a01b03841660009081526004602052604081208054610c6692879287928792909190610c5c83612b82565b91905055856115d1565b61060884846001611546565b60006104858261060e565b6000806000610c8b85611295565b919450925090506001600160a01b038316610cdc5760405162461bcd60e51b81526020600482015260116024820152702727a722ac24a9aa22a72a2faa27a5a2a760791b60448201526064016104e4565b866001600160a01b0316836001600160a01b031614610d3d5760405162461bcd60e51b815260206004820152600960248201527f4e4f545f4f574e4552000000000000000000000000000000000000000000000060448201526064016104e4565b6001600160a01b038616610d935760405162461bcd60e51b815260206004820152601260248201527f4e4f545f544f5f5a45524f41444452455353000000000000000000000000000060448201526064016104e4565b306001600160a01b03871603610deb5760405162461bcd60e51b815260206004820152600b60248201527f4e4f545f544f5f5448495300000000000000000000000000000000000000000060448201526064016104e4565b336001600160a01b03881614610e9857808015610e1e57506000858152600360205260409020546001600160a01b031633145b80610e4c57506001600160a01b038716600090815260026020908152604080832033845290915290205460ff165b610e985760405162461bcd60e51b815260206004820152601560248201527f554e415554484f52495a45445f5452414e53464552000000000000000000000060448201526064016104e4565b610ea7878787851515886116f7565b50505050505050565b606061048582611773565b60608167ffffffffffffffff811115610ed657610ed661282a565b604051908082528060200260200182016040528015610f1b57816020015b6040805180820190915260008082526020820152815260200190600190039081610ef45790505b50905060005b82811015610fff576000848483818110610f3d57610f3d612b9c565b602090810292909201356000818152928390526040909220549192508190506001600160a01b038116158015610f765750600160a01b83105b15610f7e5750815b80858581518110610f9157610f91612b9c565b6020026020010151600001906001600160a01b031690816001600160a01b03168152505060a082901c6affffffffffffffffffffff16858581518110610fd957610fd9612b9c565b602002602001015160200181815250505050508080610ff790612b82565b915050610f21565b5092915050565b60007f01ffc9a7000000000000000000000000000000000000000000000000000000006001600160e01b03198316148061106957507f80ac58cd000000000000000000000000000000000000000000000000000000006001600160e01b03198316145b806104855750506001600160e01b0319167f5b5e139f000000000000000000000000000000000000000000000000000000001490565b60006001600160e01b031982167f5604e22500000000000000000000000000000000000000000000000000000000148061048557506001600160e01b031982167fefdb586b000000000000000000000000000000000000000000000000000000001492915050565b60008181526020819052604081205490816001600160a01b0381161580156111325750600160a01b84105b1561113b578392505b600160ff1b80821614915050915091565b60008181526020819052604081205490816001600160a01b0381161580156111775750600160a01b84105b15611180578392505b60a081901c6affffffffffffffffffffff16915050915091565b6001600160a01b0382166111dc57826000036111b75760006111c8565b836001600160a01b031660a084901b175b60008281526020819052604090205561124e565b826000036111eb5760006111fc565b836001600160a01b031660a084901b175b600082815260208181526040808320600160ff1b94909417909355600390522080547fffffffffffffffffffffffff0000000000000000000000000000000000000000166001600160a01b0384161790555b80826001600160a01b0316856001600160a01b03167f8c5be1e5ebec7d5bd14f71427d1e84f3dd0314c0f7b2291e5b200ac8c7c3b92560405160405180910390a450505050565b6000818152602081905260408120549080826001600160a01b0381161580156112c15750600160a01b85105b156112ca578493505b600160ff1b80821614915060a081901c6affffffffffffffffffffff169250509193909250565b6001600160a01b038316600090815260016020819052604090912080549091019055801561133a576001600160a01b038416600090815260016020526040902080546000190190555b6000828152602081905260408082204360a01b6001600160a01b0380881691821790925591518593918816917fddf252ad1be2c89b69c2b068fc378daa952ba7f163c4a11628f55a4df523b3ef91a450505050565b6000467f000000000000000000000000000000000000000000000000000000000000000081146113c8576113c38130611ab6565b6113ea565b7f00000000000000000000000000000000000000000000000000000000000000005b91505090565b6000818152602081905260409020546001600160a01b0381161580156114195750600160a01b82105b15610929575090565b600061142c6108a3565b604080517f49ecf333e5b8c95c40fdafc95c1ad136e8914a8fb55e9dc8bb01eaa83a2df9ad60208201526001600160a01b03891691810191909152606081018790526080810185905260a0810186905260c001604051602081830303815290604052805190602001206040516020016114d79291907f190100000000000000000000000000000000000000000000000000000000000081526002810192909252602282015260420190565b6040516020818303038152906040528051906020012090506114fa878284611b55565b610ea75760405162461bcd60e51b815260206004820152601160248201527f494e56414c49445f5349474e415455524500000000000000000000000000000060448201526064016104e4565b6001600160a01b0383811660008181526002602090815260408083209487168084529482529182902080547fffffffffffffffffffffffffffffffffffffffffffffffffffffffffffffff001686151590811790915591519182527f17307eab39ab6107e8899845ad3d59bd9653f200f220920489ca2b5937696c31910160405180910390a3505050565b60006115db6108a3565b604080517f045d890c79ffc118c4a2872a8cf3fee78fbf03c72a35e7fae867680021f3e1a460208201526001600160a01b03808a169282019290925290871660608201526080810185905260a0810186905260c001604051602081830303815290604052805190602001206040516020016116889291907f190100000000000000000000000000000000000000000000000000000000000081526002810192909252602282015260420190565b6040516020818303038152906040528051906020012090506116ab868284611b55565b61089b5760405162461bcd60e51b815260206004820152601160248201527f494e56414c49445f5349474e415455524500000000000000000000000000000060448201526064016104e4565b611703858585856112f1565b6001600160a01b0384163b1561176c576117203386868685611cc5565b61176c5760405162461bcd60e51b815260206004820152601860248201527f4552433732315f5452414e534645525f52454a4543544544000000000000000060448201526064016104e4565b5050505050565b6060600060405180610840016040528061081f8152602001612d1261081f913990506117a181604885611d75565b6117d98160046117b360486016612bb2565b6117bd9190612bc5565b6117c8906009612bb2565b6117d3906029612bb2565b85611d75565b60006117ec6117e785611e4f565b611e83565b90506117fa82826001611fcb565b61180682826000611fcb565b61181282826002611fcb565b60005b6008811015611aad576000600a6380000000611881858051602082018051600390810b8452604084018051820b9092526060909301805180850b9283905260139290921d90911882840b600b1b90921891821891830b60081d919091189182900b905263ffffffff1690565b61188c906017612bd8565b6118969190612c0d565b6118a09190612c0d565b90506000600a6380000000611905868051602082018051600390810b8452604084018051820b9092526060909301805180850b9283905260139290921d90911882840b600b1b90921891821891830b60081d919091189182900b905263ffffffff1690565b611910906017612bd8565b61191a9190612c0d565b6119249190612c0d565b90506000600a6380000000611989878051602082018051600390810b8452604084018051820b9092526060909301805180850b9283905260139290921d90911882840b600b1b90921891821891830b60081d919091189182900b905263ffffffff1690565b611994906017612bd8565b61199e9190612c0d565b6119a89190612c0d565b90506000600a6380000000611a0d888051602082018051600390810b8452604084018051820b9092526060909301805180850b9283905260139290921d90911882840b600b1b90921891821891830b60081d919091189182900b905263ffffffff1690565b611a18906017612bd8565b611a229190612c0d565b611a2c9190612c0d565b9050611a3b8760008787612167565b611a488760018786612167565b611a558760028785612167565b611a628760038784612167565b611a6f8760048784612167565b611a7c8760058785612167565b611a898760068786612167565b611a968760078787612167565b505050508080611aa590612b82565b915050611815565b50909392505050565b60007f8cad95687ba82c2ce50e74f7b754645e5117c3a5bec8151c0726d5857980a866611afe604080518082019091526008815267426c6f636b69657360c01b602082015290565b8051602091820120604051611b3793928791879101938452602084019290925260408301526001600160a01b0316606082015260800190565b60405160208183030381529060405280519060200120905092915050565b6000806000611b648585612334565b90925090506000816004811115611b7d57611b7d612c21565b148015611b9b5750856001600160a01b0316826001600160a01b0316145b15611bab5760019250505061066b565b600080876001600160a01b0316631626ba7e60e01b8888604051602401611bd3929190612c37565b60408051601f198184030181529181526020820180517bffffffffffffffffffffffffffffffffffffffffffffffffffffffff166001600160e01b0319909416939093179092529051611c269190612c58565b600060405180830381855afa9150503d8060008114611c61576040519150601f19603f3d011682016040523d82523d6000602084013e611c66565b606091505b5091509150818015611c79575080516020145b8015611cb9575080517f1626ba7e0000000000000000000000000000000000000000000000000000000090611cb79083016020908101908401612c74565b145b98975050505050505050565b600080846001600160a01b031663150b7a02888887876040518563ffffffff1660e01b8152600401611cfa9493929190612c8d565b6020604051808303816000875af1158015611d19573d6000803e3d6000fd5b505050506040513d601f19601f82011682018060405250810190611d3d9190612cc9565b6001600160e01b0319167f150b7a02000000000000000000000000000000000000000000000000000000001491505095945050505050565b80156108cd576040805180820190915260108082527f30313233343536373839616263646566000000000000000000000000000000006020830152611dba9083612ce6565b81518110611dca57611dca612b9c565b01602001517fff00000000000000000000000000000000000000000000000000000000000000168383611dfc81612cfa565b945081518110611e0e57611e0e612b9c565b60200101907effffffffffffffffffffffffffffffffffffffffffffffffffffffffffffff1916908160001a905350611e48601082612c0d565b9050611d75565b606060006040518060600160405280602a8152602001613531602a91399050610485816029856001600160a01b0316611d75565b6040805160808101825260008082526020820181905291810182905260608101829052905b8251811015610a9f57600381166000819003611ef457838281518110611ed057611ed0612b9c565b602091010151835160f89190911c600382810b60051b9290920301900b8352611fc2565b8060ff16600103611f3a57838281518110611f1157611f11612b9c565b60209101810151908401805160f89290921c600383810b60051b939093030190910b9052611fc2565b8060ff16600203611f8057838281518110611f5757611f57612b9c565b60209101015160408401805160f89290921c600383810b60051b939093030190910b9052611fc2565b8060ff16600303611fc257838281518110611f9d57611f9d612b9c565b60209101015160608401805160f89290921c600383810b60051b939093030190910b90525b50600101611ea8565b6000806000611fd985612379565b919450925090506000600480611ff160486016612bb2565b611ffb9190612bc5565b612006906009612bb2565b612011906029612bb2565b61201c906017612bb2565b6120279060b8612bb2565b6120319190612bc5565b90508460ff1660010361209f5760048061204d60486016612bb2565b6120579190612bc5565b612062906009612bb2565b61206d906029612bb2565b612078906017612bb2565b6120839060b8612bb2565b61208d9190612bc5565b612098906036612bb2565b905061211e565b8460ff1660020361211e576004806120b960486016612bb2565b6120c39190612bc5565b6120ce906009612bb2565b6120d9906029612bb2565b6120e4906017612bb2565b6120ef9060b8612bb2565b6120f99190612bc5565b612104906036612bb2565b61210f906012612bb2565b61211b9061033b612bb2565b90505b6121378761212d836000612bb2565b8661ffff16612576565b61214f87612146836004612bb2565b8560ff16612576565b610ea78761215e836009612bb2565b8460ff16612576565b60008160ff1660000361217a5750610608565b8160ff166001036121f15760048061219460486016612bb2565b61219e9190612bc5565b6121a9906009612bb2565b6121b4906029612bb2565b6121bf906017612bb2565b6121ca9060b8612bb2565b6121d49190612bc5565b6121df906036612bb2565b6121ea906012612bb2565b905061227b565b8160ff1660020361227b5760048061220b60486016612bb2565b6122159190612bc5565b612220906009612bb2565b61222b906029612bb2565b612236906017612bb2565b6122419060b8612bb2565b61224b9190612bc5565b612256906036612bb2565b612261906012612bb2565b61226d9061033b612bb2565b612278906012612bb2565b90505b600084612289856008612bd8565b6122939190612bb2565b61229e90600c612bd8565b6122a9856005612bd8565b6122b39084612bb2565b6122bd9190612bb2565b6122c8906008612bb2565b90507f31000000000000000000000000000000000000000000000000000000000000008682815181106122fd576122fd612b9c565b60200101907effffffffffffffffffffffffffffffffffffffffffffffffffffffffffffff1916908160001a905350505050505050565b600080825160410361236a5760208301516040840151606085015160001a61235e878285856125f3565b94509450505050612372565b506000905060025b9250929050565b600080600063800000006123dd858051602082018051600390810b8452604084018051820b9092526060909301805180850b9283905260139290921d90911882840b600b1b90921891821891830b60081d919091189182900b905263ffffffff1690565b61016802816123ee576123ee612bf7565b0492506380000000612450858051602082018051600390810b8452604084018051820b9092526060909301805180850b9283905260139290921d90911882840b600b1b90921891821891830b60081d919091189182900b905263ffffffff1690565b603c028161246057612460612bf7565b04602801915063800000006124c5858051602082018051600390810b8452604084018051820b9092526060909301805180850b9283905260139290921d90911882840b600b1b90921891821891830b60081d919091189182900b905263ffffffff1690565b855160208701805160408901805160608b018051600381810b808f52601390811d90921888820b600b90811b90991890811890820b600890811d9190911880830b9889905288841d90981896820b808a1b1896871896820b811d9690961880820b958690529185901d90941892840b9687901b90961891821891830b90931d189081900b90915263ffffffff91821692821691160101016019028161256c5761256c612bf7565b0490509193909250565b80156108cd57612587600a82612ce6565b612592906030612bb2565b60f81b83836125a081612cfa565b9450815181106125b2576125b2612b9c565b60200101907effffffffffffffffffffffffffffffffffffffffffffffffffffffffffffff1916908160001a9053506125ec600a82612c0d565b9050612576565b6000807f7fffffffffffffffffffffffffffffff5d576e7357a4501ddfe92f46681b20a083111561262a57506000905060036126d7565b8460ff16601b1415801561264257508460ff16601c14155b1561265357506000905060046126d7565b6040805160008082526020820180845289905260ff881692820192909252606081018690526080810185905260019060a0016020604051602081039080840390855afa1580156126a7573d6000803e3d6000fd5b5050604051601f1901519150506001600160a01b0381166126d0576000600192509250506126d7565b9150600090505b94509492505050565b6001600160e01b0319811681146126f657600080fd5b50565b60006020828403121561270b57600080fd5b813561066b816126e0565b60005b83811015612731578181015183820152602001612719565b50506000910152565b60008151808452612752816020860160208601612716565b601f01601f19169290920160200192915050565b60208152600061066b602083018461273a565b60006020828403121561278b57600080fd5b5035919050565b80356001600160a01b038116811461092957600080fd5b600080604083850312156127bc57600080fd5b6127c583612792565b946020939093013593505050565b6000806000606084860312156127e857600080fd5b6127f184612792565b92506127ff60208501612792565b9150604084013590509250925092565b60006020828403121561282157600080fd5b61066b82612792565b634e487b7160e01b600052604160045260246000fd5b600082601f83011261285157600080fd5b813567ffffffffffffffff8082111561286c5761286c61282a565b604051601f8301601f19908116603f011681019082821181831017156128945761289461282a565b816040528381528660208588010111156128ad57600080fd5b836020870160208301376000602085830101528094505050505092915050565b600080600080608085870312156128e357600080fd5b6128ec85612792565b93506020850135925060408501359150606085013567ffffffffffffffff81111561291657600080fd5b61292287828801612840565b91505092959194509250565b7fff00000000000000000000000000000000000000000000000000000000000000881681526000602060e08184015261296a60e084018a61273a565b838103604085015261297c818a61273a565b606085018990526001600160a01b038816608086015260a0850187905284810360c0860152855180825283870192509083019060005b818110156129ce578351835292840192918401916001016129b2565b50909c9b505050505050505050505050565b600080604083850312156129f357600080fd5b6129fc83612792565b915060208301358015158114612a1157600080fd5b809150509250929050565b60008060008060808587031215612a3257600080fd5b612a3b85612792565b9350612a4960208601612792565b925060408501359150606085013567ffffffffffffffff81111561291657600080fd5b60008060408385031215612a7f57600080fd5b612a8883612792565b9150612a9660208401612792565b90509250929050565b60008060208385031215612ab257600080fd5b823567ffffffffffffffff80821115612aca57600080fd5b818501915085601f830112612ade57600080fd5b813581811115612aed57600080fd5b8660208260051b8501011115612b0257600080fd5b60209290920196919550909350505050565b602080825282518282018190526000919060409081850190868401855b82811015612b5f57815180516001600160a01b03168552860151868501529284019290850190600101612b31565b5091979650505050505050565b634e487b7160e01b600052601160045260246000fd5b60006000198203612b9557612b95612b6c565b5060010190565b634e487b7160e01b600052603260045260246000fd5b8082018082111561048557610485612b6c565b8181038181111561048557610485612b6c565b6000816000190483118215151615612bf257612bf2612b6c565b500290565b634e487b7160e01b600052601260045260246000fd5b600082612c1c57612c1c612bf7565b500490565b634e487b7160e01b600052602160045260246000fd5b828152604060208201526000612c50604083018461273a565b949350505050565b60008251612c6a818460208701612716565b9190910192915050565b600060208284031215612c8657600080fd5b5051919050565b60006001600160a01b03808716835280861660208401525083604083015260806060830152612cbf608083018461273a565b9695505050505050565b600060208284031215612cdb57600080fd5b815161066b816126e0565b600082612cf557612cf5612bf7565b500690565b600081612d0957612d09612b6c565b50600019019056fe646174613a6170706c69636174696f6e2f6a736f6e2c7b226e616d65223a22307830303030303030303030303030303030303030303030303030303030303030303030303030303030222c226465736372697074696f6e223a22426c6f636b7925323030783030303030303030303030303030303030303030303030303030303030303030303030303030303025323067656e6572617465642532306f6e2d636861696e222c22696d616765223a22646174613a696d6167652f7376672b786d6c2c3c737667253230786d6c6e733d27687474703a2f2f7777772e77332e6f72672f323030302f7376672725323073686170652d72656e646572696e673d27637269737045646765732725323077696474683d27353132272532306865696768743d27353132273e3c672532307472616e73666f726d3d277363616c6528363429273e3c7061746825323066696c6c3d2768736c283030302c303030252c303030252927253230643d274d302c3068387638682d387a272f3e3c7061746825323066696c6c3d2768736c283030302c303030252c303030252927253230643d274d302c3068317630682d317a6d312c3068317630682d317a6d312c3068317630682d317a6d312c3068317630682d317a6d312c3068317630682d317a6d312c3068317630682d317a6d312c3068317630682d317a6d312c3068317630682d317a6d2d382c316d312c3068317630682d317a6d312c3068317630682d317a6d312c3068317630682d317a6d312c3068317630682d317a6d312c3068317630682d317a6d312c3068317630682d317a6d312c3068317630682d317a6d312c3068317630682d317a6d2d382c316d312c3068317630682d317a6d312c3068317630682d317a6d312c3068317630682d317a6d312c3068317630682d317a6d312c3068317630682d317a6d312c3068317630682d317a6d312c3068317630682d317a6d312c3068317630682d317a6d2d382c316d312c3068317630682d317a6d312c3068317630682d317a6d312c3068317630682d317a6d312c3068317630682d317a6d312c3068317630682d317a6d312c3068317630682d317a6d312c3068317630682d317a6d312c3068317630682d317a6d2d382c316d312c3068317630682d317a6d312c3068317630682d317a6d312c3068317630682d317a6d312c3068317630682d317a6d312c3068317630682d317a6d312c3068317630682d317a6d312c3068317630682d317a6d312c3068317630682d317a6d2d382c316d312c3068317630682d317a6d312c3068317630682d317a6d312c3068317630682d317a6d312c3068317630682d317a6d312c3068317630682d317a6d312c3068317630682d317a6d312c3068317630682d317a6d312c3068317630682d317a6d2d382c316d312c3068317630682d317a6d312c3068317630682d317a6d312c3068317630682d317a6d312c3068317630682d317a6d312c3068317630682d317a6d312c3068317630682d317a6d312c3068317630682d317a6d312c3068317630682d317a6d2d382c316d312c3068317630682d317a6d312c3068317630682d317a6d312c3068317630682d317a6d312c3068317630682d317a6d312c3068317630682d317a6d312c3068317630682d317a6d312c3068317630682d317a6d312c3068317630682d317a272f3e3c7061746825323066696c6c3d2768736c283030302c303030252c303030252927253230643d274d302c3068317630682d317a6d312c3068317630682d317a6d312c3068317630682d317a6d312c3068317630682d317a6d312c3068317630682d317a6d312c3068317630682d317a6d312c3068317630682d317a6d312c3068317630682d317a6d2d382c316d312c3068317630682d317a6d312c3068317630682d317a6d312c3068317630682d317a6d312c3068317630682d317a6d312c3068317630682d317a6d312c3068317630682d317a6d312c3068317630682d317a6d312c3068317630682d317a6d2d382c316d312c3068317630682d317a6d312c3068317630682d317a6d312c3068317630682d317a6d312c3068317630682d317a6d312c3068317630682d317a6d312c3068317630682d317a6d312c3068317630682d317a6d312c3068317630682d317a6d2d382c316d312c3068317630682d317a6d312c3068317630682d317a6d312c3068317630682d317a6d312c3068317630682d317a6d312c3068317630682d317a6d312c3068317630682d317a6d312c3068317630682d317a6d312c3068317630682d317a6d2d382c316d312c3068317630682d317a6d312c3068317630682d317a6d312c3068317630682d317a6d312c3068317630682d317a6d312c3068317630682d317a6d312c3068317630682d317a6d312c3068317630682d317a6d312c3068317630682d317a6d2d382c316d312c3068317630682d317a6d312c3068317630682d317a6d312c3068317630682d317a6d312c3068317630682d317a6d312c3068317630682d317a6d312c3068317630682d317a6d312c3068317630682d317a6d312c3068317630682d317a6d2d382c316d312c3068317630682d317a6d312c3068317630682d317a6d312c3068317630682d317a6d312c3068317630682d317a6d312c3068317630682d317a6d312c3068317630682d317a6d312c3068317630682d317a6d312c3068317630682d317a6d2d382c316d312c3068317630682d317a6d312c3068317630682d317a6d312c3068317630682d317a6d312c3068317630682d317a6d312c3068317630682d317a6d312c3068317630682d317a6d312c3068317630682d317a6d312c3068317630682d317a272f3e3c2f673e3c2f7376673e227d307830303030303030303030303030303030303030303030303030303030303030303030303030303030a2646970667358221220fd143acc20eb43fad456c517409c7ddee703d2c95c22b05b46d784d24c74cf2764736f6c63430008100033",
  "devdoc": {
    "kind": "dev",
    "methods": {
      "approve(address,uint256)": {
        "params": {
          "id": "The id of the token.",
          "operator": "The address receiving the approval."
        }
      },
      "balanceOf(address)": {
        "params": {
          "owner": "The address to look for."
        },
        "returns": {
          "balance": "The number of tokens owned by the address."
        }
      },
      "emitSelfTransferEvent(uint256)": {
        "params": {
          "id": "tokenID to emit the event for."
        }
      },
      "getApproved(uint256)": {
        "params": {
          "id": "The id of the token."
        },
        "returns": {
          "_0": "The address of the operator."
        }
      },
      "isApprovedForAll(address,address)": {
        "params": {
          "operator": "The address of the operator.",
          "owner": "The address of the owner."
        },
        "returns": {
          "isOperator": "The status of the approval."
        }
      },
      "nonces(address)": {
        "params": {
          "account": "the account to query"
        },
        "returns": {
          "nonce": "nonce"
        }
      },
      "nonces(uint256)": {
        "params": {
          "id": "token id to query"
        },
        "returns": {
          "nonce": "nonce"
        }
      },
      "ownerAndLastTransferBlockNumberList(uint256[])": {
        "params": {
          "ids": "The list of token ids to check."
        },
        "returns": {
          "ownersData": "The list of (owner, lastTransferBlockNumber) for each ids given as input."
        }
      },
      "ownerOf(uint256)": {
        "params": {
          "id": "The id of the token."
        },
        "returns": {
          "owner": "The address of the token owner."
        }
      },
      "safeTransferFrom(address,address,uint256)": {
        "params": {
          "from": "The send of the token.",
          "id": "The id of the token.",
          "to": "The recipient of the token."
        }
      },
      "safeTransferFrom(address,address,uint256,bytes)": {
        "params": {
          "data": "Additional data.",
          "from": "The sender of the token.",
          "id": "The id of the token.",
          "to": "The recipient of the token."
        }
      },
      "setApprovalForAll(address,bool)": {
        "params": {
          "approved": "The determination of the approval.",
          "operator": "The address receiving the approval."
        }
      },
      "supportsInterface(bytes4)": {
        "details": "Interface identification is specified in ERC-165. This function  uses less than 30,000 gas.",
        "params": {
          "id": "The interface identifier, as specified in ERC-165"
        },
        "returns": {
          "_0": "`true` if the contract implements `interfaceID` and  `interfaceID` is not 0xffffffff, `false` otherwise"
        }
      },
      "tokenNonces(uint256)": {
        "params": {
          "id": "token id to query"
        },
        "returns": {
          "nonce": "nonce"
        }
      },
      "tokenURI(uint256)": {
        "details": "Throws if `_tokenId` is not a valid NFT. URIs are defined in RFC  3986. The URI may point to a JSON file that conforms to the \"ERC721  Metadata JSON Schema\"."
      },
      "totalSupply()": {
        "returns": {
          "_0": "A count of valid NFTs tracked by this contract, where each one of  them has an assigned and queryable owner not equal to the zero address"
        }
      },
      "transferFrom(address,address,uint256)": {
        "params": {
          "from": "The sender of the token.",
          "id": "The id of the token.",
          "to": "The recipient of the token."
        }
      }
    },
    "version": 1
  },
  "userdoc": {
    "kind": "user",
    "methods": {
      "approve(address,uint256)": {
        "notice": "Approve an operator to transfer a specific token on the senders behalf."
      },
      "balanceOf(address)": {
        "notice": "Get the number of tokens owned by an address."
      },
      "emitSelfTransferEvent(uint256)": {
        "notice": "emit Transfer event so that indexer can pick it up.   This can be called by anyone at any time and does not change state   As such it keeps the token's operator-approval state and will re-emit an Approval event to indicate that."
      },
      "getApproved(uint256)": {
        "notice": "Get the approved operator for a specific token."
      },
      "isApprovedForAll(address,address)": {
        "notice": "Check if the sender approved the operator."
      },
      "name()": {
        "notice": "A descriptive name for a collection of NFTs in this contract"
      },
      "nonces(address)": {
        "notice": "return the account nonce, used for approvalForAll permit or other account related matter"
      },
      "nonces(uint256)": {
        "notice": "return the token nonce, used for individual approve permit or other token related matter"
      },
      "ownerAndLastTransferBlockNumberList(uint256[])": {
        "notice": "Get the list of owner of a token and the blockNumber of its last transfer, useful to voting mechanism."
      },
      "ownerOf(uint256)": {
        "notice": "Get the owner of a token."
      },
      "safeTransferFrom(address,address,uint256)": {
        "notice": "Transfer a token between 2 addresses letting the receiver know of the transfer."
      },
      "safeTransferFrom(address,address,uint256,bytes)": {
        "notice": "Transfer a token between 2 addresses letting the receiver knows of the transfer."
      },
      "setApprovalForAll(address,bool)": {
        "notice": "Set the approval for an operator to manage all the tokens of the sender."
      },
      "supportsInterface(bytes4)": {
        "notice": "Query if a contract implements an interface"
      },
      "symbol()": {
        "notice": "An abbreviated name for NFTs in this contract"
      },
      "tokenNonces(uint256)": {
        "notice": "return the token nonce, used for individual approve permit or other token related matter"
      },
      "tokenURI(uint256)": {
        "notice": "A distinct Uniform Resource Identifier (URI) for a given asset."
      },
      "totalSupply()": {
        "notice": "Count NFTs tracked by this contract"
      },
      "transferFrom(address,address,uint256)": {
        "notice": "Transfer a token between 2 addresses."
      }
    },
    "version": 1
  },
  "storageLayout": {
    "storage": [
      {
        "astId": 618,
        "contract": "src/Blockies.sol:Blockies",
        "label": "_owners",
        "offset": 0,
        "slot": "0",
        "type": "t_mapping(t_uint256,t_uint256)"
      },
      {
        "astId": 622,
        "contract": "src/Blockies.sol:Blockies",
        "label": "_balances",
        "offset": 0,
        "slot": "1",
        "type": "t_mapping(t_address,t_uint256)"
      },
      {
        "astId": 628,
        "contract": "src/Blockies.sol:Blockies",
        "label": "_operatorsForAll",
        "offset": 0,
        "slot": "2",
        "type": "t_mapping(t_address,t_mapping(t_address,t_bool))"
      },
      {
        "astId": 632,
        "contract": "src/Blockies.sol:Blockies",
        "label": "_operators",
        "offset": 0,
        "slot": "3",
        "type": "t_mapping(t_uint256,t_address)"
      },
      {
        "astId": 239,
        "contract": "src/Blockies.sol:Blockies",
        "label": "_userNonces",
        "offset": 0,
        "slot": "4",
        "type": "t_mapping(t_address,t_uint256)"
      }
    ],
    "types": {
      "t_address": {
        "encoding": "inplace",
        "label": "address",
        "numberOfBytes": "20"
      },
      "t_bool": {
        "encoding": "inplace",
        "label": "bool",
        "numberOfBytes": "1"
      },
      "t_mapping(t_address,t_bool)": {
        "encoding": "mapping",
        "key": "t_address",
        "label": "mapping(address => bool)",
        "numberOfBytes": "32",
        "value": "t_bool"
      },
      "t_mapping(t_address,t_mapping(t_address,t_bool))": {
        "encoding": "mapping",
        "key": "t_address",
        "label": "mapping(address => mapping(address => bool))",
        "numberOfBytes": "32",
        "value": "t_mapping(t_address,t_bool)"
      },
      "t_mapping(t_address,t_uint256)": {
        "encoding": "mapping",
        "key": "t_address",
        "label": "mapping(address => uint256)",
        "numberOfBytes": "32",
        "value": "t_uint256"
      },
      "t_mapping(t_uint256,t_address)": {
        "encoding": "mapping",
        "key": "t_uint256",
        "label": "mapping(uint256 => address)",
        "numberOfBytes": "32",
        "value": "t_address"
      },
      "t_mapping(t_uint256,t_uint256)": {
        "encoding": "mapping",
        "key": "t_uint256",
        "label": "mapping(uint256 => uint256)",
        "numberOfBytes": "32",
        "value": "t_uint256"
      },
      "t_uint256": {
        "encoding": "inplace",
        "label": "uint256",
        "numberOfBytes": "32"
      }
    }
  }
}