{
  "address": "0x8123f6c85B9afcD70420394DF5414fc15BdDc7cA",
  "abi": [
    {
      "inputs": [],
      "stateMutability": "nonpayable",
      "type": "constructor"
    },
    {
      "anonymous": false,
      "inputs": [
        {
          "indexed": true,
          "internalType": "address",
          "name": "owner",
          "type": "address"
        },
        {
          "indexed": true,
          "internalType": "address",
          "name": "approved",
          "type": "address"
        },
        {
          "indexed": true,
          "internalType": "uint256",
          "name": "tokenId",
          "type": "uint256"
        }
      ],
      "name": "Approval",
      "type": "event"
    },
    {
      "anonymous": false,
      "inputs": [
        {
          "indexed": true,
          "internalType": "address",
          "name": "owner",
          "type": "address"
        },
        {
          "indexed": true,
          "internalType": "address",
          "name": "operator",
          "type": "address"
        },
        {
          "indexed": false,
          "internalType": "bool",
          "name": "approved",
          "type": "bool"
        }
      ],
      "name": "ApprovalForAll",
      "type": "event"
    },
    {
      "anonymous": false,
      "inputs": [
        {
          "indexed": true,
          "internalType": "address",
          "name": "from",
          "type": "address"
        },
        {
          "indexed": true,
          "internalType": "address",
          "name": "to",
          "type": "address"
        },
        {
          "indexed": true,
          "internalType": "uint256",
          "name": "tokenId",
          "type": "uint256"
        }
      ],
      "name": "Transfer",
      "type": "event"
    },
    {
      "inputs": [],
      "name": "DOMAIN_SEPARATOR",
      "outputs": [
        {
          "internalType": "bytes32",
          "name": "",
          "type": "bytes32"
        }
      ],
      "stateMutability": "view",
      "type": "function"
    },
    {
      "inputs": [],
      "name": "PERMIT_FOR_ALL_TYPEHASH",
      "outputs": [
        {
          "internalType": "bytes32",
          "name": "",
          "type": "bytes32"
        }
      ],
      "stateMutability": "view",
      "type": "function"
    },
    {
      "inputs": [],
      "name": "PERMIT_TYPEHASH",
      "outputs": [
        {
          "internalType": "bytes32",
          "name": "",
          "type": "bytes32"
        }
      ],
      "stateMutability": "view",
      "type": "function"
    },
    {
      "inputs": [
        {
          "internalType": "address",
          "name": "operator",
          "type": "address"
        },
        {
          "internalType": "uint256",
          "name": "id",
          "type": "uint256"
        }
      ],
      "name": "approve",
      "outputs": [],
      "stateMutability": "nonpayable",
      "type": "function"
    },
    {
      "inputs": [
        {
          "internalType": "address",
          "name": "owner",
          "type": "address"
        }
      ],
      "name": "balanceOf",
      "outputs": [
        {
          "internalType": "uint256",
          "name": "balance",
          "type": "uint256"
        }
      ],
      "stateMutability": "view",
      "type": "function"
    },
    {
      "inputs": [],
      "name": "eip712Domain",
      "outputs": [
        {
          "internalType": "bytes1",
          "name": "",
          "type": "bytes1"
        },
        {
          "internalType": "string",
          "name": "",
          "type": "string"
        },
        {
          "internalType": "string",
          "name": "",
          "type": "string"
        },
        {
          "internalType": "uint256",
          "name": "",
          "type": "uint256"
        },
        {
          "internalType": "address",
          "name": "",
          "type": "address"
        },
        {
          "internalType": "bytes32",
          "name": "",
          "type": "bytes32"
        },
        {
          "internalType": "uint256[]",
          "name": "",
          "type": "uint256[]"
        }
      ],
      "stateMutability": "view",
      "type": "function"
    },
    {
      "inputs": [
        {
          "internalType": "uint256",
          "name": "id",
          "type": "uint256"
        }
      ],
      "name": "getApproved",
      "outputs": [
        {
          "internalType": "address",
          "name": "",
          "type": "address"
        }
      ],
      "stateMutability": "view",
      "type": "function"
    },
    {
      "inputs": [
        {
          "internalType": "address",
          "name": "owner",
          "type": "address"
        },
        {
          "internalType": "address",
          "name": "operator",
          "type": "address"
        }
      ],
      "name": "isApprovedForAll",
      "outputs": [
        {
          "internalType": "bool",
          "name": "isOperator",
          "type": "bool"
        }
      ],
      "stateMutability": "view",
      "type": "function"
    },
    {
      "inputs": [],
      "name": "name",
      "outputs": [
        {
          "internalType": "string",
          "name": "",
          "type": "string"
        }
      ],
      "stateMutability": "pure",
      "type": "function"
    },
    {
      "inputs": [
        {
          "internalType": "uint256",
          "name": "id",
          "type": "uint256"
        }
      ],
      "name": "nonces",
      "outputs": [
        {
          "internalType": "uint256",
          "name": "nonce",
          "type": "uint256"
        }
      ],
      "stateMutability": "view",
      "type": "function"
    },
    {
      "inputs": [
        {
          "internalType": "address",
          "name": "account",
          "type": "address"
        }
      ],
      "name": "nonces",
      "outputs": [
        {
          "internalType": "uint256",
          "name": "nonce",
          "type": "uint256"
        }
      ],
      "stateMutability": "view",
      "type": "function"
    },
    {
      "inputs": [
        {
          "internalType": "uint256[]",
          "name": "ids",
          "type": "uint256[]"
        }
      ],
      "name": "ownerAndLastTransferBlockNumberList",
      "outputs": [
        {
          "components": [
            {
              "internalType": "address",
              "name": "owner",
              "type": "address"
            },
            {
              "internalType": "uint256",
              "name": "lastTransferBlockNumber",
              "type": "uint256"
            }
          ],
          "internalType": "struct BasicERC721.OwnerData[]",
          "name": "ownersData",
          "type": "tuple[]"
        }
      ],
      "stateMutability": "view",
      "type": "function"
    },
    {
      "inputs": [
        {
          "internalType": "uint256",
          "name": "id",
          "type": "uint256"
        }
      ],
      "name": "ownerOf",
      "outputs": [
        {
          "internalType": "address",
          "name": "owner",
          "type": "address"
        }
      ],
      "stateMutability": "view",
      "type": "function"
    },
    {
      "inputs": [
        {
          "internalType": "address",
          "name": "spender",
          "type": "address"
        },
        {
          "internalType": "uint256",
          "name": "tokenId",
          "type": "uint256"
        },
        {
          "internalType": "uint256",
          "name": "deadline",
          "type": "uint256"
        },
        {
          "internalType": "bytes",
          "name": "sig",
          "type": "bytes"
        }
      ],
      "name": "permit",
      "outputs": [],
      "stateMutability": "nonpayable",
      "type": "function"
    },
    {
      "inputs": [
        {
          "internalType": "address",
          "name": "signer",
          "type": "address"
        },
        {
          "internalType": "address",
          "name": "spender",
          "type": "address"
        },
        {
          "internalType": "uint256",
          "name": "deadline",
          "type": "uint256"
        },
        {
          "internalType": "bytes",
          "name": "sig",
          "type": "bytes"
        }
      ],
      "name": "permitForAll",
      "outputs": [],
      "stateMutability": "nonpayable",
      "type": "function"
    },
    {
      "inputs": [
        {
          "internalType": "uint256",
          "name": "id",
          "type": "uint256"
        }
      ],
      "name": "registerIfNotAlready",
      "outputs": [],
      "stateMutability": "nonpayable",
      "type": "function"
    },
    {
      "inputs": [
        {
          "internalType": "address",
          "name": "from",
          "type": "address"
        },
        {
          "internalType": "address",
          "name": "to",
          "type": "address"
        },
        {
          "internalType": "uint256",
          "name": "id",
          "type": "uint256"
        }
      ],
      "name": "safeTransferFrom",
      "outputs": [],
      "stateMutability": "nonpayable",
      "type": "function"
    },
    {
      "inputs": [
        {
          "internalType": "address",
          "name": "from",
          "type": "address"
        },
        {
          "internalType": "address",
          "name": "to",
          "type": "address"
        },
        {
          "internalType": "uint256",
          "name": "id",
          "type": "uint256"
        },
        {
          "internalType": "bytes",
          "name": "data",
          "type": "bytes"
        }
      ],
      "name": "safeTransferFrom",
      "outputs": [],
      "stateMutability": "nonpayable",
      "type": "function"
    },
    {
      "inputs": [
        {
          "internalType": "address",
          "name": "operator",
          "type": "address"
        },
        {
          "internalType": "bool",
          "name": "approved",
          "type": "bool"
        }
      ],
      "name": "setApprovalForAll",
      "outputs": [],
      "stateMutability": "nonpayable",
      "type": "function"
    },
    {
      "inputs": [
        {
          "internalType": "bytes4",
          "name": "id",
          "type": "bytes4"
        }
      ],
      "name": "supportsInterface",
      "outputs": [
        {
          "internalType": "bool",
          "name": "",
          "type": "bool"
        }
      ],
      "stateMutability": "view",
      "type": "function"
    },
    {
      "inputs": [],
      "name": "symbol",
      "outputs": [
        {
          "internalType": "string",
          "name": "",
          "type": "string"
        }
      ],
      "stateMutability": "pure",
      "type": "function"
    },
    {
      "inputs": [
        {
          "internalType": "uint256",
          "name": "id",
          "type": "uint256"
        }
      ],
      "name": "tokenNonces",
      "outputs": [
        {
          "internalType": "uint256",
          "name": "nonce",
          "type": "uint256"
        }
      ],
      "stateMutability": "view",
      "type": "function"
    },
    {
      "inputs": [
        {
          "internalType": "uint256",
          "name": "id",
          "type": "uint256"
        }
      ],
      "name": "tokenURI",
      "outputs": [
        {
          "internalType": "string",
          "name": "str",
          "type": "string"
        }
      ],
      "stateMutability": "pure",
      "type": "function"
    },
    {
      "inputs": [],
      "name": "totalSupply",
      "outputs": [
        {
          "internalType": "uint256",
          "name": "",
          "type": "uint256"
        }
      ],
      "stateMutability": "pure",
      "type": "function"
    },
    {
      "inputs": [
        {
          "internalType": "address",
          "name": "from",
          "type": "address"
        },
        {
          "internalType": "address",
          "name": "to",
          "type": "address"
        },
        {
          "internalType": "uint256",
          "name": "id",
          "type": "uint256"
        }
      ],
      "name": "transferFrom",
      "outputs": [],
      "stateMutability": "nonpayable",
      "type": "function"
    }
  ],
  "transactionHash": "0xd8d3480027db03db0d35783990e3f005e8f64984ae3f274bb3c8863d90033328",
  "args": [],
  "numDeployments": 1,
  "solcInputHash": "072910eb8b97199f79f0c3ed0fe3e5ad",
  "bytecode": "0x60c06040523480156200001157600080fd5b5046608081905260009062000027813062000033565b60a05250620000d49050565b60007f8cad95687ba82c2ce50e74f7b754645e5117c3a5bec8151c0726d5857980a8666200007c604080518082019091526008815267426c6f636b69657360c01b602082015290565b8051602091820120604051620000b693928791879101938452602084019290925260408301526001600160a01b0316606082015260800190565b60405160208183030381529060405280519060200120905092915050565b60805160a0516132ee620000fa60003960006113660152600061133001526132ee6000f3fe608060405234801561001057600080fd5b50600436106101a35760003560e01c806370a08231116100ee578063ab84ee6f11610097578063c87b56dd11610071578063c87b56dd146103e9578063e7f38fdb146103fc578063e985e9c51461040f578063f39452821461044b57600080fd5b8063ab84ee6f146103b0578063adc5fcc2146103c3578063b88d4fde146103d657600080fd5b806384b0196e116100c857806384b0196e1461034957806395d89b4114610364578063a22cb4651461039d57600080fd5b806370a08231146102fa578063745a41bc1461030d5780637ecebe001461032057600080fd5b806323b872dd1161015057806342842e0e1161012a57806342842e0e146102ad578063585956d6146102c05780636352211e146102e757600080fd5b806323b872dd1461026b57806330adf81f1461027e5780633644e515146102a557600080fd5b8063095ea7b311610181578063095ea7b314610228578063141a468c1461023d57806318160ddd1461025e57600080fd5b806301ffc9a7146101a857806306fdde03146101d0578063081812fc146101fd575b600080fd5b6101bb6101b6366004612476565b61046b565b60405190151581526020015b60405180910390f35b604080518082019091526008815267426c6f636b69657360c01b60208201525b6040516101c791906124e3565b61021061020b3660046124f6565b61048b565b6040516001600160a01b0390911681526020016101c7565b61023b610236366004612526565b61051b565b005b61025061024b3660046124f6565b61060e565b6040519081526020016101c7565b6001600160a01b03610250565b61023b610279366004612550565b610672565b6102507f49ecf333e5b8c95c40fdafc95c1ad136e8914a8fb55e9dc8bb01eaa83a2df9ad81565b61025061089b565b61023b6102bb366004612550565b6108aa565b6102507f045d890c79ffc118c4a2872a8cf3fee78fbf03c72a35e7fae867680021f3e1a481565b6102106102f53660046124f6565b6108ca565b61025061030836600461258c565b610926565b61023b61031b36600461264a565b6109c1565b61025061032e36600461258c565b6001600160a01b031660009081526004602052604090205490565b610351610a8e565b6040516101c797969594939291906126ab565b60408051808201909152600481527f424c434b0000000000000000000000000000000000000000000000000000000060208201526101f0565b61023b6103ab36600461275d565b610af1565b61023b6103be366004612799565b610b00565b6102506103d13660046124f6565b610b96565b61023b6103e4366004612799565b610ba1565b6101f06103f73660046124f6565b610dc4565b61023b61040a3660046124f6565b610dcf565b6101bb61041d3660046127e9565b6001600160a01b03918216600090815260026020908152604080832093909416825291909152205460ff1690565b61045e61045936600461281c565b610e7a565b6040516101c79190612891565b600061047682610fc5565b8061048557506104858261105e565b92915050565b6000806000610499846110c6565b90925090506001600160a01b0382166104ed5760405162461bcd60e51b81526020600482015260116024820152702727a722ac24a9aa22a72a2faa27a5a2a760791b60448201526064015b60405180910390fd5b8015610511575050506000908152600360205260409020546001600160a01b031690565b5060009392505050565b60008061052783611127565b90925090506001600160a01b0382166105765760405162461bcd60e51b81526020600482015260116024820152702727a722ac24a9aa22a72a2faa27a5a2a760791b60448201526064016104e4565b336001600160a01b03831614806105b057506001600160a01b038216600090815260026020908152604080832033845290915290205460ff165b6105fc5760405162461bcd60e51b815260206004820152601560248201527f554e415554484f52495a45445f415050524f56414c000000000000000000000060448201526064016104e4565b61060882828686611175565b50505050565b600080600061061c84611127565b90925090506001600160a01b03821661066b5760405162461bcd60e51b81526020600482015260116024820152702727a722ac24a9aa22a72a2faa27a5a2a760791b60448201526064016104e4565b9392505050565b60008061067e836110c6565b90925090506001600160a01b0382166106cd5760405162461bcd60e51b81526020600482015260116024820152702727a722ac24a9aa22a72a2faa27a5a2a760791b60448201526064016104e4565b846001600160a01b0316826001600160a01b03161461072e5760405162461bcd60e51b815260206004820152600960248201527f4e4f545f4f574e4552000000000000000000000000000000000000000000000060448201526064016104e4565b6001600160a01b0384166107845760405162461bcd60e51b815260206004820152601260248201527f4e4f545f544f5f5a45524f41444452455353000000000000000000000000000060448201526064016104e4565b306001600160a01b038516036107dc5760405162461bcd60e51b815260206004820152600b60248201527f4e4f545f544f5f5448495300000000000000000000000000000000000000000060448201526064016104e4565b336001600160a01b038616146108895780801561080f57506000838152600360205260409020546001600160a01b031633145b8061083d57506001600160a01b038516600090815260026020908152604080832033845290915290205460ff165b6108895760405162461bcd60e51b815260206004820152601560248201527f554e415554484f52495a45445f5452414e53464552000000000000000000000060448201526064016104e4565b61089485858561128c565b5050505050565b60006108a561132b565b905090565b6108c583838360405180602001604052806000815250610ba1565b505050565b60006108d58261138c565b90506001600160a01b0381166109215760405162461bcd60e51b81526020600482015260116024820152702727a722ac24a9aa22a72a2faa27a5a2a760791b60448201526064016104e4565b919050565b60006001600160a01b03821661097e5760405162461bcd60e51b815260206004820152601260248201527f5a45524f5f414444524553535f4f574e4552000000000000000000000000000060448201526064016104e4565b506001600160a01b038116600081815260016020526040812054916109a290611127565b915050806000036109bb57816109b7816128ff565b9250505b50919050565b42821015610a115760405162461bcd60e51b815260206004820152601760248201527f5045524d49545f444541444c494e455f4558504952454400000000000000000060448201526064016104e4565b600080610a1d85611127565b90925090506001600160a01b038216610a6c5760405162461bcd60e51b81526020600482015260116024820152702727a722ac24a9aa22a72a2faa27a5a2a760791b60448201526064016104e4565b610a7a8287878785886113be565b610a8682828888611175565b505050505050565b60006060808280808346600d610abf604080518082019091526008815267426c6f636b69657360c01b602082015290565b6040805160008082528183019092526020810182815260f89490941b9c929b5092995092975030965091945092509050565b610afc3383836114eb565b5050565b42821015610b505760405162461bcd60e51b815260206004820152601760248201527f5045524d49545f444541444c494e455f4558504952454400000000000000000060448201526064016104e4565b6001600160a01b03841660009081526004602052604081208054610b8a92879287928792909190610b80836128ff565b9190505585611576565b610608848460016114eb565b60006104858261060e565b600080610bad846110c6565b90925090506001600160a01b038216610bfc5760405162461bcd60e51b81526020600482015260116024820152702727a722ac24a9aa22a72a2faa27a5a2a760791b60448201526064016104e4565b856001600160a01b0316826001600160a01b031614610c5d5760405162461bcd60e51b815260206004820152600960248201527f4e4f545f4f574e4552000000000000000000000000000000000000000000000060448201526064016104e4565b6001600160a01b038516610cb35760405162461bcd60e51b815260206004820152601260248201527f4e4f545f544f5f5a45524f41444452455353000000000000000000000000000060448201526064016104e4565b306001600160a01b03861603610d0b5760405162461bcd60e51b815260206004820152600b60248201527f4e4f545f544f5f5448495300000000000000000000000000000000000000000060448201526064016104e4565b336001600160a01b03871614610db857808015610d3e57506000848152600360205260409020546001600160a01b031633145b80610d6c57506001600160a01b038616600090815260026020908152604080832033845290915290205460ff165b610db85760405162461bcd60e51b815260206004820152601560248201527f554e415554484f52495a45445f5452414e53464552000000000000000000000060448201526064016104e4565b610a868686868661169c565b606061048582611710565b600160a01b8110610e165760405162461bcd60e51b81526020600482015260116024820152702727a722ac24a9aa22a72a2faa27a5a2a760791b60448201526064016104e4565b6000610e2182611127565b91505080600003610afc576000828152602081905260408082204360a01b851790555183916001600160a01b0383169182917fddf252ad1be2c89b69c2b068fc378daa952ba7f163c4a11628f55a4df523b3ef91a45050565b60608167ffffffffffffffff811115610e9557610e956125a7565b604051908082528060200260200182016040528015610eda57816020015b6040805180820190915260008082526020820152815260200190600190039081610eb35790505b50905060005b82811015610fbe576000848483818110610efc57610efc612919565b602090810292909201356000818152928390526040909220549192508190506001600160a01b038116158015610f355750600160a01b83105b15610f3d5750815b80858581518110610f5057610f50612919565b6020026020010151600001906001600160a01b031690816001600160a01b03168152505060a082901c6affffffffffffffffffffff16858581518110610f9857610f98612919565b602002602001015160200181815250505050508080610fb6906128ff565b915050610ee0565b5092915050565b60007f01ffc9a7000000000000000000000000000000000000000000000000000000006001600160e01b03198316148061102857507f80ac58cd000000000000000000000000000000000000000000000000000000006001600160e01b03198316145b806104855750506001600160e01b0319167f5b5e139f000000000000000000000000000000000000000000000000000000001490565b60006001600160e01b031982167f5604e22500000000000000000000000000000000000000000000000000000000148061048557506001600160e01b031982167fefdb586b000000000000000000000000000000000000000000000000000000001492915050565b60008181526020819052604081205490816001600160a01b0381161580156110f15750600160a01b84105b156110fa578392505b7f800000000000000000000000000000000000000000000000000000000000000080821614915050915091565b60008181526020819052604081205490816001600160a01b0381161580156111525750600160a01b84105b1561115b578392505b60a081901c6affffffffffffffffffffff16915050915091565b6001600160a01b0382166111b757826000036111925760006111a3565b836001600160a01b031660a084901b175b600082815260208190526040902055611245565b826000036111c65760006111d7565b836001600160a01b031660a084901b175b6000828152602081815260408083207f800000000000000000000000000000000000000000000000000000000000000094909417909355600390522080547fffffffffffffffffffffffff0000000000000000000000000000000000000000166001600160a01b0384161790555b80826001600160a01b0316856001600160a01b03167f8c5be1e5ebec7d5bd14f71427d1e84f3dd0314c0f7b2291e5b200ac8c7c3b92560405160405180910390a450505050565b6001600160a01b038083166000908152600160208190526040909120805490910190558316156112d7576001600160a01b038316600090815260016020526040902080546000190190555b6000818152602081905260408082204360a01b6001600160a01b0380871691821790925591518493918716917fddf252ad1be2c89b69c2b068fc378daa952ba7f163c4a11628f55a4df523b3ef91a4505050565b6000467f000000000000000000000000000000000000000000000000000000000000000081146113645761135f8130611a27565b611386565b7f00000000000000000000000000000000000000000000000000000000000000005b91505090565b6000818152602081905260409020546001600160a01b0381161580156113b55750600160a01b82105b15610921575090565b60006113c861089b565b604080517f49ecf333e5b8c95c40fdafc95c1ad136e8914a8fb55e9dc8bb01eaa83a2df9ad60208201526001600160a01b03891691810191909152606081018790526080810185905260a0810186905260c001604051602081830303815290604052805190602001206040516020016114739291907f190100000000000000000000000000000000000000000000000000000000000081526002810192909252602282015260420190565b604051602081830303815290604052805190602001209050611496878284611ac6565b6114e25760405162461bcd60e51b815260206004820152601160248201527f494e56414c49445f5349474e415455524500000000000000000000000000000060448201526064016104e4565b50505050505050565b6001600160a01b0383811660008181526002602090815260408083209487168084529482529182902080547fffffffffffffffffffffffffffffffffffffffffffffffffffffffffffffff001686151590811790915591519182527f17307eab39ab6107e8899845ad3d59bd9653f200f220920489ca2b5937696c31910160405180910390a3505050565b600061158061089b565b604080517f045d890c79ffc118c4a2872a8cf3fee78fbf03c72a35e7fae867680021f3e1a460208201526001600160a01b03808a169282019290925290871660608201526080810185905260a0810186905260c0016040516020818303038152906040528051906020012060405160200161162d9291907f190100000000000000000000000000000000000000000000000000000000000081526002810192909252602282015260420190565b604051602081830303815290604052805190602001209050611650868284611ac6565b610a865760405162461bcd60e51b815260206004820152601160248201527f494e56414c49445f5349474e415455524500000000000000000000000000000060448201526064016104e4565b6116a784848461128c565b6001600160a01b0383163b15610608576116c43385858585611c36565b6106085760405162461bcd60e51b815260206004820152601860248201527f4552433732315f5452414e534645525f52454a4543544544000000000000000060448201526064016104e4565b606060006040518061084001604052806108138152602001612a7c6108139139905061173e81604885611ce6565b61174a81609785611ce6565b600061175d61175885611dc0565b611df4565b905061176b82826001611f3c565b61177782826000611f3c565b61178382826002611f3c565b60005b6008811015611a1e576000600a63800000006117f2858051602082018051600390810b8452604084018051820b9092526060909301805180850b9283905260139290921d90911882840b600b1b90921891821891830b60081d919091189182900b905263ffffffff1690565b6117fd90601761292f565b6118079190612964565b6118119190612964565b90506000600a6380000000611876868051602082018051600390810b8452604084018051820b9092526060909301805180850b9283905260139290921d90911882840b600b1b90921891821891830b60081d919091189182900b905263ffffffff1690565b61188190601761292f565b61188b9190612964565b6118959190612964565b90506000600a63800000006118fa878051602082018051600390810b8452604084018051820b9092526060909301805180850b9283905260139290921d90911882840b600b1b90921891821891830b60081d919091189182900b905263ffffffff1690565b61190590601761292f565b61190f9190612964565b6119199190612964565b90506000600a638000000061197e888051602082018051600390810b8452604084018051820b9092526060909301805180850b9283905260139290921d90911882840b600b1b90921891821891830b60081d919091189182900b905263ffffffff1690565b61198990601761292f565b6119939190612964565b61199d9190612964565b90506119ac8760008787611fc1565b6119b98760018786611fc1565b6119c68760028785611fc1565b6119d38760038784611fc1565b6119e08760048784611fc1565b6119ed8760058785611fc1565b6119fa8760068786611fc1565b611a078760078787611fc1565b505050508080611a16906128ff565b915050611786565b50909392505050565b60007f8cad95687ba82c2ce50e74f7b754645e5117c3a5bec8151c0726d5857980a866611a6f604080518082019091526008815267426c6f636b69657360c01b602082015290565b8051602091820120604051611aa893928791879101938452602084019290925260408301526001600160a01b0316606082015260800190565b60405160208183030381529060405280519060200120905092915050565b6000806000611ad585856120b1565b90925090506000816004811115611aee57611aee612978565b148015611b0c5750856001600160a01b0316826001600160a01b0316145b15611b1c5760019250505061066b565b600080876001600160a01b0316631626ba7e60e01b8888604051602401611b4492919061298e565b60408051601f198184030181529181526020820180517bffffffffffffffffffffffffffffffffffffffffffffffffffffffff166001600160e01b0319909416939093179092529051611b9791906129af565b600060405180830381855afa9150503d8060008114611bd2576040519150601f19603f3d011682016040523d82523d6000602084013e611bd7565b606091505b5091509150818015611bea575080516020145b8015611c2a575080517f1626ba7e0000000000000000000000000000000000000000000000000000000090611c2890830160209081019084016129cb565b145b98975050505050505050565b600080846001600160a01b031663150b7a02888887876040518563ffffffff1660e01b8152600401611c6b94939291906129e4565b6020604051808303816000875af1158015611c8a573d6000803e3d6000fd5b505050506040513d601f19601f82011682018060405250810190611cae9190612a20565b6001600160e01b0319167f150b7a02000000000000000000000000000000000000000000000000000000001491505095945050505050565b80156108c5576040805180820190915260108082527f30313233343536373839616263646566000000000000000000000000000000006020830152611d2b9083612a3d565b81518110611d3b57611d3b612919565b01602001517fff00000000000000000000000000000000000000000000000000000000000000168383611d6d81612a51565b945081518110611d7f57611d7f612919565b60200101907effffffffffffffffffffffffffffffffffffffffffffffffffffffffffffff1916908160001a905350611db9601082612964565b9050611ce6565b606060006040518060600160405280602a815260200161328f602a91399050610485816029856001600160a01b0316611ce6565b6040805160808101825260008082526020820181905291810182905260608101829052905b82518110156109bb57600381166000819003611e6557838281518110611e4157611e41612919565b602091010151835160f89190911c600382810b60051b9290920301900b8352611f33565b8060ff16600103611eab57838281518110611e8257611e82612919565b60209101810151908401805160f89290921c600383810b60051b939093030190910b9052611f33565b8060ff16600203611ef157838281518110611ec857611ec8612919565b60209101015160408401805160f89290921c600383810b60051b939093030190910b9052611f33565b8060ff16600303611f3357838281518110611f0e57611f0e612919565b60209101015160608401805160f89290921c600383810b60051b939093030190910b90525b50600101611e19565b6000806000611f4a856120f6565b9194509250905061014b60ff8516600103611f685750610181611f78565b8460ff16600203611f7857506104ce5b611f9187611f87836000612a68565b8661ffff166122f3565b611fa987611fa0836004612a68565b8560ff166122f3565b6114e287611fb8836009612a68565b8460ff166122f3565b60008160ff16600003611fd45750610608565b8160ff16600103611fe85750610193611ff8565b8160ff16600203611ff857506104e05b60008461200685600861292f565b6120109190612a68565b61201b90600c61292f565b61202685600561292f565b6120309084612a68565b61203a9190612a68565b612045906008612a68565b90507f310000000000000000000000000000000000000000000000000000000000000086828151811061207a5761207a612919565b60200101907effffffffffffffffffffffffffffffffffffffffffffffffffffffffffffff1916908160001a905350505050505050565b60008082516041036120e75760208301516040840151606085015160001a6120db87828585612370565b945094505050506120ef565b506000905060025b9250929050565b6000806000638000000061215a858051602082018051600390810b8452604084018051820b9092526060909301805180850b9283905260139290921d90911882840b600b1b90921891821891830b60081d919091189182900b905263ffffffff1690565b610168028161216b5761216b61294e565b04925063800000006121cd858051602082018051600390810b8452604084018051820b9092526060909301805180850b9283905260139290921d90911882840b600b1b90921891821891830b60081d919091189182900b905263ffffffff1690565b603c02816121dd576121dd61294e565b0460280191506380000000612242858051602082018051600390810b8452604084018051820b9092526060909301805180850b9283905260139290921d90911882840b600b1b90921891821891830b60081d919091189182900b905263ffffffff1690565b855160208701805160408901805160608b018051600381810b808f52601390811d90921888820b600b90811b90991890811890820b600890811d9190911880830b9889905288841d90981896820b808a1b1896871896820b811d9690961880820b958690529185901d90941892840b9687901b90961891821891830b90931d189081900b90915263ffffffff9182169282169116010101601902816122e9576122e961294e565b0490509193909250565b80156108c557612304600a82612a3d565b61230f906030612a68565b60f81b838361231d81612a51565b94508151811061232f5761232f612919565b60200101907effffffffffffffffffffffffffffffffffffffffffffffffffffffffffffff1916908160001a905350612369600a82612964565b90506122f3565b6000807f7fffffffffffffffffffffffffffffff5d576e7357a4501ddfe92f46681b20a08311156123a75750600090506003612454565b8460ff16601b141580156123bf57508460ff16601c14155b156123d05750600090506004612454565b6040805160008082526020820180845289905260ff881692820192909252606081018690526080810185905260019060a0016020604051602081039080840390855afa158015612424573d6000803e3d6000fd5b5050604051601f1901519150506001600160a01b03811661244d57600060019250925050612454565b9150600090505b94509492505050565b6001600160e01b03198116811461247357600080fd5b50565b60006020828403121561248857600080fd5b813561066b8161245d565b60005b838110156124ae578181015183820152602001612496565b50506000910152565b600081518084526124cf816020860160208601612493565b601f01601f19169290920160200192915050565b60208152600061066b60208301846124b7565b60006020828403121561250857600080fd5b5035919050565b80356001600160a01b038116811461092157600080fd5b6000806040838503121561253957600080fd5b6125428361250f565b946020939093013593505050565b60008060006060848603121561256557600080fd5b61256e8461250f565b925061257c6020850161250f565b9150604084013590509250925092565b60006020828403121561259e57600080fd5b61066b8261250f565b634e487b7160e01b600052604160045260246000fd5b600082601f8301126125ce57600080fd5b813567ffffffffffffffff808211156125e9576125e96125a7565b604051601f8301601f19908116603f01168101908282118183101715612611576126116125a7565b8160405283815286602085880101111561262a57600080fd5b836020870160208301376000602085830101528094505050505092915050565b6000806000806080858703121561266057600080fd5b6126698561250f565b93506020850135925060408501359150606085013567ffffffffffffffff81111561269357600080fd5b61269f878288016125bd565b91505092959194509250565b7fff00000000000000000000000000000000000000000000000000000000000000881681526000602060e0818401526126e760e084018a6124b7565b83810360408501526126f9818a6124b7565b606085018990526001600160a01b038816608086015260a0850187905284810360c0860152855180825283870192509083019060005b8181101561274b5783518352928401929184019160010161272f565b50909c9b505050505050505050505050565b6000806040838503121561277057600080fd5b6127798361250f565b91506020830135801515811461278e57600080fd5b809150509250929050565b600080600080608085870312156127af57600080fd5b6127b88561250f565b93506127c66020860161250f565b925060408501359150606085013567ffffffffffffffff81111561269357600080fd5b600080604083850312156127fc57600080fd5b6128058361250f565b91506128136020840161250f565b90509250929050565b6000806020838503121561282f57600080fd5b823567ffffffffffffffff8082111561284757600080fd5b818501915085601f83011261285b57600080fd5b81358181111561286a57600080fd5b8660208260051b850101111561287f57600080fd5b60209290920196919550909350505050565b602080825282518282018190526000919060409081850190868401855b828110156128dc57815180516001600160a01b031685528601518685015292840192908501906001016128ae565b5091979650505050505050565b634e487b7160e01b600052601160045260246000fd5b60006000198203612912576129126128e9565b5060010190565b634e487b7160e01b600052603260045260246000fd5b6000816000190483118215151615612949576129496128e9565b500290565b634e487b7160e01b600052601260045260246000fd5b6000826129735761297361294e565b500490565b634e487b7160e01b600052602160045260246000fd5b8281526040602082015260006129a760408301846124b7565b949350505050565b600082516129c1818460208701612493565b9190910192915050565b6000602082840312156129dd57600080fd5b5051919050565b60006001600160a01b03808716835280861660208401525083604083015260806060830152612a1660808301846124b7565b9695505050505050565b600060208284031215612a3257600080fd5b815161066b8161245d565b600082612a4c57612a4c61294e565b500690565b600081612a6057612a606128e9565b506000190190565b80820180821115610485576104856128e956fe646174613a6170706c69636174696f6e2f6a736f6e2c7b226e616d65223a22307830303030303030303030303030303030303030303030303030303030303030303030303030303030222c226465736372697074696f6e223a2241253230426c6f636b6965253230666f72253230307830303030303030303030303030303030303030303030303030303030303030303030303030303030222c22696d616765223a22646174613a696d6167652f7376672b786d6c2c3c737667253230786d6c6e733d27687474703a2f2f7777772e77332e6f72672f323030302f7376672725323073686170652d72656e646572696e673d27637269737045646765732725323077696474683d27353132272532306865696768743d27353132273e3c672532307472616e73666f726d3d277363616c6528363429273e3c7061746825323066696c6c3d2768736c283030302c303030252c303030252927253230643d274d302c3068387638682d387a272f3e3c7061746825323066696c6c3d2768736c283030302c303030252c303030252927253230643d274d302c3068317630682d317a6d312c3068317630682d317a6d312c3068317630682d317a6d312c3068317630682d317a6d312c3068317630682d317a6d312c3068317630682d317a6d312c3068317630682d317a6d312c3068317630682d317a6d2d382c316d312c3068317630682d317a6d312c3068317630682d317a6d312c3068317630682d317a6d312c3068317630682d317a6d312c3068317630682d317a6d312c3068317630682d317a6d312c3068317630682d317a6d312c3068317630682d317a6d2d382c316d312c3068317630682d317a6d312c3068317630682d317a6d312c3068317630682d317a6d312c3068317630682d317a6d312c3068317630682d317a6d312c3068317630682d317a6d312c3068317630682d317a6d312c3068317630682d317a6d2d382c316d312c3068317630682d317a6d312c3068317630682d317a6d312c3068317630682d317a6d312c3068317630682d317a6d312c3068317630682d317a6d312c3068317630682d317a6d312c3068317630682d317a6d312c3068317630682d317a6d2d382c316d312c3068317630682d317a6d312c3068317630682d317a6d312c3068317630682d317a6d312c3068317630682d317a6d312c3068317630682d317a6d312c3068317630682d317a6d312c3068317630682d317a6d312c3068317630682d317a6d2d382c316d312c3068317630682d317a6d312c3068317630682d317a6d312c3068317630682d317a6d312c3068317630682d317a6d312c3068317630682d317a6d312c3068317630682d317a6d312c3068317630682d317a6d312c3068317630682d317a6d2d382c316d312c3068317630682d317a6d312c3068317630682d317a6d312c3068317630682d317a6d312c3068317630682d317a6d312c3068317630682d317a6d312c3068317630682d317a6d312c3068317630682d317a6d312c3068317630682d317a6d2d382c316d312c3068317630682d317a6d312c3068317630682d317a6d312c3068317630682d317a6d312c3068317630682d317a6d312c3068317630682d317a6d312c3068317630682d317a6d312c3068317630682d317a6d312c3068317630682d317a272f3e3c7061746825323066696c6c3d2768736c283030302c303030252c303030252927253230643d274d302c3068317630682d317a6d312c3068317630682d317a6d312c3068317630682d317a6d312c3068317630682d317a6d312c3068317630682d317a6d312c3068317630682d317a6d312c3068317630682d317a6d312c3068317630682d317a6d2d382c316d312c3068317630682d317a6d312c3068317630682d317a6d312c3068317630682d317a6d312c3068317630682d317a6d312c3068317630682d317a6d312c3068317630682d317a6d312c3068317630682d317a6d312c3068317630682d317a6d2d382c316d312c3068317630682d317a6d312c3068317630682d317a6d312c3068317630682d317a6d312c3068317630682d317a6d312c3068317630682d317a6d312c3068317630682d317a6d312c3068317630682d317a6d312c3068317630682d317a6d2d382c316d312c3068317630682d317a6d312c3068317630682d317a6d312c3068317630682d317a6d312c3068317630682d317a6d312c3068317630682d317a6d312c3068317630682d317a6d312c3068317630682d317a6d312c3068317630682d317a6d2d382c316d312c3068317630682d317a6d312c3068317630682d317a6d312c3068317630682d317a6d312c3068317630682d317a6d312c3068317630682d317a6d312c3068317630682d317a6d312c3068317630682d317a6d312c3068317630682d317a6d2d382c316d312c3068317630682d317a6d312c3068317630682d317a6d312c3068317630682d317a6d312c3068317630682d317a6d312c3068317630682d317a6d312c3068317630682d317a6d312c3068317630682d317a6d312c3068317630682d317a6d2d382c316d312c3068317630682d317a6d312c3068317630682d317a6d312c3068317630682d317a6d312c3068317630682d317a6d312c3068317630682d317a6d312c3068317630682d317a6d312c3068317630682d317a6d312c3068317630682d317a6d2d382c316d312c3068317630682d317a6d312c3068317630682d317a6d312c3068317630682d317a6d312c3068317630682d317a6d312c3068317630682d317a6d312c3068317630682d317a6d312c3068317630682d317a6d312c3068317630682d317a272f3e3c2f673e3c2f7376673e227d307830303030303030303030303030303030303030303030303030303030303030303030303030303030a264697066735822122024871b21c072ffd9af3c731991ddfbb5176074c03f075869e2e0bc8f954b0af764736f6c63430008100033",
  "devdoc": {
    "kind": "dev",
    "methods": {
      "approve(address,uint256)": {
        "params": {
          "id": "The id of the token.",
          "operator": "The address receiving the approval."
        }
      },
      "balanceOf(address)": {
        "params": {
          "owner": "The address to look for."
        },
        "returns": {
          "balance": "The number of tokens owned by the address."
        }
      },
      "getApproved(uint256)": {
        "params": {
          "id": "The id of the token."
        },
        "returns": {
          "_0": "The address of the operator."
        }
      },
      "isApprovedForAll(address,address)": {
        "params": {
          "operator": "The address of the operator.",
          "owner": "The address of the owner."
        },
        "returns": {
          "isOperator": "The status of the approval."
        }
      },
      "nonces(address)": {
        "params": {
          "account": "the account to query"
        },
        "returns": {
          "nonce": "nonce"
        }
      },
      "nonces(uint256)": {
        "params": {
          "id": "token id to query"
        },
        "returns": {
          "nonce": "nonce"
        }
      },
      "ownerAndLastTransferBlockNumberList(uint256[])": {
        "params": {
          "ids": "The list of token ids to check."
        },
        "returns": {
          "ownersData": "The list of (owner, lastTransferBlockNumber) for each ids given as input."
        }
      },
      "ownerOf(uint256)": {
        "params": {
          "id": "The id of the token."
        },
        "returns": {
          "owner": "The address of the token owner."
        }
      },
      "safeTransferFrom(address,address,uint256)": {
        "params": {
          "from": "The send of the token.",
          "id": "The id of the token.",
          "to": "The recipient of the token."
        }
      },
      "safeTransferFrom(address,address,uint256,bytes)": {
        "params": {
          "data": "Additional data.",
          "from": "The sender of the token.",
          "id": "The id of the token.",
          "to": "The recipient of the token."
        }
      },
      "setApprovalForAll(address,bool)": {
        "params": {
          "approved": "The determination of the approval.",
          "operator": "The address receiving the approval."
        }
      },
      "tokenNonces(uint256)": {
        "params": {
          "id": "token id to query"
        },
        "returns": {
          "nonce": "nonce"
        }
      },
      "totalSupply()": {
        "returns": {
          "_0": "A count of valid NFTs tracked by this contract, where each one of  them has an assigned and queryable owner not equal to the zero address"
        }
      },
      "transferFrom(address,address,uint256)": {
        "params": {
          "from": "The sender of the token.",
          "id": "The id of the token.",
          "to": "The recipient of the token."
        }
      }
    },
    "version": 1
  },
  "userdoc": {
    "kind": "user",
    "methods": {
      "approve(address,uint256)": {
        "notice": "Approve an operator to transfer a specific token on the senders behalf."
      },
      "balanceOf(address)": {
        "notice": "Get the number of tokens owned by an address."
      },
      "getApproved(uint256)": {
        "notice": "Get the approved operator for a specific token."
      },
      "isApprovedForAll(address,address)": {
        "notice": "Check if the sender approved the operator."
      },
      "nonces(address)": {
        "notice": "return the account nonce, used for approvalForAll permit or other account related matter"
      },
      "nonces(uint256)": {
        "notice": "return the token nonce, used for individual approve permit or other token related matter"
      },
      "ownerAndLastTransferBlockNumberList(uint256[])": {
        "notice": "Get the list of owner of a token and the blockNumber of its last transfer, useful to voting mechanism."
      },
      "ownerOf(uint256)": {
        "notice": "Get the owner of a token."
      },
      "safeTransferFrom(address,address,uint256)": {
        "notice": "Transfer a token between 2 addresses letting the receiver know of the transfer."
      },
      "safeTransferFrom(address,address,uint256,bytes)": {
        "notice": "Transfer a token between 2 addresses letting the receiver knows of the transfer."
      },
      "setApprovalForAll(address,bool)": {
        "notice": "Set the approval for an operator to manage all the tokens of the sender."
      },
      "tokenNonces(uint256)": {
        "notice": "return the token nonce, used for individual approve permit or other token related matter"
      },
      "totalSupply()": {
        "notice": "Count NFTs tracked by this contract"
      },
      "transferFrom(address,address,uint256)": {
        "notice": "Transfer a token between 2 addresses."
      }
    },
    "version": 1
  },
  "storageLayout": {
    "storage": [
      {
        "astId": 624,
        "contract": "src/Blockies.sol:Blockies",
        "label": "_owners",
        "offset": 0,
        "slot": "0",
        "type": "t_mapping(t_uint256,t_uint256)"
      },
      {
        "astId": 628,
        "contract": "src/Blockies.sol:Blockies",
        "label": "_balances",
        "offset": 0,
        "slot": "1",
        "type": "t_mapping(t_address,t_uint256)"
      },
      {
        "astId": 634,
        "contract": "src/Blockies.sol:Blockies",
        "label": "_operatorsForAll",
        "offset": 0,
        "slot": "2",
        "type": "t_mapping(t_address,t_mapping(t_address,t_bool))"
      },
      {
        "astId": 638,
        "contract": "src/Blockies.sol:Blockies",
        "label": "_operators",
        "offset": 0,
        "slot": "3",
        "type": "t_mapping(t_uint256,t_address)"
      },
      {
        "astId": 239,
        "contract": "src/Blockies.sol:Blockies",
        "label": "_userNonces",
        "offset": 0,
        "slot": "4",
        "type": "t_mapping(t_address,t_uint256)"
      }
    ],
    "types": {
      "t_address": {
        "encoding": "inplace",
        "label": "address",
        "numberOfBytes": "20"
      },
      "t_bool": {
        "encoding": "inplace",
        "label": "bool",
        "numberOfBytes": "1"
      },
      "t_mapping(t_address,t_bool)": {
        "encoding": "mapping",
        "key": "t_address",
        "label": "mapping(address => bool)",
        "numberOfBytes": "32",
        "value": "t_bool"
      },
      "t_mapping(t_address,t_mapping(t_address,t_bool))": {
        "encoding": "mapping",
        "key": "t_address",
        "label": "mapping(address => mapping(address => bool))",
        "numberOfBytes": "32",
        "value": "t_mapping(t_address,t_bool)"
      },
      "t_mapping(t_address,t_uint256)": {
        "encoding": "mapping",
        "key": "t_address",
        "label": "mapping(address => uint256)",
        "numberOfBytes": "32",
        "value": "t_uint256"
      },
      "t_mapping(t_uint256,t_address)": {
        "encoding": "mapping",
        "key": "t_uint256",
        "label": "mapping(uint256 => address)",
        "numberOfBytes": "32",
        "value": "t_address"
      },
      "t_mapping(t_uint256,t_uint256)": {
        "encoding": "mapping",
        "key": "t_uint256",
        "label": "mapping(uint256 => uint256)",
        "numberOfBytes": "32",
        "value": "t_uint256"
      },
      "t_uint256": {
        "encoding": "inplace",
        "label": "uint256",
        "numberOfBytes": "32"
      }
    }
  }
}