{
  "address": "0xfC914D2551E6B8Da3a63aac2E5f70Cb38aA9d43c",
  "abi": [
    {
      "inputs": [
        {
          "internalType": "address",
          "name": "contractOwner",
          "type": "address"
        }
      ],
      "stateMutability": "nonpayable",
      "type": "constructor"
    },
    {
      "inputs": [],
      "name": "AlreadyClaimed",
      "type": "error"
    },
    {
      "inputs": [
        {
          "internalType": "uint256",
          "name": "currentTime",
          "type": "uint256"
        },
        {
          "internalType": "uint256",
          "name": "deadline",
          "type": "uint256"
        }
      ],
      "name": "DeadlineOver",
      "type": "error"
    },
    {
      "inputs": [
        {
          "internalType": "address",
          "name": "invalid",
          "type": "address"
        }
      ],
      "name": "InvalidAddress",
      "type": "error"
    },
    {
      "inputs": [],
      "name": "InvalidSignature",
      "type": "error"
    },
    {
      "inputs": [
        {
          "internalType": "uint256",
          "name": "tokenID",
          "type": "uint256"
        }
      ],
      "name": "NonExistentToken",
      "type": "error"
    },
    {
      "inputs": [],
      "name": "NonceOverflow",
      "type": "error"
    },
    {
      "inputs": [],
      "name": "NotAuthorized",
      "type": "error"
    },
    {
      "inputs": [
        {
          "internalType": "address",
          "name": "provided",
          "type": "address"
        },
        {
          "internalType": "address",
          "name": "expected",
          "type": "address"
        }
      ],
      "name": "NotOwner",
      "type": "error"
    },
    {
      "inputs": [],
      "name": "TransferRejected",
      "type": "error"
    },
    {
      "anonymous": false,
      "inputs": [
        {
          "indexed": true,
          "internalType": "address",
          "name": "owner",
          "type": "address"
        },
        {
          "indexed": true,
          "internalType": "address",
          "name": "approved",
          "type": "address"
        },
        {
          "indexed": true,
          "internalType": "uint256",
          "name": "tokenId",
          "type": "uint256"
        }
      ],
      "name": "Approval",
      "type": "event"
    },
    {
      "anonymous": false,
      "inputs": [
        {
          "indexed": true,
          "internalType": "address",
          "name": "owner",
          "type": "address"
        },
        {
          "indexed": true,
          "internalType": "address",
          "name": "operator",
          "type": "address"
        },
        {
          "indexed": false,
          "internalType": "bool",
          "name": "approved",
          "type": "bool"
        }
      ],
      "name": "ApprovalForAll",
      "type": "event"
    },
    {
      "anonymous": false,
      "inputs": [
        {
          "indexed": true,
          "internalType": "address",
          "name": "from",
          "type": "address"
        },
        {
          "indexed": true,
          "internalType": "address",
          "name": "to",
          "type": "address"
        },
        {
          "indexed": true,
          "internalType": "uint256",
          "name": "tokenId",
          "type": "uint256"
        }
      ],
      "name": "Transfer",
      "type": "event"
    },
    {
      "inputs": [],
      "name": "DOMAIN_SEPARATOR",
      "outputs": [
        {
          "internalType": "bytes32",
          "name": "",
          "type": "bytes32"
        }
      ],
      "stateMutability": "view",
      "type": "function"
    },
    {
      "inputs": [],
      "name": "PERMIT_FOR_ALL_TYPEHASH",
      "outputs": [
        {
          "internalType": "bytes32",
          "name": "",
          "type": "bytes32"
        }
      ],
      "stateMutability": "view",
      "type": "function"
    },
    {
      "inputs": [],
      "name": "PERMIT_TYPEHASH",
      "outputs": [
        {
          "internalType": "bytes32",
          "name": "",
          "type": "bytes32"
        }
      ],
      "stateMutability": "view",
      "type": "function"
    },
    {
      "inputs": [
        {
          "internalType": "address",
          "name": "operator",
          "type": "address"
        },
        {
          "internalType": "uint256",
          "name": "tokenId",
          "type": "uint256"
        }
      ],
      "name": "approve",
      "outputs": [],
      "stateMutability": "nonpayable",
      "type": "function"
    },
    {
      "inputs": [
        {
          "internalType": "address",
          "name": "owner",
          "type": "address"
        }
      ],
      "name": "balanceOf",
      "outputs": [
        {
          "internalType": "uint256",
          "name": "balance",
          "type": "uint256"
        }
      ],
      "stateMutability": "view",
      "type": "function"
    },
    {
      "inputs": [
        {
          "internalType": "uint256",
          "name": "id",
          "type": "uint256"
        }
      ],
      "name": "claimOwnership",
      "outputs": [],
      "stateMutability": "nonpayable",
      "type": "function"
    },
    {
      "inputs": [],
      "name": "contractURI",
      "outputs": [
        {
          "internalType": "string",
          "name": "",
          "type": "string"
        }
      ],
      "stateMutability": "view",
      "type": "function"
    },
    {
      "inputs": [],
      "name": "eip712Domain",
      "outputs": [
        {
          "internalType": "bytes1",
          "name": "fields",
          "type": "bytes1"
        },
        {
          "internalType": "string",
          "name": "name",
          "type": "string"
        },
        {
          "internalType": "string",
          "name": "version",
          "type": "string"
        },
        {
          "internalType": "uint256",
          "name": "chainId",
          "type": "uint256"
        },
        {
          "internalType": "address",
          "name": "verifyingContract",
          "type": "address"
        },
        {
          "internalType": "bytes32",
          "name": "salt",
          "type": "bytes32"
        },
        {
          "internalType": "uint256[]",
          "name": "extensions",
          "type": "uint256[]"
        }
      ],
      "stateMutability": "view",
      "type": "function"
    },
    {
      "inputs": [
        {
          "internalType": "uint256",
          "name": "id",
          "type": "uint256"
        }
      ],
      "name": "emitSelfTransferEvent",
      "outputs": [],
      "stateMutability": "nonpayable",
      "type": "function"
    },
    {
      "inputs": [
        {
          "internalType": "uint256",
          "name": "tokenId",
          "type": "uint256"
        }
      ],
      "name": "getApproved",
      "outputs": [
        {
          "internalType": "address",
          "name": "operator",
          "type": "address"
        }
      ],
      "stateMutability": "view",
      "type": "function"
    },
    {
      "inputs": [
        {
          "internalType": "address",
          "name": "owner",
          "type": "address"
        },
        {
          "internalType": "address",
          "name": "operator",
          "type": "address"
        }
      ],
      "name": "isApprovedForAll",
      "outputs": [
        {
          "internalType": "bool",
          "name": "isOperator",
          "type": "bool"
        }
      ],
      "stateMutability": "view",
      "type": "function"
    },
    {
      "inputs": [],
      "name": "name",
      "outputs": [
        {
          "internalType": "string",
          "name": "",
          "type": "string"
        }
      ],
      "stateMutability": "pure",
      "type": "function"
    },
    {
      "inputs": [
        {
          "internalType": "uint256",
          "name": "id",
          "type": "uint256"
        }
      ],
      "name": "nonces",
      "outputs": [
        {
          "internalType": "uint256",
          "name": "nonce",
          "type": "uint256"
        }
      ],
      "stateMutability": "view",
      "type": "function"
    },
    {
      "inputs": [
        {
          "internalType": "address",
          "name": "account",
          "type": "address"
        }
      ],
      "name": "nonces",
      "outputs": [
        {
          "internalType": "uint256",
          "name": "nonce",
          "type": "uint256"
        }
      ],
      "stateMutability": "view",
      "type": "function"
    },
    {
      "inputs": [],
      "name": "owner",
      "outputs": [
        {
          "internalType": "address",
          "name": "",
          "type": "address"
        }
      ],
      "stateMutability": "view",
      "type": "function"
    },
    {
      "inputs": [
        {
          "internalType": "uint256[]",
          "name": "ids",
          "type": "uint256[]"
        }
      ],
      "name": "ownerAndLastTransferBlockNumberList",
      "outputs": [
        {
          "components": [
            {
              "internalType": "address",
              "name": "owner",
              "type": "address"
            },
            {
              "internalType": "uint256",
              "name": "lastTransferBlockNumber",
              "type": "uint256"
            }
          ],
          "internalType": "struct IERC721WithBlocknumber.OwnerData[]",
          "name": "ownersData",
          "type": "tuple[]"
        }
      ],
      "stateMutability": "view",
      "type": "function"
    },
    {
      "inputs": [
        {
          "internalType": "uint256",
          "name": "id",
          "type": "uint256"
        }
      ],
      "name": "ownerAndLastTransferBlockNumberOf",
      "outputs": [
        {
          "internalType": "address",
          "name": "owner",
          "type": "address"
        },
        {
          "internalType": "uint256",
          "name": "blockNumber",
          "type": "uint256"
        }
      ],
      "stateMutability": "view",
      "type": "function"
    },
    {
      "inputs": [
        {
          "internalType": "uint256",
          "name": "tokenId",
          "type": "uint256"
        }
      ],
      "name": "ownerOf",
      "outputs": [
        {
          "internalType": "address",
          "name": "owner",
          "type": "address"
        }
      ],
      "stateMutability": "view",
      "type": "function"
    },
    {
      "inputs": [
        {
          "internalType": "address",
          "name": "spender",
          "type": "address"
        },
        {
          "internalType": "uint256",
          "name": "tokenId",
          "type": "uint256"
        },
        {
          "internalType": "uint256",
          "name": "deadline",
          "type": "uint256"
        },
        {
          "internalType": "bytes",
          "name": "sig",
          "type": "bytes"
        }
      ],
      "name": "permit",
      "outputs": [],
      "stateMutability": "nonpayable",
      "type": "function"
    },
    {
      "inputs": [
        {
          "internalType": "address",
          "name": "owner",
          "type": "address"
        },
        {
          "internalType": "address",
          "name": "spender",
          "type": "address"
        },
        {
          "internalType": "uint256",
          "name": "deadline",
          "type": "uint256"
        },
        {
          "internalType": "bytes",
          "name": "sig",
          "type": "bytes"
        }
      ],
      "name": "permitForAll",
      "outputs": [],
      "stateMutability": "nonpayable",
      "type": "function"
    },
    {
      "inputs": [
        {
          "internalType": "address",
          "name": "from",
          "type": "address"
        },
        {
          "internalType": "address",
          "name": "to",
          "type": "address"
        },
        {
          "internalType": "uint256",
          "name": "tokenId",
          "type": "uint256"
        }
      ],
      "name": "safeTransferFrom",
      "outputs": [],
      "stateMutability": "nonpayable",
      "type": "function"
    },
    {
      "inputs": [
        {
          "internalType": "address",
          "name": "from",
          "type": "address"
        },
        {
          "internalType": "address",
          "name": "to",
          "type": "address"
        },
        {
          "internalType": "uint256",
          "name": "tokenId",
          "type": "uint256"
        },
        {
          "internalType": "bytes",
          "name": "data",
          "type": "bytes"
        }
      ],
      "name": "safeTransferFrom",
      "outputs": [],
      "stateMutability": "nonpayable",
      "type": "function"
    },
    {
      "inputs": [
        {
          "internalType": "address",
          "name": "operator",
          "type": "address"
        },
        {
          "internalType": "bool",
          "name": "approved",
          "type": "bool"
        }
      ],
      "name": "setApprovalForAll",
      "outputs": [],
      "stateMutability": "nonpayable",
      "type": "function"
    },
    {
      "inputs": [
        {
          "internalType": "bytes4",
          "name": "id",
          "type": "bytes4"
        }
      ],
      "name": "supportsInterface",
      "outputs": [
        {
          "internalType": "bool",
          "name": "",
          "type": "bool"
        }
      ],
      "stateMutability": "view",
      "type": "function"
    },
    {
      "inputs": [],
      "name": "symbol",
      "outputs": [
        {
          "internalType": "string",
          "name": "",
          "type": "string"
        }
      ],
      "stateMutability": "pure",
      "type": "function"
    },
    {
      "inputs": [
        {
          "internalType": "uint256",
          "name": "tokenId",
          "type": "uint256"
        }
      ],
      "name": "tokenNonces",
      "outputs": [
        {
          "internalType": "uint256",
          "name": "nonce",
          "type": "uint256"
        }
      ],
      "stateMutability": "view",
      "type": "function"
    },
    {
      "inputs": [
        {
          "internalType": "uint256",
          "name": "id",
          "type": "uint256"
        }
      ],
      "name": "tokenURI",
      "outputs": [
        {
          "internalType": "string",
          "name": "str",
          "type": "string"
        }
      ],
      "stateMutability": "pure",
      "type": "function"
    },
    {
      "inputs": [],
      "name": "totalSupply",
      "outputs": [
        {
          "internalType": "uint256",
          "name": "",
          "type": "uint256"
        }
      ],
      "stateMutability": "pure",
      "type": "function"
    },
    {
      "inputs": [
        {
          "internalType": "address",
          "name": "from",
          "type": "address"
        },
        {
          "internalType": "address",
          "name": "to",
          "type": "address"
        },
        {
          "internalType": "uint256",
          "name": "tokenId",
          "type": "uint256"
        }
      ],
      "name": "transferFrom",
      "outputs": [],
      "stateMutability": "nonpayable",
      "type": "function"
    }
  ],
  "transactionHash": "0xaf3670ec4e497fb31c5bc4e742220712856ea83fab0b26aeb3542be534922662",
  "args": [
    "0x61c461EcC993aaDEB7e4b47E96d1B8cC37314B20"
  ],
  "numDeployments": 1,
  "solcInputHash": "e32ce7072d29abab89573a488c22fd3b",
  "bytecode": "0x60e06040523480156200001157600080fd5b50604051620037cd380380620037cd8339810160408190526200003491620001d9565b6000816001600160a01b038116620000495750305b62000058600082818062000099565b5046608081905262000082816001600160a01b038416156200007b578362000138565b3062000138565b60a05250506001600160a01b031660c0526200020b565b6001600160a01b0383166000908152600160208190526040909120805490910190558015620000e3576001600160a01b038416600090815260016020526040902080546000190190555b6000828152602081905260408082204360b81b6001600160a01b0380881691821790925591518593918816917fddf252ad1be2c89b69c2b068fc378daa952ba7f163c4a11628f55a4df523b3ef91a450505050565b60007f8cad95687ba82c2ce50e74f7b754645e5117c3a5bec8151c0726d5857980a86662000181604080518082019091526008815267426c6f636b69657360c01b602082015290565b8051602091820120604051620001bb93928791879101938452602084019290925260408301526001600160a01b0316606082015260800190565b60405160208183030381529060405280519060200120905092915050565b600060208284031215620001ec57600080fd5b81516001600160a01b03811681146200020457600080fd5b9392505050565b60805160a05160c0516135926200023b60003960006103d7015260006113ab0152600061137501526135926000f3fe608060405234801561001057600080fd5b50600436106101cf5760003560e01c806370a0823111610104578063ab84ee6f116100a2578063ce7f271411610071578063ce7f271414610491578063e8a3d485146104a4578063e985e9c5146104ac578063f3945282146104e857600080fd5b8063ab84ee6f14610445578063adc5fcc214610458578063b88d4fde1461046b578063c87b56dd1461047e57600080fd5b806384b0196e116100de57806384b0196e146103b75780638da5cb5b146103d257806395d89b41146103f9578063a22cb4651461043257600080fd5b806370a0823114610368578063745a41bc1461037b5780637ecebe001461038e57600080fd5b806330adf81f1161017157806348f3c51c1161014b57806348f3c51c146102e9578063585956d61461031b5780636352211e1461034257806365d13a9b1461035557600080fd5b806330adf81f146102a75780633644e515146102ce57806342842e0e146102d657600080fd5b8063095ea7b3116101ad578063095ea7b314610254578063141a468c1461026957806318160ddd1461028a57806323b872dd1461029457600080fd5b806301ffc9a7146101d457806306fdde03146101fc578063081812fc14610229575b600080fd5b6101e76101e2366004612542565b610508565b60405190151581526020015b60405180910390f35b604080518082019091526008815267426c6f636b69657360c01b60208201525b6040516101f391906125af565b61023c6102373660046125c2565b610528565b6040516001600160a01b0390911681526020016101f3565b6102676102623660046125f0565b610598565b005b61027c6102773660046125c2565b610640565b6040519081526020016101f3565b600160a01b61027c565b6102676102a236600461261c565b610684565b61027c7f49ecf333e5b8c95c40fdafc95c1ad136e8914a8fb55e9dc8bb01eaa83a2df9ad81565b61027c610804565b6102676102e436600461261c565b610813565b6102fc6102f73660046125c2565b610833565b604080516001600160a01b0390931683526020830191909152016101f3565b61027c7f045d890c79ffc118c4a2872a8cf3fee78fbf03c72a35e7fae867680021f3e1a481565b61023c6103503660046125c2565b610853565b6102676103633660046125c2565b61088f565b61027c61037636600461265d565b610956565b61026761038936600461271d565b610993565b61027c61039c36600461265d565b6001600160a01b031660009081526004602052604090205490565b6103bf610a2b565b6040516101f39796959493929190612780565b61023c7f000000000000000000000000000000000000000000000000000000000000000081565b60408051808201909152600681527f424c4f434b590000000000000000000000000000000000000000000000000000602082015261021c565b610267610440366004612832565b610a8d565b610267610453366004612870565b610a9c565b61027c6104663660046125c2565b610b25565b610267610479366004612870565b610b30565b61021c61048c3660046125c2565b610cb2565b61026761049f3660046125c2565b610d3b565b61021c610e6a565b6101e76104ba3660046128c4565b6001600160a01b03918216600090815260026020908152604080832093909416825291909152205460ff1690565b6104fb6104f63660046128f2565b610e99565b6040516101f39190612967565b600061051382610fe1565b8061052257506105228261107a565b92915050565b6000806000610536846110e2565b90925090506001600160a01b03821661056a576040516338077a2b60e01b8152600481018590526024015b60405180910390fd5b801561058e575050506000908152600360205260409020546001600160a01b031690565b5060009392505050565b6000806105a48361112a565b90925090506001600160a01b0382166105d3576040516338077a2b60e01b815260048101849052602401610561565b336001600160a01b0383161480159061061057506001600160a01b038216600090815260026020908152604080832033845290915290205460ff16155b1561062e5760405163ea8e4eb560e01b815260040160405180910390fd5b61063a82828686611152565b50505050565b600080600061064e8461112a565b90925090506001600160a01b03821661067d576040516338077a2b60e01b815260048101859052602401610561565b9392505050565b60008060006106928461127e565b919450925090506001600160a01b0383166106c3576040516338077a2b60e01b815260048101859052602401610561565b826001600160a01b0316866001600160a01b031614610721576040517f23295f0e0000000000000000000000000000000000000000000000000000000081526001600160a01b03808816600483015284166024820152604401610561565b6001600160a01b038516158061073f57506001600160a01b03851630145b1561076857604051634726455360e11b81526001600160a01b0386166004820152602401610561565b336001600160a01b038716146107ea5780801561079b57506000848152600360205260409020546001600160a01b031633145b1580156107cc57506001600160a01b038616600090815260026020908152604080832033845290915290205460ff16155b156107ea5760405163ea8e4eb560e01b815260040160405180910390fd5b6107fc868686601886901c15156112d2565b505050505050565b600061080e611370565b905090565b61082e83838360405180602001604052806000815250610b30565b505050565b6000806000806108428561112a565b909660189190911c95509350505050565b600061085e826113d1565b90506001600160a01b03811661088a576040516338077a2b60e01b815260048101839052602401610561565b919050565b60008061089b8361127e565b919350909150506001600160a01b0382166108cc576040516338077a2b60e01b815260048101849052602401610561565b60405183906001600160a01b0384169081907fddf252ad1be2c89b69c2b068fc378daa952ba7f163c4a11628f55a4df523b3ef90600090a4801561082e5760008381526003602052604080822054905185926001600160a01b03928316928616917f8c5be1e5ebec7d5bd14f71427d1e84f3dd0314c0f7b2291e5b200ac8c7c3b9259190a4505050565b600061096182611403565b90506000610977836001600160a01b031661112a565b915050601881901c60000361098d576001909101905b50919050565b814211156109d6576040517fdd6b219a00000000000000000000000000000000000000000000000000000000815242600482015260248101839052604401610561565b6000806109e28561112a565b90925090506001600160a01b038216610a11576040516338077a2b60e01b815260048101869052602401610561565b610a1f828787878588611453565b6107fc82828888611152565b7f0d000000000000000000000000000000000000000000000000000000000000006060806000808083610a5c611561565b604080516020808201835260008083528351818152918201909352999a929990985046975030965090945092509050565b610a98338383611588565b5050565b81421115610adf576040517fdd6b219a00000000000000000000000000000000000000000000000000000000815242600482015260248101839052604401610561565b6001600160a01b03841660009081526004602052604081208054610b1992879287928792909190610b0f836129d5565b9190505585611613565b61063a84846001611588565b600061052282610640565b6000806000610b3e8561127e565b919450925090506001600160a01b038316610b6f576040516338077a2b60e01b815260048101869052602401610561565b866001600160a01b0316836001600160a01b031614610bcd576040517f23295f0e0000000000000000000000000000000000000000000000000000000081526001600160a01b03808916600483015284166024820152604401610561565b6001600160a01b0386161580610beb57506001600160a01b03861630145b15610c1457604051634726455360e11b81526001600160a01b0387166004820152602401610561565b336001600160a01b03881614610c9657808015610c4757506000858152600360205260409020546001600160a01b031633145b158015610c7857506001600160a01b038716600090815260026020908152604080832033845290915290205460ff16155b15610c965760405163ea8e4eb560e01b815260040160405180910390fd5b610ca9878787601886901c151588611723565b50505050505050565b606060006040518060e0016040528060af8152602001612d1660af91399050610cdd81604885611789565b610d0981610ced604860126129ef565b610cf89060096129ef565b610d039060296129ef565b85611789565b80610d1384611863565b604051602001610d24929190612a02565b604051602081830303815290604052915050919050565b600080610d478361112a565b90925090506001600160a01b038216610d76576040516338077a2b60e01b815260048101849052602401610561565b601881901c15801590610db5576040517f646cf55800000000000000000000000000000000000000000000000000000000815260040160405180910390fd5b6001600160a01b0383163b1580610e3f5750336001600160a01b0316836001600160a01b0316638da5cb5b6040518163ffffffff1660e01b8152600401602060405180830381865afa158015610e0f573d6000803e3d6000fd5b505050506040513d601f19601f82011682018060405250810190610e339190612a59565b6001600160a01b031614155b15610e5d5760405163ea8e4eb560e01b815260040160405180910390fd5b61063a83338660006112d2565b6060610e7530611863565b604051602001610e859190612a76565b604051602081830303815290604052905090565b60608167ffffffffffffffff811115610eb457610eb461267a565b604051908082528060200260200182016040528015610ef957816020015b6040805180820190915260008082526020820152815260200190600190039081610ed25790505b50905060005b82811015610fda576000848483818110610f1b57610f1b612bc6565b602090810292909201356000818152928390526040909220549192508190506001600160a01b038116158015610f545750600160a01b83105b15610f5c5750815b80858581518110610f6f57610f6f612bc6565b6020026020010151600001906001600160a01b031690816001600160a01b03168152505060b882901c67ffffffffffffffff16858581518110610fb457610fb4612bc6565b602002602001015160200181815250505050508080610fd2906129d5565b915050610eff565b5092915050565b60007f01ffc9a7000000000000000000000000000000000000000000000000000000006001600160e01b03198316148061104457507f80ac58cd000000000000000000000000000000000000000000000000000000006001600160e01b03198316145b806105225750506001600160e01b0319167f5b5e139f000000000000000000000000000000000000000000000000000000001490565b60006001600160e01b031982167f5604e22500000000000000000000000000000000000000000000000000000000148061052257506001600160e01b031982167fefdb586b000000000000000000000000000000000000000000000000000000001492915050565b6000818152602081905260408120548190600160ff1b808216145b90925090506001600160a01b03821615801561111c5750600160a01b83105b15611125578291505b915091565b600081815260208190526040812054819060a081901c6affffffffffffffffffffff166110fd565b601883901c60006111648560016129ef565b905081601882901c146111a3576040517fadc1557200000000000000000000000000000000000000000000000000000000815260040160405180910390fd5b6001600160a01b0384166111d657600083815260208190526040902060a082901b6001600160a01b038816179055611235565b6000838152602081815260408083206001600160a01b038a811660a087901b17600160ff1b17909155600390925290912080547fffffffffffffffffffffffff0000000000000000000000000000000000000000169186169190911790555b82846001600160a01b0316876001600160a01b03167f8c5be1e5ebec7d5bd14f71427d1e84f3dd0314c0f7b2291e5b200ac8c7c3b92560405160405180910390a4505050505050565b6000818152602081905260409020546affffffffffffffffffffff60a082901c16600160ff1b808316146001600160a01b0383161580156112c25750600160a01b84105b156112cb578392505b9193909250565b6001600160a01b038316600090815260016020819052604090912080549091019055801561131b576001600160a01b038416600090815260016020526040902080546000190190555b6000828152602081905260408082204360b81b6001600160a01b0380881691821790925591518593918816917fddf252ad1be2c89b69c2b068fc378daa952ba7f163c4a11628f55a4df523b3ef91a450505050565b6000467f000000000000000000000000000000000000000000000000000000000000000081146113a9576113a48130611b62565b6113cb565b7f00000000000000000000000000000000000000000000000000000000000000005b91505090565b6000818152602081905260409020546001600160a01b0381161580156113fa5750600160a01b82105b1561088a575090565b60006001600160a01b03821661143757604051634726455360e11b81526001600160a01b0383166004820152602401610561565b506001600160a01b031660009081526001602052604090205490565b600061145d610804565b604080517f49ecf333e5b8c95c40fdafc95c1ad136e8914a8fb55e9dc8bb01eaa83a2df9ad60208201526001600160a01b03891691810191909152606081018790526080810185905260a0810186905260c001604051602081830303815290604052805190602001206040516020016115089291907f190100000000000000000000000000000000000000000000000000000000000081526002810192909252602282015260420190565b60405160208183030381529060405280519060200120905061152b878284611c01565b610ca9576040517f8baa579f00000000000000000000000000000000000000000000000000000000815260040160405180910390fd5b606061080e604080518082019091526008815267426c6f636b69657360c01b602082015290565b6001600160a01b0383811660008181526002602090815260408083209487168084529482529182902080547fffffffffffffffffffffffffffffffffffffffffffffffffffffffffffffff001686151590811790915591519182527f17307eab39ab6107e8899845ad3d59bd9653f200f220920489ca2b5937696c31910160405180910390a3505050565b600061161d610804565b604080517f045d890c79ffc118c4a2872a8cf3fee78fbf03c72a35e7fae867680021f3e1a460208201526001600160a01b03808a169282019290925290871660608201526080810185905260a0810186905260c001604051602081830303815290604052805190602001206040516020016116ca9291907f190100000000000000000000000000000000000000000000000000000000000081526002810192909252602282015260420190565b6040516020818303038152906040528051906020012090506116ed868284611c01565b6107fc576040517f8baa579f00000000000000000000000000000000000000000000000000000000815260040160405180910390fd5b61172f858585856112d2565b6001600160a01b0384163b156117825761174c3386868685611d71565b611782576040517f4e472e5e00000000000000000000000000000000000000000000000000000000815260040160405180910390fd5b5050505050565b801561082e576040805180820190915260108082527f303132333435363738396162636465660000000000000000000000000000000060208301526117ce9083612bf2565b815181106117de576117de612bc6565b01602001517fff0000000000000000000000000000000000000000000000000000000000000016838361181081612c06565b94508151811061182257611822612bc6565b60200101907effffffffffffffffffffffffffffffffffffffffffffffffffffffffffffff1916908160001a90535061185c601082612c1d565b9050611789565b60606000604051806107a0016040528061076e8152602001612def61076e91399050600061189861189385611e21565b611e55565b90506118a682826001611f9d565b6118b282826000611f9d565b6118be82826002611f9d565b60005b6008811015611b59576000600a638000000061192d858051602082018051600390810b8452604084018051820b9092526060909301805180850b9283905260139290921d90911882840b600b1b90921891821891830b60081d919091189182900b905263ffffffff1690565b611938906017612c31565b6119429190612c1d565b61194c9190612c1d565b90506000600a63800000006119b1868051602082018051600390810b8452604084018051820b9092526060909301805180850b9283905260139290921d90911882840b600b1b90921891821891830b60081d919091189182900b905263ffffffff1690565b6119bc906017612c31565b6119c69190612c1d565b6119d09190612c1d565b90506000600a6380000000611a35878051602082018051600390810b8452604084018051820b9092526060909301805180850b9283905260139290921d90911882840b600b1b90921891821891830b60081d919091189182900b905263ffffffff1690565b611a40906017612c31565b611a4a9190612c1d565b611a549190612c1d565b90506000600a6380000000611ab9888051602082018051600390810b8452604084018051820b9092526060909301805180850b9283905260139290921d90911882840b600b1b90921891821891830b60081d919091189182900b905263ffffffff1690565b611ac4906017612c31565b611ace9190612c1d565b611ad89190612c1d565b9050611ae7876000878761204c565b611af4876001878661204c565b611b01876002878561204c565b611b0e876003878461204c565b611b1b876004878461204c565b611b28876005878561204c565b611b35876006878661204c565b611b42876007878761204c565b505050508080611b51906129d5565b9150506118c1565b50909392505050565b60007f8cad95687ba82c2ce50e74f7b754645e5117c3a5bec8151c0726d5857980a866611baa604080518082019091526008815267426c6f636b69657360c01b602082015290565b8051602091820120604051611be393928791879101938452602084019290925260408301526001600160a01b0316606082015260800190565b60405160208183030381529060405280519060200120905092915050565b6000806000611c10858561217d565b90925090506000816004811115611c2957611c29612c50565b148015611c475750856001600160a01b0316826001600160a01b0316145b15611c575760019250505061067d565b600080876001600160a01b0316631626ba7e60e01b8888604051602401611c7f929190612c66565b60408051601f198184030181529181526020820180517bffffffffffffffffffffffffffffffffffffffffffffffffffffffff166001600160e01b0319909416939093179092529051611cd29190612c87565b600060405180830381855afa9150503d8060008114611d0d576040519150601f19603f3d011682016040523d82523d6000602084013e611d12565b606091505b5091509150818015611d25575080516020145b8015611d65575080517f1626ba7e0000000000000000000000000000000000000000000000000000000090611d639083016020908101908401612ca3565b145b98975050505050505050565b600080846001600160a01b031663150b7a02888887876040518563ffffffff1660e01b8152600401611da69493929190612cbc565b6020604051808303816000875af1158015611dc5573d6000803e3d6000fd5b505050506040513d601f19601f82011682018060405250810190611de99190612cf8565b6001600160e01b0319167f150b7a02000000000000000000000000000000000000000000000000000000001491505095945050505050565b606060006040518060600160405280602a8152602001612dc5602a91399050610522816029856001600160a01b0316611789565b6040805160808101825260008082526020820181905291810182905260608101829052905b825181101561098d57600381166000819003611ec657838281518110611ea257611ea2612bc6565b602091010151835160f89190911c600382810b60051b9290920301900b8352611f94565b8060ff16600103611f0c57838281518110611ee357611ee3612bc6565b60209101810151908401805160f89290921c600383810b60051b939093030190910b9052611f94565b8060ff16600203611f5257838281518110611f2957611f29612bc6565b60209101015160408401805160f89290921c600383810b60051b939093030190910b9052611f94565b8060ff16600303611f9457838281518110611f6f57611f6f612bc6565b60209101015160608401805160f89290921c600383810b60051b939093030190910b90525b50600101611e7a565b6000806000611fab856121c2565b9194509250905060a860ff8516600103611fd257611fcb60a860366129ef565b9050612003565b8460ff1660020361200357611fe960a860366129ef565b611ff49060126129ef565b6120009061033b6129ef565b90505b61201c876120128360006129ef565b8661ffff166123bf565b6120348761202b8360046129ef565b8560ff166123bf565b610ca9876120438360096129ef565b8460ff166123bf565b60008160ff1660000361205f575061063a565b8160ff166001036120885761207660a860366129ef565b6120819060126129ef565b90506120c4565b8160ff166002036120c45761209f60a860366129ef565b6120aa9060126129ef565b6120b69061033b6129ef565b6120c19060126129ef565b90505b6000846120d2856008612c31565b6120dc91906129ef565b6120e790600c612c31565b6120f2856005612c31565b6120fc90846129ef565b61210691906129ef565b6121119060086129ef565b90507f310000000000000000000000000000000000000000000000000000000000000086828151811061214657612146612bc6565b60200101907effffffffffffffffffffffffffffffffffffffffffffffffffffffffffffff1916908160001a905350505050505050565b60008082516041036121b35760208301516040840151606085015160001a6121a78782858561243c565b945094505050506121bb565b506000905060025b9250929050565b60008060006380000000612226858051602082018051600390810b8452604084018051820b9092526060909301805180850b9283905260139290921d90911882840b600b1b90921891821891830b60081d919091189182900b905263ffffffff1690565b610168028161223757612237612bdc565b0492506380000000612299858051602082018051600390810b8452604084018051820b9092526060909301805180850b9283905260139290921d90911882840b600b1b90921891821891830b60081d919091189182900b905263ffffffff1690565b603c02816122a9576122a9612bdc565b046028019150638000000061230e858051602082018051600390810b8452604084018051820b9092526060909301805180850b9283905260139290921d90911882840b600b1b90921891821891830b60081d919091189182900b905263ffffffff1690565b855160208701805160408901805160608b018051600381810b808f52601390811d90921888820b600b90811b90991890811890820b600890811d9190911880830b9889905288841d90981896820b808a1b1896871896820b811d9690961880820b958690529185901d90941892840b9687901b90961891821891830b90931d189081900b90915263ffffffff9182169282169116010101601902816123b5576123b5612bdc565b0490509193909250565b801561082e576123d0600a82612bf2565b6123db9060306129ef565b60f81b83836123e981612c06565b9450815181106123fb576123fb612bc6565b60200101907effffffffffffffffffffffffffffffffffffffffffffffffffffffffffffff1916908160001a905350612435600a82612c1d565b90506123bf565b6000807f7fffffffffffffffffffffffffffffff5d576e7357a4501ddfe92f46681b20a08311156124735750600090506003612520565b8460ff16601b1415801561248b57508460ff16601c14155b1561249c5750600090506004612520565b6040805160008082526020820180845289905260ff881692820192909252606081018690526080810185905260019060a0016020604051602081039080840390855afa1580156124f0573d6000803e3d6000fd5b5050604051601f1901519150506001600160a01b03811661251957600060019250925050612520565b9150600090505b94509492505050565b6001600160e01b03198116811461253f57600080fd5b50565b60006020828403121561255457600080fd5b813561067d81612529565b60005b8381101561257a578181015183820152602001612562565b50506000910152565b6000815180845261259b81602086016020860161255f565b601f01601f19169290920160200192915050565b60208152600061067d6020830184612583565b6000602082840312156125d457600080fd5b5035919050565b6001600160a01b038116811461253f57600080fd5b6000806040838503121561260357600080fd5b823561260e816125db565b946020939093013593505050565b60008060006060848603121561263157600080fd5b833561263c816125db565b9250602084013561264c816125db565b929592945050506040919091013590565b60006020828403121561266f57600080fd5b813561067d816125db565b634e487b7160e01b600052604160045260246000fd5b600082601f8301126126a157600080fd5b813567ffffffffffffffff808211156126bc576126bc61267a565b604051601f8301601f19908116603f011681019082821181831017156126e4576126e461267a565b816040528381528660208588010111156126fd57600080fd5b836020870160208301376000602085830101528094505050505092915050565b6000806000806080858703121561273357600080fd5b843561273e816125db565b93506020850135925060408501359150606085013567ffffffffffffffff81111561276857600080fd5b61277487828801612690565b91505092959194509250565b7fff00000000000000000000000000000000000000000000000000000000000000881681526000602060e0818401526127bc60e084018a612583565b83810360408501526127ce818a612583565b606085018990526001600160a01b038816608086015260a0850187905284810360c0860152855180825283870192509083019060005b8181101561282057835183529284019291840191600101612804565b50909c9b505050505050505050505050565b6000806040838503121561284557600080fd5b8235612850816125db565b91506020830135801515811461286557600080fd5b809150509250929050565b6000806000806080858703121561288657600080fd5b8435612891816125db565b935060208501356128a1816125db565b925060408501359150606085013567ffffffffffffffff81111561276857600080fd5b600080604083850312156128d757600080fd5b82356128e2816125db565b91506020830135612865816125db565b6000806020838503121561290557600080fd5b823567ffffffffffffffff8082111561291d57600080fd5b818501915085601f83011261293157600080fd5b81358181111561294057600080fd5b8660208260051b850101111561295557600080fd5b60209290920196919550909350505050565b602080825282518282018190526000919060409081850190868401855b828110156129b257815180516001600160a01b03168552860151868501529284019290850190600101612984565b5091979650505050505050565b634e487b7160e01b600052601160045260246000fd5b600060001982036129e8576129e86129bf565b5060010190565b80820180821115610522576105226129bf565b60008351612a1481846020880161255f565b835190830190612a2881836020880161255f565b7f227d0000000000000000000000000000000000000000000000000000000000009101908152600201949350505050565b600060208284031215612a6b57600080fd5b815161067d816125db565b7f646174613a6170706c69636174696f6e2f6a736f6e2c7b226e616d65223a224f81527f6e2d636861696e253230426c6f636b696573222c226465736372697074696f6e60208201527f223a225468652532306f726967696e616c253230426c6f636b6965732c25323060408201527f62757425323066756c6c7925323067656e6572617465642532306f6e2d63686160608201527f696e2e25323045616368253230457468657265756d253230616464726573732560808201527f32306f776e732532306974732532306f776e253230756e69717565253230426c60a08201527f6f636b792532304e46542e222c22696d616765223a220000000000000000000060c082015260008251612b928160d685016020870161255f565b7f227d00000000000000000000000000000000000000000000000000000000000060d693909101928301525060d801919050565b634e487b7160e01b600052603260045260246000fd5b634e487b7160e01b600052601260045260246000fd5b600082612c0157612c01612bdc565b500690565b600081612c1557612c156129bf565b506000190190565b600082612c2c57612c2c612bdc565b500490565b6000816000190483118215151615612c4b57612c4b6129bf565b500290565b634e487b7160e01b600052602160045260246000fd5b828152604060208201526000612c7f6040830184612583565b949350505050565b60008251612c9981846020870161255f565b9190910192915050565b600060208284031215612cb557600080fd5b5051919050565b60006001600160a01b03808716835280861660208401525083604083015260806060830152612cee6080830184612583565b9695505050505050565b600060208284031215612d0a57600080fd5b815161067d8161252956fe646174613a6170706c69636174696f6e2f6a736f6e2c7b226e616d65223a22307830303030303030303030303030303030303030303030303030303030303030303030303030303030222c226465736372697074696f6e223a22426c6f636b7925323030783030303030303030303030303030303030303030303030303030303030303030303030303030303025323047656e6572617465642532304f6e2d436861696e222c22696d616765223a22307830303030303030303030303030303030303030303030303030303030303030303030303030303030646174613a696d6167652f7376672b786d6c2c3c737667253230786d6c6e733d27687474703a2f2f7777772e77332e6f72672f323030302f7376672725323073686170652d72656e646572696e673d27637269737045646765732725323077696474683d27353132272532306865696768743d27353132273e3c672532307472616e73666f726d3d277363616c6528363429273e3c7061746825323066696c6c3d2768736c283030302c303030252c303030252927253230643d274d302c3068387638682d387a272f3e3c7061746825323066696c6c3d2768736c283030302c303030252c303030252927253230643d274d302c3068317630682d317a6d312c3068317630682d317a6d312c3068317630682d317a6d312c3068317630682d317a6d312c3068317630682d317a6d312c3068317630682d317a6d312c3068317630682d317a6d312c3068317630682d317a6d2d382c316d312c3068317630682d317a6d312c3068317630682d317a6d312c3068317630682d317a6d312c3068317630682d317a6d312c3068317630682d317a6d312c3068317630682d317a6d312c3068317630682d317a6d312c3068317630682d317a6d2d382c316d312c3068317630682d317a6d312c3068317630682d317a6d312c3068317630682d317a6d312c3068317630682d317a6d312c3068317630682d317a6d312c3068317630682d317a6d312c3068317630682d317a6d312c3068317630682d317a6d2d382c316d312c3068317630682d317a6d312c3068317630682d317a6d312c3068317630682d317a6d312c3068317630682d317a6d312c3068317630682d317a6d312c3068317630682d317a6d312c3068317630682d317a6d312c3068317630682d317a6d2d382c316d312c3068317630682d317a6d312c3068317630682d317a6d312c3068317630682d317a6d312c3068317630682d317a6d312c3068317630682d317a6d312c3068317630682d317a6d312c3068317630682d317a6d312c3068317630682d317a6d2d382c316d312c3068317630682d317a6d312c3068317630682d317a6d312c3068317630682d317a6d312c3068317630682d317a6d312c3068317630682d317a6d312c3068317630682d317a6d312c3068317630682d317a6d312c3068317630682d317a6d2d382c316d312c3068317630682d317a6d312c3068317630682d317a6d312c3068317630682d317a6d312c3068317630682d317a6d312c3068317630682d317a6d312c3068317630682d317a6d312c3068317630682d317a6d312c3068317630682d317a6d2d382c316d312c3068317630682d317a6d312c3068317630682d317a6d312c3068317630682d317a6d312c3068317630682d317a6d312c3068317630682d317a6d312c3068317630682d317a6d312c3068317630682d317a6d312c3068317630682d317a272f3e3c7061746825323066696c6c3d2768736c283030302c303030252c303030252927253230643d274d302c3068317630682d317a6d312c3068317630682d317a6d312c3068317630682d317a6d312c3068317630682d317a6d312c3068317630682d317a6d312c3068317630682d317a6d312c3068317630682d317a6d312c3068317630682d317a6d2d382c316d312c3068317630682d317a6d312c3068317630682d317a6d312c3068317630682d317a6d312c3068317630682d317a6d312c3068317630682d317a6d312c3068317630682d317a6d312c3068317630682d317a6d312c3068317630682d317a6d2d382c316d312c3068317630682d317a6d312c3068317630682d317a6d312c3068317630682d317a6d312c3068317630682d317a6d312c3068317630682d317a6d312c3068317630682d317a6d312c3068317630682d317a6d312c3068317630682d317a6d2d382c316d312c3068317630682d317a6d312c3068317630682d317a6d312c3068317630682d317a6d312c3068317630682d317a6d312c3068317630682d317a6d312c3068317630682d317a6d312c3068317630682d317a6d312c3068317630682d317a6d2d382c316d312c3068317630682d317a6d312c3068317630682d317a6d312c3068317630682d317a6d312c3068317630682d317a6d312c3068317630682d317a6d312c3068317630682d317a6d312c3068317630682d317a6d312c3068317630682d317a6d2d382c316d312c3068317630682d317a6d312c3068317630682d317a6d312c3068317630682d317a6d312c3068317630682d317a6d312c3068317630682d317a6d312c3068317630682d317a6d312c3068317630682d317a6d312c3068317630682d317a6d2d382c316d312c3068317630682d317a6d312c3068317630682d317a6d312c3068317630682d317a6d312c3068317630682d317a6d312c3068317630682d317a6d312c3068317630682d317a6d312c3068317630682d317a6d312c3068317630682d317a6d2d382c316d312c3068317630682d317a6d312c3068317630682d317a6d312c3068317630682d317a6d312c3068317630682d317a6d312c3068317630682d317a6d312c3068317630682d317a6d312c3068317630682d317a6d312c3068317630682d317a272f3e3c2f673e3c2f7376673ea2646970667358221220f54f2382d10bb10c859b8c8a9f5f8691a30a63c5c0a344b9b92c833771d5bea064736f6c63430008100033",
  "devdoc": {
    "kind": "dev",
    "methods": {
      "approve(address,uint256)": {
        "params": {
          "operator": "The address receiving the approval.",
          "tokenId": "The id of the token."
        }
      },
      "balanceOf(address)": {
        "params": {
          "owner": "The address to look for."
        },
        "returns": {
          "balance": "The number of tokens owned by the address."
        }
      },
      "claimOwnership(uint256)": {
        "params": {
          "id": "blocky address to claim"
        }
      },
      "eip712Domain()": {
        "returns": {
          "chainId": "EIP-712 chainId",
          "extensions": "A list of EIP numbers that specify additional fields in the domain. The method to obtain the value for each of these additional fields and any conditions for inclusion are expected to be specified in the respective EIP. The value of fields does not affect their inclusion.",
          "fields": "A bit map where bit i is set to 1 if and only if domain field i is present (0  i  4). Bits are read from least significant to most significant, and fields are indexed in the order that is specified by EIP-712, identical to the order in which they are listed in the function type.",
          "name": "EIP-712 name",
          "salt": "EIP-712 salt",
          "verifyingContract": "EIP-712 name verifyingContract",
          "version": "EIP-712 version"
        }
      },
      "emitSelfTransferEvent(uint256)": {
        "params": {
          "id": "tokenID to emit the event for."
        }
      },
      "getApproved(uint256)": {
        "params": {
          "tokenId": "The id of the token."
        },
        "returns": {
          "operator": "The address of the operator."
        }
      },
      "isApprovedForAll(address,address)": {
        "params": {
          "operator": "The address of the operator.",
          "owner": "The address of the owner."
        },
        "returns": {
          "isOperator": "The status of the approval."
        }
      },
      "nonces(address)": {
        "params": {
          "account": "account to query"
        },
        "returns": {
          "nonce": "account's nonce"
        }
      },
      "nonces(uint256)": {
        "params": {
          "tokenId": "token id"
        },
        "returns": {
          "nonce": "token nonce"
        }
      },
      "ownerAndLastTransferBlockNumberList(uint256[])": {
        "params": {
          "ids": "The list of token ids to check."
        },
        "returns": {
          "ownersData": "The list of (owner, lastTransferBlockNumber) for each ids given as input."
        }
      },
      "ownerAndLastTransferBlockNumberOf(uint256)": {
        "params": {
          "id": "The id of the token."
        },
        "returns": {
          "blockNumber": "The blocknumber at which the last transfer of that id happened.",
          "owner": "The address of the token owner."
        }
      },
      "ownerOf(uint256)": {
        "params": {
          "tokenId": "The id of the token."
        },
        "returns": {
          "owner": "The address of the token owner."
        }
      },
      "permit(address,uint256,uint256,bytes)": {
        "details": "Anyone can call this to approve `spender`, even a third-party",
        "params": {
          "deadline": "the deadline for the permit to be used",
          "signature": "permit",
          "spender": "the actor to approve",
          "tokenId": "the token id"
        }
      },
      "permitForAll(address,address,uint256,bytes)": {
        "details": "Anyone can call this to approve `spender`, even a third-party",
        "params": {
          "deadline": "the deadline for the permit to be used",
          "signature": "permit",
          "signer": "the one giving permission",
          "spender": "the actor to approve"
        }
      },
      "safeTransferFrom(address,address,uint256)": {
        "params": {
          "from": "The send of the token.",
          "to": "The recipient of the token.",
          "tokenId": "The id of the token."
        }
      },
      "safeTransferFrom(address,address,uint256,bytes)": {
        "params": {
          "data": "Additional data.",
          "from": "The sender of the token.",
          "to": "The recipient of the token.",
          "tokenId": "The id of the token."
        }
      },
      "setApprovalForAll(address,bool)": {
        "params": {
          "approved": "The determination of the approval.",
          "operator": "The address receiving the approval."
        }
      },
      "supportsInterface(bytes4)": {
        "details": "Interface identification is specified in ERC-165. This function  uses less than 30,000 gas.",
        "params": {
          "interfaceID": "The interface identifier, as specified in ERC-165"
        },
        "returns": {
          "_0": "`true` if the contract implements `interfaceID` and  `interfaceID` is not 0xffffffff, `false` otherwise"
        }
      },
      "tokenNonces(uint256)": {
        "params": {
          "tokenId": "token id"
        },
        "returns": {
          "nonce": "token nonce"
        }
      },
      "tokenURI(uint256)": {
        "details": "Throws if `_tokenId` is not a valid NFT. URIs are defined in RFC  3986. The URI may point to a JSON file that conforms to the \"ERC721  Metadata JSON Schema\"."
      },
      "transferFrom(address,address,uint256)": {
        "params": {
          "from": "The sender of the token.",
          "to": "The recipient of the token.",
          "tokenId": "The id of the token."
        }
      }
    },
    "title": "On-chain Blockies",
    "version": 1
  },
  "userdoc": {
    "kind": "user",
    "methods": {
      "DOMAIN_SEPARATOR()": {
        "notice": "EIP-712 Domain separator hash"
      },
      "approve(address,uint256)": {
        "notice": "Approve an operator to transfer a specific token on the senders behalf."
      },
      "balanceOf(address)": {
        "notice": "Get the number of tokens owned by an address."
      },
      "claimOwnership(uint256)": {
        "notice": "claim ownership of the blocky if you are the owner of a contract"
      },
      "contractURI()": {
        "notice": "Returns the Uniform Resource Identifier (URI) for the token collection."
      },
      "eip712Domain()": {
        "notice": "The return values of this function MUST describe the domain separator that is used for verification of EIP-712 signatures in the contract. They describe both the form of the EIP712Domain struct (i.e., which of the optional fields and extensions are present) and the value of each field, as follows."
      },
      "emitSelfTransferEvent(uint256)": {
        "notice": "emit Transfer event so that indexer can pick it up.   This can be called by anyone at any time and does not change state   As such it keeps the token's operator-approval state and will re-emit an Approval event to indicate that."
      },
      "getApproved(uint256)": {
        "notice": "Get the approved operator for a specific token."
      },
      "isApprovedForAll(address,address)": {
        "notice": "Check if the sender approved the operator."
      },
      "name()": {
        "notice": "A descriptive name for a collection of NFTs in this contract"
      },
      "nonces(address)": {
        "notice": "Allows to retrieve current nonce for the account"
      },
      "nonces(uint256)": {
        "notice": "Allows to retrieve current nonce for token"
      },
      "owner()": {
        "notice": "owner of the contract, can claim this contract's blocky no other role granted"
      },
      "ownerAndLastTransferBlockNumberList(uint256[])": {
        "notice": "Get the list of owner of a token and the blockNumber of its last transfer, useful to voting mechanism."
      },
      "ownerAndLastTransferBlockNumberOf(uint256)": {
        "notice": "Get the owner of a token and the blockNumber of the last transfer, useful to voting mechanism."
      },
      "ownerOf(uint256)": {
        "notice": "Get the owner of a token."
      },
      "permit(address,uint256,uint256,bytes)": {
        "notice": "function to be called by anyone to approve `spender` using a Permit signature"
      },
      "permitForAll(address,address,uint256,bytes)": {
        "notice": "function to be called by anyone to approve `spender` using a Permit signature"
      },
      "safeTransferFrom(address,address,uint256)": {
        "notice": "Transfer a token between 2 addresses letting the receiver know of the transfer."
      },
      "safeTransferFrom(address,address,uint256,bytes)": {
        "notice": "Transfer a token between 2 addresses letting the receiver knows of the transfer."
      },
      "setApprovalForAll(address,bool)": {
        "notice": "Set the approval for an operator to manage all the tokens of the sender."
      },
      "supportsInterface(bytes4)": {
        "notice": "Query if a contract implements an interface"
      },
      "symbol()": {
        "notice": "An abbreviated name for NFTs in this contract"
      },
      "tokenNonces(uint256)": {
        "notice": "Allows to retrieve current nonce for token"
      },
      "tokenURI(uint256)": {
        "notice": "A distinct Uniform Resource Identifier (URI) for a given asset."
      },
      "transferFrom(address,address,uint256)": {
        "notice": "Transfer a token between 2 addresses."
      }
    },
    "notice": "Blockies as NFT. Each ethereum address owns its own Blocky NFT. No minting needed. You can even use Permit (EIP-4494) to approve contracts via signatures. Note though that unless you transfer or call `emitSelfTransferEvent` indexer would not know of your token.",
    "version": 1
  },
  "storageLayout": {
    "storage": [
      {
        "astId": 801,
        "contract": "src/Blockies.sol:Blockies",
        "label": "_owners",
        "offset": 0,
        "slot": "0",
        "type": "t_mapping(t_uint256,t_uint256)"
      },
      {
        "astId": 805,
        "contract": "src/Blockies.sol:Blockies",
        "label": "_balances",
        "offset": 0,
        "slot": "1",
        "type": "t_mapping(t_address,t_uint256)"
      },
      {
        "astId": 811,
        "contract": "src/Blockies.sol:Blockies",
        "label": "_operatorsForAll",
        "offset": 0,
        "slot": "2",
        "type": "t_mapping(t_address,t_mapping(t_address,t_bool))"
      },
      {
        "astId": 815,
        "contract": "src/Blockies.sol:Blockies",
        "label": "_operators",
        "offset": 0,
        "slot": "3",
        "type": "t_mapping(t_uint256,t_address)"
      },
      {
        "astId": 293,
        "contract": "src/Blockies.sol:Blockies",
        "label": "_userNonces",
        "offset": 0,
        "slot": "4",
        "type": "t_mapping(t_address,t_uint256)"
      }
    ],
    "types": {
      "t_address": {
        "encoding": "inplace",
        "label": "address",
        "numberOfBytes": "20"
      },
      "t_bool": {
        "encoding": "inplace",
        "label": "bool",
        "numberOfBytes": "1"
      },
      "t_mapping(t_address,t_bool)": {
        "encoding": "mapping",
        "key": "t_address",
        "label": "mapping(address => bool)",
        "numberOfBytes": "32",
        "value": "t_bool"
      },
      "t_mapping(t_address,t_mapping(t_address,t_bool))": {
        "encoding": "mapping",
        "key": "t_address",
        "label": "mapping(address => mapping(address => bool))",
        "numberOfBytes": "32",
        "value": "t_mapping(t_address,t_bool)"
      },
      "t_mapping(t_address,t_uint256)": {
        "encoding": "mapping",
        "key": "t_address",
        "label": "mapping(address => uint256)",
        "numberOfBytes": "32",
        "value": "t_uint256"
      },
      "t_mapping(t_uint256,t_address)": {
        "encoding": "mapping",
        "key": "t_uint256",
        "label": "mapping(uint256 => address)",
        "numberOfBytes": "32",
        "value": "t_address"
      },
      "t_mapping(t_uint256,t_uint256)": {
        "encoding": "mapping",
        "key": "t_uint256",
        "label": "mapping(uint256 => uint256)",
        "numberOfBytes": "32",
        "value": "t_uint256"
      },
      "t_uint256": {
        "encoding": "inplace",
        "label": "uint256",
        "numberOfBytes": "32"
      }
    }
  }
}