{
  "address": "0x12e3C97d8435F60052aF647DB127266237f7216a",
  "abi": [
    {
      "inputs": [
        {
          "internalType": "address",
          "name": "initialOwnerOfBlockyZero",
          "type": "address"
        }
      ],
      "stateMutability": "nonpayable",
      "type": "constructor"
    },
    {
      "inputs": [
        {
          "internalType": "uint256",
          "name": "currentTime",
          "type": "uint256"
        },
        {
          "internalType": "uint256",
          "name": "deadline",
          "type": "uint256"
        }
      ],
      "name": "DeadlineOver",
      "type": "error"
    },
    {
      "inputs": [
        {
          "internalType": "address",
          "name": "invalid",
          "type": "address"
        }
      ],
      "name": "InvalidAddress",
      "type": "error"
    },
    {
      "inputs": [],
      "name": "InvalidSignature",
      "type": "error"
    },
    {
      "inputs": [
        {
          "internalType": "uint256",
          "name": "tokenID",
          "type": "uint256"
        }
      ],
      "name": "NonExistentToken",
      "type": "error"
    },
    {
      "inputs": [],
      "name": "NonceOverflow",
      "type": "error"
    },
    {
      "inputs": [],
      "name": "NotAuthorized",
      "type": "error"
    },
    {
      "inputs": [
        {
          "internalType": "address",
          "name": "provided",
          "type": "address"
        },
        {
          "internalType": "address",
          "name": "expected",
          "type": "address"
        }
      ],
      "name": "NotOwner",
      "type": "error"
    },
    {
      "inputs": [],
      "name": "TransferRejected",
      "type": "error"
    },
    {
      "anonymous": false,
      "inputs": [
        {
          "indexed": true,
          "internalType": "address",
          "name": "owner",
          "type": "address"
        },
        {
          "indexed": true,
          "internalType": "address",
          "name": "approved",
          "type": "address"
        },
        {
          "indexed": true,
          "internalType": "uint256",
          "name": "tokenId",
          "type": "uint256"
        }
      ],
      "name": "Approval",
      "type": "event"
    },
    {
      "anonymous": false,
      "inputs": [
        {
          "indexed": true,
          "internalType": "address",
          "name": "owner",
          "type": "address"
        },
        {
          "indexed": true,
          "internalType": "address",
          "name": "operator",
          "type": "address"
        },
        {
          "indexed": false,
          "internalType": "bool",
          "name": "approved",
          "type": "bool"
        }
      ],
      "name": "ApprovalForAll",
      "type": "event"
    },
    {
      "anonymous": false,
      "inputs": [
        {
          "indexed": true,
          "internalType": "address",
          "name": "from",
          "type": "address"
        },
        {
          "indexed": true,
          "internalType": "address",
          "name": "to",
          "type": "address"
        },
        {
          "indexed": true,
          "internalType": "uint256",
          "name": "tokenId",
          "type": "uint256"
        }
      ],
      "name": "Transfer",
      "type": "event"
    },
    {
      "inputs": [],
      "name": "DOMAIN_SEPARATOR",
      "outputs": [
        {
          "internalType": "bytes32",
          "name": "",
          "type": "bytes32"
        }
      ],
      "stateMutability": "view",
      "type": "function"
    },
    {
      "inputs": [],
      "name": "PERMIT_FOR_ALL_TYPEHASH",
      "outputs": [
        {
          "internalType": "bytes32",
          "name": "",
          "type": "bytes32"
        }
      ],
      "stateMutability": "view",
      "type": "function"
    },
    {
      "inputs": [],
      "name": "PERMIT_TYPEHASH",
      "outputs": [
        {
          "internalType": "bytes32",
          "name": "",
          "type": "bytes32"
        }
      ],
      "stateMutability": "view",
      "type": "function"
    },
    {
      "inputs": [
        {
          "internalType": "address",
          "name": "operator",
          "type": "address"
        },
        {
          "internalType": "uint256",
          "name": "tokenId",
          "type": "uint256"
        }
      ],
      "name": "approve",
      "outputs": [],
      "stateMutability": "nonpayable",
      "type": "function"
    },
    {
      "inputs": [
        {
          "internalType": "address",
          "name": "owner",
          "type": "address"
        }
      ],
      "name": "balanceOf",
      "outputs": [
        {
          "internalType": "uint256",
          "name": "balance",
          "type": "uint256"
        }
      ],
      "stateMutability": "view",
      "type": "function"
    },
    {
      "inputs": [],
      "name": "eip712Domain",
      "outputs": [
        {
          "internalType": "bytes1",
          "name": "fields",
          "type": "bytes1"
        },
        {
          "internalType": "string",
          "name": "name",
          "type": "string"
        },
        {
          "internalType": "string",
          "name": "version",
          "type": "string"
        },
        {
          "internalType": "uint256",
          "name": "chainId",
          "type": "uint256"
        },
        {
          "internalType": "address",
          "name": "verifyingContract",
          "type": "address"
        },
        {
          "internalType": "bytes32",
          "name": "salt",
          "type": "bytes32"
        },
        {
          "internalType": "uint256[]",
          "name": "extensions",
          "type": "uint256[]"
        }
      ],
      "stateMutability": "view",
      "type": "function"
    },
    {
      "inputs": [
        {
          "internalType": "uint256",
          "name": "id",
          "type": "uint256"
        }
      ],
      "name": "emitSelfTransferEvent",
      "outputs": [],
      "stateMutability": "nonpayable",
      "type": "function"
    },
    {
      "inputs": [
        {
          "internalType": "uint256",
          "name": "tokenId",
          "type": "uint256"
        }
      ],
      "name": "getApproved",
      "outputs": [
        {
          "internalType": "address",
          "name": "operator",
          "type": "address"
        }
      ],
      "stateMutability": "view",
      "type": "function"
    },
    {
      "inputs": [
        {
          "internalType": "address",
          "name": "owner",
          "type": "address"
        },
        {
          "internalType": "address",
          "name": "operator",
          "type": "address"
        }
      ],
      "name": "isApprovedForAll",
      "outputs": [
        {
          "internalType": "bool",
          "name": "isOperator",
          "type": "bool"
        }
      ],
      "stateMutability": "view",
      "type": "function"
    },
    {
      "inputs": [],
      "name": "name",
      "outputs": [
        {
          "internalType": "string",
          "name": "",
          "type": "string"
        }
      ],
      "stateMutability": "pure",
      "type": "function"
    },
    {
      "inputs": [
        {
          "internalType": "uint256",
          "name": "id",
          "type": "uint256"
        }
      ],
      "name": "nonces",
      "outputs": [
        {
          "internalType": "uint256",
          "name": "nonce",
          "type": "uint256"
        }
      ],
      "stateMutability": "view",
      "type": "function"
    },
    {
      "inputs": [
        {
          "internalType": "address",
          "name": "account",
          "type": "address"
        }
      ],
      "name": "nonces",
      "outputs": [
        {
          "internalType": "uint256",
          "name": "nonce",
          "type": "uint256"
        }
      ],
      "stateMutability": "view",
      "type": "function"
    },
    {
      "inputs": [
        {
          "internalType": "uint256[]",
          "name": "ids",
          "type": "uint256[]"
        }
      ],
      "name": "ownerAndLastTransferBlockNumberList",
      "outputs": [
        {
          "components": [
            {
              "internalType": "address",
              "name": "owner",
              "type": "address"
            },
            {
              "internalType": "uint256",
              "name": "lastTransferBlockNumber",
              "type": "uint256"
            }
          ],
          "internalType": "struct IERC721WithBlocknumber.OwnerData[]",
          "name": "ownersData",
          "type": "tuple[]"
        }
      ],
      "stateMutability": "view",
      "type": "function"
    },
    {
      "inputs": [
        {
          "internalType": "uint256",
          "name": "id",
          "type": "uint256"
        }
      ],
      "name": "ownerAndLastTransferBlockNumberOf",
      "outputs": [
        {
          "internalType": "address",
          "name": "owner",
          "type": "address"
        },
        {
          "internalType": "uint256",
          "name": "blockNumber",
          "type": "uint256"
        }
      ],
      "stateMutability": "view",
      "type": "function"
    },
    {
      "inputs": [
        {
          "internalType": "uint256",
          "name": "tokenId",
          "type": "uint256"
        }
      ],
      "name": "ownerOf",
      "outputs": [
        {
          "internalType": "address",
          "name": "owner",
          "type": "address"
        }
      ],
      "stateMutability": "view",
      "type": "function"
    },
    {
      "inputs": [
        {
          "internalType": "address",
          "name": "spender",
          "type": "address"
        },
        {
          "internalType": "uint256",
          "name": "tokenId",
          "type": "uint256"
        },
        {
          "internalType": "uint256",
          "name": "deadline",
          "type": "uint256"
        },
        {
          "internalType": "bytes",
          "name": "sig",
          "type": "bytes"
        }
      ],
      "name": "permit",
      "outputs": [],
      "stateMutability": "nonpayable",
      "type": "function"
    },
    {
      "inputs": [
        {
          "internalType": "address",
          "name": "owner",
          "type": "address"
        },
        {
          "internalType": "address",
          "name": "spender",
          "type": "address"
        },
        {
          "internalType": "uint256",
          "name": "deadline",
          "type": "uint256"
        },
        {
          "internalType": "bytes",
          "name": "sig",
          "type": "bytes"
        }
      ],
      "name": "permitForAll",
      "outputs": [],
      "stateMutability": "nonpayable",
      "type": "function"
    },
    {
      "inputs": [
        {
          "internalType": "address",
          "name": "from",
          "type": "address"
        },
        {
          "internalType": "address",
          "name": "to",
          "type": "address"
        },
        {
          "internalType": "uint256",
          "name": "tokenId",
          "type": "uint256"
        }
      ],
      "name": "safeTransferFrom",
      "outputs": [],
      "stateMutability": "nonpayable",
      "type": "function"
    },
    {
      "inputs": [
        {
          "internalType": "address",
          "name": "from",
          "type": "address"
        },
        {
          "internalType": "address",
          "name": "to",
          "type": "address"
        },
        {
          "internalType": "uint256",
          "name": "tokenId",
          "type": "uint256"
        },
        {
          "internalType": "bytes",
          "name": "data",
          "type": "bytes"
        }
      ],
      "name": "safeTransferFrom",
      "outputs": [],
      "stateMutability": "nonpayable",
      "type": "function"
    },
    {
      "inputs": [
        {
          "internalType": "address",
          "name": "operator",
          "type": "address"
        },
        {
          "internalType": "bool",
          "name": "approved",
          "type": "bool"
        }
      ],
      "name": "setApprovalForAll",
      "outputs": [],
      "stateMutability": "nonpayable",
      "type": "function"
    },
    {
      "inputs": [
        {
          "internalType": "bytes4",
          "name": "id",
          "type": "bytes4"
        }
      ],
      "name": "supportsInterface",
      "outputs": [
        {
          "internalType": "bool",
          "name": "",
          "type": "bool"
        }
      ],
      "stateMutability": "view",
      "type": "function"
    },
    {
      "inputs": [],
      "name": "symbol",
      "outputs": [
        {
          "internalType": "string",
          "name": "",
          "type": "string"
        }
      ],
      "stateMutability": "pure",
      "type": "function"
    },
    {
      "inputs": [
        {
          "internalType": "uint256",
          "name": "tokenId",
          "type": "uint256"
        }
      ],
      "name": "tokenNonces",
      "outputs": [
        {
          "internalType": "uint256",
          "name": "nonce",
          "type": "uint256"
        }
      ],
      "stateMutability": "view",
      "type": "function"
    },
    {
      "inputs": [
        {
          "internalType": "uint256",
          "name": "id",
          "type": "uint256"
        }
      ],
      "name": "tokenURI",
      "outputs": [
        {
          "internalType": "string",
          "name": "str",
          "type": "string"
        }
      ],
      "stateMutability": "pure",
      "type": "function"
    },
    {
      "inputs": [],
      "name": "totalSupply",
      "outputs": [
        {
          "internalType": "uint256",
          "name": "",
          "type": "uint256"
        }
      ],
      "stateMutability": "pure",
      "type": "function"
    },
    {
      "inputs": [
        {
          "internalType": "address",
          "name": "from",
          "type": "address"
        },
        {
          "internalType": "address",
          "name": "to",
          "type": "address"
        },
        {
          "internalType": "uint256",
          "name": "tokenId",
          "type": "uint256"
        }
      ],
      "name": "transferFrom",
      "outputs": [],
      "stateMutability": "nonpayable",
      "type": "function"
    }
  ],
  "transactionHash": "0xfd3063ab49d9fb45a5eca95e01868b3061dca55ba143b5869c37907273068976",
  "args": [
    "0x61c461EcC993aaDEB7e4b47E96d1B8cC37314B20"
  ],
  "numDeployments": 1,
  "solcInputHash": "79a61e03503c0e36fe54a7ce3aad9ee7",
  "bytecode": "0x60c06040523480156200001157600080fd5b50604051620035a6380380620035a68339810160408190526200003491620001a5565b46608081905260009062000049813062000065565b60a052506200005e9050600082818062000106565b50620001d7565b60007f8cad95687ba82c2ce50e74f7b754645e5117c3a5bec8151c0726d5857980a866620000ae604080518082019091526008815267426c6f636b69657360c01b602082015290565b8051602091820120604051620000e893928791879101938452602084019290925260408301526001600160a01b0316606082015260800190565b60405160208183030381529060405280519060200120905092915050565b6001600160a01b038316600090815260016020819052604090912080549091019055801562000150576001600160a01b038416600090815260016020526040902080546000190190555b6000828152602081905260408082204360b81b6001600160a01b0380881691821790925591518593918816917fddf252ad1be2c89b69c2b068fc378daa952ba7f163c4a11628f55a4df523b3ef91a450505050565b600060208284031215620001b857600080fd5b81516001600160a01b0381168114620001d057600080fd5b9392505050565b60805160a0516133a9620001fd60003960006111ae0152600061117801526133a96000f3fe608060405234801561001057600080fd5b50600436106101ae5760003560e01c806365d13a9b116100ee578063a22cb46511610097578063b88d4fde11610071578063b88d4fde14610423578063c87b56dd14610436578063e985e9c514610449578063f39452821461048557600080fd5b8063a22cb465146103ea578063ab84ee6f146103fd578063adc5fcc21461041057600080fd5b80637ecebe00116100c85780637ecebe001461036d57806384b0196e1461039657806395d89b41146103b157600080fd5b806365d13a9b1461033457806370a0823114610347578063745a41bc1461035a57600080fd5b806323b872dd1161015b57806342842e0e1161013557806342842e0e146102b557806348f3c51c146102c8578063585956d6146102fa5780636352211e1461032157600080fd5b806323b872dd1461027357806330adf81f146102865780633644e515146102ad57600080fd5b8063095ea7b31161018c578063095ea7b314610233578063141a468c1461024857806318160ddd1461026957600080fd5b806301ffc9a7146101b357806306fdde03146101db578063081812fc14610208575b600080fd5b6101c66101c1366004612512565b6104a5565b60405190151581526020015b60405180910390f35b604080518082019091526008815267426c6f636b69657360c01b60208201525b6040516101d2919061257f565b61021b610216366004612592565b6104c5565b6040516001600160a01b0390911681526020016101d2565b6102466102413660046125c2565b610535565b005b61025b610256366004612592565b6105dd565b6040519081526020016101d2565b600160a01b61025b565b6102466102813660046125ec565b610621565b61025b7f49ecf333e5b8c95c40fdafc95c1ad136e8914a8fb55e9dc8bb01eaa83a2df9ad81565b61025b6107a1565b6102466102c33660046125ec565b6107b0565b6102db6102d6366004612592565b6107d0565b604080516001600160a01b0390931683526020830191909152016101d2565b61025b7f045d890c79ffc118c4a2872a8cf3fee78fbf03c72a35e7fae867680021f3e1a481565b61021b61032f366004612592565b6107f0565b610246610342366004612592565b61082c565b61025b610355366004612628565b610935565b6102466103683660046126e6565b610972565b61025b61037b366004612628565b6001600160a01b031660009081526004602052604090205490565b61039e610a0a565b6040516101d29796959493929190612747565b60408051808201909152600681527f424c4f434b59000000000000000000000000000000000000000000000000000060208201526101fb565b6102466103f83660046127f9565b610a6c565b61024661040b366004612835565b610a7b565b61025b61041e366004612592565b610b04565b610246610431366004612835565b610b0f565b6101fb610444366004612592565b610c91565b6101c6610457366004612885565b6001600160a01b03918216600090815260026020908152604080832093909416825291909152205460ff1690565b6104986104933660046128b8565b610c9c565b6040516101d2919061292d565b60006104b082610de4565b806104bf57506104bf82610e7d565b92915050565b60008060006104d384610ee5565b90925090506001600160a01b038216610507576040516338077a2b60e01b8152600481018590526024015b60405180910390fd5b801561052b575050506000908152600360205260409020546001600160a01b031690565b5060009392505050565b60008061054183610f2d565b90925090506001600160a01b038216610570576040516338077a2b60e01b8152600481018490526024016104fe565b336001600160a01b038316148015906105ad57506001600160a01b038216600090815260026020908152604080832033845290915290205460ff16155b156105cb5760405163ea8e4eb560e01b815260040160405180910390fd5b6105d782828686610f55565b50505050565b60008060006105eb84610f2d565b90925090506001600160a01b03821661061a576040516338077a2b60e01b8152600481018590526024016104fe565b9392505050565b600080600061062f84611081565b919450925090506001600160a01b038316610660576040516338077a2b60e01b8152600481018590526024016104fe565b826001600160a01b0316866001600160a01b0316146106be576040517f23295f0e0000000000000000000000000000000000000000000000000000000081526001600160a01b038088166004830152841660248201526044016104fe565b6001600160a01b03851615806106dc57506001600160a01b03851630145b1561070557604051634726455360e11b81526001600160a01b03861660048201526024016104fe565b336001600160a01b038716146107875780801561073857506000848152600360205260409020546001600160a01b031633145b15801561076957506001600160a01b038616600090815260026020908152604080832033845290915290205460ff16155b156107875760405163ea8e4eb560e01b815260040160405180910390fd5b610799868686601886901c15156110d5565b505050505050565b60006107ab611173565b905090565b6107cb83838360405180602001604052806000815250610b0f565b505050565b6000806000806107df85610f2d565b909660189190911c95509350505050565b60006107fb826111d4565b90506001600160a01b038116610827576040516338077a2b60e01b8152600481018390526024016104fe565b919050565b600160a01b8110610899576040517f08c379a000000000000000000000000000000000000000000000000000000000815260206004820152601160248201527f4e4f4e4558495354454e545f544f4b454e00000000000000000000000000000060448201526064016104fe565b6000806108a583611081565b604051929450925084916001600160a01b038516915081907fddf252ad1be2c89b69c2b068fc378daa952ba7f163c4a11628f55a4df523b3ef90600090a480156107cb5760008381526003602052604080822054905185926001600160a01b03928316928616917f8c5be1e5ebec7d5bd14f71427d1e84f3dd0314c0f7b2291e5b200ac8c7c3b9259190a4505050565b600061094082611206565b90506000610956836001600160a01b0316610f2d565b915050601881901c60000361096c576001909101905b50919050565b814211156109b5576040517fdd6b219a000000000000000000000000000000000000000000000000000000008152426004820152602481018390526044016104fe565b6000806109c185610f2d565b90925090506001600160a01b0382166109f0576040516338077a2b60e01b8152600481018690526024016104fe565b6109fe828787878588611256565b61079982828888610f55565b7f0d000000000000000000000000000000000000000000000000000000000000006060806000808083610a3b611364565b604080516020808201835260008083528351818152918201909352999a929990985046975030965090945092509050565b610a7733838361138b565b5050565b81421115610abe576040517fdd6b219a000000000000000000000000000000000000000000000000000000008152426004820152602481018390526044016104fe565b6001600160a01b03841660009081526004602052604081208054610af892879287928792909190610aee8361299b565b9190505585611416565b6105d78484600161138b565b60006104bf826105dd565b6000806000610b1d85611081565b919450925090506001600160a01b038316610b4e576040516338077a2b60e01b8152600481018690526024016104fe565b866001600160a01b0316836001600160a01b031614610bac576040517f23295f0e0000000000000000000000000000000000000000000000000000000081526001600160a01b038089166004830152841660248201526044016104fe565b6001600160a01b0386161580610bca57506001600160a01b03861630145b15610bf357604051634726455360e11b81526001600160a01b03871660048201526024016104fe565b336001600160a01b03881614610c7557808015610c2657506000858152600360205260409020546001600160a01b031633145b158015610c5757506001600160a01b038716600090815260026020908152604080832033845290915290205460ff16155b15610c755760405163ea8e4eb560e01b815260040160405180910390fd5b610c88878787601886901c151588611526565b50505050505050565b60606104bf8261158c565b60608167ffffffffffffffff811115610cb757610cb7612643565b604051908082528060200260200182016040528015610cfc57816020015b6040805180820190915260008082526020820152815260200190600190039081610cd55790505b50905060005b82811015610ddd576000848483818110610d1e57610d1e6129b5565b602090810292909201356000818152928390526040909220549192508190506001600160a01b038116158015610d575750600160a01b83105b15610d5f5750815b80858581518110610d7257610d726129b5565b6020026020010151600001906001600160a01b031690816001600160a01b03168152505060b882901c67ffffffffffffffff16858581518110610db757610db76129b5565b602002602001015160200181815250505050508080610dd59061299b565b915050610d02565b5092915050565b60007f01ffc9a7000000000000000000000000000000000000000000000000000000006001600160e01b031983161480610e4757507f80ac58cd000000000000000000000000000000000000000000000000000000006001600160e01b03198316145b806104bf5750506001600160e01b0319167f5b5e139f000000000000000000000000000000000000000000000000000000001490565b60006001600160e01b031982167f5604e2250000000000000000000000000000000000000000000000000000000014806104bf57506001600160e01b031982167fefdb586b000000000000000000000000000000000000000000000000000000001492915050565b6000818152602081905260408120548190600160ff1b808216145b90925090506001600160a01b038216158015610f1f5750600160a01b83105b15610f28578291505b915091565b600081815260208190526040812054819060a081901c6affffffffffffffffffffff16610f00565b601883901c6000610f678560016129cb565b905081601882901c14610fa6576040517fadc1557200000000000000000000000000000000000000000000000000000000815260040160405180910390fd5b6001600160a01b038416610fd957600083815260208190526040902060a082901b6001600160a01b038816179055611038565b6000838152602081815260408083206001600160a01b038a811660a087901b17600160ff1b17909155600390925290912080547fffffffffffffffffffffffff0000000000000000000000000000000000000000169186169190911790555b82846001600160a01b0316876001600160a01b03167f8c5be1e5ebec7d5bd14f71427d1e84f3dd0314c0f7b2291e5b200ac8c7c3b92560405160405180910390a4505050505050565b6000818152602081905260409020546affffffffffffffffffffff60a082901c16600160ff1b808316146001600160a01b0383161580156110c55750600160a01b84105b156110ce578392505b9193909250565b6001600160a01b038316600090815260016020819052604090912080549091019055801561111e576001600160a01b038416600090815260016020526040902080546000190190555b6000828152602081905260408082204360b81b6001600160a01b0380881691821790925591518593918816917fddf252ad1be2c89b69c2b068fc378daa952ba7f163c4a11628f55a4df523b3ef91a450505050565b6000467f000000000000000000000000000000000000000000000000000000000000000081146111ac576111a781306118cf565b6111ce565b7f00000000000000000000000000000000000000000000000000000000000000005b91505090565b6000818152602081905260409020546001600160a01b0381161580156111fd5750600160a01b82105b15610827575090565b60006001600160a01b03821661123a57604051634726455360e11b81526001600160a01b03831660048201526024016104fe565b506001600160a01b031660009081526001602052604090205490565b60006112606107a1565b604080517f49ecf333e5b8c95c40fdafc95c1ad136e8914a8fb55e9dc8bb01eaa83a2df9ad60208201526001600160a01b03891691810191909152606081018790526080810185905260a0810186905260c0016040516020818303038152906040528051906020012060405160200161130b9291907f190100000000000000000000000000000000000000000000000000000000000081526002810192909252602282015260420190565b60405160208183030381529060405280519060200120905061132e87828461196e565b610c88576040517f8baa579f00000000000000000000000000000000000000000000000000000000815260040160405180910390fd5b60606107ab604080518082019091526008815267426c6f636b69657360c01b602082015290565b6001600160a01b0383811660008181526002602090815260408083209487168084529482529182902080547fffffffffffffffffffffffffffffffffffffffffffffffffffffffffffffff001686151590811790915591519182527f17307eab39ab6107e8899845ad3d59bd9653f200f220920489ca2b5937696c31910160405180910390a3505050565b60006114206107a1565b604080517f045d890c79ffc118c4a2872a8cf3fee78fbf03c72a35e7fae867680021f3e1a460208201526001600160a01b03808a169282019290925290871660608201526080810185905260a0810186905260c001604051602081830303815290604052805190602001206040516020016114cd9291907f190100000000000000000000000000000000000000000000000000000000000081526002810192909252602282015260420190565b6040516020818303038152906040528051906020012090506114f086828461196e565b610799576040517f8baa579f00000000000000000000000000000000000000000000000000000000815260040160405180910390fd5b611532858585856110d5565b6001600160a01b0384163b156115855761154f3386868685611ade565b611585576040517f4e472e5e00000000000000000000000000000000000000000000000000000000815260040160405180910390fd5b5050505050565b6060600060405180610840016040528061081f8152602001612b2b61081f913990506115ba81604885611b8e565b6115f28160046115cc604860166129cb565b6115d691906129de565b6115e19060096129cb565b6115ec9060296129cb565b85611b8e565b600061160561160085611c68565b611c9c565b905061161382826001611de4565b61161f82826000611de4565b61162b82826002611de4565b60005b60088110156118c6576000600a638000000061169a858051602082018051600390810b8452604084018051820b9092526060909301805180850b9283905260139290921d90911882840b600b1b90921891821891830b60081d919091189182900b905263ffffffff1690565b6116a59060176129f1565b6116af9190612a26565b6116b99190612a26565b90506000600a638000000061171e868051602082018051600390810b8452604084018051820b9092526060909301805180850b9283905260139290921d90911882840b600b1b90921891821891830b60081d919091189182900b905263ffffffff1690565b6117299060176129f1565b6117339190612a26565b61173d9190612a26565b90506000600a63800000006117a2878051602082018051600390810b8452604084018051820b9092526060909301805180850b9283905260139290921d90911882840b600b1b90921891821891830b60081d919091189182900b905263ffffffff1690565b6117ad9060176129f1565b6117b79190612a26565b6117c19190612a26565b90506000600a6380000000611826888051602082018051600390810b8452604084018051820b9092526060909301805180850b9283905260139290921d90911882840b600b1b90921891821891830b60081d919091189182900b905263ffffffff1690565b6118319060176129f1565b61183b9190612a26565b6118459190612a26565b90506118548760008787611f80565b6118618760018786611f80565b61186e8760028785611f80565b61187b8760038784611f80565b6118888760048784611f80565b6118958760058785611f80565b6118a28760068786611f80565b6118af8760078787611f80565b5050505080806118be9061299b565b91505061162e565b50909392505050565b60007f8cad95687ba82c2ce50e74f7b754645e5117c3a5bec8151c0726d5857980a866611917604080518082019091526008815267426c6f636b69657360c01b602082015290565b805160209182012060405161195093928791879101938452602084019290925260408301526001600160a01b0316606082015260800190565b60405160208183030381529060405280519060200120905092915050565b600080600061197d858561214d565b9092509050600081600481111561199657611996612a3a565b1480156119b45750856001600160a01b0316826001600160a01b0316145b156119c45760019250505061061a565b600080876001600160a01b0316631626ba7e60e01b88886040516024016119ec929190612a50565b60408051601f198184030181529181526020820180517bffffffffffffffffffffffffffffffffffffffffffffffffffffffff166001600160e01b0319909416939093179092529051611a3f9190612a71565b600060405180830381855afa9150503d8060008114611a7a576040519150601f19603f3d011682016040523d82523d6000602084013e611a7f565b606091505b5091509150818015611a92575080516020145b8015611ad2575080517f1626ba7e0000000000000000000000000000000000000000000000000000000090611ad09083016020908101908401612a8d565b145b98975050505050505050565b600080846001600160a01b031663150b7a02888887876040518563ffffffff1660e01b8152600401611b139493929190612aa6565b6020604051808303816000875af1158015611b32573d6000803e3d6000fd5b505050506040513d601f19601f82011682018060405250810190611b569190612ae2565b6001600160e01b0319167f150b7a02000000000000000000000000000000000000000000000000000000001491505095945050505050565b80156107cb576040805180820190915260108082527f30313233343536373839616263646566000000000000000000000000000000006020830152611bd39083612aff565b81518110611be357611be36129b5565b01602001517fff00000000000000000000000000000000000000000000000000000000000000168383611c1581612b13565b945081518110611c2757611c276129b5565b60200101907effffffffffffffffffffffffffffffffffffffffffffffffffffffffffffff1916908160001a905350611c61601082612a26565b9050611b8e565b606060006040518060600160405280602a815260200161334a602a913990506104bf816029856001600160a01b0316611b8e565b6040805160808101825260008082526020820181905291810182905260608101829052905b825181101561096c57600381166000819003611d0d57838281518110611ce957611ce96129b5565b602091010151835160f89190911c600382810b60051b9290920301900b8352611ddb565b8060ff16600103611d5357838281518110611d2a57611d2a6129b5565b60209101810151908401805160f89290921c600383810b60051b939093030190910b9052611ddb565b8060ff16600203611d9957838281518110611d7057611d706129b5565b60209101015160408401805160f89290921c600383810b60051b939093030190910b9052611ddb565b8060ff16600303611ddb57838281518110611db657611db66129b5565b60209101015160608401805160f89290921c600383810b60051b939093030190910b90525b50600101611cc1565b6000806000611df285612192565b919450925090506000600480611e0a604860166129cb565b611e1491906129de565b611e1f9060096129cb565b611e2a9060296129cb565b611e359060176129cb565b611e409060b86129cb565b611e4a91906129de565b90508460ff16600103611eb857600480611e66604860166129cb565b611e7091906129de565b611e7b9060096129cb565b611e869060296129cb565b611e919060176129cb565b611e9c9060b86129cb565b611ea691906129de565b611eb19060366129cb565b9050611f37565b8460ff16600203611f3757600480611ed2604860166129cb565b611edc91906129de565b611ee79060096129cb565b611ef29060296129cb565b611efd9060176129cb565b611f089060b86129cb565b611f1291906129de565b611f1d9060366129cb565b611f289060126129cb565b611f349061033b6129cb565b90505b611f5087611f468360006129cb565b8661ffff1661238f565b611f6887611f5f8360046129cb565b8560ff1661238f565b610c8887611f778360096129cb565b8460ff1661238f565b60008160ff16600003611f9357506105d7565b8160ff1660010361200a57600480611fad604860166129cb565b611fb791906129de565b611fc29060096129cb565b611fcd9060296129cb565b611fd89060176129cb565b611fe39060b86129cb565b611fed91906129de565b611ff89060366129cb565b6120039060126129cb565b9050612094565b8160ff1660020361209457600480612024604860166129cb565b61202e91906129de565b6120399060096129cb565b6120449060296129cb565b61204f9060176129cb565b61205a9060b86129cb565b61206491906129de565b61206f9060366129cb565b61207a9060126129cb565b6120869061033b6129cb565b6120919060126129cb565b90505b6000846120a28560086129f1565b6120ac91906129cb565b6120b790600c6129f1565b6120c28560056129f1565b6120cc90846129cb565b6120d691906129cb565b6120e19060086129cb565b90507f3100000000000000000000000000000000000000000000000000000000000000868281518110612116576121166129b5565b60200101907effffffffffffffffffffffffffffffffffffffffffffffffffffffffffffff1916908160001a905350505050505050565b60008082516041036121835760208301516040840151606085015160001a6121778782858561240c565b9450945050505061218b565b506000905060025b9250929050565b600080600063800000006121f6858051602082018051600390810b8452604084018051820b9092526060909301805180850b9283905260139290921d90911882840b600b1b90921891821891830b60081d919091189182900b905263ffffffff1690565b610168028161220757612207612a10565b0492506380000000612269858051602082018051600390810b8452604084018051820b9092526060909301805180850b9283905260139290921d90911882840b600b1b90921891821891830b60081d919091189182900b905263ffffffff1690565b603c028161227957612279612a10565b04602801915063800000006122de858051602082018051600390810b8452604084018051820b9092526060909301805180850b9283905260139290921d90911882840b600b1b90921891821891830b60081d919091189182900b905263ffffffff1690565b855160208701805160408901805160608b018051600381810b808f52601390811d90921888820b600b90811b90991890811890820b600890811d9190911880830b9889905288841d90981896820b808a1b1896871896820b811d9690961880820b958690529185901d90941892840b9687901b90961891821891830b90931d189081900b90915263ffffffff91821692821691160101016019028161238557612385612a10565b0490509193909250565b80156107cb576123a0600a82612aff565b6123ab9060306129cb565b60f81b83836123b981612b13565b9450815181106123cb576123cb6129b5565b60200101907effffffffffffffffffffffffffffffffffffffffffffffffffffffffffffff1916908160001a905350612405600a82612a26565b905061238f565b6000807f7fffffffffffffffffffffffffffffff5d576e7357a4501ddfe92f46681b20a083111561244357506000905060036124f0565b8460ff16601b1415801561245b57508460ff16601c14155b1561246c57506000905060046124f0565b6040805160008082526020820180845289905260ff881692820192909252606081018690526080810185905260019060a0016020604051602081039080840390855afa1580156124c0573d6000803e3d6000fd5b5050604051601f1901519150506001600160a01b0381166124e9576000600192509250506124f0565b9150600090505b94509492505050565b6001600160e01b03198116811461250f57600080fd5b50565b60006020828403121561252457600080fd5b813561061a816124f9565b60005b8381101561254a578181015183820152602001612532565b50506000910152565b6000815180845261256b81602086016020860161252f565b601f01601f19169290920160200192915050565b60208152600061061a6020830184612553565b6000602082840312156125a457600080fd5b5035919050565b80356001600160a01b038116811461082757600080fd5b600080604083850312156125d557600080fd5b6125de836125ab565b946020939093013593505050565b60008060006060848603121561260157600080fd5b61260a846125ab565b9250612618602085016125ab565b9150604084013590509250925092565b60006020828403121561263a57600080fd5b61061a826125ab565b634e487b7160e01b600052604160045260246000fd5b600082601f83011261266a57600080fd5b813567ffffffffffffffff8082111561268557612685612643565b604051601f8301601f19908116603f011681019082821181831017156126ad576126ad612643565b816040528381528660208588010111156126c657600080fd5b836020870160208301376000602085830101528094505050505092915050565b600080600080608085870312156126fc57600080fd5b612705856125ab565b93506020850135925060408501359150606085013567ffffffffffffffff81111561272f57600080fd5b61273b87828801612659565b91505092959194509250565b7fff00000000000000000000000000000000000000000000000000000000000000881681526000602060e08184015261278360e084018a612553565b8381036040850152612795818a612553565b606085018990526001600160a01b038816608086015260a0850187905284810360c0860152855180825283870192509083019060005b818110156127e7578351835292840192918401916001016127cb565b50909c9b505050505050505050505050565b6000806040838503121561280c57600080fd5b612815836125ab565b91506020830135801515811461282a57600080fd5b809150509250929050565b6000806000806080858703121561284b57600080fd5b612854856125ab565b9350612862602086016125ab565b925060408501359150606085013567ffffffffffffffff81111561272f57600080fd5b6000806040838503121561289857600080fd5b6128a1836125ab565b91506128af602084016125ab565b90509250929050565b600080602083850312156128cb57600080fd5b823567ffffffffffffffff808211156128e357600080fd5b818501915085601f8301126128f757600080fd5b81358181111561290657600080fd5b8660208260051b850101111561291b57600080fd5b60209290920196919550909350505050565b602080825282518282018190526000919060409081850190868401855b8281101561297857815180516001600160a01b0316855286015186850152928401929085019060010161294a565b5091979650505050505050565b634e487b7160e01b600052601160045260246000fd5b600060001982036129ae576129ae612985565b5060010190565b634e487b7160e01b600052603260045260246000fd5b808201808211156104bf576104bf612985565b818103818111156104bf576104bf612985565b6000816000190483118215151615612a0b57612a0b612985565b500290565b634e487b7160e01b600052601260045260246000fd5b600082612a3557612a35612a10565b500490565b634e487b7160e01b600052602160045260246000fd5b828152604060208201526000612a696040830184612553565b949350505050565b60008251612a8381846020870161252f565b9190910192915050565b600060208284031215612a9f57600080fd5b5051919050565b60006001600160a01b03808716835280861660208401525083604083015260806060830152612ad86080830184612553565b9695505050505050565b600060208284031215612af457600080fd5b815161061a816124f9565b600082612b0e57612b0e612a10565b500690565b600081612b2257612b22612985565b50600019019056fe646174613a6170706c69636174696f6e2f6a736f6e2c7b226e616d65223a22307830303030303030303030303030303030303030303030303030303030303030303030303030303030222c226465736372697074696f6e223a22426c6f636b7925323030783030303030303030303030303030303030303030303030303030303030303030303030303030303025323067656e6572617465642532306f6e2d636861696e222c22696d616765223a22646174613a696d6167652f7376672b786d6c2c3c737667253230786d6c6e733d27687474703a2f2f7777772e77332e6f72672f323030302f7376672725323073686170652d72656e646572696e673d27637269737045646765732725323077696474683d27353132272532306865696768743d27353132273e3c672532307472616e73666f726d3d277363616c6528363429273e3c7061746825323066696c6c3d2768736c283030302c303030252c303030252927253230643d274d302c3068387638682d387a272f3e3c7061746825323066696c6c3d2768736c283030302c303030252c303030252927253230643d274d302c3068317630682d317a6d312c3068317630682d317a6d312c3068317630682d317a6d312c3068317630682d317a6d312c3068317630682d317a6d312c3068317630682d317a6d312c3068317630682d317a6d312c3068317630682d317a6d2d382c316d312c3068317630682d317a6d312c3068317630682d317a6d312c3068317630682d317a6d312c3068317630682d317a6d312c3068317630682d317a6d312c3068317630682d317a6d312c3068317630682d317a6d312c3068317630682d317a6d2d382c316d312c3068317630682d317a6d312c3068317630682d317a6d312c3068317630682d317a6d312c3068317630682d317a6d312c3068317630682d317a6d312c3068317630682d317a6d312c3068317630682d317a6d312c3068317630682d317a6d2d382c316d312c3068317630682d317a6d312c3068317630682d317a6d312c3068317630682d317a6d312c3068317630682d317a6d312c3068317630682d317a6d312c3068317630682d317a6d312c3068317630682d317a6d312c3068317630682d317a6d2d382c316d312c3068317630682d317a6d312c3068317630682d317a6d312c3068317630682d317a6d312c3068317630682d317a6d312c3068317630682d317a6d312c3068317630682d317a6d312c3068317630682d317a6d312c3068317630682d317a6d2d382c316d312c3068317630682d317a6d312c3068317630682d317a6d312c3068317630682d317a6d312c3068317630682d317a6d312c3068317630682d317a6d312c3068317630682d317a6d312c3068317630682d317a6d312c3068317630682d317a6d2d382c316d312c3068317630682d317a6d312c3068317630682d317a6d312c3068317630682d317a6d312c3068317630682d317a6d312c3068317630682d317a6d312c3068317630682d317a6d312c3068317630682d317a6d312c3068317630682d317a6d2d382c316d312c3068317630682d317a6d312c3068317630682d317a6d312c3068317630682d317a6d312c3068317630682d317a6d312c3068317630682d317a6d312c3068317630682d317a6d312c3068317630682d317a6d312c3068317630682d317a272f3e3c7061746825323066696c6c3d2768736c283030302c303030252c303030252927253230643d274d302c3068317630682d317a6d312c3068317630682d317a6d312c3068317630682d317a6d312c3068317630682d317a6d312c3068317630682d317a6d312c3068317630682d317a6d312c3068317630682d317a6d312c3068317630682d317a6d2d382c316d312c3068317630682d317a6d312c3068317630682d317a6d312c3068317630682d317a6d312c3068317630682d317a6d312c3068317630682d317a6d312c3068317630682d317a6d312c3068317630682d317a6d312c3068317630682d317a6d2d382c316d312c3068317630682d317a6d312c3068317630682d317a6d312c3068317630682d317a6d312c3068317630682d317a6d312c3068317630682d317a6d312c3068317630682d317a6d312c3068317630682d317a6d312c3068317630682d317a6d2d382c316d312c3068317630682d317a6d312c3068317630682d317a6d312c3068317630682d317a6d312c3068317630682d317a6d312c3068317630682d317a6d312c3068317630682d317a6d312c3068317630682d317a6d312c3068317630682d317a6d2d382c316d312c3068317630682d317a6d312c3068317630682d317a6d312c3068317630682d317a6d312c3068317630682d317a6d312c3068317630682d317a6d312c3068317630682d317a6d312c3068317630682d317a6d312c3068317630682d317a6d2d382c316d312c3068317630682d317a6d312c3068317630682d317a6d312c3068317630682d317a6d312c3068317630682d317a6d312c3068317630682d317a6d312c3068317630682d317a6d312c3068317630682d317a6d312c3068317630682d317a6d2d382c316d312c3068317630682d317a6d312c3068317630682d317a6d312c3068317630682d317a6d312c3068317630682d317a6d312c3068317630682d317a6d312c3068317630682d317a6d312c3068317630682d317a6d312c3068317630682d317a6d2d382c316d312c3068317630682d317a6d312c3068317630682d317a6d312c3068317630682d317a6d312c3068317630682d317a6d312c3068317630682d317a6d312c3068317630682d317a6d312c3068317630682d317a6d312c3068317630682d317a272f3e3c2f673e3c2f7376673e227d307830303030303030303030303030303030303030303030303030303030303030303030303030303030a264697066735822122021204815570208df081217dacb0e74493549c9aa38f1f85fecc69bf0f82244ea64736f6c63430008100033",
  "devdoc": {
    "kind": "dev",
    "methods": {
      "approve(address,uint256)": {
        "params": {
          "operator": "The address receiving the approval.",
          "tokenId": "The id of the token."
        }
      },
      "balanceOf(address)": {
        "params": {
          "owner": "The address to look for."
        },
        "returns": {
          "balance": "The number of tokens owned by the address."
        }
      },
      "eip712Domain()": {
        "returns": {
          "chainId": "EIP-712 chainId",
          "extensions": "A list of EIP numbers that specify additional fields in the domain. The method to obtain the value for each of these additional fields and any conditions for inclusion are expected to be specified in the respective EIP. The value of fields does not affect their inclusion.",
          "fields": "A bit map where bit i is set to 1 if and only if domain field i is present (0  i  4). Bits are read from least significant to most significant, and fields are indexed in the order that is specified by EIP-712, identical to the order in which they are listed in the function type.",
          "name": "EIP-712 name",
          "salt": "EIP-712 salt",
          "verifyingContract": "EIP-712 name verifyingContract",
          "version": "EIP-712 version"
        }
      },
      "emitSelfTransferEvent(uint256)": {
        "params": {
          "id": "tokenID to emit the event for."
        }
      },
      "getApproved(uint256)": {
        "params": {
          "tokenId": "The id of the token."
        },
        "returns": {
          "operator": "The address of the operator."
        }
      },
      "isApprovedForAll(address,address)": {
        "params": {
          "operator": "The address of the operator.",
          "owner": "The address of the owner."
        },
        "returns": {
          "isOperator": "The status of the approval."
        }
      },
      "nonces(address)": {
        "params": {
          "account": "account to query"
        },
        "returns": {
          "nonce": "account's nonce"
        }
      },
      "nonces(uint256)": {
        "params": {
          "tokenId": "token id"
        },
        "returns": {
          "nonce": "token nonce"
        }
      },
      "ownerAndLastTransferBlockNumberList(uint256[])": {
        "params": {
          "ids": "The list of token ids to check."
        },
        "returns": {
          "ownersData": "The list of (owner, lastTransferBlockNumber) for each ids given as input."
        }
      },
      "ownerAndLastTransferBlockNumberOf(uint256)": {
        "params": {
          "id": "The id of the token."
        },
        "returns": {
          "blockNumber": "The blocknumber at which the last transfer of that id happened.",
          "owner": "The address of the token owner."
        }
      },
      "ownerOf(uint256)": {
        "params": {
          "tokenId": "The id of the token."
        },
        "returns": {
          "owner": "The address of the token owner."
        }
      },
      "permit(address,uint256,uint256,bytes)": {
        "details": "Anyone can call this to approve `spender`, even a third-party",
        "params": {
          "deadline": "the deadline for the permit to be used",
          "signature": "permit",
          "spender": "the actor to approve",
          "tokenId": "the token id"
        }
      },
      "permitForAll(address,address,uint256,bytes)": {
        "details": "Anyone can call this to approve `spender`, even a third-party",
        "params": {
          "deadline": "the deadline for the permit to be used",
          "signature": "permit",
          "signer": "the one giving permission",
          "spender": "the actor to approve"
        }
      },
      "safeTransferFrom(address,address,uint256)": {
        "params": {
          "from": "The send of the token.",
          "to": "The recipient of the token.",
          "tokenId": "The id of the token."
        }
      },
      "safeTransferFrom(address,address,uint256,bytes)": {
        "params": {
          "data": "Additional data.",
          "from": "The sender of the token.",
          "to": "The recipient of the token.",
          "tokenId": "The id of the token."
        }
      },
      "setApprovalForAll(address,bool)": {
        "params": {
          "approved": "The determination of the approval.",
          "operator": "The address receiving the approval."
        }
      },
      "supportsInterface(bytes4)": {
        "details": "Interface identification is specified in ERC-165. This function  uses less than 30,000 gas.",
        "params": {
          "interfaceID": "The interface identifier, as specified in ERC-165"
        },
        "returns": {
          "_0": "`true` if the contract implements `interfaceID` and  `interfaceID` is not 0xffffffff, `false` otherwise"
        }
      },
      "tokenNonces(uint256)": {
        "params": {
          "tokenId": "token id"
        },
        "returns": {
          "nonce": "token nonce"
        }
      },
      "tokenURI(uint256)": {
        "details": "Throws if `_tokenId` is not a valid NFT. URIs are defined in RFC  3986. The URI may point to a JSON file that conforms to the \"ERC721  Metadata JSON Schema\"."
      },
      "transferFrom(address,address,uint256)": {
        "params": {
          "from": "The sender of the token.",
          "to": "The recipient of the token.",
          "tokenId": "The id of the token."
        }
      }
    },
    "title": "Blockies on-chain",
    "version": 1
  },
  "userdoc": {
    "kind": "user",
    "methods": {
      "DOMAIN_SEPARATOR()": {
        "notice": "EIP-712 Domain separator hash"
      },
      "approve(address,uint256)": {
        "notice": "Approve an operator to transfer a specific token on the senders behalf."
      },
      "balanceOf(address)": {
        "notice": "Get the number of tokens owned by an address."
      },
      "eip712Domain()": {
        "notice": "The return values of this function MUST describe the domain separator that is used for verification of EIP-712 signatures in the contract. They describe both the form of the EIP712Domain struct (i.e., which of the optional fields and extensions are present) and the value of each field, as follows."
      },
      "emitSelfTransferEvent(uint256)": {
        "notice": "emit Transfer event so that indexer can pick it up.   This can be called by anyone at any time and does not change state   As such it keeps the token's operator-approval state and will re-emit an Approval event to indicate that."
      },
      "getApproved(uint256)": {
        "notice": "Get the approved operator for a specific token."
      },
      "isApprovedForAll(address,address)": {
        "notice": "Check if the sender approved the operator."
      },
      "name()": {
        "notice": "A descriptive name for a collection of NFTs in this contract"
      },
      "nonces(address)": {
        "notice": "Allows to retrieve current nonce for the account"
      },
      "nonces(uint256)": {
        "notice": "Allows to retrieve current nonce for token"
      },
      "ownerAndLastTransferBlockNumberList(uint256[])": {
        "notice": "Get the list of owner of a token and the blockNumber of its last transfer, useful to voting mechanism."
      },
      "ownerAndLastTransferBlockNumberOf(uint256)": {
        "notice": "Get the owner of a token and the blockNumber of the last transfer, useful to voting mechanism."
      },
      "ownerOf(uint256)": {
        "notice": "Get the owner of a token."
      },
      "permit(address,uint256,uint256,bytes)": {
        "notice": "function to be called by anyone to approve `spender` using a Permit signature"
      },
      "permitForAll(address,address,uint256,bytes)": {
        "notice": "function to be called by anyone to approve `spender` using a Permit signature"
      },
      "safeTransferFrom(address,address,uint256)": {
        "notice": "Transfer a token between 2 addresses letting the receiver know of the transfer."
      },
      "safeTransferFrom(address,address,uint256,bytes)": {
        "notice": "Transfer a token between 2 addresses letting the receiver knows of the transfer."
      },
      "setApprovalForAll(address,bool)": {
        "notice": "Set the approval for an operator to manage all the tokens of the sender."
      },
      "supportsInterface(bytes4)": {
        "notice": "Query if a contract implements an interface"
      },
      "symbol()": {
        "notice": "An abbreviated name for NFTs in this contract"
      },
      "tokenNonces(uint256)": {
        "notice": "Allows to retrieve current nonce for token"
      },
      "tokenURI(uint256)": {
        "notice": "A distinct Uniform Resource Identifier (URI) for a given asset."
      },
      "transferFrom(address,address,uint256)": {
        "notice": "Transfer a token between 2 addresses."
      }
    },
    "notice": "Blockies as NFT. Each ethereum address owns its own one. No minting needed. You can even use Permit (EIP-4494) to approve contracts via signatures. Note though that unless you transfer or call `emitSelfTransferEvent` indexer would not know of your token.",
    "version": 1
  },
  "storageLayout": {
    "storage": [
      {
        "astId": 719,
        "contract": "src/Blockies.sol:Blockies",
        "label": "_owners",
        "offset": 0,
        "slot": "0",
        "type": "t_mapping(t_uint256,t_uint256)"
      },
      {
        "astId": 723,
        "contract": "src/Blockies.sol:Blockies",
        "label": "_balances",
        "offset": 0,
        "slot": "1",
        "type": "t_mapping(t_address,t_uint256)"
      },
      {
        "astId": 729,
        "contract": "src/Blockies.sol:Blockies",
        "label": "_operatorsForAll",
        "offset": 0,
        "slot": "2",
        "type": "t_mapping(t_address,t_mapping(t_address,t_bool))"
      },
      {
        "astId": 733,
        "contract": "src/Blockies.sol:Blockies",
        "label": "_operators",
        "offset": 0,
        "slot": "3",
        "type": "t_mapping(t_uint256,t_address)"
      },
      {
        "astId": 271,
        "contract": "src/Blockies.sol:Blockies",
        "label": "_userNonces",
        "offset": 0,
        "slot": "4",
        "type": "t_mapping(t_address,t_uint256)"
      }
    ],
    "types": {
      "t_address": {
        "encoding": "inplace",
        "label": "address",
        "numberOfBytes": "20"
      },
      "t_bool": {
        "encoding": "inplace",
        "label": "bool",
        "numberOfBytes": "1"
      },
      "t_mapping(t_address,t_bool)": {
        "encoding": "mapping",
        "key": "t_address",
        "label": "mapping(address => bool)",
        "numberOfBytes": "32",
        "value": "t_bool"
      },
      "t_mapping(t_address,t_mapping(t_address,t_bool))": {
        "encoding": "mapping",
        "key": "t_address",
        "label": "mapping(address => mapping(address => bool))",
        "numberOfBytes": "32",
        "value": "t_mapping(t_address,t_bool)"
      },
      "t_mapping(t_address,t_uint256)": {
        "encoding": "mapping",
        "key": "t_address",
        "label": "mapping(address => uint256)",
        "numberOfBytes": "32",
        "value": "t_uint256"
      },
      "t_mapping(t_uint256,t_address)": {
        "encoding": "mapping",
        "key": "t_uint256",
        "label": "mapping(uint256 => address)",
        "numberOfBytes": "32",
        "value": "t_address"
      },
      "t_mapping(t_uint256,t_uint256)": {
        "encoding": "mapping",
        "key": "t_uint256",
        "label": "mapping(uint256 => uint256)",
        "numberOfBytes": "32",
        "value": "t_uint256"
      },
      "t_uint256": {
        "encoding": "inplace",
        "label": "uint256",
        "numberOfBytes": "32"
      }
    }
  }
}